{
  "_format": "hh-sol-artifact-1",
  "contractName": "FantasyFootball",
  "sourceName": "contracts/fantasyFootball.sol",
  "abi": [
    {
      "inputs": [
        {
          "internalType": "address",
          "name": "_yodaTokenAddress",
          "type": "address"
        },
        {
          "internalType": "string",
          "name": "_name",
          "type": "string"
        },
        {
          "internalType": "string",
          "name": "_symbol",
          "type": "string"
        },
        {
          "internalType": "uint256",
          "name": "MINT_PRICE",
          "type": "uint256"
        },
        {
          "internalType": "uint256",
          "name": "MAX_SUPPLY",
          "type": "uint256"
        }
      ],
      "stateMutability": "nonpayable",
      "type": "constructor"
    },
    {
      "anonymous": false,
      "inputs": [
        {
          "indexed": true,
          "internalType": "address",
          "name": "owner",
          "type": "address"
        },
        {
          "indexed": true,
          "internalType": "address",
          "name": "spender",
          "type": "address"
        },
        {
          "indexed": true,
          "internalType": "uint256",
          "name": "id",
          "type": "uint256"
        }
      ],
      "name": "Approval",
      "type": "event"
    },
    {
      "anonymous": false,
      "inputs": [
        {
          "indexed": true,
          "internalType": "address",
          "name": "owner",
          "type": "address"
        },
        {
          "indexed": true,
          "internalType": "address",
          "name": "operator",
          "type": "address"
        },
        {
          "indexed": false,
          "internalType": "bool",
          "name": "approved",
          "type": "bool"
        }
      ],
      "name": "ApprovalForAll",
      "type": "event"
    },
    {
      "anonymous": false,
      "inputs": [
        {
          "indexed": true,
          "internalType": "address",
          "name": "from",
          "type": "address"
        },
        {
          "indexed": true,
          "internalType": "address",
          "name": "to",
          "type": "address"
        },
        {
          "indexed": true,
          "internalType": "uint256",
          "name": "id",
          "type": "uint256"
        }
      ],
      "name": "Transfer",
      "type": "event"
    },
    {
      "inputs": [
        {
          "internalType": "address",
          "name": "spender",
          "type": "address"
        },
        {
          "internalType": "uint256",
          "name": "id",
          "type": "uint256"
        }
      ],
      "name": "approve",
      "outputs": [],
      "stateMutability": "nonpayable",
      "type": "function"
    },
    {
      "inputs": [
        {
          "internalType": "address",
          "name": "owner",
          "type": "address"
        }
      ],
      "name": "balanceOf",
      "outputs": [
        {
          "internalType": "uint256",
          "name": "",
          "type": "uint256"
        }
      ],
      "stateMutability": "view",
      "type": "function"
    },
    {
      "inputs": [
        {
          "internalType": "uint256",
          "name": "tokenId",
          "type": "uint256"
        }
      ],
      "name": "buy",
      "outputs": [],
      "stateMutability": "nonpayable",
      "type": "function"
    },
    {
      "inputs": [
        {
          "internalType": "address",
          "name": "",
          "type": "address"
        },
        {
          "internalType": "address",
          "name": "",
          "type": "address"
        }
      ],
      "name": "isApprovedForAll",
      "outputs": [
        {
          "internalType": "bool",
          "name": "",
          "type": "bool"
        }
      ],
      "stateMutability": "view",
      "type": "function"
    },
    {
      "inputs": [],
      "name": "max_supply",
      "outputs": [
        {
          "internalType": "uint256",
          "name": "",
          "type": "uint256"
        }
      ],
      "stateMutability": "view",
      "type": "function"
    },
    {
      "inputs": [
        {
          "internalType": "address",
          "name": "to",
          "type": "address"
        },
        {
          "internalType": "string",
          "name": "_name",
          "type": "string"
        },
        {
          "internalType": "string",
          "name": "_position",
          "type": "string"
        },
        {
          "internalType": "string",
          "name": "_team",
          "type": "string"
        },
        {
          "internalType": "uint256",
          "name": "_fantasyPoints",
          "type": "uint256"
        },
        {
          "internalType": "uint256",
          "name": "_mintPrice",
          "type": "uint256"
        }
      ],
      "name": "mint",
      "outputs": [],
      "stateMutability": "payable",
      "type": "function"
    },
    {
      "inputs": [],
      "name": "mint_price",
      "outputs": [
        {
          "internalType": "uint256",
          "name": "",
          "type": "uint256"
        }
      ],
      "stateMutability": "view",
      "type": "function"
    },
    {
      "inputs": [],
      "name": "name",
      "outputs": [
        {
          "internalType": "string",
          "name": "",
          "type": "string"
        }
      ],
      "stateMutability": "view",
      "type": "function"
    },
    {
      "inputs": [
        {
          "internalType": "uint256",
          "name": "id",
          "type": "uint256"
        }
      ],
      "name": "ownerOf",
      "outputs": [
        {
          "internalType": "address",
          "name": "owner",
          "type": "address"
        }
      ],
      "stateMutability": "view",
      "type": "function"
    },
    {
      "inputs": [
        {
          "internalType": "string",
          "name": "",
          "type": "string"
        }
      ],
      "name": "playerImageMap",
      "outputs": [
        {
          "internalType": "string",
          "name": "",
          "type": "string"
        }
      ],
      "stateMutability": "view",
      "type": "function"
    },
    {
      "inputs": [
        {
          "internalType": "uint256",
          "name": "",
          "type": "uint256"
        }
      ],
      "name": "players",
      "outputs": [
        {
          "internalType": "string",
          "name": "name",
          "type": "string"
        },
        {
          "internalType": "string",
          "name": "position",
          "type": "string"
        },
        {
          "internalType": "string",
          "name": "team",
          "type": "string"
        },
        {
          "internalType": "uint256",
          "name": "fantasyPoints",
          "type": "uint256"
        },
        {
          "internalType": "uint256",
          "name": "mintPrice",
          "type": "uint256"
        }
      ],
      "stateMutability": "view",
      "type": "function"
    },
    {
      "inputs": [
        {
          "internalType": "address",
          "name": "operator",
          "type": "address"
        },
        {
          "internalType": "bool",
          "name": "approved",
          "type": "bool"
        }
      ],
      "name": "setApprovalForAll",
      "outputs": [],
      "stateMutability": "nonpayable",
      "type": "function"
    },
    {
      "inputs": [],
      "name": "symbol",
      "outputs": [
        {
          "internalType": "string",
          "name": "",
          "type": "string"
        }
      ],
      "stateMutability": "view",
      "type": "function"
    },
    {
      "inputs": [
        {
          "internalType": "uint256",
          "name": "tokenId",
          "type": "uint256"
        }
      ],
      "name": "tokenURI",
      "outputs": [
        {
          "internalType": "string",
          "name": "",
          "type": "string"
        }
      ],
      "stateMutability": "view",
      "type": "function"
    },
    {
      "inputs": [
        {
          "internalType": "address",
          "name": "from",
          "type": "address"
        },
        {
          "internalType": "address",
          "name": "to",
          "type": "address"
        },
        {
          "internalType": "uint256",
          "name": "id",
          "type": "uint256"
        }
      ],
      "name": "transferFrom",
      "outputs": [],
      "stateMutability": "nonpayable",
      "type": "function"
    },
    {
      "inputs": [
        {
          "internalType": "uint256",
          "name": "tokenId",
          "type": "uint256"
        },
        {
          "internalType": "uint256",
          "name": "newPoints",
          "type": "uint256"
        }
      ],
      "name": "updateFantasyPoints",
      "outputs": [],
      "stateMutability": "nonpayable",
      "type": "function"
    },
    {
      "inputs": [
        {
          "internalType": "uint256",
          "name": "tokenId",
          "type": "uint256"
        },
        {
          "internalType": "string",
          "name": "newTeam",
          "type": "string"
        }
      ],
      "name": "updateTeam",
      "outputs": [],
      "stateMutability": "nonpayable",
      "type": "function"
    },
    {
      "inputs": [],
      "name": "yodaToken",
      "outputs": [
        {
          "internalType": "contract IERC20",
          "name": "",
          "type": "address"
        }
      ],
      "stateMutability": "view",
      "type": "function"
    }
  ],
  "bytecode": "0x60806040523480156200001157600080fd5b50604051620046743803806200467483398181016040528101906200003791906200051f565b846000806101000a81548173ffffffffffffffffffffffffffffffffffffffff021916908373ffffffffffffffffffffffffffffffffffffffff1602179055506040518060a00160405280606c815260200162004314606c91396007604051620000a19062000640565b90815260200160405180910390209081620000bd919062000898565b506040518060a00160405280606c815260200162004608606c91396007604051620000e890620009cf565b9081526020016040518091039020908162000104919062000898565b506040518060a00160405280606c815260200162004380606c913960076040516200012f9062000a36565b908152602001604051809103902090816200014b919062000898565b506040518060a00160405280606c8152602001620044c4606c91396007604051620001769062000a9d565b9081526020016040518091039020908162000192919062000898565b506040518060a00160405280606c815260200162004530606c91396007604051620001bd9062000b04565b90815260200160405180910390209081620001d9919062000898565b506040518060a00160405280606c815260200162004458606c91396007604051620002049062000b6b565b9081526020016040518091039020908162000220919062000898565b506040518060a00160405280606c81526020016200459c606c913960076040516200024b9062000bd2565b9081526020016040518091039020908162000267919062000898565b506040518060a00160405280606c8152602001620043ec606c91396007604051620002929062000c39565b90815260200160405180910390209081620002ae919062000898565b508360019081620002c0919062000898565b508260029081620002d2919062000898565b508160038190555080600481905550505050505062000c50565b6000604051905090565b600080fd5b600080fd5b600073ffffffffffffffffffffffffffffffffffffffff82169050919050565b60006200032d8262000300565b9050919050565b6200033f8162000320565b81146200034b57600080fd5b50565b6000815190506200035f8162000334565b92915050565b600080fd5b600080fd5b6000601f19601f8301169050919050565b7f4e487b7100000000000000000000000000000000000000000000000000000000600052604160045260246000fd5b620003ba826200036f565b810181811067ffffffffffffffff82111715620003dc57620003db62000380565b5b80604052505050565b6000620003f1620002ec565b9050620003ff8282620003af565b919050565b600067ffffffffffffffff82111562000422576200042162000380565b5b6200042d826200036f565b9050602081019050919050565b60005b838110156200045a5780820151818401526020810190506200043d565b60008484015250505050565b60006200047d620004778462000404565b620003e5565b9050828152602081018484840111156200049c576200049b6200036a565b5b620004a98482856200043a565b509392505050565b600082601f830112620004c957620004c862000365565b5b8151620004db84826020860162000466565b91505092915050565b6000819050919050565b620004f981620004e4565b81146200050557600080fd5b50565b6000815190506200051981620004ee565b92915050565b600080600080600060a086880312156200053e576200053d620002f6565b5b60006200054e888289016200034e565b955050602086015167ffffffffffffffff811115620005725762000571620002fb565b5b6200058088828901620004b1565b945050604086015167ffffffffffffffff811115620005a457620005a3620002fb565b5b620005b288828901620004b1565b9350506060620005c58882890162000508565b9250506080620005d88882890162000508565b9150509295509295909350565b600081905092915050565b7f4a6f736820416c6c656e00000000000000000000000000000000000000000000600082015250565b600062000628600a83620005e5565b91506200063582620005f0565b600a82019050919050565b60006200064d8262000619565b9150819050919050565b600081519050919050565b7f4e487b7100000000000000000000000000000000000000000000000000000000600052602260045260246000fd5b60006002820490506001821680620006aa57607f821691505b602082108103620006c057620006bf62000662565b5b50919050565b60008190508160005260206000209050919050565b60006020601f8301049050919050565b600082821b905092915050565b6000600883026200072a7fffffffffffffffffffffffffffffffffffffffffffffffffffffffffffffffff82620006eb565b620007368683620006eb565b95508019841693508086168417925050509392505050565b6000819050919050565b600062000779620007736200076d84620004e4565b6200074e565b620004e4565b9050919050565b6000819050919050565b620007958362000758565b620007ad620007a48262000780565b848454620006f8565b825550505050565b600090565b620007c4620007b5565b620007d18184846200078a565b505050565b5b81811015620007f957620007ed600082620007ba565b600181019050620007d7565b5050565b601f82111562000848576200081281620006c6565b6200081d84620006db565b810160208510156200082d578190505b620008456200083c85620006db565b830182620007d6565b50505b505050565b600082821c905092915050565b60006200086d600019846008026200084d565b1980831691505092915050565b60006200088883836200085a565b9150826002028217905092915050565b620008a38262000657565b67ffffffffffffffff811115620008bf57620008be62000380565b5b620008cb825462000691565b620008d8828285620007fd565b600060209050601f831160018114620009105760008415620008fb578287015190505b6200090785826200087a565b86555062000977565b601f1984166200092086620006c6565b60005b828110156200094a5784890151825560018201915060208501945060208101905062000923565b868310156200096a578489015162000966601f8916826200085a565b8355505b6001600288020188555050505b505050505050565b7f5061747269636b204d61686f6d65730000000000000000000000000000000000600082015250565b6000620009b7600f83620005e5565b9150620009c4826200097f565b600f82019050919050565b6000620009dc82620009a8565b9150819050919050565b7f4a757374696e204a6566666572736f6e00000000000000000000000000000000600082015250565b600062000a1e601083620005e5565b915062000a2b82620009e6565b601082019050919050565b600062000a438262000a0f565b9150819050919050565b7f4d616c696b204e61626572730000000000000000000000000000000000000000600082015250565b600062000a85600c83620005e5565b915062000a928262000a4d565b600c82019050919050565b600062000aaa8262000a76565b9150819050919050565b7f53617175616e204261726b6c6579000000000000000000000000000000000000600082015250565b600062000aec600e83620005e5565b915062000af98262000ab4565b600e82019050919050565b600062000b118262000add565b9150819050919050565b7f4465727269636b2048656e727900000000000000000000000000000000000000600082015250565b600062000b53600d83620005e5565b915062000b608262000b1b565b600d82019050919050565b600062000b788262000b44565b9150819050919050565b7f42726f636b20426f776572730000000000000000000000000000000000000000600082015250565b600062000bba600c83620005e5565b915062000bc78262000b82565b600c82019050919050565b600062000bdf8262000bab565b9150819050919050565b7f53616d204c61506f727461000000000000000000000000000000000000000000600082015250565b600062000c21600b83620005e5565b915062000c2e8262000be9565b600b82019050919050565b600062000c468262000c12565b9150819050919050565b6136b48062000c606000396000f3fe6080604052600436106101095760003560e01c806395d89b4111610095578063cdc6453811610064578063cdc645381461035a578063d96a094a14610385578063e985e9c5146103ae578063ea7c03c4146103eb578063f71d96cb1461042857610109565b806395d89b41146102ad578063a22cb465146102d8578063c74e07ac14610301578063c87b56dd1461031d57610109565b806323b872dd116100dc57806323b872dd146101b65780636352211e146101df57806370a082311461021c5780638a333b5014610259578063920d9f2f1461028457610109565b806306fdde031461010e578063095ea7b3146101395780631a4231a41461016257806320cb51091461018d575b600080fd5b34801561011a57600080fd5b50610123610469565b60405161013091906120a7565b60405180910390f35b34801561014557600080fd5b50610160600480360381019061015b9190612171565b6104f7565b005b34801561016e57600080fd5b506101776106e0565b60405161018491906121c0565b60405180910390f35b34801561019957600080fd5b506101b460048036038101906101af9190612310565b6106e6565b005b3480156101c257600080fd5b506101dd60048036038101906101d8919061236c565b61070e565b005b3480156101eb57600080fd5b50610206600480360381019061020191906123bf565b6109fa565b60405161021391906123fb565b60405180910390f35b34801561022857600080fd5b50610243600480360381019061023e9190612416565b610aa6565b60405161025091906121c0565b60405180910390f35b34801561026557600080fd5b5061026e610b5d565b60405161027b91906121c0565b60405180910390f35b34801561029057600080fd5b506102ab60048036038101906102a69190612443565b610b63565b005b3480156102b957600080fd5b506102c2610b82565b6040516102cf91906120a7565b60405180910390f35b3480156102e457600080fd5b506102ff60048036038101906102fa91906124bb565b610c10565b005b61031b600480360381019061031691906124fb565b610d0d565b005b34801561032957600080fd5b50610344600480360381019061033f91906123bf565b610e7a565b60405161035191906120a7565b60405180910390f35b34801561036657600080fd5b5061036f611235565b60405161037c919061263b565b60405180910390f35b34801561039157600080fd5b506103ac60048036038101906103a791906123bf565b611259565b005b3480156103ba57600080fd5b506103d560048036038101906103d09190612656565b6113dd565b6040516103e291906126a5565b60405180910390f35b3480156103f757600080fd5b50610412600480360381019061040d91906126c0565b61140c565b60405161041f91906120a7565b60405180910390f35b34801561043457600080fd5b5061044f600480360381019061044a91906123bf565b6114c2565b604051610460959493929190612709565b60405180910390f35b60018054610476906127a0565b80601f01602080910402602001604051908101604052809291908181526020018280546104a2906127a0565b80156104ef5780601f106104c4576101008083540402835291602001916104ef565b820191906000526020600020905b8154815290600101906020018083116104d257829003601f168201915b505050505081565b60006008600083815260200190815260200160002060009054906101000a900473ffffffffffffffffffffffffffffffffffffffff1690508073ffffffffffffffffffffffffffffffffffffffff163373ffffffffffffffffffffffffffffffffffffffff1614806105ef5750600c60008273ffffffffffffffffffffffffffffffffffffffff1673ffffffffffffffffffffffffffffffffffffffff16815260200190815260200160002060003373ffffffffffffffffffffffffffffffffffffffff1673ffffffffffffffffffffffffffffffffffffffff16815260200190815260200160002060009054906101000a900460ff165b61062e576040517f08c379a00000000000000000000000000000000000000000000000000000000081526004016106259061281d565b60405180910390fd5b82600b600084815260200190815260200160002060006101000a81548173ffffffffffffffffffffffffffffffffffffffff021916908373ffffffffffffffffffffffffffffffffffffffff160217905550818373ffffffffffffffffffffffffffffffffffffffff168273ffffffffffffffffffffffffffffffffffffffff167f8c5be1e5ebec7d5bd14f71427d1e84f3dd0314c0f7b2291e5b200ac8c7c3b92560405160405180910390a4505050565b60035481565b8060066000848152602001908152602001600020600201908161070991906129df565b505050565b6008600082815260200190815260200160002060009054906101000a900473ffffffffffffffffffffffffffffffffffffffff1673ffffffffffffffffffffffffffffffffffffffff168373ffffffffffffffffffffffffffffffffffffffff16146107af576040517f08c379a00000000000000000000000000000000000000000000000000000000081526004016107a690612afd565b60405180910390fd5b600073ffffffffffffffffffffffffffffffffffffffff168273ffffffffffffffffffffffffffffffffffffffff160361081e576040517f08c379a000000000000000000000000000000000000000000000000000000000815260040161081590612b69565b60405180910390fd5b610829833383611690565b610868576040517f08c379a000000000000000000000000000000000000000000000000000000000815260040161085f9061281d565b60405180910390fd5b600a60008473ffffffffffffffffffffffffffffffffffffffff1673ffffffffffffffffffffffffffffffffffffffff16815260200190815260200160002060008154809291906108b890612bb8565b9190505550600a60008373ffffffffffffffffffffffffffffffffffffffff1673ffffffffffffffffffffffffffffffffffffffff168152602001908152602001600020600081548092919061090d90612be1565b9190505550816008600083815260200190815260200160002060006101000a81548173ffffffffffffffffffffffffffffffffffffffff021916908373ffffffffffffffffffffffffffffffffffffffff160217905550600b600082815260200190815260200160002060006101000a81549073ffffffffffffffffffffffffffffffffffffffff0219169055808273ffffffffffffffffffffffffffffffffffffffff168473ffffffffffffffffffffffffffffffffffffffff167fddf252ad1be2c89b69c2b068fc378daa952ba7f163c4a11628f55a4df523b3ef60405160405180910390a4505050565b60006008600083815260200190815260200160002060009054906101000a900473ffffffffffffffffffffffffffffffffffffffff169050600073ffffffffffffffffffffffffffffffffffffffff168173ffffffffffffffffffffffffffffffffffffffff1603610aa1576040517f08c379a0000000000000000000000000000000000000000000000000000000008152600401610a9890612c75565b60405180910390fd5b919050565b60008073ffffffffffffffffffffffffffffffffffffffff168273ffffffffffffffffffffffffffffffffffffffff1603610b16576040517f08c379a0000000000000000000000000000000000000000000000000000000008152600401610b0d90612ce1565b60405180910390fd5b600a60008373ffffffffffffffffffffffffffffffffffffffff1673ffffffffffffffffffffffffffffffffffffffff168152602001908152602001600020549050919050565b60045481565b8060066000848152602001908152602001600020600301819055505050565b60028054610b8f906127a0565b80601f0160208091040260200160405190810160405280929190818152602001828054610bbb906127a0565b8015610c085780601f10610bdd57610100808354040283529160200191610c08565b820191906000526020600020905b815481529060010190602001808311610beb57829003601f168201915b505050505081565b80600c60003373ffffffffffffffffffffffffffffffffffffffff1673ffffffffffffffffffffffffffffffffffffffff16815260200190815260200160002060008473ffffffffffffffffffffffffffffffffffffffff1673ffffffffffffffffffffffffffffffffffffffff16815260200190815260200160002060006101000a81548160ff0219169083151502179055508173ffffffffffffffffffffffffffffffffffffffff163373ffffffffffffffffffffffffffffffffffffffff167f17307eab39ab6107e8899845ad3d59bd9653f200f220920489ca2b5937696c3183604051610d0191906126a5565b60405180910390a35050565b60045460055410610d53576040517f08c379a0000000000000000000000000000000000000000000000000000000008152600401610d4a90612d4d565b60405180910390fd5b600060056000815480929190610d6890612be1565b919050559050610d7887826117c4565b6040518060a0016040528087815260200186815260200185815260200184815260200183815250600660008381526020019081526020016000206000820151816000019081610dc791906129df565b506020820151816001019081610ddd91906129df565b506040820151816002019081610df391906129df565b506060820151816003015560808201518160040155905050600960008873ffffffffffffffffffffffffffffffffffffffff1673ffffffffffffffffffffffffffffffffffffffff16815260200190815260200160002081908060018154018082558091505060019003906000526020600020016000909190919091505550505050505050565b6060600073ffffffffffffffffffffffffffffffffffffffff166008600084815260200190815260200160002060009054906101000a900473ffffffffffffffffffffffffffffffffffffffff1673ffffffffffffffffffffffffffffffffffffffff1603610f1e576040517f08c379a0000000000000000000000000000000000000000000000000000000008152600401610f1590612db9565b60405180910390fd5b6000600660008481526020019081526020016000206040518060a0016040529081600082018054610f4e906127a0565b80601f0160208091040260200160405190810160405280929190818152602001828054610f7a906127a0565b8015610fc75780601f10610f9c57610100808354040283529160200191610fc7565b820191906000526020600020905b815481529060010190602001808311610faa57829003601f168201915b50505050508152602001600182018054610fe0906127a0565b80601f016020809104026020016040519081016040528092919081815260200182805461100c906127a0565b80156110595780601f1061102e57610100808354040283529160200191611059565b820191906000526020600020905b81548152906001019060200180831161103c57829003601f168201915b50505050508152602001600282018054611072906127a0565b80601f016020809104026020016040519081016040528092919081815260200182805461109e906127a0565b80156110eb5780601f106110c0576101008083540402835291602001916110eb565b820191906000526020600020905b8154815290600101906020018083116110ce57829003601f168201915b505050505081526020016003820154815260200160048201548152505090506000600782600001516040516111209190612e15565b90815260200160405180910390208054611139906127a0565b80601f0160208091040260200160405190810160405280929190818152602001828054611165906127a0565b80156111b25780601f10611187576101008083540402835291602001916111b2565b820191906000526020600020905b81548152906001019060200180831161119557829003601f168201915b505050505090506000826000015182846040015185602001516111d887606001516119dc565b6040516020016111ec9594939291906132c6565b6040516020818303038152906040529050600061120882611aaa565b90508060405160200161121b9190613402565b604051602081830303815290604052945050505050919050565b60008054906101000a900473ffffffffffffffffffffffffffffffffffffffff1681565b600073ffffffffffffffffffffffffffffffffffffffff166008600083815260200190815260200160002060009054906101000a900473ffffffffffffffffffffffffffffffffffffffff1673ffffffffffffffffffffffffffffffffffffffff16036112fb576040517f08c379a00000000000000000000000000000000000000000000000000000000081526004016112f290612db9565b60405180910390fd5b3373ffffffffffffffffffffffffffffffffffffffff166008600083815260200190815260200160002060009054906101000a900473ffffffffffffffffffffffffffffffffffffffff1673ffffffffffffffffffffffffffffffffffffffff160361139c576040517f08c379a000000000000000000000000000000000000000000000000000000000815260040161139390613470565b60405180910390fd5b6113da6008600083815260200190815260200160002060009054906101000a900473ffffffffffffffffffffffffffffffffffffffff163383611c22565b50565b600c6020528160005260406000206020528060005260406000206000915091509054906101000a900460ff1681565b6007818051602081018201805184825260208301602085012081835280955050505050506000915090508054611441906127a0565b80601f016020809104026020016040519081016040528092919081815260200182805461146d906127a0565b80156114ba5780601f1061148f576101008083540402835291602001916114ba565b820191906000526020600020905b81548152906001019060200180831161149d57829003601f168201915b505050505081565b60066020528060005260406000206000915090508060000180546114e5906127a0565b80601f0160208091040260200160405190810160405280929190818152602001828054611511906127a0565b801561155e5780601f106115335761010080835404028352916020019161155e565b820191906000526020600020905b81548152906001019060200180831161154157829003601f168201915b505050505090806001018054611573906127a0565b80601f016020809104026020016040519081016040528092919081815260200182805461159f906127a0565b80156115ec5780601f106115c1576101008083540402835291602001916115ec565b820191906000526020600020905b8154815290600101906020018083116115cf57829003601f168201915b505050505090806002018054611601906127a0565b80601f016020809104026020016040519081016040528092919081815260200182805461162d906127a0565b801561167a5780601f1061164f5761010080835404028352916020019161167a565b820191906000526020600020905b81548152906001019060200180831161165d57829003601f168201915b5050505050908060030154908060040154905085565b60008373ffffffffffffffffffffffffffffffffffffffff168373ffffffffffffffffffffffffffffffffffffffff1614806117525750600c60008573ffffffffffffffffffffffffffffffffffffffff1673ffffffffffffffffffffffffffffffffffffffff16815260200190815260200160002060008473ffffffffffffffffffffffffffffffffffffffff1673ffffffffffffffffffffffffffffffffffffffff16815260200190815260200160002060009054906101000a900460ff165b806117bb5750600b600083815260200190815260200160002060009054906101000a900473ffffffffffffffffffffffffffffffffffffffff1673ffffffffffffffffffffffffffffffffffffffff168373ffffffffffffffffffffffffffffffffffffffff16145b90509392505050565b600073ffffffffffffffffffffffffffffffffffffffff168273ffffffffffffffffffffffffffffffffffffffff1603611833576040517f08c379a000000000000000000000000000000000000000000000000000000000815260040161182a906134dc565b60405180910390fd5b600073ffffffffffffffffffffffffffffffffffffffff166008600083815260200190815260200160002060009054906101000a900473ffffffffffffffffffffffffffffffffffffffff1673ffffffffffffffffffffffffffffffffffffffff16146118d5576040517f08c379a00000000000000000000000000000000000000000000000000000000081526004016118cc90613548565b60405180910390fd5b600a60008373ffffffffffffffffffffffffffffffffffffffff1673ffffffffffffffffffffffffffffffffffffffff168152602001908152602001600020600081548092919061192590612be1565b9190505550816008600083815260200190815260200160002060006101000a81548173ffffffffffffffffffffffffffffffffffffffff021916908373ffffffffffffffffffffffffffffffffffffffff160217905550808273ffffffffffffffffffffffffffffffffffffffff16600073ffffffffffffffffffffffffffffffffffffffff167fddf252ad1be2c89b69c2b068fc378daa952ba7f163c4a11628f55a4df523b3ef60405160405180910390a45050565b6060600060016119eb84611ec4565b01905060008167ffffffffffffffff811115611a0a57611a096121e5565b5b6040519080825280601f01601f191660200182016040528015611a3c5781602001600182028036833780820191505090505b509050600082602001820190505b600115611a9f578080600190039150507f3031323334353637383961626364656600000000000000000000000000000000600a86061a8153600a8581611a9357611a92613568565b5b04945060008503611a4a575b819350505050919050565b60606000825103611acc57604051806020016040528060008152509050611c1d565b600060405180606001604052806040815260200161363f6040913990506000600360028551611afb9190613597565b611b0591906135cb565b6004611b1191906135fc565b90506000602082611b229190613597565b67ffffffffffffffff811115611b3b57611b3a6121e5565b5b6040519080825280601f01601f191660200182016040528015611b6d5781602001600182028036833780820191505090505b509050818152600183018586518101602084015b81831015611bdc576003830192508251603f8160121c168501518253600182019150603f81600c1c168501518253600182019150603f8160061c168501518253600182019150603f8116850151825360018201915050611b81565b600389510660018114611bf65760028114611c0657611c11565b613d3d60f01b6002830352611c11565b603d60f81b60018303525b50505050508093505050505b919050565b6008600082815260200190815260200160002060009054906101000a900473ffffffffffffffffffffffffffffffffffffffff1673ffffffffffffffffffffffffffffffffffffffff168373ffffffffffffffffffffffffffffffffffffffff1614611cc3576040517f08c379a0000000000000000000000000000000000000000000000000000000008152600401611cba90612afd565b60405180910390fd5b600073ffffffffffffffffffffffffffffffffffffffff168273ffffffffffffffffffffffffffffffffffffffff1603611d32576040517f08c379a0000000000000000000000000000000000000000000000000000000008152600401611d2990612b69565b60405180910390fd5b600a60008473ffffffffffffffffffffffffffffffffffffffff1673ffffffffffffffffffffffffffffffffffffffff1681526020019081526020016000206000815480929190611d8290612bb8565b9190505550600a60008373ffffffffffffffffffffffffffffffffffffffff1673ffffffffffffffffffffffffffffffffffffffff1681526020019081526020016000206000815480929190611dd790612be1565b9190505550816008600083815260200190815260200160002060006101000a81548173ffffffffffffffffffffffffffffffffffffffff021916908373ffffffffffffffffffffffffffffffffffffffff160217905550600b600082815260200190815260200160002060006101000a81549073ffffffffffffffffffffffffffffffffffffffff0219169055808273ffffffffffffffffffffffffffffffffffffffff168473ffffffffffffffffffffffffffffffffffffffff167fddf252ad1be2c89b69c2b068fc378daa952ba7f163c4a11628f55a4df523b3ef60405160405180910390a4505050565b600080600090507a184f03e93ff9f4daa797ed6e38ed64bf6a1f0100000000000000008310611f22577a184f03e93ff9f4daa797ed6e38ed64bf6a1f0100000000000000008381611f1857611f17613568565b5b0492506040810190505b6d04ee2d6d415b85acef81000000008310611f5f576d04ee2d6d415b85acef81000000008381611f5557611f54613568565b5b0492506020810190505b662386f26fc100008310611f8e57662386f26fc100008381611f8457611f83613568565b5b0492506010810190505b6305f5e1008310611fb7576305f5e1008381611fad57611fac613568565b5b0492506008810190505b6127108310611fdc576127108381611fd257611fd1613568565b5b0492506004810190505b60648310611fff5760648381611ff557611ff4613568565b5b0492506002810190505b600a831061200e576001810190505b80915050919050565b600081519050919050565b600082825260208201905092915050565b60005b83811015612051578082015181840152602081019050612036565b60008484015250505050565b6000601f19601f8301169050919050565b600061207982612017565b6120838185612022565b9350612093818560208601612033565b61209c8161205d565b840191505092915050565b600060208201905081810360008301526120c1818461206e565b905092915050565b6000604051905090565b600080fd5b600080fd5b600073ffffffffffffffffffffffffffffffffffffffff82169050919050565b6000612108826120dd565b9050919050565b612118816120fd565b811461212357600080fd5b50565b6000813590506121358161210f565b92915050565b6000819050919050565b61214e8161213b565b811461215957600080fd5b50565b60008135905061216b81612145565b92915050565b60008060408385031215612188576121876120d3565b5b600061219685828601612126565b92505060206121a78582860161215c565b9150509250929050565b6121ba8161213b565b82525050565b60006020820190506121d560008301846121b1565b92915050565b600080fd5b600080fd5b7f4e487b7100000000000000000000000000000000000000000000000000000000600052604160045260246000fd5b61221d8261205d565b810181811067ffffffffffffffff8211171561223c5761223b6121e5565b5b80604052505050565b600061224f6120c9565b905061225b8282612214565b919050565b600067ffffffffffffffff82111561227b5761227a6121e5565b5b6122848261205d565b9050602081019050919050565b82818337600083830152505050565b60006122b36122ae84612260565b612245565b9050828152602081018484840111156122cf576122ce6121e0565b5b6122da848285612291565b509392505050565b600082601f8301126122f7576122f66121db565b5b81356123078482602086016122a0565b91505092915050565b60008060408385031215612327576123266120d3565b5b60006123358582860161215c565b925050602083013567ffffffffffffffff811115612356576123556120d8565b5b612362858286016122e2565b9150509250929050565b600080600060608486031215612385576123846120d3565b5b600061239386828701612126565b93505060206123a486828701612126565b92505060406123b58682870161215c565b9150509250925092565b6000602082840312156123d5576123d46120d3565b5b60006123e38482850161215c565b91505092915050565b6123f5816120fd565b82525050565b600060208201905061241060008301846123ec565b92915050565b60006020828403121561242c5761242b6120d3565b5b600061243a84828501612126565b91505092915050565b6000806040838503121561245a576124596120d3565b5b60006124688582860161215c565b92505060206124798582860161215c565b9150509250929050565b60008115159050919050565b61249881612483565b81146124a357600080fd5b50565b6000813590506124b58161248f565b92915050565b600080604083850312156124d2576124d16120d3565b5b60006124e085828601612126565b92505060206124f1858286016124a6565b9150509250929050565b60008060008060008060c08789031215612518576125176120d3565b5b600061252689828a01612126565b965050602087013567ffffffffffffffff811115612547576125466120d8565b5b61255389828a016122e2565b955050604087013567ffffffffffffffff811115612574576125736120d8565b5b61258089828a016122e2565b945050606087013567ffffffffffffffff8111156125a1576125a06120d8565b5b6125ad89828a016122e2565b93505060806125be89828a0161215c565b92505060a06125cf89828a0161215c565b9150509295509295509295565b6000819050919050565b60006126016125fc6125f7846120dd565b6125dc565b6120dd565b9050919050565b6000612613826125e6565b9050919050565b600061262582612608565b9050919050565b6126358161261a565b82525050565b6000602082019050612650600083018461262c565b92915050565b6000806040838503121561266d5761266c6120d3565b5b600061267b85828601612126565b925050602061268c85828601612126565b9150509250929050565b61269f81612483565b82525050565b60006020820190506126ba6000830184612696565b92915050565b6000602082840312156126d6576126d56120d3565b5b600082013567ffffffffffffffff8111156126f4576126f36120d8565b5b612700848285016122e2565b91505092915050565b600060a0820190508181036000830152612723818861206e565b90508181036020830152612737818761206e565b9050818103604083015261274b818661206e565b905061275a60608301856121b1565b61276760808301846121b1565b9695505050505050565b7f4e487b7100000000000000000000000000000000000000000000000000000000600052602260045260246000fd5b600060028204905060018216806127b857607f821691505b6020821081036127cb576127ca612771565b5b50919050565b7f6e6f7420617574686f72697a6564000000000000000000000000000000000000600082015250565b6000612807600e83612022565b9150612812826127d1565b602082019050919050565b60006020820190508181036000830152612836816127fa565b9050919050565b60008190508160005260206000209050919050565b60006020601f8301049050919050565b600082821b905092915050565b60006008830261289f7fffffffffffffffffffffffffffffffffffffffffffffffffffffffffffffffff82612862565b6128a98683612862565b95508019841693508086168417925050509392505050565b60006128dc6128d76128d28461213b565b6125dc565b61213b565b9050919050565b6000819050919050565b6128f6836128c1565b61290a612902826128e3565b84845461286f565b825550505050565b600090565b61291f612912565b61292a8184846128ed565b505050565b5b8181101561294e57612943600082612917565b600181019050612930565b5050565b601f821115612993576129648161283d565b61296d84612852565b8101602085101561297c578190505b61299061298885612852565b83018261292f565b50505b505050565b600082821c905092915050565b60006129b660001984600802612998565b1980831691505092915050565b60006129cf83836129a5565b9150826002028217905092915050565b6129e882612017565b67ffffffffffffffff811115612a0157612a006121e5565b5b612a0b82546127a0565b612a16828285612952565b600060209050601f831160018114612a495760008415612a37578287015190505b612a4185826129c3565b865550612aa9565b601f198416612a578661283d565b60005b82811015612a7f57848901518255600182019150602085019450602081019050612a5a565b86831015612a9c5784890151612a98601f8916826129a5565b8355505b6001600288020188555050505b505050505050565b7f66726f6d20213d206f776e657200000000000000000000000000000000000000600082015250565b6000612ae7600d83612022565b9150612af282612ab1565b602082019050919050565b60006020820190508181036000830152612b1681612ada565b9050919050565b7f7472616e7366657220746f207a65726f20616464726573730000000000000000600082015250565b6000612b53601883612022565b9150612b5e82612b1d565b602082019050919050565b60006020820190508181036000830152612b8281612b46565b9050919050565b7f4e487b7100000000000000000000000000000000000000000000000000000000600052601160045260246000fd5b6000612bc38261213b565b915060008203612bd657612bd5612b89565b5b600182039050919050565b6000612bec8261213b565b91507fffffffffffffffffffffffffffffffffffffffffffffffffffffffffffffffff8203612c1e57612c1d612b89565b5b600182019050919050565b7f746f6b656e20646f65736e277420657869737400000000000000000000000000600082015250565b6000612c5f601383612022565b9150612c6a82612c29565b602082019050919050565b60006020820190508181036000830152612c8e81612c52565b9050919050565b7f6f776e6572203d207a65726f2061646472657373000000000000000000000000600082015250565b6000612ccb601483612022565b9150612cd682612c95565b602082019050919050565b60006020820190508181036000830152612cfa81612cbe565b9050919050565b7f4d617820737570706c7920726561636865640000000000000000000000000000600082015250565b6000612d37601283612022565b9150612d4282612d01565b602082019050919050565b60006020820190508181036000830152612d6681612d2a565b9050919050565b7f546f6b656e20646f6573206e6f74206578697374000000000000000000000000600082015250565b6000612da3601483612022565b9150612dae82612d6d565b602082019050919050565b60006020820190508181036000830152612dd281612d96565b9050919050565b600081905092915050565b6000612def82612017565b612df98185612dd9565b9350612e09818560208601612033565b80840191505092915050565b6000612e218284612de4565b915081905092915050565b7f7b00000000000000000000000000000000000000000000000000000000000000600082015250565b6000612e62600183612dd9565b9150612e6d82612e2c565b600182019050919050565b7f226e616d65223a20220000000000000000000000000000000000000000000000600082015250565b6000612eae600983612dd9565b9150612eb982612e78565b600982019050919050565b7f222c000000000000000000000000000000000000000000000000000000000000600082015250565b6000612efa600283612dd9565b9150612f0582612ec4565b600282019050919050565b7f226465736372697074696f6e223a202244796e616d69632046616e746173792060008201527f466f6f7462616c6c204e46542e2053746174732075706461746520626173656460208201527f206f6e207265616c2d776f726c6420706572666f726d616e63652e222c000000604082015250565b6000612f92605d83612dd9565b9150612f9d82612f10565b605d82019050919050565b7f22696d616765223a202200000000000000000000000000000000000000000000600082015250565b6000612fde600a83612dd9565b9150612fe982612fa8565b600a82019050919050565b7f2261747472696275746573223a205b0000000000000000000000000000000000600082015250565b600061302a600f83612dd9565b915061303582612ff4565b600f82019050919050565b7f7b202274726169745f74797065223a20225465616d222c202276616c7565223a60008201527f2022000000000000000000000000000000000000000000000000000000000000602082015250565b600061309c602283612dd9565b91506130a782613040565b602282019050919050565b7f22207d2c00000000000000000000000000000000000000000000000000000000600082015250565b60006130e8600483612dd9565b91506130f3826130b2565b600482019050919050565b7f7b202274726169745f74797065223a2022506f736974696f6e222c202276616c60008201527f7565223a20220000000000000000000000000000000000000000000000000000602082015250565b600061315a602683612dd9565b9150613165826130fe565b602682019050919050565b7f7b202274726169745f74797065223a202246616e7461737920506f696e74732260008201527f2c202276616c7565223a20000000000000000000000000000000000000000000602082015250565b60006131cc602b83612dd9565b91506131d782613170565b602b82019050919050565b7f207d000000000000000000000000000000000000000000000000000000000000600082015250565b6000613218600283612dd9565b9150613223826131e2565b600282019050919050565b7f5d00000000000000000000000000000000000000000000000000000000000000600082015250565b6000613264600183612dd9565b915061326f8261322e565b600182019050919050565b7f7d00000000000000000000000000000000000000000000000000000000000000600082015250565b60006132b0600183612dd9565b91506132bb8261327a565b600182019050919050565b60006132d182612e55565b91506132dc82612ea1565b91506132e88288612de4565b91506132f382612eed565b91506132fe82612f85565b915061330982612fd1565b91506133158287612de4565b915061332082612eed565b915061332b8261301d565b91506133368261308f565b91506133428286612de4565b915061334d826130db565b91506133588261314d565b91506133648285612de4565b915061336f826130db565b915061337a826131bf565b91506133868284612de4565b91506133918261320b565b915061339c82613257565b91506133a7826132a3565b91508190509695505050505050565b7f646174613a6170706c69636174696f6e2f6a736f6e3b6261736536342c000000600082015250565b60006133ec601d83612dd9565b91506133f7826133b6565b601d82019050919050565b600061340d826133df565b91506134198284612de4565b915081905092915050565b7f596f7520616c7265616479206f776e2074686973204e46540000000000000000600082015250565b600061345a601883612022565b915061346582613424565b602082019050919050565b600060208201905081810360008301526134898161344d565b9050919050565b7f6d696e7420746f207a65726f2061646472657373000000000000000000000000600082015250565b60006134c6601483612022565b91506134d182613490565b602082019050919050565b600060208201905081810360008301526134f5816134b9565b9050919050565b7f616c7265616479206d696e746564000000000000000000000000000000000000600082015250565b6000613532600e83612022565b915061353d826134fc565b602082019050919050565b6000602082019050818103600083015261356181613525565b9050919050565b7f4e487b7100000000000000000000000000000000000000000000000000000000600052601260045260246000fd5b60006135a28261213b565b91506135ad8361213b565b92508282019050808211156135c5576135c4612b89565b5b92915050565b60006135d68261213b565b91506135e18361213b565b9250826135f1576135f0613568565b5b828204905092915050565b60006136078261213b565b91506136128361213b565b92508282026136208161213b565b9150828204841483151761363757613636612b89565b5b509291505056fe4142434445464748494a4b4c4d4e4f505152535455565758595a6162636465666768696a6b6c6d6e6f707172737475767778797a303132333435363738392b2fa26469706673582212201770763cf32550b9d46b8bb5d4bad53403d78cdb3b76f47cc3e3f4d55fe7ddea64736f6c6343000814003368747470733a2f2f77686974652d717569636b2d6775616e2d3331342e6d7970696e6174612e636c6f75642f697066732f62616679626569686e7867656e717278736e34636336747a793732666175723263743735696c7170707076716c68367034663674766a706e72717568747470733a2f2f77686974652d717569636b2d6775616e2d3331342e6d7970696e6174612e636c6f75642f697066732f62616679626569637a68613779746c78326c736a33616f346b37767676327261686e6d696d6d7369353663756766687134636a646733686862676d68747470733a2f2f77686974652d717569636b2d6775616e2d3331342e6d7970696e6174612e636c6f75642f697066732f626166796265696835686b77766f36617364667a707878356d7a6e6b336c746e6371616b63796f7678776d75776773627735626f656b6b326b353468747470733a2f2f77686974652d717569636b2d6775616e2d3331342e6d7970696e6174612e636c6f75642f697066732f6261667962656965636979756768717a697379726973686c643733647a3633366f766663377076746e636f626873756f6d3767376d6a71726a6c7968747470733a2f2f77686974652d717569636b2d6775616e2d3331342e6d7970696e6174612e636c6f75642f697066732f62616679626569656c71707573777179357773726b693371736c6a7537706732347a7078656a746b6b67687366787576706f746f6934686262333468747470733a2f2f77686974652d717569636b2d6775616e2d3331342e6d7970696e6174612e636c6f75642f697066732f6261667962656962766c756433713379327763616b66786f646b6a37676d6834677963687161747167636771746565787872366e7a3679796f637168747470733a2f2f77686974652d717569636b2d6775616e2d3331342e6d7970696e6174612e636c6f75642f697066732f62616679626569676c73626e776771677a376e667362356e357472706d723473333569796965766334713566697876696b367236756c746c63376568747470733a2f2f77686974652d717569636b2d6775616e2d3331342e6d7970696e6174612e636c6f75642f697066732f6261667962656966787567336e7a6f6474717775636c627736756a6d367167776e6c7468626f6c70746d33636369637a3679327268666d3267366d",
  "linkReferences": {},
  "deployedLinkReferences": {}
}