{
  "_format": "hh-sol-artifact-1",
  "contractName": "FantasyFootball",
  "sourceName": "contracts/fantasyFootball.sol",
  "abi": [
    {
      "inputs": [
        {
          "internalType": "address",
          "name": "_yodaTokenAddress",
          "type": "address"
        },
        {
          "internalType": "string",
          "name": "_name",
          "type": "string"
        },
        {
          "internalType": "string",
          "name": "_symbol",
          "type": "string"
        },
        {
          "internalType": "uint256",
          "name": "MINT_PRICE",
          "type": "uint256"
        }
      ],
      "stateMutability": "nonpayable",
      "type": "constructor"
    },
    {
      "anonymous": false,
      "inputs": [
        {
          "indexed": true,
          "internalType": "address",
          "name": "owner",
          "type": "address"
        },
        {
          "indexed": true,
          "internalType": "address",
          "name": "spender",
          "type": "address"
        },
        {
          "indexed": true,
          "internalType": "uint256",
          "name": "id",
          "type": "uint256"
        }
      ],
      "name": "Approval",
      "type": "event"
    },
    {
      "anonymous": false,
      "inputs": [
        {
          "indexed": true,
          "internalType": "address",
          "name": "owner",
          "type": "address"
        },
        {
          "indexed": true,
          "internalType": "address",
          "name": "operator",
          "type": "address"
        },
        {
          "indexed": false,
          "internalType": "bool",
          "name": "approved",
          "type": "bool"
        }
      ],
      "name": "ApprovalForAll",
      "type": "event"
    },
    {
      "anonymous": false,
      "inputs": [
        {
          "indexed": true,
          "internalType": "address",
          "name": "from",
          "type": "address"
        },
        {
          "indexed": true,
          "internalType": "address",
          "name": "to",
          "type": "address"
        },
        {
          "indexed": true,
          "internalType": "uint256",
          "name": "id",
          "type": "uint256"
        }
      ],
      "name": "Transfer",
      "type": "event"
    },
    {
      "inputs": [
        {
          "internalType": "address",
          "name": "spender",
          "type": "address"
        },
        {
          "internalType": "uint256",
          "name": "id",
          "type": "uint256"
        }
      ],
      "name": "approve",
      "outputs": [],
      "stateMutability": "nonpayable",
      "type": "function"
    },
    {
      "inputs": [
        {
          "internalType": "address",
          "name": "owner",
          "type": "address"
        }
      ],
      "name": "balanceOf",
      "outputs": [
        {
          "internalType": "uint256",
          "name": "",
          "type": "uint256"
        }
      ],
      "stateMutability": "view",
      "type": "function"
    },
    {
      "inputs": [
        {
          "internalType": "uint256",
          "name": "tokenId",
          "type": "uint256"
        }
      ],
      "name": "buy",
      "outputs": [],
      "stateMutability": "nonpayable",
      "type": "function"
    },
    {
      "inputs": [],
      "name": "contractOwner",
      "outputs": [
        {
          "internalType": "address",
          "name": "",
          "type": "address"
        }
      ],
      "stateMutability": "view",
      "type": "function"
    },
    {
      "inputs": [
        {
          "internalType": "address",
          "name": "",
          "type": "address"
        },
        {
          "internalType": "address",
          "name": "",
          "type": "address"
        }
      ],
      "name": "isApprovedForAll",
      "outputs": [
        {
          "internalType": "bool",
          "name": "",
          "type": "bool"
        }
      ],
      "stateMutability": "view",
      "type": "function"
    },
    {
      "inputs": [
        {
          "internalType": "address",
          "name": "to",
          "type": "address"
        },
        {
          "internalType": "string",
          "name": "_name",
          "type": "string"
        },
        {
          "internalType": "string",
          "name": "_position",
          "type": "string"
        },
        {
          "internalType": "string",
          "name": "_team",
          "type": "string"
        },
        {
          "internalType": "uint256",
          "name": "_fantasyPoints",
          "type": "uint256"
        },
        {
          "internalType": "string",
          "name": "_description",
          "type": "string"
        },
        {
          "internalType": "string",
          "name": "_rank",
          "type": "string"
        }
      ],
      "name": "mint",
      "outputs": [],
      "stateMutability": "payable",
      "type": "function"
    },
    {
      "inputs": [],
      "name": "mint_price",
      "outputs": [
        {
          "internalType": "uint256",
          "name": "",
          "type": "uint256"
        }
      ],
      "stateMutability": "view",
      "type": "function"
    },
    {
      "inputs": [],
      "name": "name",
      "outputs": [
        {
          "internalType": "string",
          "name": "",
          "type": "string"
        }
      ],
      "stateMutability": "view",
      "type": "function"
    },
    {
      "inputs": [
        {
          "internalType": "uint256",
          "name": "id",
          "type": "uint256"
        }
      ],
      "name": "ownerOf",
      "outputs": [
        {
          "internalType": "address",
          "name": "owner",
          "type": "address"
        }
      ],
      "stateMutability": "view",
      "type": "function"
    },
    {
      "inputs": [
        {
          "internalType": "string",
          "name": "",
          "type": "string"
        }
      ],
      "name": "playerImageMap",
      "outputs": [
        {
          "internalType": "string",
          "name": "",
          "type": "string"
        }
      ],
      "stateMutability": "view",
      "type": "function"
    },
    {
      "inputs": [
        {
          "internalType": "uint256",
          "name": "",
          "type": "uint256"
        }
      ],
      "name": "players",
      "outputs": [
        {
          "internalType": "string",
          "name": "name",
          "type": "string"
        },
        {
          "internalType": "string",
          "name": "position",
          "type": "string"
        },
        {
          "internalType": "string",
          "name": "team",
          "type": "string"
        },
        {
          "internalType": "uint256",
          "name": "fantasyPoints",
          "type": "uint256"
        },
        {
          "internalType": "bool",
          "name": "forSale",
          "type": "bool"
        },
        {
          "internalType": "uint256",
          "name": "salePrice",
          "type": "uint256"
        },
        {
          "internalType": "string",
          "name": "description",
          "type": "string"
        },
        {
          "internalType": "string",
          "name": "rank",
          "type": "string"
        }
      ],
      "stateMutability": "view",
      "type": "function"
    },
    {
      "inputs": [
        {
          "internalType": "address",
          "name": "operator",
          "type": "address"
        },
        {
          "internalType": "bool",
          "name": "approved",
          "type": "bool"
        }
      ],
      "name": "setApprovalForAll",
      "outputs": [],
      "stateMutability": "nonpayable",
      "type": "function"
    },
    {
      "inputs": [
        {
          "internalType": "uint256",
          "name": "tokenId",
          "type": "uint256"
        },
        {
          "internalType": "bool",
          "name": "status",
          "type": "bool"
        },
        {
          "internalType": "uint256",
          "name": "price",
          "type": "uint256"
        }
      ],
      "name": "setForSale",
      "outputs": [],
      "stateMutability": "nonpayable",
      "type": "function"
    },
    {
      "inputs": [
        {
          "internalType": "bytes4",
          "name": "interfaceId",
          "type": "bytes4"
        }
      ],
      "name": "supportsInterface",
      "outputs": [
        {
          "internalType": "bool",
          "name": "",
          "type": "bool"
        }
      ],
      "stateMutability": "pure",
      "type": "function"
    },
    {
      "inputs": [],
      "name": "symbol",
      "outputs": [
        {
          "internalType": "string",
          "name": "",
          "type": "string"
        }
      ],
      "stateMutability": "view",
      "type": "function"
    },
    {
      "inputs": [
        {
          "internalType": "uint256",
          "name": "tokenId",
          "type": "uint256"
        }
      ],
      "name": "tokenURI",
      "outputs": [
        {
          "internalType": "string",
          "name": "",
          "type": "string"
        }
      ],
      "stateMutability": "view",
      "type": "function"
    },
    {
      "inputs": [],
      "name": "totalSupply",
      "outputs": [
        {
          "internalType": "uint256",
          "name": "",
          "type": "uint256"
        }
      ],
      "stateMutability": "view",
      "type": "function"
    },
    {
      "inputs": [
        {
          "internalType": "address",
          "name": "from",
          "type": "address"
        },
        {
          "internalType": "address",
          "name": "to",
          "type": "address"
        },
        {
          "internalType": "uint256",
          "name": "id",
          "type": "uint256"
        }
      ],
      "name": "transferFrom",
      "outputs": [],
      "stateMutability": "nonpayable",
      "type": "function"
    },
    {
      "inputs": [],
      "name": "withdrawYoda",
      "outputs": [],
      "stateMutability": "nonpayable",
      "type": "function"
    },
    {
      "inputs": [],
      "name": "yodaToken",
      "outputs": [
        {
          "internalType": "contract IERC20",
          "name": "",
          "type": "address"
        }
      ],
      "stateMutability": "view",
      "type": "function"
    }
  ],
  "bytecode": "0x60806040523480156200001157600080fd5b5060405162002cc338038062002cc38339810160408190526200003491620003d3565b600080546001600160a01b0386166001600160a01b03199182161790915560048054909116331790556040805160a08101909152607b80825262002953602083013960408051692537b9b41020b63632b760b11b81526008600a820152905190819003602a01902090620000a99082620004f4565b506040518060a001604052806080815260200162002ac760809139604080516e5061747269636b204d61686f6d657360881b81526008600f820152905190819003602f01902090620000fc9082620004f4565b506040518060c001604052806081815260200162002bc460819139604080516f253ab9ba34b7102532b33332b939b7b760811b815260086010820152905190819003603001902090620001509082620004f4565b506040518060a00160405280607d815260200162002a4a607d9139604080516b4d616c696b204e616265727360a01b81526008600c820152905190819003602c01902090620001a09082620004f4565b506040518060a00160405280607f8152602001620028d4607f9139604080516d53617175616e204261726b6c657960901b81526008600e820152905190819003602e01902090620001f29082620004f4565b506040518060a00160405280607e815260200162002c45607e9139604080516c4465727269636b2048656e727960981b81526008600d820152905190819003602d01902090620002439082620004f4565b506040518060a00160405280607d815260200162002b47607d9139604080516b42726f636b20426f7765727360a01b81526008600c820152905190819003602c01902090620002939082620004f4565b506040518060a00160405280607c8152602001620029ce607c9139604080516a53616d204c61506f72746160a81b81526008600b820152905190819003602b01902090620002e29082620004f4565b506001620002f18482620004f4565b506002620003008382620004f4565b5060035550620005c0915050565b634e487b7160e01b600052604160045260246000fd5b600082601f8301126200033657600080fd5b81516001600160401b03808211156200035357620003536200030e565b604051601f8301601f19908116603f011681019082821181831017156200037e576200037e6200030e565b816040528381526020925086838588010111156200039b57600080fd5b600091505b83821015620003bf5785820183015181830184015290820190620003a0565b600093810190920192909252949350505050565b60008060008060808587031215620003ea57600080fd5b84516001600160a01b03811681146200040257600080fd5b60208601519094506001600160401b03808211156200042057600080fd5b6200042e8883890162000324565b945060408701519150808211156200044557600080fd5b50620004548782880162000324565b606096909601519497939650505050565b600181811c908216806200047a57607f821691505b6020821081036200049b57634e487b7160e01b600052602260045260246000fd5b50919050565b601f821115620004ef57600081815260208120601f850160051c81016020861015620004ca5750805b601f850160051c820191505b81811015620004eb57828155600101620004d6565b5050505b505050565b81516001600160401b038111156200051057620005106200030e565b620005288162000521845462000465565b84620004a1565b602080601f831160018114620005605760008415620005475750858301515b600019600386901b1c1916600185901b178555620004eb565b600085815260208120601f198616915b82811015620005915788860151825594840194600190910190840162000570565b5085821015620005b05787850151600019600388901b60f8161c191681555b5050505050600190811b01905550565b61230480620005d06000396000f3fe60806040526004361061011f5760003560e01c806395d89b41116100a0578063cf5c1b5211610064578063cf5c1b521461031d578063d96a094a1461033d578063e985e9c51461035d578063ea7c03c414610398578063f71d96cb146103b857600080fd5b806395d89b4114610288578063a22cb4651461029d578063c87b56dd146102bd578063cdc64538146102dd578063ce606ee0146102fd57600080fd5b806323b872dd116100e757806323b872dd146101e85780635854616a146102085780636352211e1461021d57806370a082311461025557806374c3718d1461027557600080fd5b806301ffc9a71461012457806306fdde031461016a578063095ea7b31461018c57806318160ddd146101ae5780631a4231a4146101d2575b600080fd5b34801561013057600080fd5b5061015561013f366004611ac2565b6001600160e01b0319166380ac58cd60e01b1490565b60405190151581526020015b60405180910390f35b34801561017657600080fd5b5061017f6103ec565b6040516101619190611b43565b34801561019857600080fd5b506101ac6101a7366004611b6d565b61047a565b005b3480156101ba57600080fd5b506101c460065481565b604051908152602001610161565b3480156101de57600080fd5b506101c460035481565b3480156101f457600080fd5b506101ac610203366004611b97565b610561565b34801561021457600080fd5b506101ac610714565b34801561022957600080fd5b5061023d610238366004611bd3565b610894565b6040516001600160a01b039091168152602001610161565b34801561026157600080fd5b506101c4610270366004611bec565b6108f4565b6101ac610283366004611caa565b61095f565b34801561029457600080fd5b5061017f610b6c565b3480156102a957600080fd5b506101ac6102b8366004611da7565b610b79565b3480156102c957600080fd5b5061017f6102d8366004611bd3565b610be5565b3480156102e957600080fd5b5060005461023d906001600160a01b031681565b34801561030957600080fd5b5060045461023d906001600160a01b031681565b34801561032957600080fd5b506101ac610338366004611dde565b611161565b34801561034957600080fd5b506101ac610358366004611bd3565b6111e6565b34801561036957600080fd5b50610155610378366004611e16565b600d60209081526000928352604080842090915290825290205460ff1681565b3480156103a457600080fd5b5061017f6103b3366004611e49565b611406565b3480156103c457600080fd5b506103d86103d3366004611bd3565b61142a565b604051610161989796959493929190611e7e565b600180546103f990611f05565b80601f016020809104026020016040519081016040528092919081815260200182805461042590611f05565b80156104725780601f1061044757610100808354040283529160200191610472565b820191906000526020600020905b81548152906001019060200180831161045557829003601f168201915b505050505081565b6000818152600960205260409020546001600160a01b0316338114806104c357506001600160a01b0381166000908152600d6020908152604080832033845290915290205460ff165b6105055760405162461bcd60e51b815260206004820152600e60248201526d1b9bdd08185d5d1a1bdc9a5e995960921b60448201526064015b60405180910390fd5b6000828152600c602052604080822080546001600160a01b0319166001600160a01b0387811691821790925591518593918516917f8c5be1e5ebec7d5bd14f71427d1e84f3dd0314c0f7b2291e5b200ac8c7c3b92591a4505050565b6000818152600960205260409020546001600160a01b038481169116146105ba5760405162461bcd60e51b815260206004820152600d60248201526c333937b690109e9037bbb732b960991b60448201526064016104fc565b6001600160a01b03821661060b5760405162461bcd60e51b81526020600482015260186024820152777472616e7366657220746f207a65726f206164647265737360401b60448201526064016104fc565b61061683338361171b565b6106535760405162461bcd60e51b815260206004820152600e60248201526d1b9bdd08185d5d1a1bdc9a5e995960921b60448201526064016104fc565b6001600160a01b0383166000908152600b6020526040812080549161067783611f55565b90915550506001600160a01b0382166000908152600b602052604081208054916106a083611f6c565b9091555050600081815260096020908152604080832080546001600160a01b038088166001600160a01b03199283168117909355600c909452828520805490911690559051849391928716917fddf252ad1be2c89b69c2b068fc378daa952ba7f163c4a11628f55a4df523b3ef91a4505050565b6004546001600160a01b0316331461075e5760405162461bcd60e51b815260206004820152600d60248201526c2737ba103a34329037bbb732b960991b60448201526064016104fc565b600080546040516370a0823160e01b81523060048201526001600160a01b03909116906370a0823190602401602060405180830381865afa1580156107a7573d6000803e3d6000fd5b505050506040513d601f19601f820116820180604052508101906107cb9190611f85565b9050600081116108135760405162461bcd60e51b81526020600482015260136024820152724e6f20596f646120746f20776974686472617760681b60448201526064016104fc565b6000546004805460405163a9059cbb60e01b81526001600160a01b0391821692810192909252602482018490529091169063a9059cbb906044016020604051808303816000875af115801561086c573d6000803e3d6000fd5b505050506040513d601f19601f820116820180604052508101906108909190611f9e565b5050565b6000818152600960205260409020546001600160a01b0316806108ef5760405162461bcd60e51b81526020600482015260136024820152721d1bdad95b88191bd95cdb89dd08195e1a5cdd606a1b60448201526064016104fc565b919050565b60006001600160a01b0382166109435760405162461bcd60e51b81526020600482015260146024820152736f776e6572203d207a65726f206164647265737360601b60448201526064016104fc565b506001600160a01b03166000908152600b602052604090205490565b6000546003546040516323b872dd60e01b815233600482015230602482015260448101919091526001600160a01b03909116906323b872dd906064016020604051808303816000875af11580156109ba573d6000803e3d6000fd5b505050506040513d601f19601f820116820180604052508101906109de9190611f9e565b610a205760405162461bcd60e51b81526020600482015260136024820152721653d110481c185e5b595b9d0819985a5b1959606a1b60448201526064016104fc565b6005805460009182610a3183611f6c565b919050559050610a41888261178e565b600160066000828254610a549190611fbb565b9091555050604080516101008101825288815260208082018990528183018890526060820187905260006080830181905260a0830181905260c0830187905260e0830186905284815260079091529190912081518190610ab49082612023565b5060208201516001820190610ac99082612023565b5060408201516002820190610ade9082612023565b5060608201516003820155608082015160048201805460ff191691151591909117905560a0820151600582015560c08201516006820190610b1f9082612023565b5060e08201516007820190610b349082612023565b5050506001600160a01b039097166000908152600a602090815260408220805460018101825590835291200196909655505050505050565b600280546103f990611f05565b336000818152600d602090815260408083206001600160a01b03871680855290835292819020805460ff191686151590811790915590519081529192917f17307eab39ab6107e8899845ad3d59bd9653f200f220920489ca2b5937696c31910160405180910390a35050565b6000818152600960205260409020546060906001600160a01b0316610c435760405162461bcd60e51b8152602060048201526014602482015273151bdad95b88191bd95cc81b9bdd08195e1a5cdd60621b60448201526064016104fc565b60008281526007602052604080822081516101008101909252805482908290610c6b90611f05565b80601f0160208091040260200160405190810160405280929190818152602001828054610c9790611f05565b8015610ce45780601f10610cb957610100808354040283529160200191610ce4565b820191906000526020600020905b815481529060010190602001808311610cc757829003601f168201915b50505050508152602001600182018054610cfd90611f05565b80601f0160208091040260200160405190810160405280929190818152602001828054610d2990611f05565b8015610d765780601f10610d4b57610100808354040283529160200191610d76565b820191906000526020600020905b815481529060010190602001808311610d5957829003601f168201915b50505050508152602001600282018054610d8f90611f05565b80601f0160208091040260200160405190810160405280929190818152602001828054610dbb90611f05565b8015610e085780601f10610ddd57610100808354040283529160200191610e08565b820191906000526020600020905b815481529060010190602001808311610deb57829003601f168201915b505050918352505060038201546020820152600482015460ff161515604082015260058201546060820152600682018054608090920191610e4890611f05565b80601f0160208091040260200160405190810160405280929190818152602001828054610e7490611f05565b8015610ec15780601f10610e9657610100808354040283529160200191610ec1565b820191906000526020600020905b815481529060010190602001808311610ea457829003601f168201915b50505050508152602001600782018054610eda90611f05565b80601f0160208091040260200160405190810160405280929190818152602001828054610f0690611f05565b8015610f535780601f10610f2857610100808354040283529160200191610f53565b820191906000526020600020905b815481529060010190602001808311610f3657829003601f168201915b5050505050815250509050600060088260000151604051610f7491906120e3565b90815260200160405180910390208054610f8d90611f05565b80601f0160208091040260200160405190810160405280929190818152602001828054610fb990611f05565b80156110065780601f10610fdb57610100808354040283529160200191611006565b820191906000526020600020905b815481529060010190602001808311610fe957829003601f168201915b5050505050905060008260e00151905060008160008151811061102b5761102b6120ff565b602001015160f81c60f81b82600181518110611049576110496120ff565b602001015160f81c60f81b83600281518110611067576110676120ff565b602001015160f81c60f81b84600381518110611085576110856120ff565b016020908101516040516001600160f81b031995861692810192909252928416602182015290831660228201529116602382015260240160408051601f198184030181529082905285519092506000916110e3918491602001612115565b604051602081830303815290604052905060008560c001519050600082828760405160200161111493929190612151565b60405160208183030381529060405290506000611130826118b3565b9050806040516020016111439190612210565b60405160208183030381529060405298505050505050505050919050565b6000838152600960205260409020546001600160a01b031633146111bd5760405162461bcd60e51b81526020600482015260136024820152722737ba103a3432903a37b5b2b71037bbb732b960691b60448201526064016104fc565b60009283526007602052604090922060048101805460ff19169215159290921790915560050155565b6000818152600960205260409020546001600160a01b03166112415760405162461bcd60e51b8152602060048201526014602482015273151bdad95b88191bd95cc81b9bdd08195e1a5cdd60621b60448201526064016104fc565b600081815260096020526040902054336001600160a01b03909116036112a95760405162461bcd60e51b815260206004820152601860248201527f596f7520616c7265616479206f776e2074686973204e4654000000000000000060448201526064016104fc565b6000818152600760205260409020600481015460ff166112fe5760405162461bcd60e51b815260206004820152601060248201526f4e4654206e6f7420666f722073616c6560801b60448201526064016104fc565b60008054838252600960205260409182902054600584015492516323b872dd60e01b81523360048201526001600160a01b039182166024820152604481019390935216906323b872dd906064016020604051808303816000875af115801561136a573d6000803e3d6000fd5b505050506040513d601f19601f8201168201806040525081019061138e9190611f9e565b6113d05760405162461bcd60e51b81526020600482015260136024820152721653d110481c185e5b595b9d0819985a5b1959606a1b60448201526064016104fc565b60048101805460ff1916905560006005820181905582815260096020526040902054610890906001600160a01b03163384611a18565b8051602081830181018051600882529282019190930120915280546103f990611f05565b60076020526000908152604090208054819061144590611f05565b80601f016020809104026020016040519081016040528092919081815260200182805461147190611f05565b80156114be5780601f10611493576101008083540402835291602001916114be565b820191906000526020600020905b8154815290600101906020018083116114a157829003601f168201915b5050505050908060010180546114d390611f05565b80601f01602080910402602001604051908101604052809291908181526020018280546114ff90611f05565b801561154c5780601f106115215761010080835404028352916020019161154c565b820191906000526020600020905b81548152906001019060200180831161152f57829003601f168201915b50505050509080600201805461156190611f05565b80601f016020809104026020016040519081016040528092919081815260200182805461158d90611f05565b80156115da5780601f106115af576101008083540402835291602001916115da565b820191906000526020600020905b8154815290600101906020018083116115bd57829003601f168201915b5050506003840154600485015460058601546006870180549697939660ff90931695509093509061160a90611f05565b80601f016020809104026020016040519081016040528092919081815260200182805461163690611f05565b80156116835780601f1061165857610100808354040283529160200191611683565b820191906000526020600020905b81548152906001019060200180831161166657829003601f168201915b50505050509080600701805461169890611f05565b80601f01602080910402602001604051908101604052809291908181526020018280546116c490611f05565b80156117115780601f106116e657610100808354040283529160200191611711565b820191906000526020600020905b8154815290600101906020018083116116f457829003601f168201915b5050505050905088565b6000836001600160a01b0316836001600160a01b0316148061176257506001600160a01b038085166000908152600d602090815260408083209387168352929052205460ff165b8061178657506000828152600c60205260409020546001600160a01b038481169116145b949350505050565b6001600160a01b0382166117db5760405162461bcd60e51b81526020600482015260146024820152736d696e7420746f207a65726f206164647265737360601b60448201526064016104fc565b6000818152600960205260409020546001600160a01b0316156118315760405162461bcd60e51b815260206004820152600e60248201526d185b1c9958591e481b5a5b9d195960921b60448201526064016104fc565b6001600160a01b0382166000908152600b6020526040812080549161185583611f6c565b909155505060008181526009602052604080822080546001600160a01b0319166001600160a01b03861690811790915590518392907fddf252ad1be2c89b69c2b068fc378daa952ba7f163c4a11628f55a4df523b3ef908290a45050565b606081516000036118d257505060408051602081019091526000815290565b600060405180606001604052806040815260200161228f60409139905060006003845160026119019190611fbb565b61190b9190612255565b611916906004612277565b90506000611925826020611fbb565b67ffffffffffffffff81111561193d5761193d611c07565b6040519080825280601f01601f191660200182016040528015611967576020820181803683370190505b509050818152600183018586518101602084015b818310156119d3576003830192508251603f8160121c168501518253600182019150603f81600c1c168501518253600182019150603f8160061c168501518253600182019150603f811685015182535060010161197b565b6003895106600181146119ed57600281146119fe57611a0a565b613d3d60f01b600119830152611a0a565b603d60f81b6000198301525b509398975050505050505050565b6000818152600960205260409020546001600160a01b03848116911614611a715760405162461bcd60e51b815260206004820152600d60248201526c333937b690109e9037bbb732b960991b60448201526064016104fc565b6001600160a01b0382166106535760405162461bcd60e51b81526020600482015260186024820152777472616e7366657220746f207a65726f206164647265737360401b60448201526064016104fc565b600060208284031215611ad457600080fd5b81356001600160e01b031981168114611aec57600080fd5b9392505050565b60005b83811015611b0e578181015183820152602001611af6565b50506000910152565b60008151808452611b2f816020860160208601611af3565b601f01601f19169290920160200192915050565b602081526000611aec6020830184611b17565b80356001600160a01b03811681146108ef57600080fd5b60008060408385031215611b8057600080fd5b611b8983611b56565b946020939093013593505050565b600080600060608486031215611bac57600080fd5b611bb584611b56565b9250611bc360208501611b56565b9150604084013590509250925092565b600060208284031215611be557600080fd5b5035919050565b600060208284031215611bfe57600080fd5b611aec82611b56565b634e487b7160e01b600052604160045260246000fd5b600082601f830112611c2e57600080fd5b813567ffffffffffffffff80821115611c4957611c49611c07565b604051601f8301601f19908116603f01168101908282118183101715611c7157611c71611c07565b81604052838152866020858801011115611c8a57600080fd5b836020870160208301376000602085830101528094505050505092915050565b600080600080600080600060e0888a031215611cc557600080fd5b611cce88611b56565b9650602088013567ffffffffffffffff80821115611ceb57600080fd5b611cf78b838c01611c1d565b975060408a0135915080821115611d0d57600080fd5b611d198b838c01611c1d565b965060608a0135915080821115611d2f57600080fd5b611d3b8b838c01611c1d565b955060808a0135945060a08a0135915080821115611d5857600080fd5b611d648b838c01611c1d565b935060c08a0135915080821115611d7a57600080fd5b50611d878a828b01611c1d565b91505092959891949750929550565b8015158114611da457600080fd5b50565b60008060408385031215611dba57600080fd5b611dc383611b56565b91506020830135611dd381611d96565b809150509250929050565b600080600060608486031215611df357600080fd5b833592506020840135611e0581611d96565b929592945050506040919091013590565b60008060408385031215611e2957600080fd5b611e3283611b56565b9150611e4060208401611b56565b90509250929050565b600060208284031215611e5b57600080fd5b813567ffffffffffffffff811115611e7257600080fd5b61178684828501611c1d565b6000610100808352611e928184018c611b17565b90508281036020840152611ea6818b611b17565b90508281036040840152611eba818a611b17565b905087606084015286151560808401528560a084015282810360c0840152611ee28186611b17565b905082810360e0840152611ef68185611b17565b9b9a5050505050505050505050565b600181811c90821680611f1957607f821691505b602082108103611f3957634e487b7160e01b600052602260045260246000fd5b50919050565b634e487b7160e01b600052601160045260246000fd5b600081611f6457611f64611f3f565b506000190190565b600060018201611f7e57611f7e611f3f565b5060010190565b600060208284031215611f9757600080fd5b5051919050565b600060208284031215611fb057600080fd5b8151611aec81611d96565b80820180821115611fce57611fce611f3f565b92915050565b601f82111561201e57600081815260208120601f850160051c81016020861015611ffb5750805b601f850160051c820191505b8181101561201a57828155600101612007565b5050505b505050565b815167ffffffffffffffff81111561203d5761203d611c07565b6120518161204b8454611f05565b84611fd4565b602080601f831160018114612086576000841561206e5750858301515b600019600386901b1c1916600185901b17855561201a565b600085815260208120601f198616915b828110156120b557888601518255948401946001909101908401612096565b50858210156120d35787850151600019600388901b60f8161c191681555b5050505050600190811b01905550565b600082516120f5818460208701611af3565b9190910192915050565b634e487b7160e01b600052603260045260246000fd5b60008351612127818460208801611af3565b600160fd1b9083019081528351612145816001840160208801611af3565b01600101949350505050565b607b60f81b815268113730b6b2911d101160b91b6001820152835160009061218081600a850160208901611af3565b61088b60f21b600a9184019182018190526f113232b9b1b934b83a34b7b7111d101160811b600c83015285516121bd81601c850160208a01611af3565b601c920191820152691134b6b0b3b2911d101160b11b601e82015283516121eb816028840160208801611af3565b601160f91b60289290910191820152607d60f81b6029820152602a0195945050505050565b7f646174613a6170706c69636174696f6e2f6a736f6e3b6261736536342c00000081526000825161224881601d850160208701611af3565b91909101601d0192915050565b60008261227257634e487b7160e01b600052601260045260246000fd5b500490565b8082028115828204841417611fce57611fce611f3f56fe4142434445464748494a4b4c4d4e4f505152535455565758595a6162636465666768696a6b6c6d6e6f707172737475767778797a303132333435363738392b2fa2646970667358221220d7d0103acc8ff1a699b2db50f4365f55315d849da6a0517a94f957711722b4e764736f6c6343000814003368747470733a2f2f77686974652d717569636b2d6775616e2d3331342e6d7970696e6174612e636c6f75642f697066732f6261667962656964326964747a6d6874356e65777072633777683368693537633466756c68376c75637837657070367a70726e61376e70636766652f73617175616e2d6261726b6c65792e6a706768747470733a2f2f77686974652d717569636b2d6775616e2d3331342e6d7970696e6174612e636c6f75642f697066732f6261667962656964326964747a6d6874356e65777072633777683368693537633466756c68376c75637837657070367a70726e61376e70636766652f6a6f73682d616c6c656e2e6a706768747470733a2f2f77686974652d717569636b2d6775616e2d3331342e6d7970696e6174612e636c6f75642f697066732f6261667962656964326964747a6d6874356e65777072633777683368693537633466756c68376c75637837657070367a70726e61376e70636766652f73616d2d6c61706f7274612e6a706768747470733a2f2f77686974652d717569636b2d6775616e2d3331342e6d7970696e6174612e636c6f75642f697066732f6261667962656964326964747a6d6874356e65777072633777683368693537633466756c68376c75637837657070367a70726e61376e70636766652f6d616c696b2d6e61626572732e6a706768747470733a2f2f77686974652d717569636b2d6775616e2d3331342e6d7970696e6174612e636c6f75642f697066732f6261667962656964326964747a6d6874356e65777072633777683368693537633466756c68376c75637837657070367a70726e61376e70636766652f7061747269636b2d6d61686f6d65732e6a706768747470733a2f2f77686974652d717569636b2d6775616e2d3331342e6d7970696e6174612e636c6f75642f697066732f6261667962656964326964747a6d6874356e65777072633777683368693537633466756c68376c75637837657070367a70726e61376e70636766652f62726f636b2d626f776572732e6a706768747470733a2f2f77686974652d717569636b2d6775616e2d3331342e6d7970696e6174612e636c6f75642f697066732f6261667962656964326964747a6d6874356e65777072633777683368693537633466756c68376c75637837657070367a70726e61376e70636766652f6a757374696e2d6a6566666572736f6e2e6a706768747470733a2f2f77686974652d717569636b2d6775616e2d3331342e6d7970696e6174612e636c6f75642f697066732f6261667962656964326964747a6d6874356e65777072633777683368693537633466756c68376c75637837657070367a70726e61376e70636766652f6465727269636b2d68656e72792e6a7067",
  "linkReferences": {},
  "deployedLinkReferences": {}
}