{
  "_format": "hh-sol-artifact-1",
  "contractName": "FantasyFootball",
  "sourceName": "contracts/fantasyFootball.sol",
  "abi": [
    {
      "inputs": [
        {
          "internalType": "address",
          "name": "_yodaTokenAddress",
          "type": "address"
        },
        {
          "internalType": "string",
          "name": "_name",
          "type": "string"
        },
        {
          "internalType": "string",
          "name": "_symbol",
          "type": "string"
        },
        {
          "internalType": "uint256",
          "name": "MINT_PRICE",
          "type": "uint256"
        },
        {
          "internalType": "uint256",
          "name": "MAX_SUPPLY",
          "type": "uint256"
        }
      ],
      "stateMutability": "nonpayable",
      "type": "constructor"
    },
    {
      "anonymous": false,
      "inputs": [
        {
          "indexed": true,
          "internalType": "address",
          "name": "owner",
          "type": "address"
        },
        {
          "indexed": true,
          "internalType": "address",
          "name": "spender",
          "type": "address"
        },
        {
          "indexed": true,
          "internalType": "uint256",
          "name": "id",
          "type": "uint256"
        }
      ],
      "name": "Approval",
      "type": "event"
    },
    {
      "anonymous": false,
      "inputs": [
        {
          "indexed": true,
          "internalType": "address",
          "name": "owner",
          "type": "address"
        },
        {
          "indexed": true,
          "internalType": "address",
          "name": "operator",
          "type": "address"
        },
        {
          "indexed": false,
          "internalType": "bool",
          "name": "approved",
          "type": "bool"
        }
      ],
      "name": "ApprovalForAll",
      "type": "event"
    },
    {
      "anonymous": false,
      "inputs": [
        {
          "indexed": true,
          "internalType": "address",
          "name": "from",
          "type": "address"
        },
        {
          "indexed": true,
          "internalType": "address",
          "name": "to",
          "type": "address"
        },
        {
          "indexed": true,
          "internalType": "uint256",
          "name": "id",
          "type": "uint256"
        }
      ],
      "name": "Transfer",
      "type": "event"
    },
    {
      "inputs": [
        {
          "internalType": "address",
          "name": "spender",
          "type": "address"
        },
        {
          "internalType": "uint256",
          "name": "id",
          "type": "uint256"
        }
      ],
      "name": "approve",
      "outputs": [],
      "stateMutability": "nonpayable",
      "type": "function"
    },
    {
      "inputs": [
        {
          "internalType": "address",
          "name": "owner",
          "type": "address"
        }
      ],
      "name": "balanceOf",
      "outputs": [
        {
          "internalType": "uint256",
          "name": "",
          "type": "uint256"
        }
      ],
      "stateMutability": "view",
      "type": "function"
    },
    {
      "inputs": [
        {
          "internalType": "uint256",
          "name": "tokenId",
          "type": "uint256"
        }
      ],
      "name": "buy",
      "outputs": [],
      "stateMutability": "nonpayable",
      "type": "function"
    },
    {
      "inputs": [
        {
          "internalType": "address",
          "name": "",
          "type": "address"
        },
        {
          "internalType": "address",
          "name": "",
          "type": "address"
        }
      ],
      "name": "isApprovedForAll",
      "outputs": [
        {
          "internalType": "bool",
          "name": "",
          "type": "bool"
        }
      ],
      "stateMutability": "view",
      "type": "function"
    },
    {
      "inputs": [],
      "name": "max_supply",
      "outputs": [
        {
          "internalType": "uint256",
          "name": "",
          "type": "uint256"
        }
      ],
      "stateMutability": "view",
      "type": "function"
    },
    {
      "inputs": [
        {
          "internalType": "address",
          "name": "to",
          "type": "address"
        },
        {
          "internalType": "string",
          "name": "_name",
          "type": "string"
        },
        {
          "internalType": "string",
          "name": "_position",
          "type": "string"
        },
        {
          "internalType": "string",
          "name": "_team",
          "type": "string"
        },
        {
          "internalType": "uint256",
          "name": "_fantasyPoints",
          "type": "uint256"
        },
        {
          "internalType": "uint256",
          "name": "_mintPrice",
          "type": "uint256"
        },
        {
          "internalType": "bool",
          "name": "_forSale",
          "type": "bool"
        },
        {
          "internalType": "uint256",
          "name": "_salePrice",
          "type": "uint256"
        }
      ],
      "name": "mint",
      "outputs": [],
      "stateMutability": "payable",
      "type": "function"
    },
    {
      "inputs": [],
      "name": "mint_price",
      "outputs": [
        {
          "internalType": "uint256",
          "name": "",
          "type": "uint256"
        }
      ],
      "stateMutability": "view",
      "type": "function"
    },
    {
      "inputs": [],
      "name": "name",
      "outputs": [
        {
          "internalType": "string",
          "name": "",
          "type": "string"
        }
      ],
      "stateMutability": "view",
      "type": "function"
    },
    {
      "inputs": [
        {
          "internalType": "uint256",
          "name": "id",
          "type": "uint256"
        }
      ],
      "name": "ownerOf",
      "outputs": [
        {
          "internalType": "address",
          "name": "owner",
          "type": "address"
        }
      ],
      "stateMutability": "view",
      "type": "function"
    },
    {
      "inputs": [
        {
          "internalType": "string",
          "name": "",
          "type": "string"
        }
      ],
      "name": "playerImageMap",
      "outputs": [
        {
          "internalType": "string",
          "name": "",
          "type": "string"
        }
      ],
      "stateMutability": "view",
      "type": "function"
    },
    {
      "inputs": [
        {
          "internalType": "uint256",
          "name": "",
          "type": "uint256"
        }
      ],
      "name": "players",
      "outputs": [
        {
          "internalType": "string",
          "name": "name",
          "type": "string"
        },
        {
          "internalType": "string",
          "name": "position",
          "type": "string"
        },
        {
          "internalType": "string",
          "name": "team",
          "type": "string"
        },
        {
          "internalType": "uint256",
          "name": "fantasyPoints",
          "type": "uint256"
        },
        {
          "internalType": "uint256",
          "name": "mintPrice",
          "type": "uint256"
        },
        {
          "internalType": "bool",
          "name": "forSale",
          "type": "bool"
        },
        {
          "internalType": "uint256",
          "name": "salePrice",
          "type": "uint256"
        }
      ],
      "stateMutability": "view",
      "type": "function"
    },
    {
      "inputs": [
        {
          "internalType": "address",
          "name": "operator",
          "type": "address"
        },
        {
          "internalType": "bool",
          "name": "approved",
          "type": "bool"
        }
      ],
      "name": "setApprovalForAll",
      "outputs": [],
      "stateMutability": "nonpayable",
      "type": "function"
    },
    {
      "inputs": [
        {
          "internalType": "uint256",
          "name": "tokenId",
          "type": "uint256"
        },
        {
          "internalType": "bool",
          "name": "status",
          "type": "bool"
        },
        {
          "internalType": "uint256",
          "name": "price",
          "type": "uint256"
        }
      ],
      "name": "setForSale",
      "outputs": [],
      "stateMutability": "nonpayable",
      "type": "function"
    },
    {
      "inputs": [
        {
          "internalType": "bytes4",
          "name": "interfaceId",
          "type": "bytes4"
        }
      ],
      "name": "supportsInterface",
      "outputs": [
        {
          "internalType": "bool",
          "name": "",
          "type": "bool"
        }
      ],
      "stateMutability": "pure",
      "type": "function"
    },
    {
      "inputs": [],
      "name": "symbol",
      "outputs": [
        {
          "internalType": "string",
          "name": "",
          "type": "string"
        }
      ],
      "stateMutability": "view",
      "type": "function"
    },
    {
      "inputs": [
        {
          "internalType": "uint256",
          "name": "tokenId",
          "type": "uint256"
        }
      ],
      "name": "tokenURI",
      "outputs": [
        {
          "internalType": "string",
          "name": "",
          "type": "string"
        }
      ],
      "stateMutability": "view",
      "type": "function"
    },
    {
      "inputs": [],
      "name": "totalSupply",
      "outputs": [
        {
          "internalType": "uint256",
          "name": "",
          "type": "uint256"
        }
      ],
      "stateMutability": "view",
      "type": "function"
    },
    {
      "inputs": [
        {
          "internalType": "address",
          "name": "from",
          "type": "address"
        },
        {
          "internalType": "address",
          "name": "to",
          "type": "address"
        },
        {
          "internalType": "uint256",
          "name": "id",
          "type": "uint256"
        }
      ],
      "name": "transferFrom",
      "outputs": [],
      "stateMutability": "nonpayable",
      "type": "function"
    },
    {
      "inputs": [
        {
          "internalType": "uint256",
          "name": "tokenId",
          "type": "uint256"
        },
        {
          "internalType": "uint256",
          "name": "newPoints",
          "type": "uint256"
        }
      ],
      "name": "updateFantasyPoints",
      "outputs": [],
      "stateMutability": "nonpayable",
      "type": "function"
    },
    {
      "inputs": [
        {
          "internalType": "uint256",
          "name": "tokenId",
          "type": "uint256"
        },
        {
          "internalType": "string",
          "name": "newTeam",
          "type": "string"
        }
      ],
      "name": "updateTeam",
      "outputs": [],
      "stateMutability": "nonpayable",
      "type": "function"
    },
    {
      "inputs": [],
      "name": "yodaToken",
      "outputs": [
        {
          "internalType": "contract IERC20",
          "name": "",
          "type": "address"
        }
      ],
      "stateMutability": "view",
      "type": "function"
    }
  ],
  "bytecode": "0x60806040523480156200001157600080fd5b5060405162004a3a38038062004a3a83398181016040528101906200003791906200051f565b846000806101000a81548173ffffffffffffffffffffffffffffffffffffffff021916908373ffffffffffffffffffffffffffffffffffffffff1602179055506040518060a00160405280607b8152602001620046ca607b91396008604051620000a19062000640565b90815260200160405180910390209081620000bd919062000898565b506040518060a00160405280608081526020016200483e608091396008604051620000e890620009cf565b9081526020016040518091039020908162000104919062000898565b506040518060c00160405280608181526020016200493b6081913960086040516200012f9062000a36565b908152602001604051809103902090816200014b919062000898565b506040518060a00160405280607d8152602001620047c1607d91396008604051620001769062000a9d565b9081526020016040518091039020908162000192919062000898565b506040518060a00160405280607f81526020016200464b607f91396008604051620001bd9062000b04565b90815260200160405180910390209081620001d9919062000898565b506040518060a00160405280607e8152602001620049bc607e91396008604051620002049062000b6b565b9081526020016040518091039020908162000220919062000898565b506040518060a00160405280607d8152602001620048be607d913960086040516200024b9062000bd2565b9081526020016040518091039020908162000267919062000898565b506040518060a00160405280607c815260200162004745607c91396008604051620002929062000c39565b90815260200160405180910390209081620002ae919062000898565b508360019081620002c0919062000898565b508260029081620002d2919062000898565b508160038190555080600481905550505050505062000c50565b6000604051905090565b600080fd5b600080fd5b600073ffffffffffffffffffffffffffffffffffffffff82169050919050565b60006200032d8262000300565b9050919050565b6200033f8162000320565b81146200034b57600080fd5b50565b6000815190506200035f8162000334565b92915050565b600080fd5b600080fd5b6000601f19601f8301169050919050565b7f4e487b7100000000000000000000000000000000000000000000000000000000600052604160045260246000fd5b620003ba826200036f565b810181811067ffffffffffffffff82111715620003dc57620003db62000380565b5b80604052505050565b6000620003f1620002ec565b9050620003ff8282620003af565b919050565b600067ffffffffffffffff82111562000422576200042162000380565b5b6200042d826200036f565b9050602081019050919050565b60005b838110156200045a5780820151818401526020810190506200043d565b60008484015250505050565b60006200047d620004778462000404565b620003e5565b9050828152602081018484840111156200049c576200049b6200036a565b5b620004a98482856200043a565b509392505050565b600082601f830112620004c957620004c862000365565b5b8151620004db84826020860162000466565b91505092915050565b6000819050919050565b620004f981620004e4565b81146200050557600080fd5b50565b6000815190506200051981620004ee565b92915050565b600080600080600060a086880312156200053e576200053d620002f6565b5b60006200054e888289016200034e565b955050602086015167ffffffffffffffff811115620005725762000571620002fb565b5b6200058088828901620004b1565b945050604086015167ffffffffffffffff811115620005a457620005a3620002fb565b5b620005b288828901620004b1565b9350506060620005c58882890162000508565b9250506080620005d88882890162000508565b9150509295509295909350565b600081905092915050565b7f4a6f736820416c6c656e00000000000000000000000000000000000000000000600082015250565b600062000628600a83620005e5565b91506200063582620005f0565b600a82019050919050565b60006200064d8262000619565b9150819050919050565b600081519050919050565b7f4e487b7100000000000000000000000000000000000000000000000000000000600052602260045260246000fd5b60006002820490506001821680620006aa57607f821691505b602082108103620006c057620006bf62000662565b5b50919050565b60008190508160005260206000209050919050565b60006020601f8301049050919050565b600082821b905092915050565b6000600883026200072a7fffffffffffffffffffffffffffffffffffffffffffffffffffffffffffffffff82620006eb565b620007368683620006eb565b95508019841693508086168417925050509392505050565b6000819050919050565b600062000779620007736200076d84620004e4565b6200074e565b620004e4565b9050919050565b6000819050919050565b620007958362000758565b620007ad620007a48262000780565b848454620006f8565b825550505050565b600090565b620007c4620007b5565b620007d18184846200078a565b505050565b5b81811015620007f957620007ed600082620007ba565b600181019050620007d7565b5050565b601f82111562000848576200081281620006c6565b6200081d84620006db565b810160208510156200082d578190505b620008456200083c85620006db565b830182620007d6565b50505b505050565b600082821c905092915050565b60006200086d600019846008026200084d565b1980831691505092915050565b60006200088883836200085a565b9150826002028217905092915050565b620008a38262000657565b67ffffffffffffffff811115620008bf57620008be62000380565b5b620008cb825462000691565b620008d8828285620007fd565b600060209050601f831160018114620009105760008415620008fb578287015190505b6200090785826200087a565b86555062000977565b601f1984166200092086620006c6565b60005b828110156200094a5784890151825560018201915060208501945060208101905062000923565b868310156200096a578489015162000966601f8916826200085a565b8355505b6001600288020188555050505b505050505050565b7f5061747269636b204d61686f6d65730000000000000000000000000000000000600082015250565b6000620009b7600f83620005e5565b9150620009c4826200097f565b600f82019050919050565b6000620009dc82620009a8565b9150819050919050565b7f4a757374696e204a6566666572736f6e00000000000000000000000000000000600082015250565b600062000a1e601083620005e5565b915062000a2b82620009e6565b601082019050919050565b600062000a438262000a0f565b9150819050919050565b7f4d616c696b204e61626572730000000000000000000000000000000000000000600082015250565b600062000a85600c83620005e5565b915062000a928262000a4d565b600c82019050919050565b600062000aaa8262000a76565b9150819050919050565b7f53617175616e204261726b6c6579000000000000000000000000000000000000600082015250565b600062000aec600e83620005e5565b915062000af98262000ab4565b600e82019050919050565b600062000b118262000add565b9150819050919050565b7f4465727269636b2048656e727900000000000000000000000000000000000000600082015250565b600062000b53600d83620005e5565b915062000b608262000b1b565b600d82019050919050565b600062000b788262000b44565b9150819050919050565b7f42726f636b20426f776572730000000000000000000000000000000000000000600082015250565b600062000bba600c83620005e5565b915062000bc78262000b82565b600c82019050919050565b600062000bdf8262000bab565b9150819050919050565b7f53616d204c61506f727461000000000000000000000000000000000000000000600082015250565b600062000c21600b83620005e5565b915062000c2e8262000be9565b600b82019050919050565b600062000c468262000c12565b9150819050919050565b6139eb8062000c606000396000f3fe60806040526004361061012a5760003560e01c8063920d9f2f116100ab578063cdc645381161006f578063cdc64538146103e3578063cf5c1b521461040e578063d96a094a14610437578063e985e9c514610460578063ea7c03c41461049d578063f71d96cb146104da5761012a565b8063920d9f2f1461030d57806395d89b4114610336578063a22cb46514610361578063c6a43ef31461038a578063c87b56dd146103a65761012a565b806320cb5109116100f257806320cb51091461021657806323b872dd1461023f5780636352211e1461026857806370a08231146102a55780638a333b50146102e25761012a565b806301ffc9a71461012f57806306fdde031461016c578063095ea7b31461019757806318160ddd146101c05780631a4231a4146101eb575b600080fd5b34801561013b57600080fd5b5061015660048036038101906101519190612386565b61051d565b60405161016391906123ce565b60405180910390f35b34801561017857600080fd5b5061018161054f565b60405161018e9190612479565b60405180910390f35b3480156101a357600080fd5b506101be60048036038101906101b9919061252f565b6105dd565b005b3480156101cc57600080fd5b506101d56107c6565b6040516101e2919061257e565b60405180910390f35b3480156101f757600080fd5b506102006107cc565b60405161020d919061257e565b60405180910390f35b34801561022257600080fd5b5061023d600480360381019061023891906126ce565b6107d2565b005b34801561024b57600080fd5b506102666004803603810190610261919061272a565b6107fa565b005b34801561027457600080fd5b5061028f600480360381019061028a919061277d565b610ae6565b60405161029c91906127b9565b60405180910390f35b3480156102b157600080fd5b506102cc60048036038101906102c791906127d4565b610b92565b6040516102d9919061257e565b60405180910390f35b3480156102ee57600080fd5b506102f7610c49565b604051610304919061257e565b60405180910390f35b34801561031957600080fd5b50610334600480360381019061032f9190612801565b610c4f565b005b34801561034257600080fd5b5061034b610c6e565b6040516103589190612479565b60405180910390f35b34801561036d57600080fd5b506103886004803603810190610383919061286d565b610cfc565b005b6103a4600480360381019061039f91906128ad565b610df9565b005b3480156103b257600080fd5b506103cd60048036038101906103c8919061277d565b610fba565b6040516103da9190612479565b60405180910390f35b3480156103ef57600080fd5b506103f86113a0565b6040516104059190612a16565b60405180910390f35b34801561041a57600080fd5b5061043560048036038101906104309190612a31565b6113c4565b005b34801561044357600080fd5b5061045e6004803603810190610459919061277d565b6114b3565b005b34801561046c57600080fd5b5061048760048036038101906104829190612a84565b6116c7565b60405161049491906123ce565b60405180910390f35b3480156104a957600080fd5b506104c460048036038101906104bf9190612ac4565b6116f6565b6040516104d19190612479565b60405180910390f35b3480156104e657600080fd5b5061050160048036038101906104fc919061277d565b6117ac565b6040516105149796959493929190612b0d565b60405180910390f35b60006380ac58cd60e01b827bffffffffffffffffffffffffffffffffffffffffffffffffffffffff1916149050919050565b6001805461055c90612bc0565b80601f016020809104026020016040519081016040528092919081815260200182805461058890612bc0565b80156105d55780601f106105aa576101008083540402835291602001916105d5565b820191906000526020600020905b8154815290600101906020018083116105b857829003601f168201915b505050505081565b60006009600083815260200190815260200160002060009054906101000a900473ffffffffffffffffffffffffffffffffffffffff1690508073ffffffffffffffffffffffffffffffffffffffff163373ffffffffffffffffffffffffffffffffffffffff1614806106d55750600d60008273ffffffffffffffffffffffffffffffffffffffff1673ffffffffffffffffffffffffffffffffffffffff16815260200190815260200160002060003373ffffffffffffffffffffffffffffffffffffffff1673ffffffffffffffffffffffffffffffffffffffff16815260200190815260200160002060009054906101000a900460ff165b610714576040517f08c379a000000000000000000000000000000000000000000000000000000000815260040161070b90612c3d565b60405180910390fd5b82600c600084815260200190815260200160002060006101000a81548173ffffffffffffffffffffffffffffffffffffffff021916908373ffffffffffffffffffffffffffffffffffffffff160217905550818373ffffffffffffffffffffffffffffffffffffffff168273ffffffffffffffffffffffffffffffffffffffff167f8c5be1e5ebec7d5bd14f71427d1e84f3dd0314c0f7b2291e5b200ac8c7c3b92560405160405180910390a4505050565b60065481565b60035481565b806007600084815260200190815260200160002060020190816107f59190612dff565b505050565b6009600082815260200190815260200160002060009054906101000a900473ffffffffffffffffffffffffffffffffffffffff1673ffffffffffffffffffffffffffffffffffffffff168373ffffffffffffffffffffffffffffffffffffffff161461089b576040517f08c379a000000000000000000000000000000000000000000000000000000000815260040161089290612f1d565b60405180910390fd5b600073ffffffffffffffffffffffffffffffffffffffff168273ffffffffffffffffffffffffffffffffffffffff160361090a576040517f08c379a000000000000000000000000000000000000000000000000000000000815260040161090190612f89565b60405180910390fd5b610915833383611993565b610954576040517f08c379a000000000000000000000000000000000000000000000000000000000815260040161094b90612c3d565b60405180910390fd5b600b60008473ffffffffffffffffffffffffffffffffffffffff1673ffffffffffffffffffffffffffffffffffffffff16815260200190815260200160002060008154809291906109a490612fd8565b9190505550600b60008373ffffffffffffffffffffffffffffffffffffffff1673ffffffffffffffffffffffffffffffffffffffff16815260200190815260200160002060008154809291906109f990613001565b9190505550816009600083815260200190815260200160002060006101000a81548173ffffffffffffffffffffffffffffffffffffffff021916908373ffffffffffffffffffffffffffffffffffffffff160217905550600c600082815260200190815260200160002060006101000a81549073ffffffffffffffffffffffffffffffffffffffff0219169055808273ffffffffffffffffffffffffffffffffffffffff168473ffffffffffffffffffffffffffffffffffffffff167fddf252ad1be2c89b69c2b068fc378daa952ba7f163c4a11628f55a4df523b3ef60405160405180910390a4505050565b60006009600083815260200190815260200160002060009054906101000a900473ffffffffffffffffffffffffffffffffffffffff169050600073ffffffffffffffffffffffffffffffffffffffff168173ffffffffffffffffffffffffffffffffffffffff1603610b8d576040517f08c379a0000000000000000000000000000000000000000000000000000000008152600401610b8490613095565b60405180910390fd5b919050565b60008073ffffffffffffffffffffffffffffffffffffffff168273ffffffffffffffffffffffffffffffffffffffff1603610c02576040517f08c379a0000000000000000000000000000000000000000000000000000000008152600401610bf990613101565b60405180910390fd5b600b60008373ffffffffffffffffffffffffffffffffffffffff1673ffffffffffffffffffffffffffffffffffffffff168152602001908152602001600020549050919050565b60045481565b8060076000848152602001908152602001600020600301819055505050565b60028054610c7b90612bc0565b80601f0160208091040260200160405190810160405280929190818152602001828054610ca790612bc0565b8015610cf45780601f10610cc957610100808354040283529160200191610cf4565b820191906000526020600020905b815481529060010190602001808311610cd757829003601f168201915b505050505081565b80600d60003373ffffffffffffffffffffffffffffffffffffffff1673ffffffffffffffffffffffffffffffffffffffff16815260200190815260200160002060008473ffffffffffffffffffffffffffffffffffffffff1673ffffffffffffffffffffffffffffffffffffffff16815260200190815260200160002060006101000a81548160ff0219169083151502179055508173ffffffffffffffffffffffffffffffffffffffff163373ffffffffffffffffffffffffffffffffffffffff167f17307eab39ab6107e8899845ad3d59bd9653f200f220920489ca2b5937696c3183604051610ded91906123ce565b60405180910390a35050565b60045460055410610e3f576040517f08c379a0000000000000000000000000000000000000000000000000000000008152600401610e369061316d565b60405180910390fd5b600060056000815480929190610e5490613001565b919050559050610e648982611ac7565b600160066000828254610e77919061318d565b925050819055506040518060e00160405280898152602001888152602001878152602001868152602001858152602001841515815260200183815250600760008381526020019081526020016000206000820151816000019081610edb9190612dff565b506020820151816001019081610ef19190612dff565b506040820151816002019081610f079190612dff565b50606082015181600301556080820151816004015560a08201518160050160006101000a81548160ff02191690831515021790555060c08201518160060155905050600a60008a73ffffffffffffffffffffffffffffffffffffffff1673ffffffffffffffffffffffffffffffffffffffff168152602001908152602001600020819080600181540180825580915050600190039060005260206000200160009091909190915055505050505050505050565b6060600073ffffffffffffffffffffffffffffffffffffffff166009600084815260200190815260200160002060009054906101000a900473ffffffffffffffffffffffffffffffffffffffff1673ffffffffffffffffffffffffffffffffffffffff160361105e576040517f08c379a00000000000000000000000000000000000000000000000000000000081526004016110559061320d565b60405180910390fd5b6000600760008481526020019081526020016000206040518060e001604052908160008201805461108e90612bc0565b80601f01602080910402602001604051908101604052809291908181526020018280546110ba90612bc0565b80156111075780601f106110dc57610100808354040283529160200191611107565b820191906000526020600020905b8154815290600101906020018083116110ea57829003601f168201915b5050505050815260200160018201805461112090612bc0565b80601f016020809104026020016040519081016040528092919081815260200182805461114c90612bc0565b80156111995780601f1061116e57610100808354040283529160200191611199565b820191906000526020600020905b81548152906001019060200180831161117c57829003601f168201915b505050505081526020016002820180546111b290612bc0565b80601f01602080910402602001604051908101604052809291908181526020018280546111de90612bc0565b801561122b5780601f106112005761010080835404028352916020019161122b565b820191906000526020600020905b81548152906001019060200180831161120e57829003601f168201915b5050505050815260200160038201548152602001600482015481526020016005820160009054906101000a900460ff1615151515815260200160068201548152505090506000600882600001516040516112859190613269565b9081526020016040518091039020805461129e90612bc0565b80601f01602080910402602001604051908101604052809291908181526020018280546112ca90612bc0565b80156113175780601f106112ec57610100808354040283529160200191611317565b820191906000526020600020905b8154815290600101906020018083116112fa57829003601f168201915b50505050509050600082600001518360000151846020015185604001516113418760600151611cdf565b8660405160200161135796959493929190613578565b6040516020818303038152906040529050600061137382611dad565b9050806040516020016113869190613695565b604051602081830303815290604052945050505050919050565b60008054906101000a900473ffffffffffffffffffffffffffffffffffffffff1681565b3373ffffffffffffffffffffffffffffffffffffffff166009600085815260200190815260200160002060009054906101000a900473ffffffffffffffffffffffffffffffffffffffff1673ffffffffffffffffffffffffffffffffffffffff1614611465576040517f08c379a000000000000000000000000000000000000000000000000000000000815260040161145c90613703565b60405180910390fd5b816007600085815260200190815260200160002060050160006101000a81548160ff021916908315150217905550806007600085815260200190815260200160002060060181905550505050565b600073ffffffffffffffffffffffffffffffffffffffff166009600083815260200190815260200160002060009054906101000a900473ffffffffffffffffffffffffffffffffffffffff1673ffffffffffffffffffffffffffffffffffffffff1603611555576040517f08c379a000000000000000000000000000000000000000000000000000000000815260040161154c9061320d565b60405180910390fd5b3373ffffffffffffffffffffffffffffffffffffffff166009600083815260200190815260200160002060009054906101000a900473ffffffffffffffffffffffffffffffffffffffff1673ffffffffffffffffffffffffffffffffffffffff16036115f6576040517f08c379a00000000000000000000000000000000000000000000000000000000081526004016115ed9061376f565b60405180910390fd5b60006007600083815260200190815260200160002090508060050160009054906101000a900460ff1661165e576040517f08c379a0000000000000000000000000000000000000000000000000000000008152600401611655906137db565b60405180910390fd5b60008160050160006101000a81548160ff021916908315150217905550600081600601819055506116c36009600084815260200190815260200160002060009054906101000a900473ffffffffffffffffffffffffffffffffffffffff163384611f25565b5050565b600d6020528160005260406000206020528060005260406000206000915091509054906101000a900460ff1681565b600881805160208101820180518482526020830160208501208183528095505050505050600091509050805461172b90612bc0565b80601f016020809104026020016040519081016040528092919081815260200182805461175790612bc0565b80156117a45780601f10611779576101008083540402835291602001916117a4565b820191906000526020600020905b81548152906001019060200180831161178757829003601f168201915b505050505081565b60076020528060005260406000206000915090508060000180546117cf90612bc0565b80601f01602080910402602001604051908101604052809291908181526020018280546117fb90612bc0565b80156118485780601f1061181d57610100808354040283529160200191611848565b820191906000526020600020905b81548152906001019060200180831161182b57829003601f168201915b50505050509080600101805461185d90612bc0565b80601f016020809104026020016040519081016040528092919081815260200182805461188990612bc0565b80156118d65780601f106118ab576101008083540402835291602001916118d6565b820191906000526020600020905b8154815290600101906020018083116118b957829003601f168201915b5050505050908060020180546118eb90612bc0565b80601f016020809104026020016040519081016040528092919081815260200182805461191790612bc0565b80156119645780601f1061193957610100808354040283529160200191611964565b820191906000526020600020905b81548152906001019060200180831161194757829003601f168201915b5050505050908060030154908060040154908060050160009054906101000a900460ff16908060060154905087565b60008373ffffffffffffffffffffffffffffffffffffffff168373ffffffffffffffffffffffffffffffffffffffff161480611a555750600d60008573ffffffffffffffffffffffffffffffffffffffff1673ffffffffffffffffffffffffffffffffffffffff16815260200190815260200160002060008473ffffffffffffffffffffffffffffffffffffffff1673ffffffffffffffffffffffffffffffffffffffff16815260200190815260200160002060009054906101000a900460ff165b80611abe5750600c600083815260200190815260200160002060009054906101000a900473ffffffffffffffffffffffffffffffffffffffff1673ffffffffffffffffffffffffffffffffffffffff168373ffffffffffffffffffffffffffffffffffffffff16145b90509392505050565b600073ffffffffffffffffffffffffffffffffffffffff168273ffffffffffffffffffffffffffffffffffffffff1603611b36576040517f08c379a0000000000000000000000000000000000000000000000000000000008152600401611b2d90613847565b60405180910390fd5b600073ffffffffffffffffffffffffffffffffffffffff166009600083815260200190815260200160002060009054906101000a900473ffffffffffffffffffffffffffffffffffffffff1673ffffffffffffffffffffffffffffffffffffffff1614611bd8576040517f08c379a0000000000000000000000000000000000000000000000000000000008152600401611bcf906138b3565b60405180910390fd5b600b60008373ffffffffffffffffffffffffffffffffffffffff1673ffffffffffffffffffffffffffffffffffffffff1681526020019081526020016000206000815480929190611c2890613001565b9190505550816009600083815260200190815260200160002060006101000a81548173ffffffffffffffffffffffffffffffffffffffff021916908373ffffffffffffffffffffffffffffffffffffffff160217905550808273ffffffffffffffffffffffffffffffffffffffff16600073ffffffffffffffffffffffffffffffffffffffff167fddf252ad1be2c89b69c2b068fc378daa952ba7f163c4a11628f55a4df523b3ef60405160405180910390a45050565b606060006001611cee846121c7565b01905060008167ffffffffffffffff811115611d0d57611d0c6125a3565b5b6040519080825280601f01601f191660200182016040528015611d3f5781602001600182028036833780820191505090505b509050600082602001820190505b600115611da2578080600190039150507f3031323334353637383961626364656600000000000000000000000000000000600a86061a8153600a8581611d9657611d956138d3565b5b04945060008503611d4d575b819350505050919050565b60606000825103611dcf57604051806020016040528060008152509050611f20565b60006040518060600160405280604081526020016139766040913990506000600360028551611dfe919061318d565b611e089190613902565b6004611e149190613933565b90506000602082611e25919061318d565b67ffffffffffffffff811115611e3e57611e3d6125a3565b5b6040519080825280601f01601f191660200182016040528015611e705781602001600182028036833780820191505090505b509050818152600183018586518101602084015b81831015611edf576003830192508251603f8160121c168501518253600182019150603f81600c1c168501518253600182019150603f8160061c168501518253600182019150603f8116850151825360018201915050611e84565b600389510660018114611ef95760028114611f0957611f14565b613d3d60f01b6002830352611f14565b603d60f81b60018303525b50505050508093505050505b919050565b6009600082815260200190815260200160002060009054906101000a900473ffffffffffffffffffffffffffffffffffffffff1673ffffffffffffffffffffffffffffffffffffffff168373ffffffffffffffffffffffffffffffffffffffff1614611fc6576040517f08c379a0000000000000000000000000000000000000000000000000000000008152600401611fbd90612f1d565b60405180910390fd5b600073ffffffffffffffffffffffffffffffffffffffff168273ffffffffffffffffffffffffffffffffffffffff1603612035576040517f08c379a000000000000000000000000000000000000000000000000000000000815260040161202c90612f89565b60405180910390fd5b600b60008473ffffffffffffffffffffffffffffffffffffffff1673ffffffffffffffffffffffffffffffffffffffff168152602001908152602001600020600081548092919061208590612fd8565b9190505550600b60008373ffffffffffffffffffffffffffffffffffffffff1673ffffffffffffffffffffffffffffffffffffffff16815260200190815260200160002060008154809291906120da90613001565b9190505550816009600083815260200190815260200160002060006101000a81548173ffffffffffffffffffffffffffffffffffffffff021916908373ffffffffffffffffffffffffffffffffffffffff160217905550600c600082815260200190815260200160002060006101000a81549073ffffffffffffffffffffffffffffffffffffffff0219169055808273ffffffffffffffffffffffffffffffffffffffff168473ffffffffffffffffffffffffffffffffffffffff167fddf252ad1be2c89b69c2b068fc378daa952ba7f163c4a11628f55a4df523b3ef60405160405180910390a4505050565b600080600090507a184f03e93ff9f4daa797ed6e38ed64bf6a1f0100000000000000008310612225577a184f03e93ff9f4daa797ed6e38ed64bf6a1f010000000000000000838161221b5761221a6138d3565b5b0492506040810190505b6d04ee2d6d415b85acef81000000008310612262576d04ee2d6d415b85acef81000000008381612258576122576138d3565b5b0492506020810190505b662386f26fc10000831061229157662386f26fc100008381612287576122866138d3565b5b0492506010810190505b6305f5e10083106122ba576305f5e10083816122b0576122af6138d3565b5b0492506008810190505b61271083106122df5761271083816122d5576122d46138d3565b5b0492506004810190505b6064831061230257606483816122f8576122f76138d3565b5b0492506002810190505b600a8310612311576001810190505b80915050919050565b6000604051905090565b600080fd5b600080fd5b60007fffffffff0000000000000000000000000000000000000000000000000000000082169050919050565b6123638161232e565b811461236e57600080fd5b50565b6000813590506123808161235a565b92915050565b60006020828403121561239c5761239b612324565b5b60006123aa84828501612371565b91505092915050565b60008115159050919050565b6123c8816123b3565b82525050565b60006020820190506123e360008301846123bf565b92915050565b600081519050919050565b600082825260208201905092915050565b60005b83811015612423578082015181840152602081019050612408565b60008484015250505050565b6000601f19601f8301169050919050565b600061244b826123e9565b61245581856123f4565b9350612465818560208601612405565b61246e8161242f565b840191505092915050565b600060208201905081810360008301526124938184612440565b905092915050565b600073ffffffffffffffffffffffffffffffffffffffff82169050919050565b60006124c68261249b565b9050919050565b6124d6816124bb565b81146124e157600080fd5b50565b6000813590506124f3816124cd565b92915050565b6000819050919050565b61250c816124f9565b811461251757600080fd5b50565b60008135905061252981612503565b92915050565b6000806040838503121561254657612545612324565b5b6000612554858286016124e4565b92505060206125658582860161251a565b9150509250929050565b612578816124f9565b82525050565b6000602082019050612593600083018461256f565b92915050565b600080fd5b600080fd5b7f4e487b7100000000000000000000000000000000000000000000000000000000600052604160045260246000fd5b6125db8261242f565b810181811067ffffffffffffffff821117156125fa576125f96125a3565b5b80604052505050565b600061260d61231a565b905061261982826125d2565b919050565b600067ffffffffffffffff821115612639576126386125a3565b5b6126428261242f565b9050602081019050919050565b82818337600083830152505050565b600061267161266c8461261e565b612603565b90508281526020810184848401111561268d5761268c61259e565b5b61269884828561264f565b509392505050565b600082601f8301126126b5576126b4612599565b5b81356126c584826020860161265e565b91505092915050565b600080604083850312156126e5576126e4612324565b5b60006126f38582860161251a565b925050602083013567ffffffffffffffff81111561271457612713612329565b5b612720858286016126a0565b9150509250929050565b60008060006060848603121561274357612742612324565b5b6000612751868287016124e4565b9350506020612762868287016124e4565b92505060406127738682870161251a565b9150509250925092565b60006020828403121561279357612792612324565b5b60006127a18482850161251a565b91505092915050565b6127b3816124bb565b82525050565b60006020820190506127ce60008301846127aa565b92915050565b6000602082840312156127ea576127e9612324565b5b60006127f8848285016124e4565b91505092915050565b6000806040838503121561281857612817612324565b5b60006128268582860161251a565b92505060206128378582860161251a565b9150509250929050565b61284a816123b3565b811461285557600080fd5b50565b60008135905061286781612841565b92915050565b6000806040838503121561288457612883612324565b5b6000612892858286016124e4565b92505060206128a385828601612858565b9150509250929050565b600080600080600080600080610100898b0312156128ce576128cd612324565b5b60006128dc8b828c016124e4565b985050602089013567ffffffffffffffff8111156128fd576128fc612329565b5b6129098b828c016126a0565b975050604089013567ffffffffffffffff81111561292a57612929612329565b5b6129368b828c016126a0565b965050606089013567ffffffffffffffff81111561295757612956612329565b5b6129638b828c016126a0565b95505060806129748b828c0161251a565b94505060a06129858b828c0161251a565b93505060c06129968b828c01612858565b92505060e06129a78b828c0161251a565b9150509295985092959890939650565b6000819050919050565b60006129dc6129d76129d28461249b565b6129b7565b61249b565b9050919050565b60006129ee826129c1565b9050919050565b6000612a00826129e3565b9050919050565b612a10816129f5565b82525050565b6000602082019050612a2b6000830184612a07565b92915050565b600080600060608486031215612a4a57612a49612324565b5b6000612a588682870161251a565b9350506020612a6986828701612858565b9250506040612a7a8682870161251a565b9150509250925092565b60008060408385031215612a9b57612a9a612324565b5b6000612aa9858286016124e4565b9250506020612aba858286016124e4565b9150509250929050565b600060208284031215612ada57612ad9612324565b5b600082013567ffffffffffffffff811115612af857612af7612329565b5b612b04848285016126a0565b91505092915050565b600060e0820190508181036000830152612b27818a612440565b90508181036020830152612b3b8189612440565b90508181036040830152612b4f8188612440565b9050612b5e606083018761256f565b612b6b608083018661256f565b612b7860a08301856123bf565b612b8560c083018461256f565b98975050505050505050565b7f4e487b7100000000000000000000000000000000000000000000000000000000600052602260045260246000fd5b60006002820490506001821680612bd857607f821691505b602082108103612beb57612bea612b91565b5b50919050565b7f6e6f7420617574686f72697a6564000000000000000000000000000000000000600082015250565b6000612c27600e836123f4565b9150612c3282612bf1565b602082019050919050565b60006020820190508181036000830152612c5681612c1a565b9050919050565b60008190508160005260206000209050919050565b60006020601f8301049050919050565b600082821b905092915050565b600060088302612cbf7fffffffffffffffffffffffffffffffffffffffffffffffffffffffffffffffff82612c82565b612cc98683612c82565b95508019841693508086168417925050509392505050565b6000612cfc612cf7612cf2846124f9565b6129b7565b6124f9565b9050919050565b6000819050919050565b612d1683612ce1565b612d2a612d2282612d03565b848454612c8f565b825550505050565b600090565b612d3f612d32565b612d4a818484612d0d565b505050565b5b81811015612d6e57612d63600082612d37565b600181019050612d50565b5050565b601f821115612db357612d8481612c5d565b612d8d84612c72565b81016020851015612d9c578190505b612db0612da885612c72565b830182612d4f565b50505b505050565b600082821c905092915050565b6000612dd660001984600802612db8565b1980831691505092915050565b6000612def8383612dc5565b9150826002028217905092915050565b612e08826123e9565b67ffffffffffffffff811115612e2157612e206125a3565b5b612e2b8254612bc0565b612e36828285612d72565b600060209050601f831160018114612e695760008415612e57578287015190505b612e618582612de3565b865550612ec9565b601f198416612e7786612c5d565b60005b82811015612e9f57848901518255600182019150602085019450602081019050612e7a565b86831015612ebc5784890151612eb8601f891682612dc5565b8355505b6001600288020188555050505b505050505050565b7f66726f6d20213d206f776e657200000000000000000000000000000000000000600082015250565b6000612f07600d836123f4565b9150612f1282612ed1565b602082019050919050565b60006020820190508181036000830152612f3681612efa565b9050919050565b7f7472616e7366657220746f207a65726f20616464726573730000000000000000600082015250565b6000612f736018836123f4565b9150612f7e82612f3d565b602082019050919050565b60006020820190508181036000830152612fa281612f66565b9050919050565b7f4e487b7100000000000000000000000000000000000000000000000000000000600052601160045260246000fd5b6000612fe3826124f9565b915060008203612ff657612ff5612fa9565b5b600182039050919050565b600061300c826124f9565b91507fffffffffffffffffffffffffffffffffffffffffffffffffffffffffffffffff820361303e5761303d612fa9565b5b600182019050919050565b7f746f6b656e20646f65736e277420657869737400000000000000000000000000600082015250565b600061307f6013836123f4565b915061308a82613049565b602082019050919050565b600060208201905081810360008301526130ae81613072565b9050919050565b7f6f776e6572203d207a65726f2061646472657373000000000000000000000000600082015250565b60006130eb6014836123f4565b91506130f6826130b5565b602082019050919050565b6000602082019050818103600083015261311a816130de565b9050919050565b7f4d617820737570706c7920726561636865640000000000000000000000000000600082015250565b60006131576012836123f4565b915061316282613121565b602082019050919050565b600060208201905081810360008301526131868161314a565b9050919050565b6000613198826124f9565b91506131a3836124f9565b92508282019050808211156131bb576131ba612fa9565b5b92915050565b7f546f6b656e20646f6573206e6f74206578697374000000000000000000000000600082015250565b60006131f76014836123f4565b9150613202826131c1565b602082019050919050565b60006020820190508181036000830152613226816131ea565b9050919050565b600081905092915050565b6000613243826123e9565b61324d818561322d565b935061325d818560208601612405565b80840191505092915050565b60006132758284613238565b915081905092915050565b7f7b00000000000000000000000000000000000000000000000000000000000000600082015250565b60006132b660018361322d565b91506132c182613280565b600182019050919050565b7f226e616d65223a20220000000000000000000000000000000000000000000000600082015250565b600061330260098361322d565b915061330d826132cc565b600982019050919050565b7f222c000000000000000000000000000000000000000000000000000000000000600082015250565b600061334e60028361322d565b915061335982613318565b600282019050919050565b7f226465736372697074696f6e223a202200000000000000000000000000000000600082015250565b600061339a60108361322d565b91506133a582613364565b601082019050919050565b7f2069732061200000000000000000000000000000000000000000000000000000600082015250565b60006133e660068361322d565b91506133f1826133b0565b600682019050919050565b7f20666f7220746865200000000000000000000000000000000000000000000000600082015250565b600061343260098361322d565b915061343d826133fc565b600982019050919050565b7f2e2046616e7461737920506f696e74733a200000000000000000000000000000600082015250565b600061347e60128361322d565b915061348982613448565b601282019050919050565b7f22696d616765223a202200000000000000000000000000000000000000000000600082015250565b60006134ca600a8361322d565b91506134d582613494565b600a82019050919050565b7f2200000000000000000000000000000000000000000000000000000000000000600082015250565b600061351660018361322d565b9150613521826134e0565b600182019050919050565b7f7d00000000000000000000000000000000000000000000000000000000000000600082015250565b600061356260018361322d565b915061356d8261352c565b600182019050919050565b6000613583826132a9565b915061358e826132f5565b915061359a8289613238565b91506135a582613341565b91506135b08261338d565b91506135bc8288613238565b91506135c7826133d9565b91506135d38287613238565b91506135de82613425565b91506135ea8286613238565b91506135f582613471565b91506136018285613238565b915061360c82613341565b9150613617826134bd565b91506136238284613238565b915061362e82613509565b915061363982613555565b9150819050979650505050505050565b7f646174613a6170706c69636174696f6e2f6a736f6e3b6261736536342c000000600082015250565b600061367f601d8361322d565b915061368a82613649565b601d82019050919050565b60006136a082613672565b91506136ac8284613238565b915081905092915050565b7f4e6f742074686520746f6b656e206f776e657200000000000000000000000000600082015250565b60006136ed6013836123f4565b91506136f8826136b7565b602082019050919050565b6000602082019050818103600083015261371c816136e0565b9050919050565b7f596f7520616c7265616479206f776e2074686973204e46540000000000000000600082015250565b60006137596018836123f4565b915061376482613723565b602082019050919050565b600060208201905081810360008301526137888161374c565b9050919050565b7f4e4654206e6f7420666f722073616c6500000000000000000000000000000000600082015250565b60006137c56010836123f4565b91506137d08261378f565b602082019050919050565b600060208201905081810360008301526137f4816137b8565b9050919050565b7f6d696e7420746f207a65726f2061646472657373000000000000000000000000600082015250565b60006138316014836123f4565b915061383c826137fb565b602082019050919050565b6000602082019050818103600083015261386081613824565b9050919050565b7f616c7265616479206d696e746564000000000000000000000000000000000000600082015250565b600061389d600e836123f4565b91506138a882613867565b602082019050919050565b600060208201905081810360008301526138cc81613890565b9050919050565b7f4e487b7100000000000000000000000000000000000000000000000000000000600052601260045260246000fd5b600061390d826124f9565b9150613918836124f9565b925082613928576139276138d3565b5b828204905092915050565b600061393e826124f9565b9150613949836124f9565b9250828202613957816124f9565b9150828204841483151761396e5761396d612fa9565b5b509291505056fe4142434445464748494a4b4c4d4e4f505152535455565758595a6162636465666768696a6b6c6d6e6f707172737475767778797a303132333435363738392b2fa264697066735822122060da495438faab36e66f67dea188ebdd3800881ef77a946e4a9624f57235abd664736f6c6343000814003368747470733a2f2f77686974652d717569636b2d6775616e2d3331342e6d7970696e6174612e636c6f75642f697066732f6261667962656964326964747a6d6874356e65777072633777683368693537633466756c68376c75637837657070367a70726e61376e70636766652f73617175616e2d6261726b6c65792e6a706768747470733a2f2f77686974652d717569636b2d6775616e2d3331342e6d7970696e6174612e636c6f75642f697066732f6261667962656964326964747a6d6874356e65777072633777683368693537633466756c68376c75637837657070367a70726e61376e70636766652f6a6f73682d616c6c656e2e6a706768747470733a2f2f77686974652d717569636b2d6775616e2d3331342e6d7970696e6174612e636c6f75642f697066732f6261667962656964326964747a6d6874356e65777072633777683368693537633466756c68376c75637837657070367a70726e61376e70636766652f73616d2d6c61706f7274612e6a706768747470733a2f2f77686974652d717569636b2d6775616e2d3331342e6d7970696e6174612e636c6f75642f697066732f6261667962656964326964747a6d6874356e65777072633777683368693537633466756c68376c75637837657070367a70726e61376e70636766652f6d616c696b2d6e61626572732e6a706768747470733a2f2f77686974652d717569636b2d6775616e2d3331342e6d7970696e6174612e636c6f75642f697066732f6261667962656964326964747a6d6874356e65777072633777683368693537633466756c68376c75637837657070367a70726e61376e70636766652f7061747269636b2d6d61686f6d65732e6a706768747470733a2f2f77686974652d717569636b2d6775616e2d3331342e6d7970696e6174612e636c6f75642f697066732f6261667962656964326964747a6d6874356e65777072633777683368693537633466756c68376c75637837657070367a70726e61376e70636766652f62726f636b2d626f776572732e6a706768747470733a2f2f77686974652d717569636b2d6775616e2d3331342e6d7970696e6174612e636c6f75642f697066732f6261667962656964326964747a6d6874356e65777072633777683368693537633466756c68376c75637837657070367a70726e61376e70636766652f6a757374696e2d6a6566666572736f6e2e6a706768747470733a2f2f77686974652d717569636b2d6775616e2d3331342e6d7970696e6174612e636c6f75642f697066732f6261667962656964326964747a6d6874356e65777072633777683368693537633466756c68376c75637837657070367a70726e61376e70636766652f6465727269636b2d68656e72792e6a7067",
  "linkReferences": {},
  "deployedLinkReferences": {}
}