{
  "_format": "hh-sol-artifact-1",
  "contractName": "FantasyFootball",
  "sourceName": "contracts/fantasyFootball.sol",
  "abi": [
    {
      "inputs": [
        {
          "internalType": "address",
          "name": "_yodaTokenAddress",
          "type": "address"
        },
        {
          "internalType": "string",
          "name": "_name",
          "type": "string"
        },
        {
          "internalType": "string",
          "name": "_symbol",
          "type": "string"
        },
        {
          "internalType": "uint256",
          "name": "MINT_PRICE",
          "type": "uint256"
        },
        {
          "internalType": "uint256",
          "name": "MAX_SUPPLY",
          "type": "uint256"
        }
      ],
      "stateMutability": "nonpayable",
      "type": "constructor"
    },
    {
      "anonymous": false,
      "inputs": [
        {
          "indexed": true,
          "internalType": "address",
          "name": "owner",
          "type": "address"
        },
        {
          "indexed": true,
          "internalType": "address",
          "name": "spender",
          "type": "address"
        },
        {
          "indexed": true,
          "internalType": "uint256",
          "name": "id",
          "type": "uint256"
        }
      ],
      "name": "Approval",
      "type": "event"
    },
    {
      "anonymous": false,
      "inputs": [
        {
          "indexed": true,
          "internalType": "address",
          "name": "owner",
          "type": "address"
        },
        {
          "indexed": true,
          "internalType": "address",
          "name": "operator",
          "type": "address"
        },
        {
          "indexed": false,
          "internalType": "bool",
          "name": "approved",
          "type": "bool"
        }
      ],
      "name": "ApprovalForAll",
      "type": "event"
    },
    {
      "anonymous": false,
      "inputs": [
        {
          "indexed": true,
          "internalType": "address",
          "name": "from",
          "type": "address"
        },
        {
          "indexed": true,
          "internalType": "address",
          "name": "to",
          "type": "address"
        },
        {
          "indexed": true,
          "internalType": "uint256",
          "name": "id",
          "type": "uint256"
        }
      ],
      "name": "Transfer",
      "type": "event"
    },
    {
      "inputs": [
        {
          "internalType": "address",
          "name": "spender",
          "type": "address"
        },
        {
          "internalType": "uint256",
          "name": "id",
          "type": "uint256"
        }
      ],
      "name": "approve",
      "outputs": [],
      "stateMutability": "nonpayable",
      "type": "function"
    },
    {
      "inputs": [
        {
          "internalType": "address",
          "name": "owner",
          "type": "address"
        }
      ],
      "name": "balanceOf",
      "outputs": [
        {
          "internalType": "uint256",
          "name": "",
          "type": "uint256"
        }
      ],
      "stateMutability": "view",
      "type": "function"
    },
    {
      "inputs": [
        {
          "internalType": "address",
          "name": "",
          "type": "address"
        },
        {
          "internalType": "address",
          "name": "",
          "type": "address"
        }
      ],
      "name": "isApprovedForAll",
      "outputs": [
        {
          "internalType": "bool",
          "name": "",
          "type": "bool"
        }
      ],
      "stateMutability": "view",
      "type": "function"
    },
    {
      "inputs": [],
      "name": "max_supply",
      "outputs": [
        {
          "internalType": "uint256",
          "name": "",
          "type": "uint256"
        }
      ],
      "stateMutability": "view",
      "type": "function"
    },
    {
      "inputs": [
        {
          "internalType": "address",
          "name": "to",
          "type": "address"
        },
        {
          "internalType": "string",
          "name": "_name",
          "type": "string"
        },
        {
          "internalType": "string",
          "name": "_position",
          "type": "string"
        },
        {
          "internalType": "string",
          "name": "_team",
          "type": "string"
        },
        {
          "internalType": "uint256",
          "name": "_fantasyPoints",
          "type": "uint256"
        }
      ],
      "name": "mint",
      "outputs": [],
      "stateMutability": "payable",
      "type": "function"
    },
    {
      "inputs": [],
      "name": "mint_price",
      "outputs": [
        {
          "internalType": "uint256",
          "name": "",
          "type": "uint256"
        }
      ],
      "stateMutability": "view",
      "type": "function"
    },
    {
      "inputs": [],
      "name": "name",
      "outputs": [
        {
          "internalType": "string",
          "name": "",
          "type": "string"
        }
      ],
      "stateMutability": "view",
      "type": "function"
    },
    {
      "inputs": [
        {
          "internalType": "uint256",
          "name": "id",
          "type": "uint256"
        }
      ],
      "name": "ownerOf",
      "outputs": [
        {
          "internalType": "address",
          "name": "owner",
          "type": "address"
        }
      ],
      "stateMutability": "view",
      "type": "function"
    },
    {
      "inputs": [
        {
          "internalType": "uint256",
          "name": "",
          "type": "uint256"
        }
      ],
      "name": "players",
      "outputs": [
        {
          "internalType": "string",
          "name": "name",
          "type": "string"
        },
        {
          "internalType": "string",
          "name": "position",
          "type": "string"
        },
        {
          "internalType": "string",
          "name": "team",
          "type": "string"
        },
        {
          "internalType": "uint256",
          "name": "fantasyPoints",
          "type": "uint256"
        }
      ],
      "stateMutability": "view",
      "type": "function"
    },
    {
      "inputs": [
        {
          "internalType": "address",
          "name": "operator",
          "type": "address"
        },
        {
          "internalType": "bool",
          "name": "approved",
          "type": "bool"
        }
      ],
      "name": "setApprovalForAll",
      "outputs": [],
      "stateMutability": "nonpayable",
      "type": "function"
    },
    {
      "inputs": [],
      "name": "symbol",
      "outputs": [
        {
          "internalType": "string",
          "name": "",
          "type": "string"
        }
      ],
      "stateMutability": "view",
      "type": "function"
    },
    {
      "inputs": [
        {
          "internalType": "address",
          "name": "from",
          "type": "address"
        },
        {
          "internalType": "address",
          "name": "to",
          "type": "address"
        },
        {
          "internalType": "uint256",
          "name": "id",
          "type": "uint256"
        }
      ],
      "name": "transferFrom",
      "outputs": [],
      "stateMutability": "nonpayable",
      "type": "function"
    },
    {
      "inputs": [
        {
          "internalType": "uint256",
          "name": "tokenId",
          "type": "uint256"
        },
        {
          "internalType": "uint256",
          "name": "newPoints",
          "type": "uint256"
        }
      ],
      "name": "updateFantasyPoints",
      "outputs": [],
      "stateMutability": "nonpayable",
      "type": "function"
    },
    {
      "inputs": [
        {
          "internalType": "uint256",
          "name": "tokenId",
          "type": "uint256"
        },
        {
          "internalType": "string",
          "name": "newTeam",
          "type": "string"
        }
      ],
      "name": "updateTeam",
      "outputs": [],
      "stateMutability": "nonpayable",
      "type": "function"
    },
    {
      "inputs": [],
      "name": "yodaToken",
      "outputs": [
        {
          "internalType": "contract IERC20",
          "name": "",
          "type": "address"
        }
      ],
      "stateMutability": "view",
      "type": "function"
    }
  ],
  "bytecode": "0x60806040523480156200001157600080fd5b50604051620027eb380380620027eb8339818101604052810190620000379190620002e7565b846000806101000a81548173ffffffffffffffffffffffffffffffffffffffff021916908373ffffffffffffffffffffffffffffffffffffffff1602179055508360019081620000889190620005ee565b5082600290816200009a9190620005ee565b5081600381905550806004819055505050505050620006d5565b6000604051905090565b600080fd5b600080fd5b600073ffffffffffffffffffffffffffffffffffffffff82169050919050565b6000620000f582620000c8565b9050919050565b6200010781620000e8565b81146200011357600080fd5b50565b6000815190506200012781620000fc565b92915050565b600080fd5b600080fd5b6000601f19601f8301169050919050565b7f4e487b7100000000000000000000000000000000000000000000000000000000600052604160045260246000fd5b620001828262000137565b810181811067ffffffffffffffff82111715620001a457620001a362000148565b5b80604052505050565b6000620001b9620000b4565b9050620001c7828262000177565b919050565b600067ffffffffffffffff821115620001ea57620001e962000148565b5b620001f58262000137565b9050602081019050919050565b60005b838110156200022257808201518184015260208101905062000205565b60008484015250505050565b6000620002456200023f84620001cc565b620001ad565b90508281526020810184848401111562000264576200026362000132565b5b6200027184828562000202565b509392505050565b600082601f8301126200029157620002906200012d565b5b8151620002a38482602086016200022e565b91505092915050565b6000819050919050565b620002c181620002ac565b8114620002cd57600080fd5b50565b600081519050620002e181620002b6565b92915050565b600080600080600060a08688031215620003065762000305620000be565b5b6000620003168882890162000116565b955050602086015167ffffffffffffffff8111156200033a5762000339620000c3565b5b620003488882890162000279565b945050604086015167ffffffffffffffff8111156200036c576200036b620000c3565b5b6200037a8882890162000279565b93505060606200038d88828901620002d0565b9250506080620003a088828901620002d0565b9150509295509295909350565b600081519050919050565b7f4e487b7100000000000000000000000000000000000000000000000000000000600052602260045260246000fd5b600060028204905060018216806200040057607f821691505b602082108103620004165762000415620003b8565b5b50919050565b60008190508160005260206000209050919050565b60006020601f8301049050919050565b600082821b905092915050565b600060088302620004807fffffffffffffffffffffffffffffffffffffffffffffffffffffffffffffffff8262000441565b6200048c868362000441565b95508019841693508086168417925050509392505050565b6000819050919050565b6000620004cf620004c9620004c384620002ac565b620004a4565b620002ac565b9050919050565b6000819050919050565b620004eb83620004ae565b62000503620004fa82620004d6565b8484546200044e565b825550505050565b600090565b6200051a6200050b565b62000527818484620004e0565b505050565b5b818110156200054f576200054360008262000510565b6001810190506200052d565b5050565b601f8211156200059e5762000568816200041c565b620005738462000431565b8101602085101562000583578190505b6200059b620005928562000431565b8301826200052c565b50505b505050565b600082821c905092915050565b6000620005c360001984600802620005a3565b1980831691505092915050565b6000620005de8383620005b0565b9150826002028217905092915050565b620005f982620003ad565b67ffffffffffffffff81111562000615576200061462000148565b5b620006218254620003e7565b6200062e82828562000553565b600060209050601f83116001811462000666576000841562000651578287015190505b6200065d8582620005d0565b865550620006cd565b601f19841662000676866200041c565b60005b82811015620006a05784890151825560018201915060208501945060208101905062000679565b86831015620006c05784890151620006bc601f891682620005b0565b8355505b6001600288020188555050505b505050505050565b61210680620006e56000396000f3fe6080604052600436106100e85760003560e01c80638a333b501161008a578063a22cb46511610059578063a22cb465146102d3578063cdc64538146102fc578063e985e9c514610327578063f71d96cb14610364576100e8565b80638a333b5014610238578063920d9f2f1461026357806395d89b411461028c5780639ee74dd1146102b7576100e8565b806320cb5109116100c657806320cb51091461016c57806323b872dd146101955780636352211e146101be57806370a08231146101fb576100e8565b806306fdde03146100ed578063095ea7b3146101185780631a4231a414610141575b600080fd5b3480156100f957600080fd5b506101026103a4565b60405161010f919061139b565b60405180910390f35b34801561012457600080fd5b5061013f600480360381019061013a9190611465565b610432565b005b34801561014d57600080fd5b5061015661061b565b60405161016391906114b4565b60405180910390f35b34801561017857600080fd5b50610193600480360381019061018e9190611604565b610621565b005b3480156101a157600080fd5b506101bc60048036038101906101b79190611660565b610649565b005b3480156101ca57600080fd5b506101e560048036038101906101e091906116b3565b610935565b6040516101f291906116ef565b60405180910390f35b34801561020757600080fd5b50610222600480360381019061021d919061170a565b6109e1565b60405161022f91906114b4565b60405180910390f35b34801561024457600080fd5b5061024d610a98565b60405161025a91906114b4565b60405180910390f35b34801561026f57600080fd5b5061028a60048036038101906102859190611737565b610a9e565b005b34801561029857600080fd5b506102a1610abd565b6040516102ae919061139b565b60405180910390f35b6102d160048036038101906102cc9190611777565b610b4b565b005b3480156102df57600080fd5b506102fa60048036038101906102f5919061187e565b610ca7565b005b34801561030857600080fd5b50610311610da4565b60405161031e919061191d565b60405180910390f35b34801561033357600080fd5b5061034e60048036038101906103499190611938565b610dc8565b60405161035b9190611987565b60405180910390f35b34801561037057600080fd5b5061038b600480360381019061038691906116b3565b610df7565b60405161039b94939291906119a2565b60405180910390f35b600180546103b190611a2b565b80601f01602080910402602001604051908101604052809291908181526020018280546103dd90611a2b565b801561042a5780601f106103ff5761010080835404028352916020019161042a565b820191906000526020600020905b81548152906001019060200180831161040d57829003601f168201915b505050505081565b60006007600083815260200190815260200160002060009054906101000a900473ffffffffffffffffffffffffffffffffffffffff1690508073ffffffffffffffffffffffffffffffffffffffff163373ffffffffffffffffffffffffffffffffffffffff16148061052a5750600b60008273ffffffffffffffffffffffffffffffffffffffff1673ffffffffffffffffffffffffffffffffffffffff16815260200190815260200160002060003373ffffffffffffffffffffffffffffffffffffffff1673ffffffffffffffffffffffffffffffffffffffff16815260200190815260200160002060009054906101000a900460ff165b610569576040517f08c379a000000000000000000000000000000000000000000000000000000000815260040161056090611aa8565b60405180910390fd5b82600a600084815260200190815260200160002060006101000a81548173ffffffffffffffffffffffffffffffffffffffff021916908373ffffffffffffffffffffffffffffffffffffffff160217905550818373ffffffffffffffffffffffffffffffffffffffff168273ffffffffffffffffffffffffffffffffffffffff167f8c5be1e5ebec7d5bd14f71427d1e84f3dd0314c0f7b2291e5b200ac8c7c3b92560405160405180910390a4505050565b60035481565b806006600084815260200190815260200160002060020190816106449190611c6a565b505050565b6007600082815260200190815260200160002060009054906101000a900473ffffffffffffffffffffffffffffffffffffffff1673ffffffffffffffffffffffffffffffffffffffff168373ffffffffffffffffffffffffffffffffffffffff16146106ea576040517f08c379a00000000000000000000000000000000000000000000000000000000081526004016106e190611d88565b60405180910390fd5b600073ffffffffffffffffffffffffffffffffffffffff168273ffffffffffffffffffffffffffffffffffffffff1603610759576040517f08c379a000000000000000000000000000000000000000000000000000000000815260040161075090611df4565b60405180910390fd5b610764833383610fbf565b6107a3576040517f08c379a000000000000000000000000000000000000000000000000000000000815260040161079a90611aa8565b60405180910390fd5b600960008473ffffffffffffffffffffffffffffffffffffffff1673ffffffffffffffffffffffffffffffffffffffff16815260200190815260200160002060008154809291906107f390611e43565b9190505550600960008373ffffffffffffffffffffffffffffffffffffffff1673ffffffffffffffffffffffffffffffffffffffff168152602001908152602001600020600081548092919061084890611e6c565b9190505550816007600083815260200190815260200160002060006101000a81548173ffffffffffffffffffffffffffffffffffffffff021916908373ffffffffffffffffffffffffffffffffffffffff160217905550600a600082815260200190815260200160002060006101000a81549073ffffffffffffffffffffffffffffffffffffffff0219169055808273ffffffffffffffffffffffffffffffffffffffff168473ffffffffffffffffffffffffffffffffffffffff167fddf252ad1be2c89b69c2b068fc378daa952ba7f163c4a11628f55a4df523b3ef60405160405180910390a4505050565b60006007600083815260200190815260200160002060009054906101000a900473ffffffffffffffffffffffffffffffffffffffff169050600073ffffffffffffffffffffffffffffffffffffffff168173ffffffffffffffffffffffffffffffffffffffff16036109dc576040517f08c379a00000000000000000000000000000000000000000000000000000000081526004016109d390611f00565b60405180910390fd5b919050565b60008073ffffffffffffffffffffffffffffffffffffffff168273ffffffffffffffffffffffffffffffffffffffff1603610a51576040517f08c379a0000000000000000000000000000000000000000000000000000000008152600401610a4890611f6c565b60405180910390fd5b600960008373ffffffffffffffffffffffffffffffffffffffff1673ffffffffffffffffffffffffffffffffffffffff168152602001908152602001600020549050919050565b60045481565b8060066000848152602001908152602001600020600301819055505050565b60028054610aca90611a2b565b80601f0160208091040260200160405190810160405280929190818152602001828054610af690611a2b565b8015610b435780601f10610b1857610100808354040283529160200191610b43565b820191906000526020600020905b815481529060010190602001808311610b2657829003601f168201915b505050505081565b60045460055410610b91576040517f08c379a0000000000000000000000000000000000000000000000000000000008152600401610b8890611fd8565b60405180910390fd5b600060056000815480929190610ba690611e6c565b919050559050610bb686826110f3565b604051806080016040528086815260200185815260200184815260200183815250600660008381526020019081526020016000206000820151816000019081610bff9190611c6a565b506020820151816001019081610c159190611c6a565b506040820151816002019081610c2b9190611c6a565b5060608201518160030155905050600860008773ffffffffffffffffffffffffffffffffffffffff1673ffffffffffffffffffffffffffffffffffffffff168152602001908152602001600020819080600181540180825580915050600190039060005260206000200160009091909190915055505050505050565b80600b60003373ffffffffffffffffffffffffffffffffffffffff1673ffffffffffffffffffffffffffffffffffffffff16815260200190815260200160002060008473ffffffffffffffffffffffffffffffffffffffff1673ffffffffffffffffffffffffffffffffffffffff16815260200190815260200160002060006101000a81548160ff0219169083151502179055508173ffffffffffffffffffffffffffffffffffffffff163373ffffffffffffffffffffffffffffffffffffffff167f17307eab39ab6107e8899845ad3d59bd9653f200f220920489ca2b5937696c3183604051610d989190611987565b60405180910390a35050565b60008054906101000a900473ffffffffffffffffffffffffffffffffffffffff1681565b600b6020528160005260406000206020528060005260406000206000915091509054906101000a900460ff1681565b6006602052806000526040600020600091509050806000018054610e1a90611a2b565b80601f0160208091040260200160405190810160405280929190818152602001828054610e4690611a2b565b8015610e935780601f10610e6857610100808354040283529160200191610e93565b820191906000526020600020905b815481529060010190602001808311610e7657829003601f168201915b505050505090806001018054610ea890611a2b565b80601f0160208091040260200160405190810160405280929190818152602001828054610ed490611a2b565b8015610f215780601f10610ef657610100808354040283529160200191610f21565b820191906000526020600020905b815481529060010190602001808311610f0457829003601f168201915b505050505090806002018054610f3690611a2b565b80601f0160208091040260200160405190810160405280929190818152602001828054610f6290611a2b565b8015610faf5780601f10610f8457610100808354040283529160200191610faf565b820191906000526020600020905b815481529060010190602001808311610f9257829003601f168201915b5050505050908060030154905084565b60008373ffffffffffffffffffffffffffffffffffffffff168373ffffffffffffffffffffffffffffffffffffffff1614806110815750600b60008573ffffffffffffffffffffffffffffffffffffffff1673ffffffffffffffffffffffffffffffffffffffff16815260200190815260200160002060008473ffffffffffffffffffffffffffffffffffffffff1673ffffffffffffffffffffffffffffffffffffffff16815260200190815260200160002060009054906101000a900460ff165b806110ea5750600a600083815260200190815260200160002060009054906101000a900473ffffffffffffffffffffffffffffffffffffffff1673ffffffffffffffffffffffffffffffffffffffff168373ffffffffffffffffffffffffffffffffffffffff16145b90509392505050565b600073ffffffffffffffffffffffffffffffffffffffff168273ffffffffffffffffffffffffffffffffffffffff1603611162576040517f08c379a000000000000000000000000000000000000000000000000000000000815260040161115990612044565b60405180910390fd5b600073ffffffffffffffffffffffffffffffffffffffff166007600083815260200190815260200160002060009054906101000a900473ffffffffffffffffffffffffffffffffffffffff1673ffffffffffffffffffffffffffffffffffffffff1614611204576040517f08c379a00000000000000000000000000000000000000000000000000000000081526004016111fb906120b0565b60405180910390fd5b600960008373ffffffffffffffffffffffffffffffffffffffff1673ffffffffffffffffffffffffffffffffffffffff168152602001908152602001600020600081548092919061125490611e6c565b9190505550816007600083815260200190815260200160002060006101000a81548173ffffffffffffffffffffffffffffffffffffffff021916908373ffffffffffffffffffffffffffffffffffffffff160217905550808273ffffffffffffffffffffffffffffffffffffffff16600073ffffffffffffffffffffffffffffffffffffffff167fddf252ad1be2c89b69c2b068fc378daa952ba7f163c4a11628f55a4df523b3ef60405160405180910390a45050565b600081519050919050565b600082825260208201905092915050565b60005b8381101561134557808201518184015260208101905061132a565b60008484015250505050565b6000601f19601f8301169050919050565b600061136d8261130b565b6113778185611316565b9350611387818560208601611327565b61139081611351565b840191505092915050565b600060208201905081810360008301526113b58184611362565b905092915050565b6000604051905090565b600080fd5b600080fd5b600073ffffffffffffffffffffffffffffffffffffffff82169050919050565b60006113fc826113d1565b9050919050565b61140c816113f1565b811461141757600080fd5b50565b60008135905061142981611403565b92915050565b6000819050919050565b6114428161142f565b811461144d57600080fd5b50565b60008135905061145f81611439565b92915050565b6000806040838503121561147c5761147b6113c7565b5b600061148a8582860161141a565b925050602061149b85828601611450565b9150509250929050565b6114ae8161142f565b82525050565b60006020820190506114c960008301846114a5565b92915050565b600080fd5b600080fd5b7f4e487b7100000000000000000000000000000000000000000000000000000000600052604160045260246000fd5b61151182611351565b810181811067ffffffffffffffff821117156115305761152f6114d9565b5b80604052505050565b60006115436113bd565b905061154f8282611508565b919050565b600067ffffffffffffffff82111561156f5761156e6114d9565b5b61157882611351565b9050602081019050919050565b82818337600083830152505050565b60006115a76115a284611554565b611539565b9050828152602081018484840111156115c3576115c26114d4565b5b6115ce848285611585565b509392505050565b600082601f8301126115eb576115ea6114cf565b5b81356115fb848260208601611594565b91505092915050565b6000806040838503121561161b5761161a6113c7565b5b600061162985828601611450565b925050602083013567ffffffffffffffff81111561164a576116496113cc565b5b611656858286016115d6565b9150509250929050565b600080600060608486031215611679576116786113c7565b5b60006116878682870161141a565b93505060206116988682870161141a565b92505060406116a986828701611450565b9150509250925092565b6000602082840312156116c9576116c86113c7565b5b60006116d784828501611450565b91505092915050565b6116e9816113f1565b82525050565b600060208201905061170460008301846116e0565b92915050565b6000602082840312156117205761171f6113c7565b5b600061172e8482850161141a565b91505092915050565b6000806040838503121561174e5761174d6113c7565b5b600061175c85828601611450565b925050602061176d85828601611450565b9150509250929050565b600080600080600060a08688031215611793576117926113c7565b5b60006117a18882890161141a565b955050602086013567ffffffffffffffff8111156117c2576117c16113cc565b5b6117ce888289016115d6565b945050604086013567ffffffffffffffff8111156117ef576117ee6113cc565b5b6117fb888289016115d6565b935050606086013567ffffffffffffffff81111561181c5761181b6113cc565b5b611828888289016115d6565b925050608061183988828901611450565b9150509295509295909350565b60008115159050919050565b61185b81611846565b811461186657600080fd5b50565b60008135905061187881611852565b92915050565b60008060408385031215611895576118946113c7565b5b60006118a38582860161141a565b92505060206118b485828601611869565b9150509250929050565b6000819050919050565b60006118e36118de6118d9846113d1565b6118be565b6113d1565b9050919050565b60006118f5826118c8565b9050919050565b6000611907826118ea565b9050919050565b611917816118fc565b82525050565b6000602082019050611932600083018461190e565b92915050565b6000806040838503121561194f5761194e6113c7565b5b600061195d8582860161141a565b925050602061196e8582860161141a565b9150509250929050565b61198181611846565b82525050565b600060208201905061199c6000830184611978565b92915050565b600060808201905081810360008301526119bc8187611362565b905081810360208301526119d08186611362565b905081810360408301526119e48185611362565b90506119f360608301846114a5565b95945050505050565b7f4e487b7100000000000000000000000000000000000000000000000000000000600052602260045260246000fd5b60006002820490506001821680611a4357607f821691505b602082108103611a5657611a556119fc565b5b50919050565b7f6e6f7420617574686f72697a6564000000000000000000000000000000000000600082015250565b6000611a92600e83611316565b9150611a9d82611a5c565b602082019050919050565b60006020820190508181036000830152611ac181611a85565b9050919050565b60008190508160005260206000209050919050565b60006020601f8301049050919050565b600082821b905092915050565b600060088302611b2a7fffffffffffffffffffffffffffffffffffffffffffffffffffffffffffffffff82611aed565b611b348683611aed565b95508019841693508086168417925050509392505050565b6000611b67611b62611b5d8461142f565b6118be565b61142f565b9050919050565b6000819050919050565b611b8183611b4c565b611b95611b8d82611b6e565b848454611afa565b825550505050565b600090565b611baa611b9d565b611bb5818484611b78565b505050565b5b81811015611bd957611bce600082611ba2565b600181019050611bbb565b5050565b601f821115611c1e57611bef81611ac8565b611bf884611add565b81016020851015611c07578190505b611c1b611c1385611add565b830182611bba565b50505b505050565b600082821c905092915050565b6000611c4160001984600802611c23565b1980831691505092915050565b6000611c5a8383611c30565b9150826002028217905092915050565b611c738261130b565b67ffffffffffffffff811115611c8c57611c8b6114d9565b5b611c968254611a2b565b611ca1828285611bdd565b600060209050601f831160018114611cd45760008415611cc2578287015190505b611ccc8582611c4e565b865550611d34565b601f198416611ce286611ac8565b60005b82811015611d0a57848901518255600182019150602085019450602081019050611ce5565b86831015611d275784890151611d23601f891682611c30565b8355505b6001600288020188555050505b505050505050565b7f66726f6d20213d206f776e657200000000000000000000000000000000000000600082015250565b6000611d72600d83611316565b9150611d7d82611d3c565b602082019050919050565b60006020820190508181036000830152611da181611d65565b9050919050565b7f7472616e7366657220746f207a65726f20616464726573730000000000000000600082015250565b6000611dde601883611316565b9150611de982611da8565b602082019050919050565b60006020820190508181036000830152611e0d81611dd1565b9050919050565b7f4e487b7100000000000000000000000000000000000000000000000000000000600052601160045260246000fd5b6000611e4e8261142f565b915060008203611e6157611e60611e14565b5b600182039050919050565b6000611e778261142f565b91507fffffffffffffffffffffffffffffffffffffffffffffffffffffffffffffffff8203611ea957611ea8611e14565b5b600182019050919050565b7f746f6b656e20646f65736e277420657869737400000000000000000000000000600082015250565b6000611eea601383611316565b9150611ef582611eb4565b602082019050919050565b60006020820190508181036000830152611f1981611edd565b9050919050565b7f6f776e6572203d207a65726f2061646472657373000000000000000000000000600082015250565b6000611f56601483611316565b9150611f6182611f20565b602082019050919050565b60006020820190508181036000830152611f8581611f49565b9050919050565b7f4d617820737570706c7920726561636865640000000000000000000000000000600082015250565b6000611fc2601283611316565b9150611fcd82611f8c565b602082019050919050565b60006020820190508181036000830152611ff181611fb5565b9050919050565b7f6d696e7420746f207a65726f2061646472657373000000000000000000000000600082015250565b600061202e601483611316565b915061203982611ff8565b602082019050919050565b6000602082019050818103600083015261205d81612021565b9050919050565b7f616c7265616479206d696e746564000000000000000000000000000000000000600082015250565b600061209a600e83611316565b91506120a582612064565b602082019050919050565b600060208201905081810360008301526120c98161208d565b905091905056fea2646970667358221220651e6e3ad8b65999c95646e0b719d480b6e1dfca0e74aec0185d89511cd5c6e464736f6c63430008140033",
  "linkReferences": {},
  "deployedLinkReferences": {}
}