{
  "_format": "hh-sol-artifact-1",
  "contractName": "FantasyFootball",
  "sourceName": "contracts/fantasyFootball.sol",
  "abi": [
    {
      "inputs": [
        {
          "internalType": "address",
          "name": "_yodaTokenAddress",
          "type": "address"
        },
        {
          "internalType": "string",
          "name": "_name",
          "type": "string"
        },
        {
          "internalType": "string",
          "name": "_symbol",
          "type": "string"
        },
        {
          "internalType": "uint256",
          "name": "MINT_PRICE",
          "type": "uint256"
        },
        {
          "internalType": "uint256",
          "name": "MAX_SUPPLY",
          "type": "uint256"
        }
      ],
      "stateMutability": "nonpayable",
      "type": "constructor"
    },
    {
      "anonymous": false,
      "inputs": [
        {
          "indexed": true,
          "internalType": "address",
          "name": "owner",
          "type": "address"
        },
        {
          "indexed": true,
          "internalType": "address",
          "name": "spender",
          "type": "address"
        },
        {
          "indexed": true,
          "internalType": "uint256",
          "name": "id",
          "type": "uint256"
        }
      ],
      "name": "Approval",
      "type": "event"
    },
    {
      "anonymous": false,
      "inputs": [
        {
          "indexed": true,
          "internalType": "address",
          "name": "owner",
          "type": "address"
        },
        {
          "indexed": true,
          "internalType": "address",
          "name": "operator",
          "type": "address"
        },
        {
          "indexed": false,
          "internalType": "bool",
          "name": "approved",
          "type": "bool"
        }
      ],
      "name": "ApprovalForAll",
      "type": "event"
    },
    {
      "anonymous": false,
      "inputs": [
        {
          "indexed": true,
          "internalType": "address",
          "name": "from",
          "type": "address"
        },
        {
          "indexed": true,
          "internalType": "address",
          "name": "to",
          "type": "address"
        },
        {
          "indexed": true,
          "internalType": "uint256",
          "name": "id",
          "type": "uint256"
        }
      ],
      "name": "Transfer",
      "type": "event"
    },
    {
      "inputs": [
        {
          "internalType": "address",
          "name": "spender",
          "type": "address"
        },
        {
          "internalType": "uint256",
          "name": "id",
          "type": "uint256"
        }
      ],
      "name": "approve",
      "outputs": [],
      "stateMutability": "nonpayable",
      "type": "function"
    },
    {
      "inputs": [
        {
          "internalType": "address",
          "name": "owner",
          "type": "address"
        }
      ],
      "name": "balanceOf",
      "outputs": [
        {
          "internalType": "uint256",
          "name": "",
          "type": "uint256"
        }
      ],
      "stateMutability": "view",
      "type": "function"
    },
    {
      "inputs": [
        {
          "internalType": "uint256",
          "name": "tokenId",
          "type": "uint256"
        }
      ],
      "name": "buy",
      "outputs": [],
      "stateMutability": "nonpayable",
      "type": "function"
    },
    {
      "inputs": [],
      "name": "deployer",
      "outputs": [
        {
          "internalType": "address",
          "name": "",
          "type": "address"
        }
      ],
      "stateMutability": "view",
      "type": "function"
    },
    {
      "inputs": [
        {
          "internalType": "address",
          "name": "",
          "type": "address"
        },
        {
          "internalType": "address",
          "name": "",
          "type": "address"
        }
      ],
      "name": "isApprovedForAll",
      "outputs": [
        {
          "internalType": "bool",
          "name": "",
          "type": "bool"
        }
      ],
      "stateMutability": "view",
      "type": "function"
    },
    {
      "inputs": [],
      "name": "max_supply",
      "outputs": [
        {
          "internalType": "uint256",
          "name": "",
          "type": "uint256"
        }
      ],
      "stateMutability": "view",
      "type": "function"
    },
    {
      "inputs": [
        {
          "internalType": "address",
          "name": "to",
          "type": "address"
        },
        {
          "internalType": "string",
          "name": "_name",
          "type": "string"
        },
        {
          "internalType": "string",
          "name": "_position",
          "type": "string"
        },
        {
          "internalType": "string",
          "name": "_team",
          "type": "string"
        },
        {
          "internalType": "uint256",
          "name": "_fantasyPoints",
          "type": "uint256"
        },
        {
          "internalType": "uint256",
          "name": "_mintPrice",
          "type": "uint256"
        }
      ],
      "name": "mint",
      "outputs": [],
      "stateMutability": "payable",
      "type": "function"
    },
    {
      "inputs": [],
      "name": "mint_price",
      "outputs": [
        {
          "internalType": "uint256",
          "name": "",
          "type": "uint256"
        }
      ],
      "stateMutability": "view",
      "type": "function"
    },
    {
      "inputs": [],
      "name": "name",
      "outputs": [
        {
          "internalType": "string",
          "name": "",
          "type": "string"
        }
      ],
      "stateMutability": "view",
      "type": "function"
    },
    {
      "inputs": [
        {
          "internalType": "uint256",
          "name": "id",
          "type": "uint256"
        }
      ],
      "name": "ownerOf",
      "outputs": [
        {
          "internalType": "address",
          "name": "owner",
          "type": "address"
        }
      ],
      "stateMutability": "view",
      "type": "function"
    },
    {
      "inputs": [
        {
          "internalType": "string",
          "name": "",
          "type": "string"
        }
      ],
      "name": "playerImageMap",
      "outputs": [
        {
          "internalType": "string",
          "name": "",
          "type": "string"
        }
      ],
      "stateMutability": "view",
      "type": "function"
    },
    {
      "inputs": [
        {
          "internalType": "uint256",
          "name": "",
          "type": "uint256"
        }
      ],
      "name": "players",
      "outputs": [
        {
          "internalType": "string",
          "name": "name",
          "type": "string"
        },
        {
          "internalType": "string",
          "name": "position",
          "type": "string"
        },
        {
          "internalType": "string",
          "name": "team",
          "type": "string"
        },
        {
          "internalType": "uint256",
          "name": "fantasyPoints",
          "type": "uint256"
        },
        {
          "internalType": "uint256",
          "name": "mintPrice",
          "type": "uint256"
        }
      ],
      "stateMutability": "view",
      "type": "function"
    },
    {
      "inputs": [
        {
          "internalType": "address",
          "name": "operator",
          "type": "address"
        },
        {
          "internalType": "bool",
          "name": "approved",
          "type": "bool"
        }
      ],
      "name": "setApprovalForAll",
      "outputs": [],
      "stateMutability": "nonpayable",
      "type": "function"
    },
    {
      "inputs": [],
      "name": "symbol",
      "outputs": [
        {
          "internalType": "string",
          "name": "",
          "type": "string"
        }
      ],
      "stateMutability": "view",
      "type": "function"
    },
    {
      "inputs": [
        {
          "internalType": "uint256",
          "name": "tokenId",
          "type": "uint256"
        }
      ],
      "name": "tokenURI",
      "outputs": [
        {
          "internalType": "string",
          "name": "",
          "type": "string"
        }
      ],
      "stateMutability": "view",
      "type": "function"
    },
    {
      "inputs": [
        {
          "internalType": "address",
          "name": "from",
          "type": "address"
        },
        {
          "internalType": "address",
          "name": "to",
          "type": "address"
        },
        {
          "internalType": "uint256",
          "name": "id",
          "type": "uint256"
        }
      ],
      "name": "transferFrom",
      "outputs": [],
      "stateMutability": "nonpayable",
      "type": "function"
    },
    {
      "inputs": [
        {
          "internalType": "uint256",
          "name": "tokenId",
          "type": "uint256"
        },
        {
          "internalType": "uint256",
          "name": "newPoints",
          "type": "uint256"
        }
      ],
      "name": "updateFantasyPoints",
      "outputs": [],
      "stateMutability": "nonpayable",
      "type": "function"
    },
    {
      "inputs": [
        {
          "internalType": "uint256",
          "name": "tokenId",
          "type": "uint256"
        },
        {
          "internalType": "string",
          "name": "newTeam",
          "type": "string"
        }
      ],
      "name": "updateTeam",
      "outputs": [],
      "stateMutability": "nonpayable",
      "type": "function"
    },
    {
      "inputs": [],
      "name": "yodaToken",
      "outputs": [
        {
          "internalType": "contract IERC20",
          "name": "",
          "type": "address"
        }
      ],
      "stateMutability": "view",
      "type": "function"
    }
  ],
  "bytecode": "0x60806040523480156200001157600080fd5b50604051620048f8380380620048f8833981810160405281019062000037919062000560565b846000806101000a81548173ffffffffffffffffffffffffffffffffffffffff021916908373ffffffffffffffffffffffffffffffffffffffff16021790555033600660006101000a81548173ffffffffffffffffffffffffffffffffffffffff021916908373ffffffffffffffffffffffffffffffffffffffff1602179055506040518060a00160405280607b815260200162004588607b91396008604051620000e29062000681565b90815260200160405180910390209081620000fe9190620008d9565b506040518060a0016040528060808152602001620046fc608091396008604051620001299062000a10565b90815260200160405180910390209081620001459190620008d9565b506040518060c0016040528060818152602001620047f9608191396008604051620001709062000a77565b908152602001604051809103902090816200018c9190620008d9565b506040518060a00160405280607d81526020016200467f607d91396008604051620001b79062000ade565b90815260200160405180910390209081620001d39190620008d9565b506040518060a00160405280607f815260200162004509607f91396008604051620001fe9062000b45565b908152602001604051809103902090816200021a9190620008d9565b506040518060a00160405280607e81526020016200487a607e91396008604051620002459062000bac565b90815260200160405180910390209081620002619190620008d9565b506040518060a00160405280607d81526020016200477c607d913960086040516200028c9062000c13565b90815260200160405180910390209081620002a89190620008d9565b506040518060a00160405280607c815260200162004603607c91396008604051620002d39062000c7a565b90815260200160405180910390209081620002ef9190620008d9565b508360019081620003019190620008d9565b508260029081620003139190620008d9565b508160038190555080600481905550505050505062000c91565b6000604051905090565b600080fd5b600080fd5b600073ffffffffffffffffffffffffffffffffffffffff82169050919050565b60006200036e8262000341565b9050919050565b620003808162000361565b81146200038c57600080fd5b50565b600081519050620003a08162000375565b92915050565b600080fd5b600080fd5b6000601f19601f8301169050919050565b7f4e487b7100000000000000000000000000000000000000000000000000000000600052604160045260246000fd5b620003fb82620003b0565b810181811067ffffffffffffffff821117156200041d576200041c620003c1565b5b80604052505050565b6000620004326200032d565b9050620004408282620003f0565b919050565b600067ffffffffffffffff821115620004635762000462620003c1565b5b6200046e82620003b0565b9050602081019050919050565b60005b838110156200049b5780820151818401526020810190506200047e565b60008484015250505050565b6000620004be620004b88462000445565b62000426565b905082815260208101848484011115620004dd57620004dc620003ab565b5b620004ea8482856200047b565b509392505050565b600082601f8301126200050a5762000509620003a6565b5b81516200051c848260208601620004a7565b91505092915050565b6000819050919050565b6200053a8162000525565b81146200054657600080fd5b50565b6000815190506200055a816200052f565b92915050565b600080600080600060a086880312156200057f576200057e62000337565b5b60006200058f888289016200038f565b955050602086015167ffffffffffffffff811115620005b357620005b26200033c565b5b620005c188828901620004f2565b945050604086015167ffffffffffffffff811115620005e557620005e46200033c565b5b620005f388828901620004f2565b9350506060620006068882890162000549565b9250506080620006198882890162000549565b9150509295509295909350565b600081905092915050565b7f4a6f736820416c6c656e00000000000000000000000000000000000000000000600082015250565b600062000669600a8362000626565b9150620006768262000631565b600a82019050919050565b60006200068e826200065a565b9150819050919050565b600081519050919050565b7f4e487b7100000000000000000000000000000000000000000000000000000000600052602260045260246000fd5b60006002820490506001821680620006eb57607f821691505b602082108103620007015762000700620006a3565b5b50919050565b60008190508160005260206000209050919050565b60006020601f8301049050919050565b600082821b905092915050565b6000600883026200076b7fffffffffffffffffffffffffffffffffffffffffffffffffffffffffffffffff826200072c565b6200077786836200072c565b95508019841693508086168417925050509392505050565b6000819050919050565b6000620007ba620007b4620007ae8462000525565b6200078f565b62000525565b9050919050565b6000819050919050565b620007d68362000799565b620007ee620007e582620007c1565b84845462000739565b825550505050565b600090565b62000805620007f6565b62000812818484620007cb565b505050565b5b818110156200083a576200082e600082620007fb565b60018101905062000818565b5050565b601f8211156200088957620008538162000707565b6200085e846200071c565b810160208510156200086e578190505b620008866200087d856200071c565b83018262000817565b50505b505050565b600082821c905092915050565b6000620008ae600019846008026200088e565b1980831691505092915050565b6000620008c983836200089b565b9150826002028217905092915050565b620008e48262000698565b67ffffffffffffffff8111156200090057620008ff620003c1565b5b6200090c8254620006d2565b620009198282856200083e565b600060209050601f8311600181146200095157600084156200093c578287015190505b620009488582620008bb565b865550620009b8565b601f198416620009618662000707565b60005b828110156200098b5784890151825560018201915060208501945060208101905062000964565b86831015620009ab5784890151620009a7601f8916826200089b565b8355505b6001600288020188555050505b505050505050565b7f5061747269636b204d61686f6d65730000000000000000000000000000000000600082015250565b6000620009f8600f8362000626565b915062000a0582620009c0565b600f82019050919050565b600062000a1d82620009e9565b9150819050919050565b7f4a757374696e204a6566666572736f6e00000000000000000000000000000000600082015250565b600062000a5f60108362000626565b915062000a6c8262000a27565b601082019050919050565b600062000a848262000a50565b9150819050919050565b7f4d616c696b204e61626572730000000000000000000000000000000000000000600082015250565b600062000ac6600c8362000626565b915062000ad38262000a8e565b600c82019050919050565b600062000aeb8262000ab7565b9150819050919050565b7f53617175616e204261726b6c6579000000000000000000000000000000000000600082015250565b600062000b2d600e8362000626565b915062000b3a8262000af5565b600e82019050919050565b600062000b528262000b1e565b9150819050919050565b7f4465727269636b2048656e727900000000000000000000000000000000000000600082015250565b600062000b94600d8362000626565b915062000ba18262000b5c565b600d82019050919050565b600062000bb98262000b85565b9150819050919050565b7f42726f636b20426f776572730000000000000000000000000000000000000000600082015250565b600062000bfb600c8362000626565b915062000c088262000bc3565b600c82019050919050565b600062000c208262000bec565b9150819050919050565b7f53616d204c61506f727461000000000000000000000000000000000000000000600082015250565b600062000c62600b8362000626565b915062000c6f8262000c2a565b600b82019050919050565b600062000c878262000c53565b9150819050919050565b6138688062000ca16000396000f3fe6080604052600436106101145760003560e01c806395d89b41116100a0578063d5f3948811610064578063d5f3948814610390578063d96a094a146103bb578063e985e9c5146103e4578063ea7c03c414610421578063f71d96cb1461045e57610114565b806395d89b41146102b8578063a22cb465146102e3578063c74e07ac1461030c578063c87b56dd14610328578063cdc645381461036557610114565b806323b872dd116100e757806323b872dd146101c15780636352211e146101ea57806370a08231146102275780638a333b5014610264578063920d9f2f1461028f57610114565b806306fdde0314610119578063095ea7b3146101445780631a4231a41461016d57806320cb510914610198575b600080fd5b34801561012557600080fd5b5061012e61049f565b60405161013b91906121d8565b60405180910390f35b34801561015057600080fd5b5061016b600480360381019061016691906122a2565b61052d565b005b34801561017957600080fd5b50610182610716565b60405161018f91906122f1565b60405180910390f35b3480156101a457600080fd5b506101bf60048036038101906101ba9190612441565b61071c565b005b3480156101cd57600080fd5b506101e860048036038101906101e3919061249d565b610744565b005b3480156101f657600080fd5b50610211600480360381019061020c91906124f0565b610a30565b60405161021e919061252c565b60405180910390f35b34801561023357600080fd5b5061024e60048036038101906102499190612547565b610adc565b60405161025b91906122f1565b60405180910390f35b34801561027057600080fd5b50610279610b93565b60405161028691906122f1565b60405180910390f35b34801561029b57600080fd5b506102b660048036038101906102b19190612574565b610b99565b005b3480156102c457600080fd5b506102cd610bb8565b6040516102da91906121d8565b60405180910390f35b3480156102ef57600080fd5b5061030a600480360381019061030591906125ec565b610c46565b005b6103266004803603810190610321919061262c565b610d43565b005b34801561033457600080fd5b5061034f600480360381019061034a91906124f0565b610eb0565b60405161035c91906121d8565b60405180910390f35b34801561037157600080fd5b5061037a61127d565b604051610387919061276c565b60405180910390f35b34801561039c57600080fd5b506103a56112a1565b6040516103b2919061252c565b60405180910390f35b3480156103c757600080fd5b506103e260048036038101906103dd91906124f0565b6112c7565b005b3480156103f057600080fd5b5061040b60048036038101906104069190612787565b61150e565b60405161041891906127d6565b60405180910390f35b34801561042d57600080fd5b50610448600480360381019061044391906127f1565b61153d565b60405161045591906121d8565b60405180910390f35b34801561046a57600080fd5b50610485600480360381019061048091906124f0565b6115f3565b60405161049695949392919061283a565b60405180910390f35b600180546104ac906128d1565b80601f01602080910402602001604051908101604052809291908181526020018280546104d8906128d1565b80156105255780601f106104fa57610100808354040283529160200191610525565b820191906000526020600020905b81548152906001019060200180831161050857829003601f168201915b505050505081565b60006009600083815260200190815260200160002060009054906101000a900473ffffffffffffffffffffffffffffffffffffffff1690508073ffffffffffffffffffffffffffffffffffffffff163373ffffffffffffffffffffffffffffffffffffffff1614806106255750600d60008273ffffffffffffffffffffffffffffffffffffffff1673ffffffffffffffffffffffffffffffffffffffff16815260200190815260200160002060003373ffffffffffffffffffffffffffffffffffffffff1673ffffffffffffffffffffffffffffffffffffffff16815260200190815260200160002060009054906101000a900460ff165b610664576040517f08c379a000000000000000000000000000000000000000000000000000000000815260040161065b9061294e565b60405180910390fd5b82600c600084815260200190815260200160002060006101000a81548173ffffffffffffffffffffffffffffffffffffffff021916908373ffffffffffffffffffffffffffffffffffffffff160217905550818373ffffffffffffffffffffffffffffffffffffffff168273ffffffffffffffffffffffffffffffffffffffff167f8c5be1e5ebec7d5bd14f71427d1e84f3dd0314c0f7b2291e5b200ac8c7c3b92560405160405180910390a4505050565b60035481565b8060076000848152602001908152602001600020600201908161073f9190612b10565b505050565b6009600082815260200190815260200160002060009054906101000a900473ffffffffffffffffffffffffffffffffffffffff1673ffffffffffffffffffffffffffffffffffffffff168373ffffffffffffffffffffffffffffffffffffffff16146107e5576040517f08c379a00000000000000000000000000000000000000000000000000000000081526004016107dc90612c2e565b60405180910390fd5b600073ffffffffffffffffffffffffffffffffffffffff168273ffffffffffffffffffffffffffffffffffffffff1603610854576040517f08c379a000000000000000000000000000000000000000000000000000000000815260040161084b90612c9a565b60405180910390fd5b61085f8333836117c1565b61089e576040517f08c379a00000000000000000000000000000000000000000000000000000000081526004016108959061294e565b60405180910390fd5b600b60008473ffffffffffffffffffffffffffffffffffffffff1673ffffffffffffffffffffffffffffffffffffffff16815260200190815260200160002060008154809291906108ee90612ce9565b9190505550600b60008373ffffffffffffffffffffffffffffffffffffffff1673ffffffffffffffffffffffffffffffffffffffff168152602001908152602001600020600081548092919061094390612d12565b9190505550816009600083815260200190815260200160002060006101000a81548173ffffffffffffffffffffffffffffffffffffffff021916908373ffffffffffffffffffffffffffffffffffffffff160217905550600c600082815260200190815260200160002060006101000a81549073ffffffffffffffffffffffffffffffffffffffff0219169055808273ffffffffffffffffffffffffffffffffffffffff168473ffffffffffffffffffffffffffffffffffffffff167fddf252ad1be2c89b69c2b068fc378daa952ba7f163c4a11628f55a4df523b3ef60405160405180910390a4505050565b60006009600083815260200190815260200160002060009054906101000a900473ffffffffffffffffffffffffffffffffffffffff169050600073ffffffffffffffffffffffffffffffffffffffff168173ffffffffffffffffffffffffffffffffffffffff1603610ad7576040517f08c379a0000000000000000000000000000000000000000000000000000000008152600401610ace90612da6565b60405180910390fd5b919050565b60008073ffffffffffffffffffffffffffffffffffffffff168273ffffffffffffffffffffffffffffffffffffffff1603610b4c576040517f08c379a0000000000000000000000000000000000000000000000000000000008152600401610b4390612e12565b60405180910390fd5b600b60008373ffffffffffffffffffffffffffffffffffffffff1673ffffffffffffffffffffffffffffffffffffffff168152602001908152602001600020549050919050565b60045481565b8060076000848152602001908152602001600020600301819055505050565b60028054610bc5906128d1565b80601f0160208091040260200160405190810160405280929190818152602001828054610bf1906128d1565b8015610c3e5780601f10610c1357610100808354040283529160200191610c3e565b820191906000526020600020905b815481529060010190602001808311610c2157829003601f168201915b505050505081565b80600d60003373ffffffffffffffffffffffffffffffffffffffff1673ffffffffffffffffffffffffffffffffffffffff16815260200190815260200160002060008473ffffffffffffffffffffffffffffffffffffffff1673ffffffffffffffffffffffffffffffffffffffff16815260200190815260200160002060006101000a81548160ff0219169083151502179055508173ffffffffffffffffffffffffffffffffffffffff163373ffffffffffffffffffffffffffffffffffffffff167f17307eab39ab6107e8899845ad3d59bd9653f200f220920489ca2b5937696c3183604051610d3791906127d6565b60405180910390a35050565b60045460055410610d89576040517f08c379a0000000000000000000000000000000000000000000000000000000008152600401610d8090612e7e565b60405180910390fd5b600060056000815480929190610d9e90612d12565b919050559050610dae87826118f5565b6040518060a0016040528087815260200186815260200185815260200184815260200183815250600760008381526020019081526020016000206000820151816000019081610dfd9190612b10565b506020820151816001019081610e139190612b10565b506040820151816002019081610e299190612b10565b506060820151816003015560808201518160040155905050600a60008873ffffffffffffffffffffffffffffffffffffffff1673ffffffffffffffffffffffffffffffffffffffff16815260200190815260200160002081908060018154018082558091505060019003906000526020600020016000909190919091505550505050505050565b6060600073ffffffffffffffffffffffffffffffffffffffff166009600084815260200190815260200160002060009054906101000a900473ffffffffffffffffffffffffffffffffffffffff1673ffffffffffffffffffffffffffffffffffffffff1603610f54576040517f08c379a0000000000000000000000000000000000000000000000000000000008152600401610f4b90612eea565b60405180910390fd5b6000600760008481526020019081526020016000206040518060a0016040529081600082018054610f84906128d1565b80601f0160208091040260200160405190810160405280929190818152602001828054610fb0906128d1565b8015610ffd5780601f10610fd257610100808354040283529160200191610ffd565b820191906000526020600020905b815481529060010190602001808311610fe057829003601f168201915b50505050508152602001600182018054611016906128d1565b80601f0160208091040260200160405190810160405280929190818152602001828054611042906128d1565b801561108f5780601f106110645761010080835404028352916020019161108f565b820191906000526020600020905b81548152906001019060200180831161107257829003601f168201915b505050505081526020016002820180546110a8906128d1565b80601f01602080910402602001604051908101604052809291908181526020018280546110d4906128d1565b80156111215780601f106110f657610100808354040283529160200191611121565b820191906000526020600020905b81548152906001019060200180831161110457829003601f168201915b505050505081526020016003820154815260200160048201548152505090506000600882600001516040516111569190612f46565b9081526020016040518091039020805461116f906128d1565b80601f016020809104026020016040519081016040528092919081815260200182805461119b906128d1565b80156111e85780601f106111bd576101008083540402835291602001916111e8565b820191906000526020600020905b8154815290600101906020018083116111cb57829003601f168201915b50505050509050600082600001518360000151846020015185604001516112128760600151611b0d565b87602001518860400151886040516020016112349897969594939291906133d1565b6040516020818303038152906040529050600061125082611bdb565b905080604051602001611263919061354a565b604051602081830303815290604052945050505050919050565b60008054906101000a900473ffffffffffffffffffffffffffffffffffffffff1681565b600660009054906101000a900473ffffffffffffffffffffffffffffffffffffffff1681565b600073ffffffffffffffffffffffffffffffffffffffff166009600083815260200190815260200160002060009054906101000a900473ffffffffffffffffffffffffffffffffffffffff1673ffffffffffffffffffffffffffffffffffffffff1603611369576040517f08c379a000000000000000000000000000000000000000000000000000000000815260040161136090612eea565b60405180910390fd5b3373ffffffffffffffffffffffffffffffffffffffff166009600083815260200190815260200160002060009054906101000a900473ffffffffffffffffffffffffffffffffffffffff1673ffffffffffffffffffffffffffffffffffffffff160361140a576040517f08c379a0000000000000000000000000000000000000000000000000000000008152600401611401906135b8565b60405180910390fd5b600660009054906101000a900473ffffffffffffffffffffffffffffffffffffffff1673ffffffffffffffffffffffffffffffffffffffff166009600083815260200190815260200160002060009054906101000a900473ffffffffffffffffffffffffffffffffffffffff1673ffffffffffffffffffffffffffffffffffffffff16146114cd576040517f08c379a00000000000000000000000000000000000000000000000000000000081526004016114c490613624565b60405180910390fd5b61150b6009600083815260200190815260200160002060009054906101000a900473ffffffffffffffffffffffffffffffffffffffff163383611d53565b50565b600d6020528160005260406000206020528060005260406000206000915091509054906101000a900460ff1681565b6008818051602081018201805184825260208301602085012081835280955050505050506000915090508054611572906128d1565b80601f016020809104026020016040519081016040528092919081815260200182805461159e906128d1565b80156115eb5780601f106115c0576101008083540402835291602001916115eb565b820191906000526020600020905b8154815290600101906020018083116115ce57829003601f168201915b505050505081565b6007602052806000526040600020600091509050806000018054611616906128d1565b80601f0160208091040260200160405190810160405280929190818152602001828054611642906128d1565b801561168f5780601f106116645761010080835404028352916020019161168f565b820191906000526020600020905b81548152906001019060200180831161167257829003601f168201915b5050505050908060010180546116a4906128d1565b80601f01602080910402602001604051908101604052809291908181526020018280546116d0906128d1565b801561171d5780601f106116f25761010080835404028352916020019161171d565b820191906000526020600020905b81548152906001019060200180831161170057829003601f168201915b505050505090806002018054611732906128d1565b80601f016020809104026020016040519081016040528092919081815260200182805461175e906128d1565b80156117ab5780601f10611780576101008083540402835291602001916117ab565b820191906000526020600020905b81548152906001019060200180831161178e57829003601f168201915b5050505050908060030154908060040154905085565b60008373ffffffffffffffffffffffffffffffffffffffff168373ffffffffffffffffffffffffffffffffffffffff1614806118835750600d60008573ffffffffffffffffffffffffffffffffffffffff1673ffffffffffffffffffffffffffffffffffffffff16815260200190815260200160002060008473ffffffffffffffffffffffffffffffffffffffff1673ffffffffffffffffffffffffffffffffffffffff16815260200190815260200160002060009054906101000a900460ff165b806118ec5750600c600083815260200190815260200160002060009054906101000a900473ffffffffffffffffffffffffffffffffffffffff1673ffffffffffffffffffffffffffffffffffffffff168373ffffffffffffffffffffffffffffffffffffffff16145b90509392505050565b600073ffffffffffffffffffffffffffffffffffffffff168273ffffffffffffffffffffffffffffffffffffffff1603611964576040517f08c379a000000000000000000000000000000000000000000000000000000000815260040161195b90613690565b60405180910390fd5b600073ffffffffffffffffffffffffffffffffffffffff166009600083815260200190815260200160002060009054906101000a900473ffffffffffffffffffffffffffffffffffffffff1673ffffffffffffffffffffffffffffffffffffffff1614611a06576040517f08c379a00000000000000000000000000000000000000000000000000000000081526004016119fd906136fc565b60405180910390fd5b600b60008373ffffffffffffffffffffffffffffffffffffffff1673ffffffffffffffffffffffffffffffffffffffff1681526020019081526020016000206000815480929190611a5690612d12565b9190505550816009600083815260200190815260200160002060006101000a81548173ffffffffffffffffffffffffffffffffffffffff021916908373ffffffffffffffffffffffffffffffffffffffff160217905550808273ffffffffffffffffffffffffffffffffffffffff16600073ffffffffffffffffffffffffffffffffffffffff167fddf252ad1be2c89b69c2b068fc378daa952ba7f163c4a11628f55a4df523b3ef60405160405180910390a45050565b606060006001611b1c84611ff5565b01905060008167ffffffffffffffff811115611b3b57611b3a612316565b5b6040519080825280601f01601f191660200182016040528015611b6d5781602001600182028036833780820191505090505b509050600082602001820190505b600115611bd0578080600190039150507f3031323334353637383961626364656600000000000000000000000000000000600a86061a8153600a8581611bc457611bc361371c565b5b04945060008503611b7b575b819350505050919050565b60606000825103611bfd57604051806020016040528060008152509050611d4e565b60006040518060600160405280604081526020016137f36040913990506000600360028551611c2c919061374b565b611c36919061377f565b6004611c4291906137b0565b90506000602082611c53919061374b565b67ffffffffffffffff811115611c6c57611c6b612316565b5b6040519080825280601f01601f191660200182016040528015611c9e5781602001600182028036833780820191505090505b509050818152600183018586518101602084015b81831015611d0d576003830192508251603f8160121c168501518253600182019150603f81600c1c168501518253600182019150603f8160061c168501518253600182019150603f8116850151825360018201915050611cb2565b600389510660018114611d275760028114611d3757611d42565b613d3d60f01b6002830352611d42565b603d60f81b60018303525b50505050508093505050505b919050565b6009600082815260200190815260200160002060009054906101000a900473ffffffffffffffffffffffffffffffffffffffff1673ffffffffffffffffffffffffffffffffffffffff168373ffffffffffffffffffffffffffffffffffffffff1614611df4576040517f08c379a0000000000000000000000000000000000000000000000000000000008152600401611deb90612c2e565b60405180910390fd5b600073ffffffffffffffffffffffffffffffffffffffff168273ffffffffffffffffffffffffffffffffffffffff1603611e63576040517f08c379a0000000000000000000000000000000000000000000000000000000008152600401611e5a90612c9a565b60405180910390fd5b600b60008473ffffffffffffffffffffffffffffffffffffffff1673ffffffffffffffffffffffffffffffffffffffff1681526020019081526020016000206000815480929190611eb390612ce9565b9190505550600b60008373ffffffffffffffffffffffffffffffffffffffff1673ffffffffffffffffffffffffffffffffffffffff1681526020019081526020016000206000815480929190611f0890612d12565b9190505550816009600083815260200190815260200160002060006101000a81548173ffffffffffffffffffffffffffffffffffffffff021916908373ffffffffffffffffffffffffffffffffffffffff160217905550600c600082815260200190815260200160002060006101000a81549073ffffffffffffffffffffffffffffffffffffffff0219169055808273ffffffffffffffffffffffffffffffffffffffff168473ffffffffffffffffffffffffffffffffffffffff167fddf252ad1be2c89b69c2b068fc378daa952ba7f163c4a11628f55a4df523b3ef60405160405180910390a4505050565b600080600090507a184f03e93ff9f4daa797ed6e38ed64bf6a1f0100000000000000008310612053577a184f03e93ff9f4daa797ed6e38ed64bf6a1f01000000000000000083816120495761204861371c565b5b0492506040810190505b6d04ee2d6d415b85acef81000000008310612090576d04ee2d6d415b85acef810000000083816120865761208561371c565b5b0492506020810190505b662386f26fc1000083106120bf57662386f26fc1000083816120b5576120b461371c565b5b0492506010810190505b6305f5e10083106120e8576305f5e10083816120de576120dd61371c565b5b0492506008810190505b612710831061210d5761271083816121035761210261371c565b5b0492506004810190505b6064831061213057606483816121265761212561371c565b5b0492506002810190505b600a831061213f576001810190505b80915050919050565b600081519050919050565b600082825260208201905092915050565b60005b83811015612182578082015181840152602081019050612167565b60008484015250505050565b6000601f19601f8301169050919050565b60006121aa82612148565b6121b48185612153565b93506121c4818560208601612164565b6121cd8161218e565b840191505092915050565b600060208201905081810360008301526121f2818461219f565b905092915050565b6000604051905090565b600080fd5b600080fd5b600073ffffffffffffffffffffffffffffffffffffffff82169050919050565b60006122398261220e565b9050919050565b6122498161222e565b811461225457600080fd5b50565b60008135905061226681612240565b92915050565b6000819050919050565b61227f8161226c565b811461228a57600080fd5b50565b60008135905061229c81612276565b92915050565b600080604083850312156122b9576122b8612204565b5b60006122c785828601612257565b92505060206122d88582860161228d565b9150509250929050565b6122eb8161226c565b82525050565b600060208201905061230660008301846122e2565b92915050565b600080fd5b600080fd5b7f4e487b7100000000000000000000000000000000000000000000000000000000600052604160045260246000fd5b61234e8261218e565b810181811067ffffffffffffffff8211171561236d5761236c612316565b5b80604052505050565b60006123806121fa565b905061238c8282612345565b919050565b600067ffffffffffffffff8211156123ac576123ab612316565b5b6123b58261218e565b9050602081019050919050565b82818337600083830152505050565b60006123e46123df84612391565b612376565b905082815260208101848484011115612400576123ff612311565b5b61240b8482856123c2565b509392505050565b600082601f8301126124285761242761230c565b5b81356124388482602086016123d1565b91505092915050565b6000806040838503121561245857612457612204565b5b60006124668582860161228d565b925050602083013567ffffffffffffffff81111561248757612486612209565b5b61249385828601612413565b9150509250929050565b6000806000606084860312156124b6576124b5612204565b5b60006124c486828701612257565b93505060206124d586828701612257565b92505060406124e68682870161228d565b9150509250925092565b60006020828403121561250657612505612204565b5b60006125148482850161228d565b91505092915050565b6125268161222e565b82525050565b6000602082019050612541600083018461251d565b92915050565b60006020828403121561255d5761255c612204565b5b600061256b84828501612257565b91505092915050565b6000806040838503121561258b5761258a612204565b5b60006125998582860161228d565b92505060206125aa8582860161228d565b9150509250929050565b60008115159050919050565b6125c9816125b4565b81146125d457600080fd5b50565b6000813590506125e6816125c0565b92915050565b6000806040838503121561260357612602612204565b5b600061261185828601612257565b9250506020612622858286016125d7565b9150509250929050565b60008060008060008060c0878903121561264957612648612204565b5b600061265789828a01612257565b965050602087013567ffffffffffffffff81111561267857612677612209565b5b61268489828a01612413565b955050604087013567ffffffffffffffff8111156126a5576126a4612209565b5b6126b189828a01612413565b945050606087013567ffffffffffffffff8111156126d2576126d1612209565b5b6126de89828a01612413565b93505060806126ef89828a0161228d565b92505060a061270089828a0161228d565b9150509295509295509295565b6000819050919050565b600061273261272d6127288461220e565b61270d565b61220e565b9050919050565b600061274482612717565b9050919050565b600061275682612739565b9050919050565b6127668161274b565b82525050565b6000602082019050612781600083018461275d565b92915050565b6000806040838503121561279e5761279d612204565b5b60006127ac85828601612257565b92505060206127bd85828601612257565b9150509250929050565b6127d0816125b4565b82525050565b60006020820190506127eb60008301846127c7565b92915050565b60006020828403121561280757612806612204565b5b600082013567ffffffffffffffff81111561282557612824612209565b5b61283184828501612413565b91505092915050565b600060a0820190508181036000830152612854818861219f565b90508181036020830152612868818761219f565b9050818103604083015261287c818661219f565b905061288b60608301856122e2565b61289860808301846122e2565b9695505050505050565b7f4e487b7100000000000000000000000000000000000000000000000000000000600052602260045260246000fd5b600060028204905060018216806128e957607f821691505b6020821081036128fc576128fb6128a2565b5b50919050565b7f6e6f7420617574686f72697a6564000000000000000000000000000000000000600082015250565b6000612938600e83612153565b915061294382612902565b602082019050919050565b600060208201905081810360008301526129678161292b565b9050919050565b60008190508160005260206000209050919050565b60006020601f8301049050919050565b600082821b905092915050565b6000600883026129d07fffffffffffffffffffffffffffffffffffffffffffffffffffffffffffffffff82612993565b6129da8683612993565b95508019841693508086168417925050509392505050565b6000612a0d612a08612a038461226c565b61270d565b61226c565b9050919050565b6000819050919050565b612a27836129f2565b612a3b612a3382612a14565b8484546129a0565b825550505050565b600090565b612a50612a43565b612a5b818484612a1e565b505050565b5b81811015612a7f57612a74600082612a48565b600181019050612a61565b5050565b601f821115612ac457612a958161296e565b612a9e84612983565b81016020851015612aad578190505b612ac1612ab985612983565b830182612a60565b50505b505050565b600082821c905092915050565b6000612ae760001984600802612ac9565b1980831691505092915050565b6000612b008383612ad6565b9150826002028217905092915050565b612b1982612148565b67ffffffffffffffff811115612b3257612b31612316565b5b612b3c82546128d1565b612b47828285612a83565b600060209050601f831160018114612b7a5760008415612b68578287015190505b612b728582612af4565b865550612bda565b601f198416612b888661296e565b60005b82811015612bb057848901518255600182019150602085019450602081019050612b8b565b86831015612bcd5784890151612bc9601f891682612ad6565b8355505b6001600288020188555050505b505050505050565b7f66726f6d20213d206f776e657200000000000000000000000000000000000000600082015250565b6000612c18600d83612153565b9150612c2382612be2565b602082019050919050565b60006020820190508181036000830152612c4781612c0b565b9050919050565b7f7472616e7366657220746f207a65726f20616464726573730000000000000000600082015250565b6000612c84601883612153565b9150612c8f82612c4e565b602082019050919050565b60006020820190508181036000830152612cb381612c77565b9050919050565b7f4e487b7100000000000000000000000000000000000000000000000000000000600052601160045260246000fd5b6000612cf48261226c565b915060008203612d0757612d06612cba565b5b600182039050919050565b6000612d1d8261226c565b91507fffffffffffffffffffffffffffffffffffffffffffffffffffffffffffffffff8203612d4f57612d4e612cba565b5b600182019050919050565b7f746f6b656e20646f65736e277420657869737400000000000000000000000000600082015250565b6000612d90601383612153565b9150612d9b82612d5a565b602082019050919050565b60006020820190508181036000830152612dbf81612d83565b9050919050565b7f6f776e6572203d207a65726f2061646472657373000000000000000000000000600082015250565b6000612dfc601483612153565b9150612e0782612dc6565b602082019050919050565b60006020820190508181036000830152612e2b81612def565b9050919050565b7f4d617820737570706c7920726561636865640000000000000000000000000000600082015250565b6000612e68601283612153565b9150612e7382612e32565b602082019050919050565b60006020820190508181036000830152612e9781612e5b565b9050919050565b7f546f6b656e20646f6573206e6f74206578697374000000000000000000000000600082015250565b6000612ed4601483612153565b9150612edf82612e9e565b602082019050919050565b60006020820190508181036000830152612f0381612ec7565b9050919050565b600081905092915050565b6000612f2082612148565b612f2a8185612f0a565b9350612f3a818560208601612164565b80840191505092915050565b6000612f528284612f15565b915081905092915050565b7f7b00000000000000000000000000000000000000000000000000000000000000600082015250565b6000612f93600183612f0a565b9150612f9e82612f5d565b600182019050919050565b7f226e616d65223a20220000000000000000000000000000000000000000000000600082015250565b6000612fdf600983612f0a565b9150612fea82612fa9565b600982019050919050565b7f222c000000000000000000000000000000000000000000000000000000000000600082015250565b600061302b600283612f0a565b915061303682612ff5565b600282019050919050565b7f226465736372697074696f6e223a202200000000000000000000000000000000600082015250565b6000613077601083612f0a565b915061308282613041565b601082019050919050565b7f20706c6179732000000000000000000000000000000000000000000000000000600082015250565b60006130c3600783612f0a565b91506130ce8261308d565b600782019050919050565b7f20666f7220746865200000000000000000000000000000000000000000000000600082015250565b600061310f600983612f0a565b915061311a826130d9565b600982019050919050565b7f2e20000000000000000000000000000000000000000000000000000000000000600082015250565b600061315b600283612f0a565b915061316682613125565b600282019050919050565b7f46616e7461737920506f696e74733a2000000000000000000000000000000000600082015250565b60006131a7601083612f0a565b91506131b282613171565b601082019050919050565b7f506f736974696f6e3a2000000000000000000000000000000000000000000000600082015250565b60006131f3600a83612f0a565b91506131fe826131bd565b600a82019050919050565b7f5465616d3a200000000000000000000000000000000000000000000000000000600082015250565b600061323f600683612f0a565b915061324a82613209565b600682019050919050565b7f2e22000000000000000000000000000000000000000000000000000000000000600082015250565b600061328b600283612f0a565b915061329682613255565b600282019050919050565b7f2c00000000000000000000000000000000000000000000000000000000000000600082015250565b60006132d7600183612f0a565b91506132e2826132a1565b600182019050919050565b7f22696d616765223a202200000000000000000000000000000000000000000000600082015250565b6000613323600a83612f0a565b915061332e826132ed565b600a82019050919050565b7f2200000000000000000000000000000000000000000000000000000000000000600082015250565b600061336f600183612f0a565b915061337a82613339565b600182019050919050565b7f7d00000000000000000000000000000000000000000000000000000000000000600082015250565b60006133bb600183612f0a565b91506133c682613385565b600182019050919050565b60006133dc82612f86565b91506133e782612fd2565b91506133f3828b612f15565b91506133fe8261301e565b91506134098261306a565b9150613415828a612f15565b9150613420826130b6565b915061342c8289612f15565b915061343782613102565b91506134438288612f15565b915061344e8261314e565b91506134598261319a565b91506134658287612f15565b91506134708261314e565b915061347b826131e6565b91506134878286612f15565b91506134928261314e565b915061349d82613232565b91506134a98285612f15565b91506134b48261327e565b91506134bf826132ca565b91506134ca82613316565b91506134d68284612f15565b91506134e182613362565b91506134ec826133ae565b91508190509998505050505050505050565b7f646174613a6170706c69636174696f6e2f6a736f6e3b6261736536342c000000600082015250565b6000613534601d83612f0a565b915061353f826134fe565b601d82019050919050565b600061355582613527565b91506135618284612f15565b915081905092915050565b7f596f7520616c7265616479206f776e2074686973204e46540000000000000000600082015250565b60006135a2601883612153565b91506135ad8261356c565b602082019050919050565b600060208201905081810360008301526135d181613595565b9050919050565b7f4e465420616c7265616479207075726368617365640000000000000000000000600082015250565b600061360e601583612153565b9150613619826135d8565b602082019050919050565b6000602082019050818103600083015261363d81613601565b9050919050565b7f6d696e7420746f207a65726f2061646472657373000000000000000000000000600082015250565b600061367a601483612153565b915061368582613644565b602082019050919050565b600060208201905081810360008301526136a98161366d565b9050919050565b7f616c7265616479206d696e746564000000000000000000000000000000000000600082015250565b60006136e6600e83612153565b91506136f1826136b0565b602082019050919050565b60006020820190508181036000830152613715816136d9565b9050919050565b7f4e487b7100000000000000000000000000000000000000000000000000000000600052601260045260246000fd5b60006137568261226c565b91506137618361226c565b925082820190508082111561377957613778612cba565b5b92915050565b600061378a8261226c565b91506137958361226c565b9250826137a5576137a461371c565b5b828204905092915050565b60006137bb8261226c565b91506137c68361226c565b92508282026137d48161226c565b915082820484148315176137eb576137ea612cba565b5b509291505056fe4142434445464748494a4b4c4d4e4f505152535455565758595a6162636465666768696a6b6c6d6e6f707172737475767778797a303132333435363738392b2fa26469706673582212207770bc06eb5dbfafec9018d2d07a9013eb80a749cc3dd1031e17bbde61c74a5b64736f6c6343000814003368747470733a2f2f77686974652d717569636b2d6775616e2d3331342e6d7970696e6174612e636c6f75642f697066732f6261667962656964326964747a6d6874356e65777072633777683368693537633466756c68376c75637837657070367a70726e61376e70636766652f73617175616e2d6261726b6c65792e6a706768747470733a2f2f77686974652d717569636b2d6775616e2d3331342e6d7970696e6174612e636c6f75642f697066732f6261667962656964326964747a6d6874356e65777072633777683368693537633466756c68376c75637837657070367a70726e61376e70636766652f6a6f73682d616c6c656e2e6a706768747470733a2f2f77686974652d717569636b2d6775616e2d3331342e6d7970696e6174612e636c6f75642f697066732f6261667962656964326964747a6d6874356e65777072633777683368693537633466756c68376c75637837657070367a70726e61376e70636766652f73616d2d6c61706f7274612e6a706768747470733a2f2f77686974652d717569636b2d6775616e2d3331342e6d7970696e6174612e636c6f75642f697066732f6261667962656964326964747a6d6874356e65777072633777683368693537633466756c68376c75637837657070367a70726e61376e70636766652f6d616c696b2d6e61626572732e6a706768747470733a2f2f77686974652d717569636b2d6775616e2d3331342e6d7970696e6174612e636c6f75642f697066732f6261667962656964326964747a6d6874356e65777072633777683368693537633466756c68376c75637837657070367a70726e61376e70636766652f7061747269636b2d6d61686f6d65732e6a706768747470733a2f2f77686974652d717569636b2d6775616e2d3331342e6d7970696e6174612e636c6f75642f697066732f6261667962656964326964747a6d6874356e65777072633777683368693537633466756c68376c75637837657070367a70726e61376e70636766652f62726f636b2d626f776572732e6a706768747470733a2f2f77686974652d717569636b2d6775616e2d3331342e6d7970696e6174612e636c6f75642f697066732f6261667962656964326964747a6d6874356e65777072633777683368693537633466756c68376c75637837657070367a70726e61376e70636766652f6a757374696e2d6a6566666572736f6e2e6a706768747470733a2f2f77686974652d717569636b2d6775616e2d3331342e6d7970696e6174612e636c6f75642f697066732f6261667962656964326964747a6d6874356e65777072633777683368693537633466756c68376c75637837657070367a70726e61376e70636766652f6465727269636b2d68656e72792e6a7067",
  "linkReferences": {},
  "deployedLinkReferences": {}
}