{
  "_format": "hh-sol-artifact-1",
  "contractName": "FantasyFootball",
  "sourceName": "contracts/fantasyFootball.sol",
  "abi": [
    {
      "inputs": [
        {
          "internalType": "address",
          "name": "_yodaTokenAddress",
          "type": "address"
        },
        {
          "internalType": "string",
          "name": "_name",
          "type": "string"
        },
        {
          "internalType": "string",
          "name": "_symbol",
          "type": "string"
        },
        {
          "internalType": "uint256",
          "name": "MINT_PRICE",
          "type": "uint256"
        },
        {
          "internalType": "uint256",
          "name": "MAX_SUPPLY",
          "type": "uint256"
        }
      ],
      "stateMutability": "nonpayable",
      "type": "constructor"
    },
    {
      "anonymous": false,
      "inputs": [
        {
          "indexed": true,
          "internalType": "address",
          "name": "owner",
          "type": "address"
        },
        {
          "indexed": true,
          "internalType": "address",
          "name": "spender",
          "type": "address"
        },
        {
          "indexed": true,
          "internalType": "uint256",
          "name": "id",
          "type": "uint256"
        }
      ],
      "name": "Approval",
      "type": "event"
    },
    {
      "anonymous": false,
      "inputs": [
        {
          "indexed": true,
          "internalType": "address",
          "name": "owner",
          "type": "address"
        },
        {
          "indexed": true,
          "internalType": "address",
          "name": "operator",
          "type": "address"
        },
        {
          "indexed": false,
          "internalType": "bool",
          "name": "approved",
          "type": "bool"
        }
      ],
      "name": "ApprovalForAll",
      "type": "event"
    },
    {
      "anonymous": false,
      "inputs": [
        {
          "indexed": true,
          "internalType": "address",
          "name": "from",
          "type": "address"
        },
        {
          "indexed": true,
          "internalType": "address",
          "name": "to",
          "type": "address"
        },
        {
          "indexed": true,
          "internalType": "uint256",
          "name": "id",
          "type": "uint256"
        }
      ],
      "name": "Transfer",
      "type": "event"
    },
    {
      "inputs": [
        {
          "internalType": "address",
          "name": "spender",
          "type": "address"
        },
        {
          "internalType": "uint256",
          "name": "id",
          "type": "uint256"
        }
      ],
      "name": "approve",
      "outputs": [],
      "stateMutability": "nonpayable",
      "type": "function"
    },
    {
      "inputs": [
        {
          "internalType": "address",
          "name": "owner",
          "type": "address"
        }
      ],
      "name": "balanceOf",
      "outputs": [
        {
          "internalType": "uint256",
          "name": "",
          "type": "uint256"
        }
      ],
      "stateMutability": "view",
      "type": "function"
    },
    {
      "inputs": [
        {
          "internalType": "uint256",
          "name": "tokenId",
          "type": "uint256"
        }
      ],
      "name": "buy",
      "outputs": [],
      "stateMutability": "nonpayable",
      "type": "function"
    },
    {
      "inputs": [
        {
          "internalType": "address",
          "name": "",
          "type": "address"
        },
        {
          "internalType": "address",
          "name": "",
          "type": "address"
        }
      ],
      "name": "isApprovedForAll",
      "outputs": [
        {
          "internalType": "bool",
          "name": "",
          "type": "bool"
        }
      ],
      "stateMutability": "view",
      "type": "function"
    },
    {
      "inputs": [],
      "name": "max_supply",
      "outputs": [
        {
          "internalType": "uint256",
          "name": "",
          "type": "uint256"
        }
      ],
      "stateMutability": "view",
      "type": "function"
    },
    {
      "inputs": [
        {
          "internalType": "address",
          "name": "to",
          "type": "address"
        },
        {
          "internalType": "string",
          "name": "_name",
          "type": "string"
        },
        {
          "internalType": "string",
          "name": "_position",
          "type": "string"
        },
        {
          "internalType": "string",
          "name": "_team",
          "type": "string"
        },
        {
          "internalType": "uint256",
          "name": "_fantasyPoints",
          "type": "uint256"
        },
        {
          "internalType": "uint256",
          "name": "_mintPrice",
          "type": "uint256"
        }
      ],
      "name": "mint",
      "outputs": [],
      "stateMutability": "payable",
      "type": "function"
    },
    {
      "inputs": [],
      "name": "mint_price",
      "outputs": [
        {
          "internalType": "uint256",
          "name": "",
          "type": "uint256"
        }
      ],
      "stateMutability": "view",
      "type": "function"
    },
    {
      "inputs": [],
      "name": "name",
      "outputs": [
        {
          "internalType": "string",
          "name": "",
          "type": "string"
        }
      ],
      "stateMutability": "view",
      "type": "function"
    },
    {
      "inputs": [
        {
          "internalType": "uint256",
          "name": "id",
          "type": "uint256"
        }
      ],
      "name": "ownerOf",
      "outputs": [
        {
          "internalType": "address",
          "name": "owner",
          "type": "address"
        }
      ],
      "stateMutability": "view",
      "type": "function"
    },
    {
      "inputs": [
        {
          "internalType": "uint256",
          "name": "",
          "type": "uint256"
        }
      ],
      "name": "players",
      "outputs": [
        {
          "internalType": "string",
          "name": "name",
          "type": "string"
        },
        {
          "internalType": "string",
          "name": "position",
          "type": "string"
        },
        {
          "internalType": "string",
          "name": "team",
          "type": "string"
        },
        {
          "internalType": "uint256",
          "name": "fantasyPoints",
          "type": "uint256"
        },
        {
          "internalType": "uint256",
          "name": "mintPrice",
          "type": "uint256"
        }
      ],
      "stateMutability": "view",
      "type": "function"
    },
    {
      "inputs": [
        {
          "internalType": "address",
          "name": "operator",
          "type": "address"
        },
        {
          "internalType": "bool",
          "name": "approved",
          "type": "bool"
        }
      ],
      "name": "setApprovalForAll",
      "outputs": [],
      "stateMutability": "nonpayable",
      "type": "function"
    },
    {
      "inputs": [],
      "name": "symbol",
      "outputs": [
        {
          "internalType": "string",
          "name": "",
          "type": "string"
        }
      ],
      "stateMutability": "view",
      "type": "function"
    },
    {
      "inputs": [
        {
          "internalType": "address",
          "name": "from",
          "type": "address"
        },
        {
          "internalType": "address",
          "name": "to",
          "type": "address"
        },
        {
          "internalType": "uint256",
          "name": "id",
          "type": "uint256"
        }
      ],
      "name": "transferFrom",
      "outputs": [],
      "stateMutability": "nonpayable",
      "type": "function"
    },
    {
      "inputs": [
        {
          "internalType": "uint256",
          "name": "tokenId",
          "type": "uint256"
        },
        {
          "internalType": "uint256",
          "name": "newPoints",
          "type": "uint256"
        }
      ],
      "name": "updateFantasyPoints",
      "outputs": [],
      "stateMutability": "nonpayable",
      "type": "function"
    },
    {
      "inputs": [
        {
          "internalType": "uint256",
          "name": "tokenId",
          "type": "uint256"
        },
        {
          "internalType": "string",
          "name": "newTeam",
          "type": "string"
        }
      ],
      "name": "updateTeam",
      "outputs": [],
      "stateMutability": "nonpayable",
      "type": "function"
    },
    {
      "inputs": [],
      "name": "yodaToken",
      "outputs": [
        {
          "internalType": "contract IERC20",
          "name": "",
          "type": "address"
        }
      ],
      "stateMutability": "view",
      "type": "function"
    }
  ],
  "bytecode": "0x60806040523480156200001157600080fd5b5060405162002d1b38038062002d1b8339818101604052810190620000379190620002e7565b846000806101000a81548173ffffffffffffffffffffffffffffffffffffffff021916908373ffffffffffffffffffffffffffffffffffffffff1602179055508360019081620000889190620005ee565b5082600290816200009a9190620005ee565b5081600381905550806004819055505050505050620006d5565b6000604051905090565b600080fd5b600080fd5b600073ffffffffffffffffffffffffffffffffffffffff82169050919050565b6000620000f582620000c8565b9050919050565b6200010781620000e8565b81146200011357600080fd5b50565b6000815190506200012781620000fc565b92915050565b600080fd5b600080fd5b6000601f19601f8301169050919050565b7f4e487b7100000000000000000000000000000000000000000000000000000000600052604160045260246000fd5b620001828262000137565b810181811067ffffffffffffffff82111715620001a457620001a362000148565b5b80604052505050565b6000620001b9620000b4565b9050620001c7828262000177565b919050565b600067ffffffffffffffff821115620001ea57620001e962000148565b5b620001f58262000137565b9050602081019050919050565b60005b838110156200022257808201518184015260208101905062000205565b60008484015250505050565b6000620002456200023f84620001cc565b620001ad565b90508281526020810184848401111562000264576200026362000132565b5b6200027184828562000202565b509392505050565b600082601f8301126200029157620002906200012d565b5b8151620002a38482602086016200022e565b91505092915050565b6000819050919050565b620002c181620002ac565b8114620002cd57600080fd5b50565b600081519050620002e181620002b6565b92915050565b600080600080600060a08688031215620003065762000305620000be565b5b6000620003168882890162000116565b955050602086015167ffffffffffffffff8111156200033a5762000339620000c3565b5b620003488882890162000279565b945050604086015167ffffffffffffffff8111156200036c576200036b620000c3565b5b6200037a8882890162000279565b93505060606200038d88828901620002d0565b9250506080620003a088828901620002d0565b9150509295509295909350565b600081519050919050565b7f4e487b7100000000000000000000000000000000000000000000000000000000600052602260045260246000fd5b600060028204905060018216806200040057607f821691505b602082108103620004165762000415620003b8565b5b50919050565b60008190508160005260206000209050919050565b60006020601f8301049050919050565b600082821b905092915050565b600060088302620004807fffffffffffffffffffffffffffffffffffffffffffffffffffffffffffffffff8262000441565b6200048c868362000441565b95508019841693508086168417925050509392505050565b6000819050919050565b6000620004cf620004c9620004c384620002ac565b620004a4565b620002ac565b9050919050565b6000819050919050565b620004eb83620004ae565b62000503620004fa82620004d6565b8484546200044e565b825550505050565b600090565b6200051a6200050b565b62000527818484620004e0565b505050565b5b818110156200054f576200054360008262000510565b6001810190506200052d565b5050565b601f8211156200059e5762000568816200041c565b620005738462000431565b8101602085101562000583578190505b6200059b620005928562000431565b8301826200052c565b50505b505050565b600082821c905092915050565b6000620005c360001984600802620005a3565b1980831691505092915050565b6000620005de8383620005b0565b9150826002028217905092915050565b620005f982620003ad565b67ffffffffffffffff81111562000615576200061462000148565b5b620006218254620003e7565b6200062e82828562000553565b600060209050601f83116001811462000666576000841562000651578287015190505b6200065d8582620005d0565b865550620006cd565b601f19841662000676866200041c565b60005b82811015620006a05784890151825560018201915060208501945060208101905062000679565b86831015620006c05784890151620006bc601f891682620005b0565b8355505b6001600288020188555050505b505050505050565b61263680620006e56000396000f3fe6080604052600436106100f35760003560e01c8063920d9f2f1161008a578063cdc6453811610059578063cdc6453814610307578063d96a094a14610332578063e985e9c51461035b578063f71d96cb14610398576100f3565b8063920d9f2f1461026e57806395d89b4114610297578063a22cb465146102c2578063c74e07ac146102eb576100f3565b806323b872dd116100c657806323b872dd146101a05780636352211e146101c957806370a08231146102065780638a333b5014610243576100f3565b806306fdde03146100f8578063095ea7b3146101235780631a4231a41461014c57806320cb510914610177575b600080fd5b34801561010457600080fd5b5061010d6103d9565b60405161011a91906116ee565b60405180910390f35b34801561012f57600080fd5b5061014a600480360381019061014591906117b8565b610467565b005b34801561015857600080fd5b50610161610650565b60405161016e9190611807565b60405180910390f35b34801561018357600080fd5b5061019e60048036038101906101999190611957565b610656565b005b3480156101ac57600080fd5b506101c760048036038101906101c291906119b3565b61067e565b005b3480156101d557600080fd5b506101f060048036038101906101eb9190611a06565b61096a565b6040516101fd9190611a42565b60405180910390f35b34801561021257600080fd5b5061022d60048036038101906102289190611a5d565b610a16565b60405161023a9190611807565b60405180910390f35b34801561024f57600080fd5b50610258610acd565b6040516102659190611807565b60405180910390f35b34801561027a57600080fd5b5061029560048036038101906102909190611a8a565b610ad3565b005b3480156102a357600080fd5b506102ac610af2565b6040516102b991906116ee565b60405180910390f35b3480156102ce57600080fd5b506102e960048036038101906102e49190611b02565b610b80565b005b61030560048036038101906103009190611b42565b610c7d565b005b34801561031357600080fd5b5061031c610dea565b6040516103299190611c82565b60405180910390f35b34801561033e57600080fd5b5061035960048036038101906103549190611a06565b610e0e565b005b34801561036757600080fd5b50610382600480360381019061037d9190611c9d565b611115565b60405161038f9190611cec565b60405180910390f35b3480156103a457600080fd5b506103bf60048036038101906103ba9190611a06565b611144565b6040516103d0959493929190611d07565b60405180910390f35b600180546103e690611d9e565b80601f016020809104026020016040519081016040528092919081815260200182805461041290611d9e565b801561045f5780601f106104345761010080835404028352916020019161045f565b820191906000526020600020905b81548152906001019060200180831161044257829003601f168201915b505050505081565b60006007600083815260200190815260200160002060009054906101000a900473ffffffffffffffffffffffffffffffffffffffff1690508073ffffffffffffffffffffffffffffffffffffffff163373ffffffffffffffffffffffffffffffffffffffff16148061055f5750600b60008273ffffffffffffffffffffffffffffffffffffffff1673ffffffffffffffffffffffffffffffffffffffff16815260200190815260200160002060003373ffffffffffffffffffffffffffffffffffffffff1673ffffffffffffffffffffffffffffffffffffffff16815260200190815260200160002060009054906101000a900460ff165b61059e576040517f08c379a000000000000000000000000000000000000000000000000000000000815260040161059590611e1b565b60405180910390fd5b82600a600084815260200190815260200160002060006101000a81548173ffffffffffffffffffffffffffffffffffffffff021916908373ffffffffffffffffffffffffffffffffffffffff160217905550818373ffffffffffffffffffffffffffffffffffffffff168273ffffffffffffffffffffffffffffffffffffffff167f8c5be1e5ebec7d5bd14f71427d1e84f3dd0314c0f7b2291e5b200ac8c7c3b92560405160405180910390a4505050565b60035481565b806006600084815260200190815260200160002060020190816106799190611fdd565b505050565b6007600082815260200190815260200160002060009054906101000a900473ffffffffffffffffffffffffffffffffffffffff1673ffffffffffffffffffffffffffffffffffffffff168373ffffffffffffffffffffffffffffffffffffffff161461071f576040517f08c379a0000000000000000000000000000000000000000000000000000000008152600401610716906120fb565b60405180910390fd5b600073ffffffffffffffffffffffffffffffffffffffff168273ffffffffffffffffffffffffffffffffffffffff160361078e576040517f08c379a000000000000000000000000000000000000000000000000000000000815260040161078590612167565b60405180910390fd5b610799833383611312565b6107d8576040517f08c379a00000000000000000000000000000000000000000000000000000000081526004016107cf90611e1b565b60405180910390fd5b600960008473ffffffffffffffffffffffffffffffffffffffff1673ffffffffffffffffffffffffffffffffffffffff1681526020019081526020016000206000815480929190610828906121b6565b9190505550600960008373ffffffffffffffffffffffffffffffffffffffff1673ffffffffffffffffffffffffffffffffffffffff168152602001908152602001600020600081548092919061087d906121df565b9190505550816007600083815260200190815260200160002060006101000a81548173ffffffffffffffffffffffffffffffffffffffff021916908373ffffffffffffffffffffffffffffffffffffffff160217905550600a600082815260200190815260200160002060006101000a81549073ffffffffffffffffffffffffffffffffffffffff0219169055808273ffffffffffffffffffffffffffffffffffffffff168473ffffffffffffffffffffffffffffffffffffffff167fddf252ad1be2c89b69c2b068fc378daa952ba7f163c4a11628f55a4df523b3ef60405160405180910390a4505050565b60006007600083815260200190815260200160002060009054906101000a900473ffffffffffffffffffffffffffffffffffffffff169050600073ffffffffffffffffffffffffffffffffffffffff168173ffffffffffffffffffffffffffffffffffffffff1603610a11576040517f08c379a0000000000000000000000000000000000000000000000000000000008152600401610a0890612273565b60405180910390fd5b919050565b60008073ffffffffffffffffffffffffffffffffffffffff168273ffffffffffffffffffffffffffffffffffffffff1603610a86576040517f08c379a0000000000000000000000000000000000000000000000000000000008152600401610a7d906122df565b60405180910390fd5b600960008373ffffffffffffffffffffffffffffffffffffffff1673ffffffffffffffffffffffffffffffffffffffff168152602001908152602001600020549050919050565b60045481565b8060066000848152602001908152602001600020600301819055505050565b60028054610aff90611d9e565b80601f0160208091040260200160405190810160405280929190818152602001828054610b2b90611d9e565b8015610b785780601f10610b4d57610100808354040283529160200191610b78565b820191906000526020600020905b815481529060010190602001808311610b5b57829003601f168201915b505050505081565b80600b60003373ffffffffffffffffffffffffffffffffffffffff1673ffffffffffffffffffffffffffffffffffffffff16815260200190815260200160002060008473ffffffffffffffffffffffffffffffffffffffff1673ffffffffffffffffffffffffffffffffffffffff16815260200190815260200160002060006101000a81548160ff0219169083151502179055508173ffffffffffffffffffffffffffffffffffffffff163373ffffffffffffffffffffffffffffffffffffffff167f17307eab39ab6107e8899845ad3d59bd9653f200f220920489ca2b5937696c3183604051610c719190611cec565b60405180910390a35050565b60045460055410610cc3576040517f08c379a0000000000000000000000000000000000000000000000000000000008152600401610cba9061234b565b60405180910390fd5b600060056000815480929190610cd8906121df565b919050559050610ce88782611446565b6040518060a0016040528087815260200186815260200185815260200184815260200183815250600660008381526020019081526020016000206000820151816000019081610d379190611fdd565b506020820151816001019081610d4d9190611fdd565b506040820151816002019081610d639190611fdd565b506060820151816003015560808201518160040155905050600860008873ffffffffffffffffffffffffffffffffffffffff1673ffffffffffffffffffffffffffffffffffffffff16815260200190815260200160002081908060018154018082558091505060019003906000526020600020016000909190919091505550505050505050565b60008054906101000a900473ffffffffffffffffffffffffffffffffffffffff1681565b600073ffffffffffffffffffffffffffffffffffffffff166007600083815260200190815260200160002060009054906101000a900473ffffffffffffffffffffffffffffffffffffffff1673ffffffffffffffffffffffffffffffffffffffff1603610eb0576040517f08c379a0000000000000000000000000000000000000000000000000000000008152600401610ea7906123b7565b60405180910390fd5b3373ffffffffffffffffffffffffffffffffffffffff166007600083815260200190815260200160002060009054906101000a900473ffffffffffffffffffffffffffffffffffffffff1673ffffffffffffffffffffffffffffffffffffffff1603610f51576040517f08c379a0000000000000000000000000000000000000000000000000000000008152600401610f4890612423565b60405180910390fd5b600073ffffffffffffffffffffffffffffffffffffffff1660008054906101000a900473ffffffffffffffffffffffffffffffffffffffff1673ffffffffffffffffffffffffffffffffffffffff16146110d45760006006600083815260200190815260200160002060040154905060008054906101000a900473ffffffffffffffffffffffffffffffffffffffff1673ffffffffffffffffffffffffffffffffffffffff166323b872dd336007600086815260200190815260200160002060009054906101000a900473ffffffffffffffffffffffffffffffffffffffff16846040518463ffffffff1660e01b815260040161105093929190612443565b6020604051808303816000875af115801561106f573d6000803e3d6000fd5b505050506040513d601f19601f82011682018060405250810190611093919061248f565b6110d2576040517f08c379a00000000000000000000000000000000000000000000000000000000081526004016110c990612508565b60405180910390fd5b505b6111126007600083815260200190815260200160002060009054906101000a900473ffffffffffffffffffffffffffffffffffffffff16338361067e565b50565b600b6020528160005260406000206020528060005260406000206000915091509054906101000a900460ff1681565b600660205280600052604060002060009150905080600001805461116790611d9e565b80601f016020809104026020016040519081016040528092919081815260200182805461119390611d9e565b80156111e05780601f106111b5576101008083540402835291602001916111e0565b820191906000526020600020905b8154815290600101906020018083116111c357829003601f168201915b5050505050908060010180546111f590611d9e565b80601f016020809104026020016040519081016040528092919081815260200182805461122190611d9e565b801561126e5780601f106112435761010080835404028352916020019161126e565b820191906000526020600020905b81548152906001019060200180831161125157829003601f168201915b50505050509080600201805461128390611d9e565b80601f01602080910402602001604051908101604052809291908181526020018280546112af90611d9e565b80156112fc5780601f106112d1576101008083540402835291602001916112fc565b820191906000526020600020905b8154815290600101906020018083116112df57829003601f168201915b5050505050908060030154908060040154905085565b60008373ffffffffffffffffffffffffffffffffffffffff168373ffffffffffffffffffffffffffffffffffffffff1614806113d45750600b60008573ffffffffffffffffffffffffffffffffffffffff1673ffffffffffffffffffffffffffffffffffffffff16815260200190815260200160002060008473ffffffffffffffffffffffffffffffffffffffff1673ffffffffffffffffffffffffffffffffffffffff16815260200190815260200160002060009054906101000a900460ff165b8061143d5750600a600083815260200190815260200160002060009054906101000a900473ffffffffffffffffffffffffffffffffffffffff1673ffffffffffffffffffffffffffffffffffffffff168373ffffffffffffffffffffffffffffffffffffffff16145b90509392505050565b600073ffffffffffffffffffffffffffffffffffffffff168273ffffffffffffffffffffffffffffffffffffffff16036114b5576040517f08c379a00000000000000000000000000000000000000000000000000000000081526004016114ac90612574565b60405180910390fd5b600073ffffffffffffffffffffffffffffffffffffffff166007600083815260200190815260200160002060009054906101000a900473ffffffffffffffffffffffffffffffffffffffff1673ffffffffffffffffffffffffffffffffffffffff1614611557576040517f08c379a000000000000000000000000000000000000000000000000000000000815260040161154e906125e0565b60405180910390fd5b600960008373ffffffffffffffffffffffffffffffffffffffff1673ffffffffffffffffffffffffffffffffffffffff16815260200190815260200160002060008154809291906115a7906121df565b9190505550816007600083815260200190815260200160002060006101000a81548173ffffffffffffffffffffffffffffffffffffffff021916908373ffffffffffffffffffffffffffffffffffffffff160217905550808273ffffffffffffffffffffffffffffffffffffffff16600073ffffffffffffffffffffffffffffffffffffffff167fddf252ad1be2c89b69c2b068fc378daa952ba7f163c4a11628f55a4df523b3ef60405160405180910390a45050565b600081519050919050565b600082825260208201905092915050565b60005b8381101561169857808201518184015260208101905061167d565b60008484015250505050565b6000601f19601f8301169050919050565b60006116c08261165e565b6116ca8185611669565b93506116da81856020860161167a565b6116e3816116a4565b840191505092915050565b6000602082019050818103600083015261170881846116b5565b905092915050565b6000604051905090565b600080fd5b600080fd5b600073ffffffffffffffffffffffffffffffffffffffff82169050919050565b600061174f82611724565b9050919050565b61175f81611744565b811461176a57600080fd5b50565b60008135905061177c81611756565b92915050565b6000819050919050565b61179581611782565b81146117a057600080fd5b50565b6000813590506117b28161178c565b92915050565b600080604083850312156117cf576117ce61171a565b5b60006117dd8582860161176d565b92505060206117ee858286016117a3565b9150509250929050565b61180181611782565b82525050565b600060208201905061181c60008301846117f8565b92915050565b600080fd5b600080fd5b7f4e487b7100000000000000000000000000000000000000000000000000000000600052604160045260246000fd5b611864826116a4565b810181811067ffffffffffffffff821117156118835761188261182c565b5b80604052505050565b6000611896611710565b90506118a2828261185b565b919050565b600067ffffffffffffffff8211156118c2576118c161182c565b5b6118cb826116a4565b9050602081019050919050565b82818337600083830152505050565b60006118fa6118f5846118a7565b61188c565b90508281526020810184848401111561191657611915611827565b5b6119218482856118d8565b509392505050565b600082601f83011261193e5761193d611822565b5b813561194e8482602086016118e7565b91505092915050565b6000806040838503121561196e5761196d61171a565b5b600061197c858286016117a3565b925050602083013567ffffffffffffffff81111561199d5761199c61171f565b5b6119a985828601611929565b9150509250929050565b6000806000606084860312156119cc576119cb61171a565b5b60006119da8682870161176d565b93505060206119eb8682870161176d565b92505060406119fc868287016117a3565b9150509250925092565b600060208284031215611a1c57611a1b61171a565b5b6000611a2a848285016117a3565b91505092915050565b611a3c81611744565b82525050565b6000602082019050611a576000830184611a33565b92915050565b600060208284031215611a7357611a7261171a565b5b6000611a818482850161176d565b91505092915050565b60008060408385031215611aa157611aa061171a565b5b6000611aaf858286016117a3565b9250506020611ac0858286016117a3565b9150509250929050565b60008115159050919050565b611adf81611aca565b8114611aea57600080fd5b50565b600081359050611afc81611ad6565b92915050565b60008060408385031215611b1957611b1861171a565b5b6000611b278582860161176d565b9250506020611b3885828601611aed565b9150509250929050565b60008060008060008060c08789031215611b5f57611b5e61171a565b5b6000611b6d89828a0161176d565b965050602087013567ffffffffffffffff811115611b8e57611b8d61171f565b5b611b9a89828a01611929565b955050604087013567ffffffffffffffff811115611bbb57611bba61171f565b5b611bc789828a01611929565b945050606087013567ffffffffffffffff811115611be857611be761171f565b5b611bf489828a01611929565b9350506080611c0589828a016117a3565b92505060a0611c1689828a016117a3565b9150509295509295509295565b6000819050919050565b6000611c48611c43611c3e84611724565b611c23565b611724565b9050919050565b6000611c5a82611c2d565b9050919050565b6000611c6c82611c4f565b9050919050565b611c7c81611c61565b82525050565b6000602082019050611c976000830184611c73565b92915050565b60008060408385031215611cb457611cb361171a565b5b6000611cc28582860161176d565b9250506020611cd38582860161176d565b9150509250929050565b611ce681611aca565b82525050565b6000602082019050611d016000830184611cdd565b92915050565b600060a0820190508181036000830152611d2181886116b5565b90508181036020830152611d3581876116b5565b90508181036040830152611d4981866116b5565b9050611d5860608301856117f8565b611d6560808301846117f8565b9695505050505050565b7f4e487b7100000000000000000000000000000000000000000000000000000000600052602260045260246000fd5b60006002820490506001821680611db657607f821691505b602082108103611dc957611dc8611d6f565b5b50919050565b7f6e6f7420617574686f72697a6564000000000000000000000000000000000000600082015250565b6000611e05600e83611669565b9150611e1082611dcf565b602082019050919050565b60006020820190508181036000830152611e3481611df8565b9050919050565b60008190508160005260206000209050919050565b60006020601f8301049050919050565b600082821b905092915050565b600060088302611e9d7fffffffffffffffffffffffffffffffffffffffffffffffffffffffffffffffff82611e60565b611ea78683611e60565b95508019841693508086168417925050509392505050565b6000611eda611ed5611ed084611782565b611c23565b611782565b9050919050565b6000819050919050565b611ef483611ebf565b611f08611f0082611ee1565b848454611e6d565b825550505050565b600090565b611f1d611f10565b611f28818484611eeb565b505050565b5b81811015611f4c57611f41600082611f15565b600181019050611f2e565b5050565b601f821115611f9157611f6281611e3b565b611f6b84611e50565b81016020851015611f7a578190505b611f8e611f8685611e50565b830182611f2d565b50505b505050565b600082821c905092915050565b6000611fb460001984600802611f96565b1980831691505092915050565b6000611fcd8383611fa3565b9150826002028217905092915050565b611fe68261165e565b67ffffffffffffffff811115611fff57611ffe61182c565b5b6120098254611d9e565b612014828285611f50565b600060209050601f8311600181146120475760008415612035578287015190505b61203f8582611fc1565b8655506120a7565b601f19841661205586611e3b565b60005b8281101561207d57848901518255600182019150602085019450602081019050612058565b8683101561209a5784890151612096601f891682611fa3565b8355505b6001600288020188555050505b505050505050565b7f66726f6d20213d206f776e657200000000000000000000000000000000000000600082015250565b60006120e5600d83611669565b91506120f0826120af565b602082019050919050565b60006020820190508181036000830152612114816120d8565b9050919050565b7f7472616e7366657220746f207a65726f20616464726573730000000000000000600082015250565b6000612151601883611669565b915061215c8261211b565b602082019050919050565b6000602082019050818103600083015261218081612144565b9050919050565b7f4e487b7100000000000000000000000000000000000000000000000000000000600052601160045260246000fd5b60006121c182611782565b9150600082036121d4576121d3612187565b5b600182039050919050565b60006121ea82611782565b91507fffffffffffffffffffffffffffffffffffffffffffffffffffffffffffffffff820361221c5761221b612187565b5b600182019050919050565b7f746f6b656e20646f65736e277420657869737400000000000000000000000000600082015250565b600061225d601383611669565b915061226882612227565b602082019050919050565b6000602082019050818103600083015261228c81612250565b9050919050565b7f6f776e6572203d207a65726f2061646472657373000000000000000000000000600082015250565b60006122c9601483611669565b91506122d482612293565b602082019050919050565b600060208201905081810360008301526122f8816122bc565b9050919050565b7f4d617820737570706c7920726561636865640000000000000000000000000000600082015250565b6000612335601283611669565b9150612340826122ff565b602082019050919050565b6000602082019050818103600083015261236481612328565b9050919050565b7f546f6b656e20646f6573206e6f74206578697374000000000000000000000000600082015250565b60006123a1601483611669565b91506123ac8261236b565b602082019050919050565b600060208201905081810360008301526123d081612394565b9050919050565b7f596f7520616c7265616479206f776e2074686973204e46540000000000000000600082015250565b600061240d601883611669565b9150612418826123d7565b602082019050919050565b6000602082019050818103600083015261243c81612400565b9050919050565b60006060820190506124586000830186611a33565b6124656020830185611a33565b61247260408301846117f8565b949350505050565b60008151905061248981611ad6565b92915050565b6000602082840312156124a5576124a461171a565b5b60006124b38482850161247a565b91505092915050565b7f594f4441207061796d656e74206661696c656400000000000000000000000000600082015250565b60006124f2601383611669565b91506124fd826124bc565b602082019050919050565b60006020820190508181036000830152612521816124e5565b9050919050565b7f6d696e7420746f207a65726f2061646472657373000000000000000000000000600082015250565b600061255e601483611669565b915061256982612528565b602082019050919050565b6000602082019050818103600083015261258d81612551565b9050919050565b7f616c7265616479206d696e746564000000000000000000000000000000000000600082015250565b60006125ca600e83611669565b91506125d582612594565b602082019050919050565b600060208201905081810360008301526125f9816125bd565b905091905056fea26469706673582212206633af5d919fccab9027518ce49ecf096a880ddb3505c61475b24240a1fcc7a464736f6c63430008140033",
  "linkReferences": {},
  "deployedLinkReferences": {}
}