{
  "_format": "hh-sol-artifact-1",
  "contractName": "FantasyFootball",
  "sourceName": "contracts/fantasyFootball.sol",
  "abi": [
    {
      "inputs": [
        {
          "internalType": "address",
          "name": "_yodaTokenAddress",
          "type": "address"
        },
        {
          "internalType": "string",
          "name": "_name",
          "type": "string"
        },
        {
          "internalType": "string",
          "name": "_symbol",
          "type": "string"
        },
        {
          "internalType": "uint256",
          "name": "MINT_PRICE",
          "type": "uint256"
        },
        {
          "internalType": "uint256",
          "name": "MAX_SUPPLY",
          "type": "uint256"
        }
      ],
      "stateMutability": "nonpayable",
      "type": "constructor"
    },
    {
      "anonymous": false,
      "inputs": [
        {
          "indexed": true,
          "internalType": "address",
          "name": "owner",
          "type": "address"
        },
        {
          "indexed": true,
          "internalType": "address",
          "name": "spender",
          "type": "address"
        },
        {
          "indexed": true,
          "internalType": "uint256",
          "name": "id",
          "type": "uint256"
        }
      ],
      "name": "Approval",
      "type": "event"
    },
    {
      "anonymous": false,
      "inputs": [
        {
          "indexed": true,
          "internalType": "address",
          "name": "owner",
          "type": "address"
        },
        {
          "indexed": true,
          "internalType": "address",
          "name": "operator",
          "type": "address"
        },
        {
          "indexed": false,
          "internalType": "bool",
          "name": "approved",
          "type": "bool"
        }
      ],
      "name": "ApprovalForAll",
      "type": "event"
    },
    {
      "anonymous": false,
      "inputs": [
        {
          "indexed": true,
          "internalType": "address",
          "name": "from",
          "type": "address"
        },
        {
          "indexed": true,
          "internalType": "address",
          "name": "to",
          "type": "address"
        },
        {
          "indexed": true,
          "internalType": "uint256",
          "name": "id",
          "type": "uint256"
        }
      ],
      "name": "Transfer",
      "type": "event"
    },
    {
      "inputs": [
        {
          "internalType": "address",
          "name": "spender",
          "type": "address"
        },
        {
          "internalType": "uint256",
          "name": "id",
          "type": "uint256"
        }
      ],
      "name": "approve",
      "outputs": [],
      "stateMutability": "nonpayable",
      "type": "function"
    },
    {
      "inputs": [
        {
          "internalType": "address",
          "name": "owner",
          "type": "address"
        }
      ],
      "name": "balanceOf",
      "outputs": [
        {
          "internalType": "uint256",
          "name": "",
          "type": "uint256"
        }
      ],
      "stateMutability": "view",
      "type": "function"
    },
    {
      "inputs": [
        {
          "internalType": "uint256",
          "name": "tokenId",
          "type": "uint256"
        }
      ],
      "name": "buy",
      "outputs": [],
      "stateMutability": "nonpayable",
      "type": "function"
    },
    {
      "inputs": [
        {
          "internalType": "address",
          "name": "",
          "type": "address"
        },
        {
          "internalType": "address",
          "name": "",
          "type": "address"
        }
      ],
      "name": "isApprovedForAll",
      "outputs": [
        {
          "internalType": "bool",
          "name": "",
          "type": "bool"
        }
      ],
      "stateMutability": "view",
      "type": "function"
    },
    {
      "inputs": [],
      "name": "max_supply",
      "outputs": [
        {
          "internalType": "uint256",
          "name": "",
          "type": "uint256"
        }
      ],
      "stateMutability": "view",
      "type": "function"
    },
    {
      "inputs": [
        {
          "internalType": "address",
          "name": "to",
          "type": "address"
        },
        {
          "internalType": "string",
          "name": "_name",
          "type": "string"
        },
        {
          "internalType": "string",
          "name": "_position",
          "type": "string"
        },
        {
          "internalType": "string",
          "name": "_team",
          "type": "string"
        },
        {
          "internalType": "uint256",
          "name": "_fantasyPoints",
          "type": "uint256"
        },
        {
          "internalType": "uint256",
          "name": "_mintPrice",
          "type": "uint256"
        },
        {
          "internalType": "bool",
          "name": "_forSale",
          "type": "bool"
        },
        {
          "internalType": "uint256",
          "name": "_salePrice",
          "type": "uint256"
        }
      ],
      "name": "mint",
      "outputs": [],
      "stateMutability": "payable",
      "type": "function"
    },
    {
      "inputs": [],
      "name": "mint_price",
      "outputs": [
        {
          "internalType": "uint256",
          "name": "",
          "type": "uint256"
        }
      ],
      "stateMutability": "view",
      "type": "function"
    },
    {
      "inputs": [],
      "name": "name",
      "outputs": [
        {
          "internalType": "string",
          "name": "",
          "type": "string"
        }
      ],
      "stateMutability": "view",
      "type": "function"
    },
    {
      "inputs": [
        {
          "internalType": "uint256",
          "name": "id",
          "type": "uint256"
        }
      ],
      "name": "ownerOf",
      "outputs": [
        {
          "internalType": "address",
          "name": "owner",
          "type": "address"
        }
      ],
      "stateMutability": "view",
      "type": "function"
    },
    {
      "inputs": [
        {
          "internalType": "string",
          "name": "",
          "type": "string"
        }
      ],
      "name": "playerImageMap",
      "outputs": [
        {
          "internalType": "string",
          "name": "",
          "type": "string"
        }
      ],
      "stateMutability": "view",
      "type": "function"
    },
    {
      "inputs": [
        {
          "internalType": "uint256",
          "name": "",
          "type": "uint256"
        }
      ],
      "name": "players",
      "outputs": [
        {
          "internalType": "string",
          "name": "name",
          "type": "string"
        },
        {
          "internalType": "string",
          "name": "position",
          "type": "string"
        },
        {
          "internalType": "string",
          "name": "team",
          "type": "string"
        },
        {
          "internalType": "uint256",
          "name": "fantasyPoints",
          "type": "uint256"
        },
        {
          "internalType": "uint256",
          "name": "mintPrice",
          "type": "uint256"
        },
        {
          "internalType": "bool",
          "name": "forSale",
          "type": "bool"
        },
        {
          "internalType": "uint256",
          "name": "salePrice",
          "type": "uint256"
        }
      ],
      "stateMutability": "view",
      "type": "function"
    },
    {
      "inputs": [
        {
          "internalType": "address",
          "name": "operator",
          "type": "address"
        },
        {
          "internalType": "bool",
          "name": "approved",
          "type": "bool"
        }
      ],
      "name": "setApprovalForAll",
      "outputs": [],
      "stateMutability": "nonpayable",
      "type": "function"
    },
    {
      "inputs": [
        {
          "internalType": "uint256",
          "name": "tokenId",
          "type": "uint256"
        },
        {
          "internalType": "bool",
          "name": "status",
          "type": "bool"
        },
        {
          "internalType": "uint256",
          "name": "price",
          "type": "uint256"
        }
      ],
      "name": "setForSale",
      "outputs": [],
      "stateMutability": "nonpayable",
      "type": "function"
    },
    {
      "inputs": [
        {
          "internalType": "bytes4",
          "name": "interfaceId",
          "type": "bytes4"
        }
      ],
      "name": "supportsInterface",
      "outputs": [
        {
          "internalType": "bool",
          "name": "",
          "type": "bool"
        }
      ],
      "stateMutability": "pure",
      "type": "function"
    },
    {
      "inputs": [],
      "name": "symbol",
      "outputs": [
        {
          "internalType": "string",
          "name": "",
          "type": "string"
        }
      ],
      "stateMutability": "view",
      "type": "function"
    },
    {
      "inputs": [
        {
          "internalType": "uint256",
          "name": "tokenId",
          "type": "uint256"
        }
      ],
      "name": "tokenURI",
      "outputs": [
        {
          "internalType": "string",
          "name": "",
          "type": "string"
        }
      ],
      "stateMutability": "view",
      "type": "function"
    },
    {
      "inputs": [],
      "name": "totalSupply",
      "outputs": [
        {
          "internalType": "uint256",
          "name": "",
          "type": "uint256"
        }
      ],
      "stateMutability": "view",
      "type": "function"
    },
    {
      "inputs": [
        {
          "internalType": "address",
          "name": "from",
          "type": "address"
        },
        {
          "internalType": "address",
          "name": "to",
          "type": "address"
        },
        {
          "internalType": "uint256",
          "name": "id",
          "type": "uint256"
        }
      ],
      "name": "transferFrom",
      "outputs": [],
      "stateMutability": "nonpayable",
      "type": "function"
    },
    {
      "inputs": [
        {
          "internalType": "uint256",
          "name": "tokenId",
          "type": "uint256"
        },
        {
          "internalType": "uint256",
          "name": "newPoints",
          "type": "uint256"
        }
      ],
      "name": "updateFantasyPoints",
      "outputs": [],
      "stateMutability": "nonpayable",
      "type": "function"
    },
    {
      "inputs": [
        {
          "internalType": "uint256",
          "name": "tokenId",
          "type": "uint256"
        },
        {
          "internalType": "string",
          "name": "newTeam",
          "type": "string"
        }
      ],
      "name": "updateTeam",
      "outputs": [],
      "stateMutability": "nonpayable",
      "type": "function"
    },
    {
      "inputs": [],
      "name": "yodaToken",
      "outputs": [
        {
          "internalType": "contract IERC20",
          "name": "",
          "type": "address"
        }
      ],
      "stateMutability": "view",
      "type": "function"
    }
  ],
  "bytecode": "0x60806040523480156200001157600080fd5b506040516200287b3803806200287b8339810160408190526200003491620003cb565b600080546001600160a01b0319166001600160a01b0387161790556040805160a08101909152607b8082526200250b602083013960408051692537b9b41020b63632b760b11b81526008600a820152905190819003602a019020906200009b9082620004f7565b506040518060a00160405280608081526020016200267f60809139604080516e5061747269636b204d61686f6d657360881b81526008600f820152905190819003602f01902090620000ee9082620004f7565b506040518060c00160405280608181526020016200277c60819139604080516f253ab9ba34b7102532b33332b939b7b760811b815260086010820152905190819003603001902090620001429082620004f7565b506040518060a00160405280607d815260200162002602607d9139604080516b4d616c696b204e616265727360a01b81526008600c820152905190819003602c01902090620001929082620004f7565b506040518060a00160405280607f81526020016200248c607f9139604080516d53617175616e204261726b6c657960901b81526008600e820152905190819003602e01902090620001e49082620004f7565b506040518060a00160405280607e8152602001620027fd607e9139604080516c4465727269636b2048656e727960981b81526008600d820152905190819003602d01902090620002359082620004f7565b506040518060a00160405280607d8152602001620026ff607d9139604080516b42726f636b20426f7765727360a01b81526008600c820152905190819003602c01902090620002859082620004f7565b506040518060a00160405280607c815260200162002586607c9139604080516a53616d204c61506f72746160a81b81526008600b820152905190819003602b01902090620002d49082620004f7565b506001620002e38582620004f7565b506002620002f28482620004f7565b5060039190915560045550620005c3915050565b634e487b7160e01b600052604160045260246000fd5b600082601f8301126200032e57600080fd5b81516001600160401b03808211156200034b576200034b62000306565b604051601f8301601f19908116603f0116810190828211818310171562000376576200037662000306565b816040528381526020925086838588010111156200039357600080fd5b600091505b83821015620003b7578582018301518183018401529082019062000398565b600093810190920192909252949350505050565b600080600080600060a08688031215620003e457600080fd5b85516001600160a01b0381168114620003fc57600080fd5b60208701519095506001600160401b03808211156200041a57600080fd5b6200042889838a016200031c565b955060408801519150808211156200043f57600080fd5b506200044e888289016200031c565b606088015160809098015196999598509695949350505050565b600181811c908216806200047d57607f821691505b6020821081036200049e57634e487b7160e01b600052602260045260246000fd5b50919050565b601f821115620004f257600081815260208120601f850160051c81016020861015620004cd5750805b601f850160051c820191505b81811015620004ee57828155600101620004d9565b5050505b505050565b81516001600160401b0381111562000513576200051362000306565b6200052b8162000524845462000468565b84620004a4565b602080601f8311600181146200056357600084156200054a5750858301515b600019600386901b1c1916600185901b178555620004ee565b600085815260208120601f198616915b82811015620005945788860151825594840194600190910190840162000573565b5085821015620005b35787850151600019600388901b60f8161c191681555b5050505050600190811b01905550565b611eb980620005d36000396000f3fe60806040526004361061012a5760003560e01c8063920d9f2f116100ab578063cdc645381161006f578063cdc6453814610339578063cf5c1b5214610359578063d96a094a14610379578063e985e9c514610399578063ea7c03c4146103d4578063f71d96cb146103f457600080fd5b8063920d9f2f146102a157806395d89b41146102d1578063a22cb465146102e6578063c6a43ef314610306578063c87b56dd1461031957600080fd5b806320cb5109116100f257806320cb5109146101f357806323b872dd146102135780636352211e1461023357806370a082311461026b5780638a333b501461028b57600080fd5b806301ffc9a71461012f57806306fdde0314610175578063095ea7b31461019757806318160ddd146101b95780631a4231a4146101dd575b600080fd5b34801561013b57600080fd5b5061016061014a366004611691565b6001600160e01b0319166380ac58cd60e01b1490565b60405190151581526020015b60405180910390f35b34801561018157600080fd5b5061018a610427565b60405161016c9190611712565b3480156101a357600080fd5b506101b76101b236600461173c565b6104b5565b005b3480156101c557600080fd5b506101cf60065481565b60405190815260200161016c565b3480156101e957600080fd5b506101cf60035481565b3480156101ff57600080fd5b506101b761020e366004611809565b61059c565b34801561021f57600080fd5b506101b761022e366004611850565b6105bc565b34801561023f57600080fd5b5061025361024e36600461188c565b61076f565b6040516001600160a01b03909116815260200161016c565b34801561027757600080fd5b506101cf6102863660046118a5565b6107cf565b34801561029757600080fd5b506101cf60045481565b3480156102ad57600080fd5b506101b76102bc3660046118c0565b60009182526007602052604090912060030155565b3480156102dd57600080fd5b5061018a61083a565b3480156102f257600080fd5b506101b76103013660046118f2565b610847565b6101b7610314366004611925565b6108b3565b34801561032557600080fd5b5061018a61033436600461188c565b610a22565b34801561034557600080fd5b50600054610253906001600160a01b031681565b34801561036557600080fd5b506101b76103743660046119ec565b610daa565b34801561038557600080fd5b506101b761039436600461188c565b610e2f565b3480156103a557600080fd5b506101606103b4366004611a11565b600d60209081526000928352604080842090915290825290205460ff1681565b3480156103e057600080fd5b5061018a6103ef366004611a3b565b610f81565b34801561040057600080fd5b5061041461040f36600461188c565b610fa5565b60405161016c9796959493929190611a70565b6001805461043490611ad0565b80601f016020809104026020016040519081016040528092919081815260200182805461046090611ad0565b80156104ad5780601f10610482576101008083540402835291602001916104ad565b820191906000526020600020905b81548152906001019060200180831161049057829003601f168201915b505050505081565b6000818152600960205260409020546001600160a01b0316338114806104fe57506001600160a01b0381166000908152600d6020908152604080832033845290915290205460ff165b6105405760405162461bcd60e51b815260206004820152600e60248201526d1b9bdd08185d5d1a1bdc9a5e995960921b60448201526064015b60405180910390fd5b6000828152600c602052604080822080546001600160a01b0319166001600160a01b0387811691821790925591518593918516917f8c5be1e5ebec7d5bd14f71427d1e84f3dd0314c0f7b2291e5b200ac8c7c3b92591a4505050565b60008281526007602052604090206002016105b78282611b58565b505050565b6000818152600960205260409020546001600160a01b038481169116146106155760405162461bcd60e51b815260206004820152600d60248201526c333937b690109e9037bbb732b960991b6044820152606401610537565b6001600160a01b0382166106665760405162461bcd60e51b81526020600482015260186024820152777472616e7366657220746f207a65726f206164647265737360401b6044820152606401610537565b61067183338361117e565b6106ae5760405162461bcd60e51b815260206004820152600e60248201526d1b9bdd08185d5d1a1bdc9a5e995960921b6044820152606401610537565b6001600160a01b0383166000908152600b602052604081208054916106d283611c2e565b90915550506001600160a01b0382166000908152600b602052604081208054916106fb83611c45565b9091555050600081815260096020908152604080832080546001600160a01b038088166001600160a01b03199283168117909355600c909452828520805490911690559051849391928716917fddf252ad1be2c89b69c2b068fc378daa952ba7f163c4a11628f55a4df523b3ef91a4505050565b6000818152600960205260409020546001600160a01b0316806107ca5760405162461bcd60e51b81526020600482015260136024820152721d1bdad95b88191bd95cdb89dd08195e1a5cdd606a1b6044820152606401610537565b919050565b60006001600160a01b03821661081e5760405162461bcd60e51b81526020600482015260146024820152736f776e6572203d207a65726f206164647265737360601b6044820152606401610537565b506001600160a01b03166000908152600b602052604090205490565b6002805461043490611ad0565b336000818152600d602090815260408083206001600160a01b03871680855290835292819020805460ff191686151590811790915590519081529192917f17307eab39ab6107e8899845ad3d59bd9653f200f220920489ca2b5937696c31910160405180910390a35050565b600454600554106108fb5760405162461bcd60e51b815260206004820152601260248201527113585e081cdd5c1c1b1e481c995858da195960721b6044820152606401610537565b600580546000918261090c83611c45565b91905055905061091c89826111f1565b60016006600082825461092f9190611c5e565b90915550506040805160e08101825289815260208082018a9052818301899052606082018890526080820187905285151560a083015260c082018590526000848152600790915291909120815181906109889082611b58565b506020820151600182019061099d9082611b58565b50604082015160028201906109b29082611b58565b50606082015160038201556080820151600482015560a082015160058201805460ff191691151591909117905560c0909101516006909101556001600160a01b03989098166000908152600a60209081526040822080546001810182559083529120019790975550505050505050565b6000818152600960205260409020546060906001600160a01b0316610a805760405162461bcd60e51b8152602060048201526014602482015273151bdad95b88191bd95cc81b9bdd08195e1a5cdd60621b6044820152606401610537565b600082815260076020526040808220815160e08101909252805482908290610aa790611ad0565b80601f0160208091040260200160405190810160405280929190818152602001828054610ad390611ad0565b8015610b205780601f10610af557610100808354040283529160200191610b20565b820191906000526020600020905b815481529060010190602001808311610b0357829003601f168201915b50505050508152602001600182018054610b3990611ad0565b80601f0160208091040260200160405190810160405280929190818152602001828054610b6590611ad0565b8015610bb25780601f10610b8757610100808354040283529160200191610bb2565b820191906000526020600020905b815481529060010190602001808311610b9557829003601f168201915b50505050508152602001600282018054610bcb90611ad0565b80601f0160208091040260200160405190810160405280929190818152602001828054610bf790611ad0565b8015610c445780601f10610c1957610100808354040283529160200191610c44565b820191906000526020600020905b815481529060010190602001808311610c2757829003601f168201915b5050509183525050600382015460208201526004820154604080830191909152600583015460ff161515606083015260069092015460809091015281519051919250600091600891610c9591611c8d565b90815260200160405180910390208054610cae90611ad0565b80601f0160208091040260200160405190810160405280929190818152602001828054610cda90611ad0565b8015610d275780601f10610cfc57610100808354040283529160200191610d27565b820191906000526020600020905b815481529060010190602001808311610d0a57829003601f168201915b505050505090506000826000015183602001518460400151610d4c8660600151611316565b85604051602001610d61959493929190611ca9565b60405160208183030381529060405290506000610d7d826113a9565b905080604051602001610d909190611dc5565b604051602081830303815290604052945050505050919050565b6000838152600960205260409020546001600160a01b03163314610e065760405162461bcd60e51b81526020600482015260136024820152722737ba103a3432903a37b5b2b71037bbb732b960691b6044820152606401610537565b60009283526007602052604090922060058101805460ff19169215159290921790915560060155565b6000818152600960205260409020546001600160a01b0316610e8a5760405162461bcd60e51b8152602060048201526014602482015273151bdad95b88191bd95cc81b9bdd08195e1a5cdd60621b6044820152606401610537565b600081815260096020526040902054336001600160a01b0390911603610ef25760405162461bcd60e51b815260206004820152601860248201527f596f7520616c7265616479206f776e2074686973204e465400000000000000006044820152606401610537565b6000818152600760205260409020600581015460ff16610f475760405162461bcd60e51b815260206004820152601060248201526f4e4654206e6f7420666f722073616c6560801b6044820152606401610537565b60058101805460ff1916905560006006820181905582815260096020526040902054610f7d906001600160a01b0316338461150e565b5050565b80516020818301810180516008825292820191909301209152805461043490611ad0565b600760205260009081526040902080548190610fc090611ad0565b80601f0160208091040260200160405190810160405280929190818152602001828054610fec90611ad0565b80156110395780601f1061100e57610100808354040283529160200191611039565b820191906000526020600020905b81548152906001019060200180831161101c57829003601f168201915b50505050509080600101805461104e90611ad0565b80601f016020809104026020016040519081016040528092919081815260200182805461107a90611ad0565b80156110c75780601f1061109c576101008083540402835291602001916110c7565b820191906000526020600020905b8154815290600101906020018083116110aa57829003601f168201915b5050505050908060020180546110dc90611ad0565b80601f016020809104026020016040519081016040528092919081815260200182805461110890611ad0565b80156111555780601f1061112a57610100808354040283529160200191611155565b820191906000526020600020905b81548152906001019060200180831161113857829003601f168201915b5050506003840154600485015460058601546006909601549495919490935060ff909116915087565b6000836001600160a01b0316836001600160a01b031614806111c557506001600160a01b038085166000908152600d602090815260408083209387168352929052205460ff165b806111e957506000828152600c60205260409020546001600160a01b038481169116145b949350505050565b6001600160a01b03821661123e5760405162461bcd60e51b81526020600482015260146024820152736d696e7420746f207a65726f206164647265737360601b6044820152606401610537565b6000818152600960205260409020546001600160a01b0316156112945760405162461bcd60e51b815260206004820152600e60248201526d185b1c9958591e481b5a5b9d195960921b6044820152606401610537565b6001600160a01b0382166000908152600b602052604081208054916112b883611c45565b909155505060008181526009602052604080822080546001600160a01b0319166001600160a01b03861690811790915590518392907fddf252ad1be2c89b69c2b068fc378daa952ba7f163c4a11628f55a4df523b3ef908290a45050565b60606000611323836115b8565b600101905060008167ffffffffffffffff81111561134357611343611766565b6040519080825280601f01601f19166020018201604052801561136d576020820181803683370190505b5090508181016020015b600019016f181899199a1a9b1b9c1cb0b131b232b360811b600a86061a8153600a850494508461137757509392505050565b606081516000036113c857505060408051602081019091526000815290565b6000604051806060016040528060408152602001611e4460409139905060006003845160026113f79190611c5e565b6114019190611e0a565b61140c906004611e2c565b9050600061141b826020611c5e565b67ffffffffffffffff81111561143357611433611766565b6040519080825280601f01601f19166020018201604052801561145d576020820181803683370190505b509050818152600183018586518101602084015b818310156114c9576003830192508251603f8160121c168501518253600182019150603f81600c1c168501518253600182019150603f8160061c168501518253600182019150603f8116850151825350600101611471565b6003895106600181146114e357600281146114f457611500565b613d3d60f01b600119830152611500565b603d60f81b6000198301525b509398975050505050505050565b6000818152600960205260409020546001600160a01b038481169116146115675760405162461bcd60e51b815260206004820152600d60248201526c333937b690109e9037bbb732b960991b6044820152606401610537565b6001600160a01b0382166106ae5760405162461bcd60e51b81526020600482015260186024820152777472616e7366657220746f207a65726f206164647265737360401b6044820152606401610537565b60008072184f03e93ff9f4daa797ed6e38ed64bf6a1f0160401b83106115f75772184f03e93ff9f4daa797ed6e38ed64bf6a1f0160401b830492506040015b6d04ee2d6d415b85acef81000000008310611623576d04ee2d6d415b85acef8100000000830492506020015b662386f26fc10000831061164157662386f26fc10000830492506010015b6305f5e1008310611659576305f5e100830492506008015b612710831061166d57612710830492506004015b6064831061167f576064830492506002015b600a831061168b576001015b92915050565b6000602082840312156116a357600080fd5b81356001600160e01b0319811681146116bb57600080fd5b9392505050565b60005b838110156116dd5781810151838201526020016116c5565b50506000910152565b600081518084526116fe8160208601602086016116c2565b601f01601f19169290920160200192915050565b6020815260006116bb60208301846116e6565b80356001600160a01b03811681146107ca57600080fd5b6000806040838503121561174f57600080fd5b61175883611725565b946020939093013593505050565b634e487b7160e01b600052604160045260246000fd5b600082601f83011261178d57600080fd5b813567ffffffffffffffff808211156117a8576117a8611766565b604051601f8301601f19908116603f011681019082821181831017156117d0576117d0611766565b816040528381528660208588010111156117e957600080fd5b836020870160208301376000602085830101528094505050505092915050565b6000806040838503121561181c57600080fd5b82359150602083013567ffffffffffffffff81111561183a57600080fd5b6118468582860161177c565b9150509250929050565b60008060006060848603121561186557600080fd5b61186e84611725565b925061187c60208501611725565b9150604084013590509250925092565b60006020828403121561189e57600080fd5b5035919050565b6000602082840312156118b757600080fd5b6116bb82611725565b600080604083850312156118d357600080fd5b50508035926020909101359150565b803580151581146107ca57600080fd5b6000806040838503121561190557600080fd5b61190e83611725565b915061191c602084016118e2565b90509250929050565b600080600080600080600080610100898b03121561194257600080fd5b61194b89611725565b9750602089013567ffffffffffffffff8082111561196857600080fd5b6119748c838d0161177c565b985060408b013591508082111561198a57600080fd5b6119968c838d0161177c565b975060608b01359150808211156119ac57600080fd5b506119b98b828c0161177c565b9550506080890135935060a089013592506119d660c08a016118e2565b915060e089013590509295985092959890939650565b600080600060608486031215611a0157600080fd5b8335925061187c602085016118e2565b60008060408385031215611a2457600080fd5b611a2d83611725565b915061191c60208401611725565b600060208284031215611a4d57600080fd5b813567ffffffffffffffff811115611a6457600080fd5b6111e98482850161177c565b60e081526000611a8360e083018a6116e6565b8281036020840152611a95818a6116e6565b90508281036040840152611aa981896116e6565b60608401979097525050608081019390935290151560a083015260c0909101529392505050565b600181811c90821680611ae457607f821691505b602082108103611b0457634e487b7160e01b600052602260045260246000fd5b50919050565b601f8211156105b757600081815260208120601f850160051c81016020861015611b315750805b601f850160051c820191505b81811015611b5057828155600101611b3d565b505050505050565b815167ffffffffffffffff811115611b7257611b72611766565b611b8681611b808454611ad0565b84611b0a565b602080601f831160018114611bbb5760008415611ba35750858301515b600019600386901b1c1916600185901b178555611b50565b600085815260208120601f198616915b82811015611bea57888601518255948401946001909101908401611bcb565b5085821015611c085787850151600019600388901b60f8161c191681555b5050505050600190811b01905550565b634e487b7160e01b600052601160045260246000fd5b600081611c3d57611c3d611c18565b506000190190565b600060018201611c5757611c57611c18565b5060010190565b8082018082111561168b5761168b611c18565b60008151611c838185602086016116c2565b9290920192915050565b60008251611c9f8184602087016116c2565b9190910192915050565b607b60f81b815268113730b6b2911d101160b91b600182015285516000906020611cd982600a8601838c016116c2565b61088b60f21b600a928501928301526f113232b9b1b934b83a34b7b7111d101160811b600c8301528751611d1381601c8501848c016116c2565b808301925050612e3760f11b80601c8401528751611d3781601e8601858c016116c2565b601e9301928301528551611d5081838501848a016116c2565b611db7611daa611d9d611d97611d818686890101700811985b9d185cde48141bda5b9d1cc88b607a1b815260110190565b691134b6b0b3b2911d101160b11b8152600a0190565b89611c71565b601160f91b815260010190565b607d60f81b815260010190565b9a9950505050505050505050565b7f646174613a6170706c69636174696f6e2f6a736f6e3b6261736536342c000000815260008251611dfd81601d8501602087016116c2565b91909101601d0192915050565b600082611e2757634e487b7160e01b600052601260045260246000fd5b500490565b808202811582820484141761168b5761168b611c1856fe4142434445464748494a4b4c4d4e4f505152535455565758595a6162636465666768696a6b6c6d6e6f707172737475767778797a303132333435363738392b2fa26469706673582212206965c2f05886048b323e72e2272ca201c3ccb093175507af3f8efa22df80674564736f6c6343000814003368747470733a2f2f77686974652d717569636b2d6775616e2d3331342e6d7970696e6174612e636c6f75642f697066732f6261667962656964326964747a6d6874356e65777072633777683368693537633466756c68376c75637837657070367a70726e61376e70636766652f73617175616e2d6261726b6c65792e6a706768747470733a2f2f77686974652d717569636b2d6775616e2d3331342e6d7970696e6174612e636c6f75642f697066732f6261667962656964326964747a6d6874356e65777072633777683368693537633466756c68376c75637837657070367a70726e61376e70636766652f6a6f73682d616c6c656e2e6a706768747470733a2f2f77686974652d717569636b2d6775616e2d3331342e6d7970696e6174612e636c6f75642f697066732f6261667962656964326964747a6d6874356e65777072633777683368693537633466756c68376c75637837657070367a70726e61376e70636766652f73616d2d6c61706f7274612e6a706768747470733a2f2f77686974652d717569636b2d6775616e2d3331342e6d7970696e6174612e636c6f75642f697066732f6261667962656964326964747a6d6874356e65777072633777683368693537633466756c68376c75637837657070367a70726e61376e70636766652f6d616c696b2d6e61626572732e6a706768747470733a2f2f77686974652d717569636b2d6775616e2d3331342e6d7970696e6174612e636c6f75642f697066732f6261667962656964326964747a6d6874356e65777072633777683368693537633466756c68376c75637837657070367a70726e61376e70636766652f7061747269636b2d6d61686f6d65732e6a706768747470733a2f2f77686974652d717569636b2d6775616e2d3331342e6d7970696e6174612e636c6f75642f697066732f6261667962656964326964747a6d6874356e65777072633777683368693537633466756c68376c75637837657070367a70726e61376e70636766652f62726f636b2d626f776572732e6a706768747470733a2f2f77686974652d717569636b2d6775616e2d3331342e6d7970696e6174612e636c6f75642f697066732f6261667962656964326964747a6d6874356e65777072633777683368693537633466756c68376c75637837657070367a70726e61376e70636766652f6a757374696e2d6a6566666572736f6e2e6a706768747470733a2f2f77686974652d717569636b2d6775616e2d3331342e6d7970696e6174612e636c6f75642f697066732f6261667962656964326964747a6d6874356e65777072633777683368693537633466756c68376c75637837657070367a70726e61376e70636766652f6465727269636b2d68656e72792e6a7067",
  "linkReferences": {},
  "deployedLinkReferences": {}
}