{
  "_format": "hh-sol-artifact-1",
  "contractName": "FantasyFootball",
  "sourceName": "contracts/fantasyFootball.sol",
  "abi": [
    {
      "inputs": [
        {
          "internalType": "address",
          "name": "_yodaTokenAddress",
          "type": "address"
        },
        {
          "internalType": "string",
          "name": "_name",
          "type": "string"
        },
        {
          "internalType": "string",
          "name": "_symbol",
          "type": "string"
        },
        {
          "internalType": "uint256",
          "name": "MINT_PRICE",
          "type": "uint256"
        },
        {
          "internalType": "uint256",
          "name": "MAX_SUPPLY",
          "type": "uint256"
        }
      ],
      "stateMutability": "nonpayable",
      "type": "constructor"
    },
    {
      "anonymous": false,
      "inputs": [
        {
          "indexed": true,
          "internalType": "address",
          "name": "owner",
          "type": "address"
        },
        {
          "indexed": true,
          "internalType": "address",
          "name": "spender",
          "type": "address"
        },
        {
          "indexed": true,
          "internalType": "uint256",
          "name": "id",
          "type": "uint256"
        }
      ],
      "name": "Approval",
      "type": "event"
    },
    {
      "anonymous": false,
      "inputs": [
        {
          "indexed": true,
          "internalType": "address",
          "name": "owner",
          "type": "address"
        },
        {
          "indexed": true,
          "internalType": "address",
          "name": "operator",
          "type": "address"
        },
        {
          "indexed": false,
          "internalType": "bool",
          "name": "approved",
          "type": "bool"
        }
      ],
      "name": "ApprovalForAll",
      "type": "event"
    },
    {
      "anonymous": false,
      "inputs": [
        {
          "indexed": true,
          "internalType": "address",
          "name": "from",
          "type": "address"
        },
        {
          "indexed": true,
          "internalType": "address",
          "name": "to",
          "type": "address"
        },
        {
          "indexed": true,
          "internalType": "uint256",
          "name": "id",
          "type": "uint256"
        }
      ],
      "name": "Transfer",
      "type": "event"
    },
    {
      "inputs": [
        {
          "internalType": "address",
          "name": "spender",
          "type": "address"
        },
        {
          "internalType": "uint256",
          "name": "id",
          "type": "uint256"
        }
      ],
      "name": "approve",
      "outputs": [],
      "stateMutability": "nonpayable",
      "type": "function"
    },
    {
      "inputs": [
        {
          "internalType": "address",
          "name": "owner",
          "type": "address"
        }
      ],
      "name": "balanceOf",
      "outputs": [
        {
          "internalType": "uint256",
          "name": "",
          "type": "uint256"
        }
      ],
      "stateMutability": "view",
      "type": "function"
    },
    {
      "inputs": [
        {
          "internalType": "uint256",
          "name": "tokenId",
          "type": "uint256"
        }
      ],
      "name": "buy",
      "outputs": [],
      "stateMutability": "nonpayable",
      "type": "function"
    },
    {
      "inputs": [
        {
          "internalType": "address",
          "name": "",
          "type": "address"
        },
        {
          "internalType": "address",
          "name": "",
          "type": "address"
        }
      ],
      "name": "isApprovedForAll",
      "outputs": [
        {
          "internalType": "bool",
          "name": "",
          "type": "bool"
        }
      ],
      "stateMutability": "view",
      "type": "function"
    },
    {
      "inputs": [],
      "name": "max_supply",
      "outputs": [
        {
          "internalType": "uint256",
          "name": "",
          "type": "uint256"
        }
      ],
      "stateMutability": "view",
      "type": "function"
    },
    {
      "inputs": [
        {
          "internalType": "address",
          "name": "to",
          "type": "address"
        },
        {
          "internalType": "string",
          "name": "_name",
          "type": "string"
        },
        {
          "internalType": "string",
          "name": "_position",
          "type": "string"
        },
        {
          "internalType": "string",
          "name": "_team",
          "type": "string"
        },
        {
          "internalType": "uint256",
          "name": "_fantasyPoints",
          "type": "uint256"
        },
        {
          "internalType": "uint256",
          "name": "_mintPrice",
          "type": "uint256"
        },
        {
          "internalType": "bool",
          "name": "_forSale",
          "type": "bool"
        },
        {
          "internalType": "uint256",
          "name": "_salePrice",
          "type": "uint256"
        }
      ],
      "name": "mint",
      "outputs": [],
      "stateMutability": "payable",
      "type": "function"
    },
    {
      "inputs": [],
      "name": "mint_price",
      "outputs": [
        {
          "internalType": "uint256",
          "name": "",
          "type": "uint256"
        }
      ],
      "stateMutability": "view",
      "type": "function"
    },
    {
      "inputs": [],
      "name": "name",
      "outputs": [
        {
          "internalType": "string",
          "name": "",
          "type": "string"
        }
      ],
      "stateMutability": "view",
      "type": "function"
    },
    {
      "inputs": [
        {
          "internalType": "uint256",
          "name": "id",
          "type": "uint256"
        }
      ],
      "name": "ownerOf",
      "outputs": [
        {
          "internalType": "address",
          "name": "owner",
          "type": "address"
        }
      ],
      "stateMutability": "view",
      "type": "function"
    },
    {
      "inputs": [
        {
          "internalType": "string",
          "name": "",
          "type": "string"
        }
      ],
      "name": "playerImageMap",
      "outputs": [
        {
          "internalType": "string",
          "name": "",
          "type": "string"
        }
      ],
      "stateMutability": "view",
      "type": "function"
    },
    {
      "inputs": [
        {
          "internalType": "uint256",
          "name": "",
          "type": "uint256"
        }
      ],
      "name": "players",
      "outputs": [
        {
          "internalType": "string",
          "name": "name",
          "type": "string"
        },
        {
          "internalType": "string",
          "name": "position",
          "type": "string"
        },
        {
          "internalType": "string",
          "name": "team",
          "type": "string"
        },
        {
          "internalType": "uint256",
          "name": "fantasyPoints",
          "type": "uint256"
        },
        {
          "internalType": "uint256",
          "name": "mintPrice",
          "type": "uint256"
        },
        {
          "internalType": "bool",
          "name": "forSale",
          "type": "bool"
        },
        {
          "internalType": "uint256",
          "name": "salePrice",
          "type": "uint256"
        }
      ],
      "stateMutability": "view",
      "type": "function"
    },
    {
      "inputs": [
        {
          "internalType": "address",
          "name": "operator",
          "type": "address"
        },
        {
          "internalType": "bool",
          "name": "approved",
          "type": "bool"
        }
      ],
      "name": "setApprovalForAll",
      "outputs": [],
      "stateMutability": "nonpayable",
      "type": "function"
    },
    {
      "inputs": [
        {
          "internalType": "uint256",
          "name": "tokenId",
          "type": "uint256"
        },
        {
          "internalType": "bool",
          "name": "status",
          "type": "bool"
        },
        {
          "internalType": "uint256",
          "name": "price",
          "type": "uint256"
        }
      ],
      "name": "setForSale",
      "outputs": [],
      "stateMutability": "nonpayable",
      "type": "function"
    },
    {
      "inputs": [],
      "name": "symbol",
      "outputs": [
        {
          "internalType": "string",
          "name": "",
          "type": "string"
        }
      ],
      "stateMutability": "view",
      "type": "function"
    },
    {
      "inputs": [
        {
          "internalType": "uint256",
          "name": "tokenId",
          "type": "uint256"
        }
      ],
      "name": "tokenURI",
      "outputs": [
        {
          "internalType": "string",
          "name": "",
          "type": "string"
        }
      ],
      "stateMutability": "view",
      "type": "function"
    },
    {
      "inputs": [
        {
          "internalType": "address",
          "name": "from",
          "type": "address"
        },
        {
          "internalType": "address",
          "name": "to",
          "type": "address"
        },
        {
          "internalType": "uint256",
          "name": "id",
          "type": "uint256"
        }
      ],
      "name": "transferFrom",
      "outputs": [],
      "stateMutability": "nonpayable",
      "type": "function"
    },
    {
      "inputs": [
        {
          "internalType": "uint256",
          "name": "tokenId",
          "type": "uint256"
        },
        {
          "internalType": "uint256",
          "name": "newPoints",
          "type": "uint256"
        }
      ],
      "name": "updateFantasyPoints",
      "outputs": [],
      "stateMutability": "nonpayable",
      "type": "function"
    },
    {
      "inputs": [
        {
          "internalType": "uint256",
          "name": "tokenId",
          "type": "uint256"
        },
        {
          "internalType": "string",
          "name": "newTeam",
          "type": "string"
        }
      ],
      "name": "updateTeam",
      "outputs": [],
      "stateMutability": "nonpayable",
      "type": "function"
    },
    {
      "inputs": [],
      "name": "yodaToken",
      "outputs": [
        {
          "internalType": "contract IERC20",
          "name": "",
          "type": "address"
        }
      ],
      "stateMutability": "view",
      "type": "function"
    }
  ],
  "bytecode": "0x60806040523480156200001157600080fd5b5060405162004ac938038062004ac983398181016040528101906200003791906200051f565b846000806101000a81548173ffffffffffffffffffffffffffffffffffffffff021916908373ffffffffffffffffffffffffffffffffffffffff1602179055506040518060a00160405280607b815260200162004759607b91396007604051620000a19062000640565b90815260200160405180910390209081620000bd919062000898565b506040518060a0016040528060808152602001620048cd608091396007604051620000e890620009cf565b9081526020016040518091039020908162000104919062000898565b506040518060c0016040528060818152602001620049ca6081913960076040516200012f9062000a36565b908152602001604051809103902090816200014b919062000898565b506040518060a00160405280607d815260200162004850607d91396007604051620001769062000a9d565b9081526020016040518091039020908162000192919062000898565b506040518060a00160405280607f8152602001620046da607f91396007604051620001bd9062000b04565b90815260200160405180910390209081620001d9919062000898565b506040518060a00160405280607e815260200162004a4b607e91396007604051620002049062000b6b565b9081526020016040518091039020908162000220919062000898565b506040518060a00160405280607d81526020016200494d607d913960076040516200024b9062000bd2565b9081526020016040518091039020908162000267919062000898565b506040518060a00160405280607c8152602001620047d4607c91396007604051620002929062000c39565b90815260200160405180910390209081620002ae919062000898565b508360019081620002c0919062000898565b508260029081620002d2919062000898565b508160038190555080600481905550505050505062000c50565b6000604051905090565b600080fd5b600080fd5b600073ffffffffffffffffffffffffffffffffffffffff82169050919050565b60006200032d8262000300565b9050919050565b6200033f8162000320565b81146200034b57600080fd5b50565b6000815190506200035f8162000334565b92915050565b600080fd5b600080fd5b6000601f19601f8301169050919050565b7f4e487b7100000000000000000000000000000000000000000000000000000000600052604160045260246000fd5b620003ba826200036f565b810181811067ffffffffffffffff82111715620003dc57620003db62000380565b5b80604052505050565b6000620003f1620002ec565b9050620003ff8282620003af565b919050565b600067ffffffffffffffff82111562000422576200042162000380565b5b6200042d826200036f565b9050602081019050919050565b60005b838110156200045a5780820151818401526020810190506200043d565b60008484015250505050565b60006200047d620004778462000404565b620003e5565b9050828152602081018484840111156200049c576200049b6200036a565b5b620004a98482856200043a565b509392505050565b600082601f830112620004c957620004c862000365565b5b8151620004db84826020860162000466565b91505092915050565b6000819050919050565b620004f981620004e4565b81146200050557600080fd5b50565b6000815190506200051981620004ee565b92915050565b600080600080600060a086880312156200053e576200053d620002f6565b5b60006200054e888289016200034e565b955050602086015167ffffffffffffffff811115620005725762000571620002fb565b5b6200058088828901620004b1565b945050604086015167ffffffffffffffff811115620005a457620005a3620002fb565b5b620005b288828901620004b1565b9350506060620005c58882890162000508565b9250506080620005d88882890162000508565b9150509295509295909350565b600081905092915050565b7f4a6f736820416c6c656e00000000000000000000000000000000000000000000600082015250565b600062000628600a83620005e5565b91506200063582620005f0565b600a82019050919050565b60006200064d8262000619565b9150819050919050565b600081519050919050565b7f4e487b7100000000000000000000000000000000000000000000000000000000600052602260045260246000fd5b60006002820490506001821680620006aa57607f821691505b602082108103620006c057620006bf62000662565b5b50919050565b60008190508160005260206000209050919050565b60006020601f8301049050919050565b600082821b905092915050565b6000600883026200072a7fffffffffffffffffffffffffffffffffffffffffffffffffffffffffffffffff82620006eb565b620007368683620006eb565b95508019841693508086168417925050509392505050565b6000819050919050565b600062000779620007736200076d84620004e4565b6200074e565b620004e4565b9050919050565b6000819050919050565b620007958362000758565b620007ad620007a48262000780565b848454620006f8565b825550505050565b600090565b620007c4620007b5565b620007d18184846200078a565b505050565b5b81811015620007f957620007ed600082620007ba565b600181019050620007d7565b5050565b601f82111562000848576200081281620006c6565b6200081d84620006db565b810160208510156200082d578190505b620008456200083c85620006db565b830182620007d6565b50505b505050565b600082821c905092915050565b60006200086d600019846008026200084d565b1980831691505092915050565b60006200088883836200085a565b9150826002028217905092915050565b620008a38262000657565b67ffffffffffffffff811115620008bf57620008be62000380565b5b620008cb825462000691565b620008d8828285620007fd565b600060209050601f831160018114620009105760008415620008fb578287015190505b6200090785826200087a565b86555062000977565b601f1984166200092086620006c6565b60005b828110156200094a5784890151825560018201915060208501945060208101905062000923565b868310156200096a578489015162000966601f8916826200085a565b8355505b6001600288020188555050505b505050505050565b7f5061747269636b204d61686f6d65730000000000000000000000000000000000600082015250565b6000620009b7600f83620005e5565b9150620009c4826200097f565b600f82019050919050565b6000620009dc82620009a8565b9150819050919050565b7f4a757374696e204a6566666572736f6e00000000000000000000000000000000600082015250565b600062000a1e601083620005e5565b915062000a2b82620009e6565b601082019050919050565b600062000a438262000a0f565b9150819050919050565b7f4d616c696b204e61626572730000000000000000000000000000000000000000600082015250565b600062000a85600c83620005e5565b915062000a928262000a4d565b600c82019050919050565b600062000aaa8262000a76565b9150819050919050565b7f53617175616e204261726b6c6579000000000000000000000000000000000000600082015250565b600062000aec600e83620005e5565b915062000af98262000ab4565b600e82019050919050565b600062000b118262000add565b9150819050919050565b7f4465727269636b2048656e727900000000000000000000000000000000000000600082015250565b600062000b53600d83620005e5565b915062000b608262000b1b565b600d82019050919050565b600062000b788262000b44565b9150819050919050565b7f42726f636b20426f776572730000000000000000000000000000000000000000600082015250565b600062000bba600c83620005e5565b915062000bc78262000b82565b600c82019050919050565b600062000bdf8262000bab565b9150819050919050565b7f53616d204c61506f727461000000000000000000000000000000000000000000600082015250565b600062000c21600b83620005e5565b915062000c2e8262000be9565b600b82019050919050565b600062000c468262000c12565b9150819050919050565b613a7a8062000c606000396000f3fe6080604052600436106101145760003560e01c806395d89b41116100a0578063cf5c1b5211610064578063cf5c1b5214610390578063d96a094a146103b9578063e985e9c5146103e2578063ea7c03c41461041f578063f71d96cb1461045c57610114565b806395d89b41146102b8578063a22cb465146102e3578063c6a43ef31461030c578063c87b56dd14610328578063cdc645381461036557610114565b806323b872dd116100e757806323b872dd146101c15780636352211e146101ea57806370a08231146102275780638a333b5014610264578063920d9f2f1461028f57610114565b806306fdde0314610119578063095ea7b3146101445780631a4231a41461016d57806320cb510914610198575b600080fd5b34801561012557600080fd5b5061012e61049f565b60405161013b91906122e6565b60405180910390f35b34801561015057600080fd5b5061016b600480360381019061016691906123b0565b61052d565b005b34801561017957600080fd5b50610182610716565b60405161018f91906123ff565b60405180910390f35b3480156101a457600080fd5b506101bf60048036038101906101ba919061254f565b61071c565b005b3480156101cd57600080fd5b506101e860048036038101906101e391906125ab565b610744565b005b3480156101f657600080fd5b50610211600480360381019061020c91906125fe565b610a30565b60405161021e919061263a565b60405180910390f35b34801561023357600080fd5b5061024e60048036038101906102499190612655565b610adc565b60405161025b91906123ff565b60405180910390f35b34801561027057600080fd5b50610279610b93565b60405161028691906123ff565b60405180910390f35b34801561029b57600080fd5b506102b660048036038101906102b19190612682565b610b99565b005b3480156102c457600080fd5b506102cd610bb8565b6040516102da91906122e6565b60405180910390f35b3480156102ef57600080fd5b5061030a600480360381019061030591906126fa565b610c46565b005b6103266004803603810190610321919061273a565b610d43565b005b34801561033457600080fd5b5061034f600480360381019061034a91906125fe565b610eea565b60405161035c91906122e6565b60405180910390f35b34801561037157600080fd5b5061037a6112dc565b60405161038791906128a3565b60405180910390f35b34801561039c57600080fd5b506103b760048036038101906103b291906128be565b611300565b005b3480156103c557600080fd5b506103e060048036038101906103db91906125fe565b6113ef565b005b3480156103ee57600080fd5b5061040960048036038101906104049190612911565b611603565b6040516104169190612960565b60405180910390f35b34801561042b57600080fd5b506104466004803603810190610441919061297b565b611632565b60405161045391906122e6565b60405180910390f35b34801561046857600080fd5b50610483600480360381019061047e91906125fe565b6116e8565b60405161049697969594939291906129c4565b60405180910390f35b600180546104ac90612a77565b80601f01602080910402602001604051908101604052809291908181526020018280546104d890612a77565b80156105255780601f106104fa57610100808354040283529160200191610525565b820191906000526020600020905b81548152906001019060200180831161050857829003601f168201915b505050505081565b60006008600083815260200190815260200160002060009054906101000a900473ffffffffffffffffffffffffffffffffffffffff1690508073ffffffffffffffffffffffffffffffffffffffff163373ffffffffffffffffffffffffffffffffffffffff1614806106255750600c60008273ffffffffffffffffffffffffffffffffffffffff1673ffffffffffffffffffffffffffffffffffffffff16815260200190815260200160002060003373ffffffffffffffffffffffffffffffffffffffff1673ffffffffffffffffffffffffffffffffffffffff16815260200190815260200160002060009054906101000a900460ff165b610664576040517f08c379a000000000000000000000000000000000000000000000000000000000815260040161065b90612af4565b60405180910390fd5b82600b600084815260200190815260200160002060006101000a81548173ffffffffffffffffffffffffffffffffffffffff021916908373ffffffffffffffffffffffffffffffffffffffff160217905550818373ffffffffffffffffffffffffffffffffffffffff168273ffffffffffffffffffffffffffffffffffffffff167f8c5be1e5ebec7d5bd14f71427d1e84f3dd0314c0f7b2291e5b200ac8c7c3b92560405160405180910390a4505050565b60035481565b8060066000848152602001908152602001600020600201908161073f9190612cb6565b505050565b6008600082815260200190815260200160002060009054906101000a900473ffffffffffffffffffffffffffffffffffffffff1673ffffffffffffffffffffffffffffffffffffffff168373ffffffffffffffffffffffffffffffffffffffff16146107e5576040517f08c379a00000000000000000000000000000000000000000000000000000000081526004016107dc90612dd4565b60405180910390fd5b600073ffffffffffffffffffffffffffffffffffffffff168273ffffffffffffffffffffffffffffffffffffffff1603610854576040517f08c379a000000000000000000000000000000000000000000000000000000000815260040161084b90612e40565b60405180910390fd5b61085f8333836118cf565b61089e576040517f08c379a000000000000000000000000000000000000000000000000000000000815260040161089590612af4565b60405180910390fd5b600a60008473ffffffffffffffffffffffffffffffffffffffff1673ffffffffffffffffffffffffffffffffffffffff16815260200190815260200160002060008154809291906108ee90612e8f565b9190505550600a60008373ffffffffffffffffffffffffffffffffffffffff1673ffffffffffffffffffffffffffffffffffffffff168152602001908152602001600020600081548092919061094390612eb8565b9190505550816008600083815260200190815260200160002060006101000a81548173ffffffffffffffffffffffffffffffffffffffff021916908373ffffffffffffffffffffffffffffffffffffffff160217905550600b600082815260200190815260200160002060006101000a81549073ffffffffffffffffffffffffffffffffffffffff0219169055808273ffffffffffffffffffffffffffffffffffffffff168473ffffffffffffffffffffffffffffffffffffffff167fddf252ad1be2c89b69c2b068fc378daa952ba7f163c4a11628f55a4df523b3ef60405160405180910390a4505050565b60006008600083815260200190815260200160002060009054906101000a900473ffffffffffffffffffffffffffffffffffffffff169050600073ffffffffffffffffffffffffffffffffffffffff168173ffffffffffffffffffffffffffffffffffffffff1603610ad7576040517f08c379a0000000000000000000000000000000000000000000000000000000008152600401610ace90612f4c565b60405180910390fd5b919050565b60008073ffffffffffffffffffffffffffffffffffffffff168273ffffffffffffffffffffffffffffffffffffffff1603610b4c576040517f08c379a0000000000000000000000000000000000000000000000000000000008152600401610b4390612fb8565b60405180910390fd5b600a60008373ffffffffffffffffffffffffffffffffffffffff1673ffffffffffffffffffffffffffffffffffffffff168152602001908152602001600020549050919050565b60045481565b8060066000848152602001908152602001600020600301819055505050565b60028054610bc590612a77565b80601f0160208091040260200160405190810160405280929190818152602001828054610bf190612a77565b8015610c3e5780601f10610c1357610100808354040283529160200191610c3e565b820191906000526020600020905b815481529060010190602001808311610c2157829003601f168201915b505050505081565b80600c60003373ffffffffffffffffffffffffffffffffffffffff1673ffffffffffffffffffffffffffffffffffffffff16815260200190815260200160002060008473ffffffffffffffffffffffffffffffffffffffff1673ffffffffffffffffffffffffffffffffffffffff16815260200190815260200160002060006101000a81548160ff0219169083151502179055508173ffffffffffffffffffffffffffffffffffffffff163373ffffffffffffffffffffffffffffffffffffffff167f17307eab39ab6107e8899845ad3d59bd9653f200f220920489ca2b5937696c3183604051610d379190612960565b60405180910390a35050565b60045460055410610d89576040517f08c379a0000000000000000000000000000000000000000000000000000000008152600401610d8090613024565b60405180910390fd5b600060056000815480929190610d9e90612eb8565b919050559050610dae8982611a03565b6040518060e00160405280898152602001888152602001878152602001868152602001858152602001841515815260200183815250600660008381526020019081526020016000206000820151816000019081610e0b9190612cb6565b506020820151816001019081610e219190612cb6565b506040820151816002019081610e379190612cb6565b50606082015181600301556080820151816004015560a08201518160050160006101000a81548160ff02191690831515021790555060c08201518160060155905050600960008a73ffffffffffffffffffffffffffffffffffffffff1673ffffffffffffffffffffffffffffffffffffffff168152602001908152602001600020819080600181540180825580915050600190039060005260206000200160009091909190915055505050505050505050565b6060600073ffffffffffffffffffffffffffffffffffffffff166008600084815260200190815260200160002060009054906101000a900473ffffffffffffffffffffffffffffffffffffffff1673ffffffffffffffffffffffffffffffffffffffff1603610f8e576040517f08c379a0000000000000000000000000000000000000000000000000000000008152600401610f8590613090565b60405180910390fd5b6000600660008481526020019081526020016000206040518060e0016040529081600082018054610fbe90612a77565b80601f0160208091040260200160405190810160405280929190818152602001828054610fea90612a77565b80156110375780601f1061100c57610100808354040283529160200191611037565b820191906000526020600020905b81548152906001019060200180831161101a57829003601f168201915b5050505050815260200160018201805461105090612a77565b80601f016020809104026020016040519081016040528092919081815260200182805461107c90612a77565b80156110c95780601f1061109e576101008083540402835291602001916110c9565b820191906000526020600020905b8154815290600101906020018083116110ac57829003601f168201915b505050505081526020016002820180546110e290612a77565b80601f016020809104026020016040519081016040528092919081815260200182805461110e90612a77565b801561115b5780601f106111305761010080835404028352916020019161115b565b820191906000526020600020905b81548152906001019060200180831161113e57829003601f168201915b5050505050815260200160038201548152602001600482015481526020016005820160009054906101000a900460ff1615151515815260200160068201548152505090506000600782600001516040516111b591906130ec565b908152602001604051809103902080546111ce90612a77565b80601f01602080910402602001604051908101604052809291908181526020018280546111fa90612a77565b80156112475780601f1061121c57610100808354040283529160200191611247565b820191906000526020600020905b81548152906001019060200180831161122a57829003601f168201915b50505050509050600082600001518360000151846020015185604001516112718760600151611c1b565b8760200151886040015188604051602001611293989796959493929190613577565b604051602081830303815290604052905060006112af82611ce9565b9050806040516020016112c291906136f0565b604051602081830303815290604052945050505050919050565b60008054906101000a900473ffffffffffffffffffffffffffffffffffffffff1681565b3373ffffffffffffffffffffffffffffffffffffffff166008600085815260200190815260200160002060009054906101000a900473ffffffffffffffffffffffffffffffffffffffff1673ffffffffffffffffffffffffffffffffffffffff16146113a1576040517f08c379a00000000000000000000000000000000000000000000000000000000081526004016113989061375e565b60405180910390fd5b816006600085815260200190815260200160002060050160006101000a81548160ff021916908315150217905550806006600085815260200190815260200160002060060181905550505050565b600073ffffffffffffffffffffffffffffffffffffffff166008600083815260200190815260200160002060009054906101000a900473ffffffffffffffffffffffffffffffffffffffff1673ffffffffffffffffffffffffffffffffffffffff1603611491576040517f08c379a000000000000000000000000000000000000000000000000000000000815260040161148890613090565b60405180910390fd5b3373ffffffffffffffffffffffffffffffffffffffff166008600083815260200190815260200160002060009054906101000a900473ffffffffffffffffffffffffffffffffffffffff1673ffffffffffffffffffffffffffffffffffffffff1603611532576040517f08c379a0000000000000000000000000000000000000000000000000000000008152600401611529906137ca565b60405180910390fd5b60006006600083815260200190815260200160002090508060050160009054906101000a900460ff1661159a576040517f08c379a000000000000000000000000000000000000000000000000000000000815260040161159190613836565b60405180910390fd5b60008160050160006101000a81548160ff021916908315150217905550600081600601819055506115ff6008600084815260200190815260200160002060009054906101000a900473ffffffffffffffffffffffffffffffffffffffff163384611e61565b5050565b600c6020528160005260406000206020528060005260406000206000915091509054906101000a900460ff1681565b600781805160208101820180518482526020830160208501208183528095505050505050600091509050805461166790612a77565b80601f016020809104026020016040519081016040528092919081815260200182805461169390612a77565b80156116e05780601f106116b5576101008083540402835291602001916116e0565b820191906000526020600020905b8154815290600101906020018083116116c357829003601f168201915b505050505081565b600660205280600052604060002060009150905080600001805461170b90612a77565b80601f016020809104026020016040519081016040528092919081815260200182805461173790612a77565b80156117845780601f1061175957610100808354040283529160200191611784565b820191906000526020600020905b81548152906001019060200180831161176757829003601f168201915b50505050509080600101805461179990612a77565b80601f01602080910402602001604051908101604052809291908181526020018280546117c590612a77565b80156118125780601f106117e757610100808354040283529160200191611812565b820191906000526020600020905b8154815290600101906020018083116117f557829003601f168201915b50505050509080600201805461182790612a77565b80601f016020809104026020016040519081016040528092919081815260200182805461185390612a77565b80156118a05780601f10611875576101008083540402835291602001916118a0565b820191906000526020600020905b81548152906001019060200180831161188357829003601f168201915b5050505050908060030154908060040154908060050160009054906101000a900460ff16908060060154905087565b60008373ffffffffffffffffffffffffffffffffffffffff168373ffffffffffffffffffffffffffffffffffffffff1614806119915750600c60008573ffffffffffffffffffffffffffffffffffffffff1673ffffffffffffffffffffffffffffffffffffffff16815260200190815260200160002060008473ffffffffffffffffffffffffffffffffffffffff1673ffffffffffffffffffffffffffffffffffffffff16815260200190815260200160002060009054906101000a900460ff165b806119fa5750600b600083815260200190815260200160002060009054906101000a900473ffffffffffffffffffffffffffffffffffffffff1673ffffffffffffffffffffffffffffffffffffffff168373ffffffffffffffffffffffffffffffffffffffff16145b90509392505050565b600073ffffffffffffffffffffffffffffffffffffffff168273ffffffffffffffffffffffffffffffffffffffff1603611a72576040517f08c379a0000000000000000000000000000000000000000000000000000000008152600401611a69906138a2565b60405180910390fd5b600073ffffffffffffffffffffffffffffffffffffffff166008600083815260200190815260200160002060009054906101000a900473ffffffffffffffffffffffffffffffffffffffff1673ffffffffffffffffffffffffffffffffffffffff1614611b14576040517f08c379a0000000000000000000000000000000000000000000000000000000008152600401611b0b9061390e565b60405180910390fd5b600a60008373ffffffffffffffffffffffffffffffffffffffff1673ffffffffffffffffffffffffffffffffffffffff1681526020019081526020016000206000815480929190611b6490612eb8565b9190505550816008600083815260200190815260200160002060006101000a81548173ffffffffffffffffffffffffffffffffffffffff021916908373ffffffffffffffffffffffffffffffffffffffff160217905550808273ffffffffffffffffffffffffffffffffffffffff16600073ffffffffffffffffffffffffffffffffffffffff167fddf252ad1be2c89b69c2b068fc378daa952ba7f163c4a11628f55a4df523b3ef60405160405180910390a45050565b606060006001611c2a84612103565b01905060008167ffffffffffffffff811115611c4957611c48612424565b5b6040519080825280601f01601f191660200182016040528015611c7b5781602001600182028036833780820191505090505b509050600082602001820190505b600115611cde578080600190039150507f3031323334353637383961626364656600000000000000000000000000000000600a86061a8153600a8581611cd257611cd161392e565b5b04945060008503611c89575b819350505050919050565b60606000825103611d0b57604051806020016040528060008152509050611e5c565b6000604051806060016040528060408152602001613a056040913990506000600360028551611d3a919061395d565b611d449190613991565b6004611d5091906139c2565b90506000602082611d61919061395d565b67ffffffffffffffff811115611d7a57611d79612424565b5b6040519080825280601f01601f191660200182016040528015611dac5781602001600182028036833780820191505090505b509050818152600183018586518101602084015b81831015611e1b576003830192508251603f8160121c168501518253600182019150603f81600c1c168501518253600182019150603f8160061c168501518253600182019150603f8116850151825360018201915050611dc0565b600389510660018114611e355760028114611e4557611e50565b613d3d60f01b6002830352611e50565b603d60f81b60018303525b50505050508093505050505b919050565b6008600082815260200190815260200160002060009054906101000a900473ffffffffffffffffffffffffffffffffffffffff1673ffffffffffffffffffffffffffffffffffffffff168373ffffffffffffffffffffffffffffffffffffffff1614611f02576040517f08c379a0000000000000000000000000000000000000000000000000000000008152600401611ef990612dd4565b60405180910390fd5b600073ffffffffffffffffffffffffffffffffffffffff168273ffffffffffffffffffffffffffffffffffffffff1603611f71576040517f08c379a0000000000000000000000000000000000000000000000000000000008152600401611f6890612e40565b60405180910390fd5b600a60008473ffffffffffffffffffffffffffffffffffffffff1673ffffffffffffffffffffffffffffffffffffffff1681526020019081526020016000206000815480929190611fc190612e8f565b9190505550600a60008373ffffffffffffffffffffffffffffffffffffffff1673ffffffffffffffffffffffffffffffffffffffff168152602001908152602001600020600081548092919061201690612eb8565b9190505550816008600083815260200190815260200160002060006101000a81548173ffffffffffffffffffffffffffffffffffffffff021916908373ffffffffffffffffffffffffffffffffffffffff160217905550600b600082815260200190815260200160002060006101000a81549073ffffffffffffffffffffffffffffffffffffffff0219169055808273ffffffffffffffffffffffffffffffffffffffff168473ffffffffffffffffffffffffffffffffffffffff167fddf252ad1be2c89b69c2b068fc378daa952ba7f163c4a11628f55a4df523b3ef60405160405180910390a4505050565b600080600090507a184f03e93ff9f4daa797ed6e38ed64bf6a1f0100000000000000008310612161577a184f03e93ff9f4daa797ed6e38ed64bf6a1f01000000000000000083816121575761215661392e565b5b0492506040810190505b6d04ee2d6d415b85acef8100000000831061219e576d04ee2d6d415b85acef810000000083816121945761219361392e565b5b0492506020810190505b662386f26fc1000083106121cd57662386f26fc1000083816121c3576121c261392e565b5b0492506010810190505b6305f5e10083106121f6576305f5e10083816121ec576121eb61392e565b5b0492506008810190505b612710831061221b5761271083816122115761221061392e565b5b0492506004810190505b6064831061223e57606483816122345761223361392e565b5b0492506002810190505b600a831061224d576001810190505b80915050919050565b600081519050919050565b600082825260208201905092915050565b60005b83811015612290578082015181840152602081019050612275565b60008484015250505050565b6000601f19601f8301169050919050565b60006122b882612256565b6122c28185612261565b93506122d2818560208601612272565b6122db8161229c565b840191505092915050565b6000602082019050818103600083015261230081846122ad565b905092915050565b6000604051905090565b600080fd5b600080fd5b600073ffffffffffffffffffffffffffffffffffffffff82169050919050565b60006123478261231c565b9050919050565b6123578161233c565b811461236257600080fd5b50565b6000813590506123748161234e565b92915050565b6000819050919050565b61238d8161237a565b811461239857600080fd5b50565b6000813590506123aa81612384565b92915050565b600080604083850312156123c7576123c6612312565b5b60006123d585828601612365565b92505060206123e68582860161239b565b9150509250929050565b6123f98161237a565b82525050565b600060208201905061241460008301846123f0565b92915050565b600080fd5b600080fd5b7f4e487b7100000000000000000000000000000000000000000000000000000000600052604160045260246000fd5b61245c8261229c565b810181811067ffffffffffffffff8211171561247b5761247a612424565b5b80604052505050565b600061248e612308565b905061249a8282612453565b919050565b600067ffffffffffffffff8211156124ba576124b9612424565b5b6124c38261229c565b9050602081019050919050565b82818337600083830152505050565b60006124f26124ed8461249f565b612484565b90508281526020810184848401111561250e5761250d61241f565b5b6125198482856124d0565b509392505050565b600082601f8301126125365761253561241a565b5b81356125468482602086016124df565b91505092915050565b6000806040838503121561256657612565612312565b5b60006125748582860161239b565b925050602083013567ffffffffffffffff81111561259557612594612317565b5b6125a185828601612521565b9150509250929050565b6000806000606084860312156125c4576125c3612312565b5b60006125d286828701612365565b93505060206125e386828701612365565b92505060406125f48682870161239b565b9150509250925092565b60006020828403121561261457612613612312565b5b60006126228482850161239b565b91505092915050565b6126348161233c565b82525050565b600060208201905061264f600083018461262b565b92915050565b60006020828403121561266b5761266a612312565b5b600061267984828501612365565b91505092915050565b6000806040838503121561269957612698612312565b5b60006126a78582860161239b565b92505060206126b88582860161239b565b9150509250929050565b60008115159050919050565b6126d7816126c2565b81146126e257600080fd5b50565b6000813590506126f4816126ce565b92915050565b6000806040838503121561271157612710612312565b5b600061271f85828601612365565b9250506020612730858286016126e5565b9150509250929050565b600080600080600080600080610100898b03121561275b5761275a612312565b5b60006127698b828c01612365565b985050602089013567ffffffffffffffff81111561278a57612789612317565b5b6127968b828c01612521565b975050604089013567ffffffffffffffff8111156127b7576127b6612317565b5b6127c38b828c01612521565b965050606089013567ffffffffffffffff8111156127e4576127e3612317565b5b6127f08b828c01612521565b95505060806128018b828c0161239b565b94505060a06128128b828c0161239b565b93505060c06128238b828c016126e5565b92505060e06128348b828c0161239b565b9150509295985092959890939650565b6000819050919050565b600061286961286461285f8461231c565b612844565b61231c565b9050919050565b600061287b8261284e565b9050919050565b600061288d82612870565b9050919050565b61289d81612882565b82525050565b60006020820190506128b86000830184612894565b92915050565b6000806000606084860312156128d7576128d6612312565b5b60006128e58682870161239b565b93505060206128f6868287016126e5565b92505060406129078682870161239b565b9150509250925092565b6000806040838503121561292857612927612312565b5b600061293685828601612365565b925050602061294785828601612365565b9150509250929050565b61295a816126c2565b82525050565b60006020820190506129756000830184612951565b92915050565b60006020828403121561299157612990612312565b5b600082013567ffffffffffffffff8111156129af576129ae612317565b5b6129bb84828501612521565b91505092915050565b600060e08201905081810360008301526129de818a6122ad565b905081810360208301526129f281896122ad565b90508181036040830152612a0681886122ad565b9050612a1560608301876123f0565b612a2260808301866123f0565b612a2f60a0830185612951565b612a3c60c08301846123f0565b98975050505050505050565b7f4e487b7100000000000000000000000000000000000000000000000000000000600052602260045260246000fd5b60006002820490506001821680612a8f57607f821691505b602082108103612aa257612aa1612a48565b5b50919050565b7f6e6f7420617574686f72697a6564000000000000000000000000000000000000600082015250565b6000612ade600e83612261565b9150612ae982612aa8565b602082019050919050565b60006020820190508181036000830152612b0d81612ad1565b9050919050565b60008190508160005260206000209050919050565b60006020601f8301049050919050565b600082821b905092915050565b600060088302612b767fffffffffffffffffffffffffffffffffffffffffffffffffffffffffffffffff82612b39565b612b808683612b39565b95508019841693508086168417925050509392505050565b6000612bb3612bae612ba98461237a565b612844565b61237a565b9050919050565b6000819050919050565b612bcd83612b98565b612be1612bd982612bba565b848454612b46565b825550505050565b600090565b612bf6612be9565b612c01818484612bc4565b505050565b5b81811015612c2557612c1a600082612bee565b600181019050612c07565b5050565b601f821115612c6a57612c3b81612b14565b612c4484612b29565b81016020851015612c53578190505b612c67612c5f85612b29565b830182612c06565b50505b505050565b600082821c905092915050565b6000612c8d60001984600802612c6f565b1980831691505092915050565b6000612ca68383612c7c565b9150826002028217905092915050565b612cbf82612256565b67ffffffffffffffff811115612cd857612cd7612424565b5b612ce28254612a77565b612ced828285612c29565b600060209050601f831160018114612d205760008415612d0e578287015190505b612d188582612c9a565b865550612d80565b601f198416612d2e86612b14565b60005b82811015612d5657848901518255600182019150602085019450602081019050612d31565b86831015612d735784890151612d6f601f891682612c7c565b8355505b6001600288020188555050505b505050505050565b7f66726f6d20213d206f776e657200000000000000000000000000000000000000600082015250565b6000612dbe600d83612261565b9150612dc982612d88565b602082019050919050565b60006020820190508181036000830152612ded81612db1565b9050919050565b7f7472616e7366657220746f207a65726f20616464726573730000000000000000600082015250565b6000612e2a601883612261565b9150612e3582612df4565b602082019050919050565b60006020820190508181036000830152612e5981612e1d565b9050919050565b7f4e487b7100000000000000000000000000000000000000000000000000000000600052601160045260246000fd5b6000612e9a8261237a565b915060008203612ead57612eac612e60565b5b600182039050919050565b6000612ec38261237a565b91507fffffffffffffffffffffffffffffffffffffffffffffffffffffffffffffffff8203612ef557612ef4612e60565b5b600182019050919050565b7f746f6b656e20646f65736e277420657869737400000000000000000000000000600082015250565b6000612f36601383612261565b9150612f4182612f00565b602082019050919050565b60006020820190508181036000830152612f6581612f29565b9050919050565b7f6f776e6572203d207a65726f2061646472657373000000000000000000000000600082015250565b6000612fa2601483612261565b9150612fad82612f6c565b602082019050919050565b60006020820190508181036000830152612fd181612f95565b9050919050565b7f4d617820737570706c7920726561636865640000000000000000000000000000600082015250565b600061300e601283612261565b915061301982612fd8565b602082019050919050565b6000602082019050818103600083015261303d81613001565b9050919050565b7f546f6b656e20646f6573206e6f74206578697374000000000000000000000000600082015250565b600061307a601483612261565b915061308582613044565b602082019050919050565b600060208201905081810360008301526130a98161306d565b9050919050565b600081905092915050565b60006130c682612256565b6130d081856130b0565b93506130e0818560208601612272565b80840191505092915050565b60006130f882846130bb565b915081905092915050565b7f7b00000000000000000000000000000000000000000000000000000000000000600082015250565b60006131396001836130b0565b915061314482613103565b600182019050919050565b7f226e616d65223a20220000000000000000000000000000000000000000000000600082015250565b60006131856009836130b0565b91506131908261314f565b600982019050919050565b7f222c000000000000000000000000000000000000000000000000000000000000600082015250565b60006131d16002836130b0565b91506131dc8261319b565b600282019050919050565b7f226465736372697074696f6e223a202200000000000000000000000000000000600082015250565b600061321d6010836130b0565b9150613228826131e7565b601082019050919050565b7f20706c6179732000000000000000000000000000000000000000000000000000600082015250565b60006132696007836130b0565b915061327482613233565b600782019050919050565b7f20666f7220746865200000000000000000000000000000000000000000000000600082015250565b60006132b56009836130b0565b91506132c08261327f565b600982019050919050565b7f2e20000000000000000000000000000000000000000000000000000000000000600082015250565b60006133016002836130b0565b915061330c826132cb565b600282019050919050565b7f46616e7461737920506f696e74733a2000000000000000000000000000000000600082015250565b600061334d6010836130b0565b915061335882613317565b601082019050919050565b7f506f736974696f6e3a2000000000000000000000000000000000000000000000600082015250565b6000613399600a836130b0565b91506133a482613363565b600a82019050919050565b7f5465616d3a200000000000000000000000000000000000000000000000000000600082015250565b60006133e56006836130b0565b91506133f0826133af565b600682019050919050565b7f2e22000000000000000000000000000000000000000000000000000000000000600082015250565b60006134316002836130b0565b915061343c826133fb565b600282019050919050565b7f2c00000000000000000000000000000000000000000000000000000000000000600082015250565b600061347d6001836130b0565b915061348882613447565b600182019050919050565b7f22696d616765223a202200000000000000000000000000000000000000000000600082015250565b60006134c9600a836130b0565b91506134d482613493565b600a82019050919050565b7f2200000000000000000000000000000000000000000000000000000000000000600082015250565b60006135156001836130b0565b9150613520826134df565b600182019050919050565b7f7d00000000000000000000000000000000000000000000000000000000000000600082015250565b60006135616001836130b0565b915061356c8261352b565b600182019050919050565b60006135828261312c565b915061358d82613178565b9150613599828b6130bb565b91506135a4826131c4565b91506135af82613210565b91506135bb828a6130bb565b91506135c68261325c565b91506135d282896130bb565b91506135dd826132a8565b91506135e982886130bb565b91506135f4826132f4565b91506135ff82613340565b915061360b82876130bb565b9150613616826132f4565b91506136218261338c565b915061362d82866130bb565b9150613638826132f4565b9150613643826133d8565b915061364f82856130bb565b915061365a82613424565b915061366582613470565b9150613670826134bc565b915061367c82846130bb565b915061368782613508565b915061369282613554565b91508190509998505050505050505050565b7f646174613a6170706c69636174696f6e2f6a736f6e3b6261736536342c000000600082015250565b60006136da601d836130b0565b91506136e5826136a4565b601d82019050919050565b60006136fb826136cd565b915061370782846130bb565b915081905092915050565b7f4e6f742074686520746f6b656e206f776e657200000000000000000000000000600082015250565b6000613748601383612261565b915061375382613712565b602082019050919050565b600060208201905081810360008301526137778161373b565b9050919050565b7f596f7520616c7265616479206f776e2074686973204e46540000000000000000600082015250565b60006137b4601883612261565b91506137bf8261377e565b602082019050919050565b600060208201905081810360008301526137e3816137a7565b9050919050565b7f4e4654206e6f7420666f722073616c6500000000000000000000000000000000600082015250565b6000613820601083612261565b915061382b826137ea565b602082019050919050565b6000602082019050818103600083015261384f81613813565b9050919050565b7f6d696e7420746f207a65726f2061646472657373000000000000000000000000600082015250565b600061388c601483612261565b915061389782613856565b602082019050919050565b600060208201905081810360008301526138bb8161387f565b9050919050565b7f616c7265616479206d696e746564000000000000000000000000000000000000600082015250565b60006138f8600e83612261565b9150613903826138c2565b602082019050919050565b60006020820190508181036000830152613927816138eb565b9050919050565b7f4e487b7100000000000000000000000000000000000000000000000000000000600052601260045260246000fd5b60006139688261237a565b91506139738361237a565b925082820190508082111561398b5761398a612e60565b5b92915050565b600061399c8261237a565b91506139a78361237a565b9250826139b7576139b661392e565b5b828204905092915050565b60006139cd8261237a565b91506139d88361237a565b92508282026139e68161237a565b915082820484148315176139fd576139fc612e60565b5b509291505056fe4142434445464748494a4b4c4d4e4f505152535455565758595a6162636465666768696a6b6c6d6e6f707172737475767778797a303132333435363738392b2fa264697066735822122049ef2d4900f0470d8b95f429992cdb2e308d0a6b0d3075ac0969ebf6f9731be064736f6c6343000814003368747470733a2f2f77686974652d717569636b2d6775616e2d3331342e6d7970696e6174612e636c6f75642f697066732f6261667962656964326964747a6d6874356e65777072633777683368693537633466756c68376c75637837657070367a70726e61376e70636766652f73617175616e2d6261726b6c65792e6a706768747470733a2f2f77686974652d717569636b2d6775616e2d3331342e6d7970696e6174612e636c6f75642f697066732f6261667962656964326964747a6d6874356e65777072633777683368693537633466756c68376c75637837657070367a70726e61376e70636766652f6a6f73682d616c6c656e2e6a706768747470733a2f2f77686974652d717569636b2d6775616e2d3331342e6d7970696e6174612e636c6f75642f697066732f6261667962656964326964747a6d6874356e65777072633777683368693537633466756c68376c75637837657070367a70726e61376e70636766652f73616d2d6c61706f7274612e6a706768747470733a2f2f77686974652d717569636b2d6775616e2d3331342e6d7970696e6174612e636c6f75642f697066732f6261667962656964326964747a6d6874356e65777072633777683368693537633466756c68376c75637837657070367a70726e61376e70636766652f6d616c696b2d6e61626572732e6a706768747470733a2f2f77686974652d717569636b2d6775616e2d3331342e6d7970696e6174612e636c6f75642f697066732f6261667962656964326964747a6d6874356e65777072633777683368693537633466756c68376c75637837657070367a70726e61376e70636766652f7061747269636b2d6d61686f6d65732e6a706768747470733a2f2f77686974652d717569636b2d6775616e2d3331342e6d7970696e6174612e636c6f75642f697066732f6261667962656964326964747a6d6874356e65777072633777683368693537633466756c68376c75637837657070367a70726e61376e70636766652f62726f636b2d626f776572732e6a706768747470733a2f2f77686974652d717569636b2d6775616e2d3331342e6d7970696e6174612e636c6f75642f697066732f6261667962656964326964747a6d6874356e65777072633777683368693537633466756c68376c75637837657070367a70726e61376e70636766652f6a757374696e2d6a6566666572736f6e2e6a706768747470733a2f2f77686974652d717569636b2d6775616e2d3331342e6d7970696e6174612e636c6f75642f697066732f6261667962656964326964747a6d6874356e65777072633777683368693537633466756c68376c75637837657070367a70726e61376e70636766652f6465727269636b2d68656e72792e6a7067",
  "linkReferences": {},
  "deployedLinkReferences": {}
}