{
  "_format": "hh-sol-artifact-1",
  "contractName": "FantasyFootball",
  "sourceName": "contracts/fantasyFootball.sol",
  "abi": [
    {
      "inputs": [
        {
          "internalType": "address",
          "name": "_yodaTokenAddress",
          "type": "address"
        },
        {
          "internalType": "string",
          "name": "_name",
          "type": "string"
        },
        {
          "internalType": "string",
          "name": "_symbol",
          "type": "string"
        },
        {
          "internalType": "uint256",
          "name": "MINT_PRICE",
          "type": "uint256"
        },
        {
          "internalType": "uint256",
          "name": "MAX_SUPPLY",
          "type": "uint256"
        }
      ],
      "stateMutability": "nonpayable",
      "type": "constructor"
    },
    {
      "anonymous": false,
      "inputs": [
        {
          "indexed": true,
          "internalType": "address",
          "name": "owner",
          "type": "address"
        },
        {
          "indexed": true,
          "internalType": "address",
          "name": "spender",
          "type": "address"
        },
        {
          "indexed": true,
          "internalType": "uint256",
          "name": "id",
          "type": "uint256"
        }
      ],
      "name": "Approval",
      "type": "event"
    },
    {
      "anonymous": false,
      "inputs": [
        {
          "indexed": true,
          "internalType": "address",
          "name": "owner",
          "type": "address"
        },
        {
          "indexed": true,
          "internalType": "address",
          "name": "operator",
          "type": "address"
        },
        {
          "indexed": false,
          "internalType": "bool",
          "name": "approved",
          "type": "bool"
        }
      ],
      "name": "ApprovalForAll",
      "type": "event"
    },
    {
      "anonymous": false,
      "inputs": [
        {
          "indexed": true,
          "internalType": "address",
          "name": "from",
          "type": "address"
        },
        {
          "indexed": true,
          "internalType": "address",
          "name": "to",
          "type": "address"
        },
        {
          "indexed": true,
          "internalType": "uint256",
          "name": "id",
          "type": "uint256"
        }
      ],
      "name": "Transfer",
      "type": "event"
    },
    {
      "inputs": [
        {
          "internalType": "address",
          "name": "spender",
          "type": "address"
        },
        {
          "internalType": "uint256",
          "name": "id",
          "type": "uint256"
        }
      ],
      "name": "approve",
      "outputs": [],
      "stateMutability": "nonpayable",
      "type": "function"
    },
    {
      "inputs": [
        {
          "internalType": "address",
          "name": "owner",
          "type": "address"
        }
      ],
      "name": "balanceOf",
      "outputs": [
        {
          "internalType": "uint256",
          "name": "",
          "type": "uint256"
        }
      ],
      "stateMutability": "view",
      "type": "function"
    },
    {
      "inputs": [
        {
          "internalType": "uint256",
          "name": "tokenId",
          "type": "uint256"
        }
      ],
      "name": "buy",
      "outputs": [],
      "stateMutability": "nonpayable",
      "type": "function"
    },
    {
      "inputs": [
        {
          "internalType": "address",
          "name": "",
          "type": "address"
        },
        {
          "internalType": "address",
          "name": "",
          "type": "address"
        }
      ],
      "name": "isApprovedForAll",
      "outputs": [
        {
          "internalType": "bool",
          "name": "",
          "type": "bool"
        }
      ],
      "stateMutability": "view",
      "type": "function"
    },
    {
      "inputs": [],
      "name": "max_supply",
      "outputs": [
        {
          "internalType": "uint256",
          "name": "",
          "type": "uint256"
        }
      ],
      "stateMutability": "view",
      "type": "function"
    },
    {
      "inputs": [
        {
          "internalType": "address",
          "name": "to",
          "type": "address"
        },
        {
          "internalType": "string",
          "name": "_name",
          "type": "string"
        },
        {
          "internalType": "string",
          "name": "_position",
          "type": "string"
        },
        {
          "internalType": "string",
          "name": "_team",
          "type": "string"
        },
        {
          "internalType": "uint256",
          "name": "_fantasyPoints",
          "type": "uint256"
        },
        {
          "internalType": "uint256",
          "name": "_mintPrice",
          "type": "uint256"
        }
      ],
      "name": "mint",
      "outputs": [],
      "stateMutability": "payable",
      "type": "function"
    },
    {
      "inputs": [],
      "name": "mint_price",
      "outputs": [
        {
          "internalType": "uint256",
          "name": "",
          "type": "uint256"
        }
      ],
      "stateMutability": "view",
      "type": "function"
    },
    {
      "inputs": [],
      "name": "name",
      "outputs": [
        {
          "internalType": "string",
          "name": "",
          "type": "string"
        }
      ],
      "stateMutability": "view",
      "type": "function"
    },
    {
      "inputs": [
        {
          "internalType": "uint256",
          "name": "id",
          "type": "uint256"
        }
      ],
      "name": "ownerOf",
      "outputs": [
        {
          "internalType": "address",
          "name": "owner",
          "type": "address"
        }
      ],
      "stateMutability": "view",
      "type": "function"
    },
    {
      "inputs": [
        {
          "internalType": "uint256",
          "name": "",
          "type": "uint256"
        }
      ],
      "name": "players",
      "outputs": [
        {
          "internalType": "string",
          "name": "name",
          "type": "string"
        },
        {
          "internalType": "string",
          "name": "position",
          "type": "string"
        },
        {
          "internalType": "string",
          "name": "team",
          "type": "string"
        },
        {
          "internalType": "uint256",
          "name": "fantasyPoints",
          "type": "uint256"
        },
        {
          "internalType": "uint256",
          "name": "mintPrice",
          "type": "uint256"
        }
      ],
      "stateMutability": "view",
      "type": "function"
    },
    {
      "inputs": [
        {
          "internalType": "address",
          "name": "operator",
          "type": "address"
        },
        {
          "internalType": "bool",
          "name": "approved",
          "type": "bool"
        }
      ],
      "name": "setApprovalForAll",
      "outputs": [],
      "stateMutability": "nonpayable",
      "type": "function"
    },
    {
      "inputs": [],
      "name": "symbol",
      "outputs": [
        {
          "internalType": "string",
          "name": "",
          "type": "string"
        }
      ],
      "stateMutability": "view",
      "type": "function"
    },
    {
      "inputs": [
        {
          "internalType": "address",
          "name": "from",
          "type": "address"
        },
        {
          "internalType": "address",
          "name": "to",
          "type": "address"
        },
        {
          "internalType": "uint256",
          "name": "id",
          "type": "uint256"
        }
      ],
      "name": "transferFrom",
      "outputs": [],
      "stateMutability": "nonpayable",
      "type": "function"
    },
    {
      "inputs": [
        {
          "internalType": "uint256",
          "name": "tokenId",
          "type": "uint256"
        },
        {
          "internalType": "uint256",
          "name": "newPoints",
          "type": "uint256"
        }
      ],
      "name": "updateFantasyPoints",
      "outputs": [],
      "stateMutability": "nonpayable",
      "type": "function"
    },
    {
      "inputs": [
        {
          "internalType": "uint256",
          "name": "tokenId",
          "type": "uint256"
        },
        {
          "internalType": "string",
          "name": "newTeam",
          "type": "string"
        }
      ],
      "name": "updateTeam",
      "outputs": [],
      "stateMutability": "nonpayable",
      "type": "function"
    },
    {
      "inputs": [],
      "name": "yodaToken",
      "outputs": [
        {
          "internalType": "contract IERC20",
          "name": "",
          "type": "address"
        }
      ],
      "stateMutability": "view",
      "type": "function"
    }
  ],
  "bytecode": "0x60806040523480156200001157600080fd5b5060405162002d5538038062002d558339818101604052810190620000379190620002e7565b846000806101000a81548173ffffffffffffffffffffffffffffffffffffffff021916908373ffffffffffffffffffffffffffffffffffffffff1602179055508360019081620000889190620005ee565b5082600290816200009a9190620005ee565b5081600381905550806004819055505050505050620006d5565b6000604051905090565b600080fd5b600080fd5b600073ffffffffffffffffffffffffffffffffffffffff82169050919050565b6000620000f582620000c8565b9050919050565b6200010781620000e8565b81146200011357600080fd5b50565b6000815190506200012781620000fc565b92915050565b600080fd5b600080fd5b6000601f19601f8301169050919050565b7f4e487b7100000000000000000000000000000000000000000000000000000000600052604160045260246000fd5b620001828262000137565b810181811067ffffffffffffffff82111715620001a457620001a362000148565b5b80604052505050565b6000620001b9620000b4565b9050620001c7828262000177565b919050565b600067ffffffffffffffff821115620001ea57620001e962000148565b5b620001f58262000137565b9050602081019050919050565b60005b838110156200022257808201518184015260208101905062000205565b60008484015250505050565b6000620002456200023f84620001cc565b620001ad565b90508281526020810184848401111562000264576200026362000132565b5b6200027184828562000202565b509392505050565b600082601f8301126200029157620002906200012d565b5b8151620002a38482602086016200022e565b91505092915050565b6000819050919050565b620002c181620002ac565b8114620002cd57600080fd5b50565b600081519050620002e181620002b6565b92915050565b600080600080600060a08688031215620003065762000305620000be565b5b6000620003168882890162000116565b955050602086015167ffffffffffffffff8111156200033a5762000339620000c3565b5b620003488882890162000279565b945050604086015167ffffffffffffffff8111156200036c576200036b620000c3565b5b6200037a8882890162000279565b93505060606200038d88828901620002d0565b9250506080620003a088828901620002d0565b9150509295509295909350565b600081519050919050565b7f4e487b7100000000000000000000000000000000000000000000000000000000600052602260045260246000fd5b600060028204905060018216806200040057607f821691505b602082108103620004165762000415620003b8565b5b50919050565b60008190508160005260206000209050919050565b60006020601f8301049050919050565b600082821b905092915050565b600060088302620004807fffffffffffffffffffffffffffffffffffffffffffffffffffffffffffffffff8262000441565b6200048c868362000441565b95508019841693508086168417925050509392505050565b6000819050919050565b6000620004cf620004c9620004c384620002ac565b620004a4565b620002ac565b9050919050565b6000819050919050565b620004eb83620004ae565b62000503620004fa82620004d6565b8484546200044e565b825550505050565b600090565b6200051a6200050b565b62000527818484620004e0565b505050565b5b818110156200054f576200054360008262000510565b6001810190506200052d565b5050565b601f8211156200059e5762000568816200041c565b620005738462000431565b8101602085101562000583578190505b6200059b620005928562000431565b8301826200052c565b50505b505050565b600082821c905092915050565b6000620005c360001984600802620005a3565b1980831691505092915050565b6000620005de8383620005b0565b9150826002028217905092915050565b620005f982620003ad565b67ffffffffffffffff81111562000615576200061462000148565b5b620006218254620003e7565b6200062e82828562000553565b600060209050601f83116001811462000666576000841562000651578287015190505b6200065d8582620005d0565b865550620006cd565b601f19841662000676866200041c565b60005b82811015620006a05784890151825560018201915060208501945060208101905062000679565b86831015620006c05784890151620006bc601f891682620005b0565b8355505b6001600288020188555050505b505050505050565b61267080620006e56000396000f3fe6080604052600436106100f35760003560e01c8063920d9f2f1161008a578063cdc6453811610059578063cdc6453814610307578063d96a094a14610332578063e985e9c51461035b578063f71d96cb14610398576100f3565b8063920d9f2f1461026e57806395d89b4114610297578063a22cb465146102c2578063c74e07ac146102eb576100f3565b806323b872dd116100c657806323b872dd146101a05780636352211e146101c957806370a08231146102065780638a333b5014610243576100f3565b806306fdde03146100f8578063095ea7b3146101235780631a4231a41461014c57806320cb510914610177575b600080fd5b34801561010457600080fd5b5061010d6103d9565b60405161011a919061180d565b60405180910390f35b34801561012f57600080fd5b5061014a600480360381019061014591906118d7565b610467565b005b34801561015857600080fd5b50610161610650565b60405161016e9190611926565b60405180910390f35b34801561018357600080fd5b5061019e60048036038101906101999190611a76565b610656565b005b3480156101ac57600080fd5b506101c760048036038101906101c29190611ad2565b61067e565b005b3480156101d557600080fd5b506101f060048036038101906101eb9190611b25565b61096a565b6040516101fd9190611b61565b60405180910390f35b34801561021257600080fd5b5061022d60048036038101906102289190611b7c565b610a16565b60405161023a9190611926565b60405180910390f35b34801561024f57600080fd5b50610258610acd565b6040516102659190611926565b60405180910390f35b34801561027a57600080fd5b5061029560048036038101906102909190611ba9565b610ad3565b005b3480156102a357600080fd5b506102ac610af2565b6040516102b9919061180d565b60405180910390f35b3480156102ce57600080fd5b506102e960048036038101906102e49190611c21565b610b80565b005b61030560048036038101906103009190611c61565b610c7d565b005b34801561031357600080fd5b5061031c610dea565b6040516103299190611da1565b60405180910390f35b34801561033e57600080fd5b5061035960048036038101906103549190611b25565b610e0e565b005b34801561036757600080fd5b50610382600480360381019061037d9190611dbc565b610f92565b60405161038f9190611e0b565b60405180910390f35b3480156103a457600080fd5b506103bf60048036038101906103ba9190611b25565b610fc1565b6040516103d0959493929190611e26565b60405180910390f35b600180546103e690611ebd565b80601f016020809104026020016040519081016040528092919081815260200182805461041290611ebd565b801561045f5780601f106104345761010080835404028352916020019161045f565b820191906000526020600020905b81548152906001019060200180831161044257829003601f168201915b505050505081565b60006007600083815260200190815260200160002060009054906101000a900473ffffffffffffffffffffffffffffffffffffffff1690508073ffffffffffffffffffffffffffffffffffffffff163373ffffffffffffffffffffffffffffffffffffffff16148061055f5750600b60008273ffffffffffffffffffffffffffffffffffffffff1673ffffffffffffffffffffffffffffffffffffffff16815260200190815260200160002060003373ffffffffffffffffffffffffffffffffffffffff1673ffffffffffffffffffffffffffffffffffffffff16815260200190815260200160002060009054906101000a900460ff165b61059e576040517f08c379a000000000000000000000000000000000000000000000000000000000815260040161059590611f3a565b60405180910390fd5b82600a600084815260200190815260200160002060006101000a81548173ffffffffffffffffffffffffffffffffffffffff021916908373ffffffffffffffffffffffffffffffffffffffff160217905550818373ffffffffffffffffffffffffffffffffffffffff168273ffffffffffffffffffffffffffffffffffffffff167f8c5be1e5ebec7d5bd14f71427d1e84f3dd0314c0f7b2291e5b200ac8c7c3b92560405160405180910390a4505050565b60035481565b8060066000848152602001908152602001600020600201908161067991906120fc565b505050565b6007600082815260200190815260200160002060009054906101000a900473ffffffffffffffffffffffffffffffffffffffff1673ffffffffffffffffffffffffffffffffffffffff168373ffffffffffffffffffffffffffffffffffffffff161461071f576040517f08c379a00000000000000000000000000000000000000000000000000000000081526004016107169061221a565b60405180910390fd5b600073ffffffffffffffffffffffffffffffffffffffff168273ffffffffffffffffffffffffffffffffffffffff160361078e576040517f08c379a000000000000000000000000000000000000000000000000000000000815260040161078590612286565b60405180910390fd5b61079983338361118f565b6107d8576040517f08c379a00000000000000000000000000000000000000000000000000000000081526004016107cf90611f3a565b60405180910390fd5b600960008473ffffffffffffffffffffffffffffffffffffffff1673ffffffffffffffffffffffffffffffffffffffff1681526020019081526020016000206000815480929190610828906122d5565b9190505550600960008373ffffffffffffffffffffffffffffffffffffffff1673ffffffffffffffffffffffffffffffffffffffff168152602001908152602001600020600081548092919061087d906122fe565b9190505550816007600083815260200190815260200160002060006101000a81548173ffffffffffffffffffffffffffffffffffffffff021916908373ffffffffffffffffffffffffffffffffffffffff160217905550600a600082815260200190815260200160002060006101000a81549073ffffffffffffffffffffffffffffffffffffffff0219169055808273ffffffffffffffffffffffffffffffffffffffff168473ffffffffffffffffffffffffffffffffffffffff167fddf252ad1be2c89b69c2b068fc378daa952ba7f163c4a11628f55a4df523b3ef60405160405180910390a4505050565b60006007600083815260200190815260200160002060009054906101000a900473ffffffffffffffffffffffffffffffffffffffff169050600073ffffffffffffffffffffffffffffffffffffffff168173ffffffffffffffffffffffffffffffffffffffff1603610a11576040517f08c379a0000000000000000000000000000000000000000000000000000000008152600401610a0890612392565b60405180910390fd5b919050565b60008073ffffffffffffffffffffffffffffffffffffffff168273ffffffffffffffffffffffffffffffffffffffff1603610a86576040517f08c379a0000000000000000000000000000000000000000000000000000000008152600401610a7d906123fe565b60405180910390fd5b600960008373ffffffffffffffffffffffffffffffffffffffff1673ffffffffffffffffffffffffffffffffffffffff168152602001908152602001600020549050919050565b60045481565b8060066000848152602001908152602001600020600301819055505050565b60028054610aff90611ebd565b80601f0160208091040260200160405190810160405280929190818152602001828054610b2b90611ebd565b8015610b785780601f10610b4d57610100808354040283529160200191610b78565b820191906000526020600020905b815481529060010190602001808311610b5b57829003601f168201915b505050505081565b80600b60003373ffffffffffffffffffffffffffffffffffffffff1673ffffffffffffffffffffffffffffffffffffffff16815260200190815260200160002060008473ffffffffffffffffffffffffffffffffffffffff1673ffffffffffffffffffffffffffffffffffffffff16815260200190815260200160002060006101000a81548160ff0219169083151502179055508173ffffffffffffffffffffffffffffffffffffffff163373ffffffffffffffffffffffffffffffffffffffff167f17307eab39ab6107e8899845ad3d59bd9653f200f220920489ca2b5937696c3183604051610c719190611e0b565b60405180910390a35050565b60045460055410610cc3576040517f08c379a0000000000000000000000000000000000000000000000000000000008152600401610cba9061246a565b60405180910390fd5b600060056000815480929190610cd8906122fe565b919050559050610ce887826112c3565b6040518060a0016040528087815260200186815260200185815260200184815260200183815250600660008381526020019081526020016000206000820151816000019081610d3791906120fc565b506020820151816001019081610d4d91906120fc565b506040820151816002019081610d6391906120fc565b506060820151816003015560808201518160040155905050600860008873ffffffffffffffffffffffffffffffffffffffff1673ffffffffffffffffffffffffffffffffffffffff16815260200190815260200160002081908060018154018082558091505060019003906000526020600020016000909190919091505550505050505050565b60008054906101000a900473ffffffffffffffffffffffffffffffffffffffff1681565b600073ffffffffffffffffffffffffffffffffffffffff166007600083815260200190815260200160002060009054906101000a900473ffffffffffffffffffffffffffffffffffffffff1673ffffffffffffffffffffffffffffffffffffffff1603610eb0576040517f08c379a0000000000000000000000000000000000000000000000000000000008152600401610ea7906124d6565b60405180910390fd5b3373ffffffffffffffffffffffffffffffffffffffff166007600083815260200190815260200160002060009054906101000a900473ffffffffffffffffffffffffffffffffffffffff1673ffffffffffffffffffffffffffffffffffffffff1603610f51576040517f08c379a0000000000000000000000000000000000000000000000000000000008152600401610f4890612542565b60405180910390fd5b610f8f6007600083815260200190815260200160002060009054906101000a900473ffffffffffffffffffffffffffffffffffffffff1633836114db565b50565b600b6020528160005260406000206020528060005260406000206000915091509054906101000a900460ff1681565b6006602052806000526040600020600091509050806000018054610fe490611ebd565b80601f016020809104026020016040519081016040528092919081815260200182805461101090611ebd565b801561105d5780601f106110325761010080835404028352916020019161105d565b820191906000526020600020905b81548152906001019060200180831161104057829003601f168201915b50505050509080600101805461107290611ebd565b80601f016020809104026020016040519081016040528092919081815260200182805461109e90611ebd565b80156110eb5780601f106110c0576101008083540402835291602001916110eb565b820191906000526020600020905b8154815290600101906020018083116110ce57829003601f168201915b50505050509080600201805461110090611ebd565b80601f016020809104026020016040519081016040528092919081815260200182805461112c90611ebd565b80156111795780601f1061114e57610100808354040283529160200191611179565b820191906000526020600020905b81548152906001019060200180831161115c57829003601f168201915b5050505050908060030154908060040154905085565b60008373ffffffffffffffffffffffffffffffffffffffff168373ffffffffffffffffffffffffffffffffffffffff1614806112515750600b60008573ffffffffffffffffffffffffffffffffffffffff1673ffffffffffffffffffffffffffffffffffffffff16815260200190815260200160002060008473ffffffffffffffffffffffffffffffffffffffff1673ffffffffffffffffffffffffffffffffffffffff16815260200190815260200160002060009054906101000a900460ff165b806112ba5750600a600083815260200190815260200160002060009054906101000a900473ffffffffffffffffffffffffffffffffffffffff1673ffffffffffffffffffffffffffffffffffffffff168373ffffffffffffffffffffffffffffffffffffffff16145b90509392505050565b600073ffffffffffffffffffffffffffffffffffffffff168273ffffffffffffffffffffffffffffffffffffffff1603611332576040517f08c379a0000000000000000000000000000000000000000000000000000000008152600401611329906125ae565b60405180910390fd5b600073ffffffffffffffffffffffffffffffffffffffff166007600083815260200190815260200160002060009054906101000a900473ffffffffffffffffffffffffffffffffffffffff1673ffffffffffffffffffffffffffffffffffffffff16146113d4576040517f08c379a00000000000000000000000000000000000000000000000000000000081526004016113cb9061261a565b60405180910390fd5b600960008373ffffffffffffffffffffffffffffffffffffffff1673ffffffffffffffffffffffffffffffffffffffff1681526020019081526020016000206000815480929190611424906122fe565b9190505550816007600083815260200190815260200160002060006101000a81548173ffffffffffffffffffffffffffffffffffffffff021916908373ffffffffffffffffffffffffffffffffffffffff160217905550808273ffffffffffffffffffffffffffffffffffffffff16600073ffffffffffffffffffffffffffffffffffffffff167fddf252ad1be2c89b69c2b068fc378daa952ba7f163c4a11628f55a4df523b3ef60405160405180910390a45050565b6007600082815260200190815260200160002060009054906101000a900473ffffffffffffffffffffffffffffffffffffffff1673ffffffffffffffffffffffffffffffffffffffff168373ffffffffffffffffffffffffffffffffffffffff161461157c576040517f08c379a00000000000000000000000000000000000000000000000000000000081526004016115739061221a565b60405180910390fd5b600073ffffffffffffffffffffffffffffffffffffffff168273ffffffffffffffffffffffffffffffffffffffff16036115eb576040517f08c379a00000000000000000000000000000000000000000000000000000000081526004016115e290612286565b60405180910390fd5b600960008473ffffffffffffffffffffffffffffffffffffffff1673ffffffffffffffffffffffffffffffffffffffff168152602001908152602001600020600081548092919061163b906122d5565b9190505550600960008373ffffffffffffffffffffffffffffffffffffffff1673ffffffffffffffffffffffffffffffffffffffff1681526020019081526020016000206000815480929190611690906122fe565b9190505550816007600083815260200190815260200160002060006101000a81548173ffffffffffffffffffffffffffffffffffffffff021916908373ffffffffffffffffffffffffffffffffffffffff160217905550600a600082815260200190815260200160002060006101000a81549073ffffffffffffffffffffffffffffffffffffffff0219169055808273ffffffffffffffffffffffffffffffffffffffff168473ffffffffffffffffffffffffffffffffffffffff167fddf252ad1be2c89b69c2b068fc378daa952ba7f163c4a11628f55a4df523b3ef60405160405180910390a4505050565b600081519050919050565b600082825260208201905092915050565b60005b838110156117b757808201518184015260208101905061179c565b60008484015250505050565b6000601f19601f8301169050919050565b60006117df8261177d565b6117e98185611788565b93506117f9818560208601611799565b611802816117c3565b840191505092915050565b6000602082019050818103600083015261182781846117d4565b905092915050565b6000604051905090565b600080fd5b600080fd5b600073ffffffffffffffffffffffffffffffffffffffff82169050919050565b600061186e82611843565b9050919050565b61187e81611863565b811461188957600080fd5b50565b60008135905061189b81611875565b92915050565b6000819050919050565b6118b4816118a1565b81146118bf57600080fd5b50565b6000813590506118d1816118ab565b92915050565b600080604083850312156118ee576118ed611839565b5b60006118fc8582860161188c565b925050602061190d858286016118c2565b9150509250929050565b611920816118a1565b82525050565b600060208201905061193b6000830184611917565b92915050565b600080fd5b600080fd5b7f4e487b7100000000000000000000000000000000000000000000000000000000600052604160045260246000fd5b611983826117c3565b810181811067ffffffffffffffff821117156119a2576119a161194b565b5b80604052505050565b60006119b561182f565b90506119c1828261197a565b919050565b600067ffffffffffffffff8211156119e1576119e061194b565b5b6119ea826117c3565b9050602081019050919050565b82818337600083830152505050565b6000611a19611a14846119c6565b6119ab565b905082815260208101848484011115611a3557611a34611946565b5b611a408482856119f7565b509392505050565b600082601f830112611a5d57611a5c611941565b5b8135611a6d848260208601611a06565b91505092915050565b60008060408385031215611a8d57611a8c611839565b5b6000611a9b858286016118c2565b925050602083013567ffffffffffffffff811115611abc57611abb61183e565b5b611ac885828601611a48565b9150509250929050565b600080600060608486031215611aeb57611aea611839565b5b6000611af98682870161188c565b9350506020611b0a8682870161188c565b9250506040611b1b868287016118c2565b9150509250925092565b600060208284031215611b3b57611b3a611839565b5b6000611b49848285016118c2565b91505092915050565b611b5b81611863565b82525050565b6000602082019050611b766000830184611b52565b92915050565b600060208284031215611b9257611b91611839565b5b6000611ba08482850161188c565b91505092915050565b60008060408385031215611bc057611bbf611839565b5b6000611bce858286016118c2565b9250506020611bdf858286016118c2565b9150509250929050565b60008115159050919050565b611bfe81611be9565b8114611c0957600080fd5b50565b600081359050611c1b81611bf5565b92915050565b60008060408385031215611c3857611c37611839565b5b6000611c468582860161188c565b9250506020611c5785828601611c0c565b9150509250929050565b60008060008060008060c08789031215611c7e57611c7d611839565b5b6000611c8c89828a0161188c565b965050602087013567ffffffffffffffff811115611cad57611cac61183e565b5b611cb989828a01611a48565b955050604087013567ffffffffffffffff811115611cda57611cd961183e565b5b611ce689828a01611a48565b945050606087013567ffffffffffffffff811115611d0757611d0661183e565b5b611d1389828a01611a48565b9350506080611d2489828a016118c2565b92505060a0611d3589828a016118c2565b9150509295509295509295565b6000819050919050565b6000611d67611d62611d5d84611843565b611d42565b611843565b9050919050565b6000611d7982611d4c565b9050919050565b6000611d8b82611d6e565b9050919050565b611d9b81611d80565b82525050565b6000602082019050611db66000830184611d92565b92915050565b60008060408385031215611dd357611dd2611839565b5b6000611de18582860161188c565b9250506020611df28582860161188c565b9150509250929050565b611e0581611be9565b82525050565b6000602082019050611e206000830184611dfc565b92915050565b600060a0820190508181036000830152611e4081886117d4565b90508181036020830152611e5481876117d4565b90508181036040830152611e6881866117d4565b9050611e776060830185611917565b611e846080830184611917565b9695505050505050565b7f4e487b7100000000000000000000000000000000000000000000000000000000600052602260045260246000fd5b60006002820490506001821680611ed557607f821691505b602082108103611ee857611ee7611e8e565b5b50919050565b7f6e6f7420617574686f72697a6564000000000000000000000000000000000000600082015250565b6000611f24600e83611788565b9150611f2f82611eee565b602082019050919050565b60006020820190508181036000830152611f5381611f17565b9050919050565b60008190508160005260206000209050919050565b60006020601f8301049050919050565b600082821b905092915050565b600060088302611fbc7fffffffffffffffffffffffffffffffffffffffffffffffffffffffffffffffff82611f7f565b611fc68683611f7f565b95508019841693508086168417925050509392505050565b6000611ff9611ff4611fef846118a1565b611d42565b6118a1565b9050919050565b6000819050919050565b61201383611fde565b61202761201f82612000565b848454611f8c565b825550505050565b600090565b61203c61202f565b61204781848461200a565b505050565b5b8181101561206b57612060600082612034565b60018101905061204d565b5050565b601f8211156120b05761208181611f5a565b61208a84611f6f565b81016020851015612099578190505b6120ad6120a585611f6f565b83018261204c565b50505b505050565b600082821c905092915050565b60006120d3600019846008026120b5565b1980831691505092915050565b60006120ec83836120c2565b9150826002028217905092915050565b6121058261177d565b67ffffffffffffffff81111561211e5761211d61194b565b5b6121288254611ebd565b61213382828561206f565b600060209050601f8311600181146121665760008415612154578287015190505b61215e85826120e0565b8655506121c6565b601f19841661217486611f5a565b60005b8281101561219c57848901518255600182019150602085019450602081019050612177565b868310156121b957848901516121b5601f8916826120c2565b8355505b6001600288020188555050505b505050505050565b7f66726f6d20213d206f776e657200000000000000000000000000000000000000600082015250565b6000612204600d83611788565b915061220f826121ce565b602082019050919050565b60006020820190508181036000830152612233816121f7565b9050919050565b7f7472616e7366657220746f207a65726f20616464726573730000000000000000600082015250565b6000612270601883611788565b915061227b8261223a565b602082019050919050565b6000602082019050818103600083015261229f81612263565b9050919050565b7f4e487b7100000000000000000000000000000000000000000000000000000000600052601160045260246000fd5b60006122e0826118a1565b9150600082036122f3576122f26122a6565b5b600182039050919050565b6000612309826118a1565b91507fffffffffffffffffffffffffffffffffffffffffffffffffffffffffffffffff820361233b5761233a6122a6565b5b600182019050919050565b7f746f6b656e20646f65736e277420657869737400000000000000000000000000600082015250565b600061237c601383611788565b915061238782612346565b602082019050919050565b600060208201905081810360008301526123ab8161236f565b9050919050565b7f6f776e6572203d207a65726f2061646472657373000000000000000000000000600082015250565b60006123e8601483611788565b91506123f3826123b2565b602082019050919050565b60006020820190508181036000830152612417816123db565b9050919050565b7f4d617820737570706c7920726561636865640000000000000000000000000000600082015250565b6000612454601283611788565b915061245f8261241e565b602082019050919050565b6000602082019050818103600083015261248381612447565b9050919050565b7f546f6b656e20646f6573206e6f74206578697374000000000000000000000000600082015250565b60006124c0601483611788565b91506124cb8261248a565b602082019050919050565b600060208201905081810360008301526124ef816124b3565b9050919050565b7f596f7520616c7265616479206f776e2074686973204e46540000000000000000600082015250565b600061252c601883611788565b9150612537826124f6565b602082019050919050565b6000602082019050818103600083015261255b8161251f565b9050919050565b7f6d696e7420746f207a65726f2061646472657373000000000000000000000000600082015250565b6000612598601483611788565b91506125a382612562565b602082019050919050565b600060208201905081810360008301526125c78161258b565b9050919050565b7f616c7265616479206d696e746564000000000000000000000000000000000000600082015250565b6000612604600e83611788565b915061260f826125ce565b602082019050919050565b60006020820190508181036000830152612633816125f7565b905091905056fea264697066735822122055787a5cd2189f8e3fed618e5dab0eccdaa78be0473d4c87579c1b4a6100307864736f6c63430008140033",
  "linkReferences": {},
  "deployedLinkReferences": {}
}