{
  "_format": "hh-sol-artifact-1",
  "contractName": "FantasyFootball",
  "sourceName": "contracts/fantasyFootball.sol",
  "abi": [
    {
      "inputs": [
        {
          "internalType": "address",
          "name": "_yodaTokenAddress",
          "type": "address"
        },
        {
          "internalType": "string",
          "name": "_name",
          "type": "string"
        },
        {
          "internalType": "string",
          "name": "_symbol",
          "type": "string"
        },
        {
          "internalType": "uint256",
          "name": "MINT_PRICE",
          "type": "uint256"
        }
      ],
      "stateMutability": "nonpayable",
      "type": "constructor"
    },
    {
      "anonymous": false,
      "inputs": [
        {
          "indexed": true,
          "internalType": "address",
          "name": "owner",
          "type": "address"
        },
        {
          "indexed": true,
          "internalType": "address",
          "name": "spender",
          "type": "address"
        },
        {
          "indexed": true,
          "internalType": "uint256",
          "name": "id",
          "type": "uint256"
        }
      ],
      "name": "Approval",
      "type": "event"
    },
    {
      "anonymous": false,
      "inputs": [
        {
          "indexed": true,
          "internalType": "address",
          "name": "owner",
          "type": "address"
        },
        {
          "indexed": true,
          "internalType": "address",
          "name": "operator",
          "type": "address"
        },
        {
          "indexed": false,
          "internalType": "bool",
          "name": "approved",
          "type": "bool"
        }
      ],
      "name": "ApprovalForAll",
      "type": "event"
    },
    {
      "anonymous": false,
      "inputs": [
        {
          "indexed": true,
          "internalType": "address",
          "name": "from",
          "type": "address"
        },
        {
          "indexed": true,
          "internalType": "address",
          "name": "to",
          "type": "address"
        },
        {
          "indexed": true,
          "internalType": "uint256",
          "name": "id",
          "type": "uint256"
        }
      ],
      "name": "Transfer",
      "type": "event"
    },
    {
      "inputs": [
        {
          "internalType": "address",
          "name": "spender",
          "type": "address"
        },
        {
          "internalType": "uint256",
          "name": "id",
          "type": "uint256"
        }
      ],
      "name": "approve",
      "outputs": [],
      "stateMutability": "nonpayable",
      "type": "function"
    },
    {
      "inputs": [
        {
          "internalType": "address",
          "name": "owner",
          "type": "address"
        }
      ],
      "name": "balanceOf",
      "outputs": [
        {
          "internalType": "uint256",
          "name": "",
          "type": "uint256"
        }
      ],
      "stateMutability": "view",
      "type": "function"
    },
    {
      "inputs": [
        {
          "internalType": "uint256",
          "name": "tokenId",
          "type": "uint256"
        }
      ],
      "name": "buy",
      "outputs": [],
      "stateMutability": "nonpayable",
      "type": "function"
    },
    {
      "inputs": [],
      "name": "contractOwner",
      "outputs": [
        {
          "internalType": "address",
          "name": "",
          "type": "address"
        }
      ],
      "stateMutability": "view",
      "type": "function"
    },
    {
      "inputs": [
        {
          "internalType": "address",
          "name": "owner",
          "type": "address"
        }
      ],
      "name": "getTokenIdsByOwner",
      "outputs": [
        {
          "internalType": "uint256[]",
          "name": "",
          "type": "uint256[]"
        }
      ],
      "stateMutability": "view",
      "type": "function"
    },
    {
      "inputs": [
        {
          "internalType": "address",
          "name": "",
          "type": "address"
        },
        {
          "internalType": "address",
          "name": "",
          "type": "address"
        }
      ],
      "name": "isApprovedForAll",
      "outputs": [
        {
          "internalType": "bool",
          "name": "",
          "type": "bool"
        }
      ],
      "stateMutability": "view",
      "type": "function"
    },
    {
      "inputs": [
        {
          "internalType": "address",
          "name": "to",
          "type": "address"
        },
        {
          "internalType": "string",
          "name": "_name",
          "type": "string"
        },
        {
          "internalType": "string",
          "name": "_position",
          "type": "string"
        },
        {
          "internalType": "string",
          "name": "_team",
          "type": "string"
        },
        {
          "internalType": "uint256",
          "name": "_fantasyPoints",
          "type": "uint256"
        },
        {
          "internalType": "string",
          "name": "_description",
          "type": "string"
        },
        {
          "internalType": "string",
          "name": "_rank",
          "type": "string"
        }
      ],
      "name": "mint",
      "outputs": [],
      "stateMutability": "payable",
      "type": "function"
    },
    {
      "inputs": [],
      "name": "mint_price",
      "outputs": [
        {
          "internalType": "uint256",
          "name": "",
          "type": "uint256"
        }
      ],
      "stateMutability": "view",
      "type": "function"
    },
    {
      "inputs": [],
      "name": "name",
      "outputs": [
        {
          "internalType": "string",
          "name": "",
          "type": "string"
        }
      ],
      "stateMutability": "view",
      "type": "function"
    },
    {
      "inputs": [
        {
          "internalType": "uint256",
          "name": "id",
          "type": "uint256"
        }
      ],
      "name": "ownerOf",
      "outputs": [
        {
          "internalType": "address",
          "name": "owner",
          "type": "address"
        }
      ],
      "stateMutability": "view",
      "type": "function"
    },
    {
      "inputs": [
        {
          "internalType": "string",
          "name": "",
          "type": "string"
        }
      ],
      "name": "playerImageMap",
      "outputs": [
        {
          "internalType": "string",
          "name": "",
          "type": "string"
        }
      ],
      "stateMutability": "view",
      "type": "function"
    },
    {
      "inputs": [
        {
          "internalType": "uint256",
          "name": "",
          "type": "uint256"
        }
      ],
      "name": "players",
      "outputs": [
        {
          "internalType": "string",
          "name": "name",
          "type": "string"
        },
        {
          "internalType": "string",
          "name": "position",
          "type": "string"
        },
        {
          "internalType": "string",
          "name": "team",
          "type": "string"
        },
        {
          "internalType": "uint256",
          "name": "fantasyPoints",
          "type": "uint256"
        },
        {
          "internalType": "bool",
          "name": "forSale",
          "type": "bool"
        },
        {
          "internalType": "uint256",
          "name": "salePrice",
          "type": "uint256"
        },
        {
          "internalType": "string",
          "name": "description",
          "type": "string"
        },
        {
          "internalType": "string",
          "name": "rank",
          "type": "string"
        }
      ],
      "stateMutability": "view",
      "type": "function"
    },
    {
      "inputs": [
        {
          "internalType": "address",
          "name": "operator",
          "type": "address"
        },
        {
          "internalType": "bool",
          "name": "approved",
          "type": "bool"
        }
      ],
      "name": "setApprovalForAll",
      "outputs": [],
      "stateMutability": "nonpayable",
      "type": "function"
    },
    {
      "inputs": [
        {
          "internalType": "uint256",
          "name": "tokenId",
          "type": "uint256"
        },
        {
          "internalType": "bool",
          "name": "status",
          "type": "bool"
        },
        {
          "internalType": "uint256",
          "name": "price",
          "type": "uint256"
        }
      ],
      "name": "setForSale",
      "outputs": [],
      "stateMutability": "nonpayable",
      "type": "function"
    },
    {
      "inputs": [
        {
          "internalType": "bytes4",
          "name": "interfaceId",
          "type": "bytes4"
        }
      ],
      "name": "supportsInterface",
      "outputs": [
        {
          "internalType": "bool",
          "name": "",
          "type": "bool"
        }
      ],
      "stateMutability": "pure",
      "type": "function"
    },
    {
      "inputs": [],
      "name": "symbol",
      "outputs": [
        {
          "internalType": "string",
          "name": "",
          "type": "string"
        }
      ],
      "stateMutability": "view",
      "type": "function"
    },
    {
      "inputs": [
        {
          "internalType": "uint256",
          "name": "tokenId",
          "type": "uint256"
        }
      ],
      "name": "tokenURI",
      "outputs": [
        {
          "internalType": "string",
          "name": "",
          "type": "string"
        }
      ],
      "stateMutability": "view",
      "type": "function"
    },
    {
      "inputs": [],
      "name": "totalSupply",
      "outputs": [
        {
          "internalType": "uint256",
          "name": "",
          "type": "uint256"
        }
      ],
      "stateMutability": "view",
      "type": "function"
    },
    {
      "inputs": [
        {
          "internalType": "address",
          "name": "from",
          "type": "address"
        },
        {
          "internalType": "address",
          "name": "to",
          "type": "address"
        },
        {
          "internalType": "uint256",
          "name": "id",
          "type": "uint256"
        }
      ],
      "name": "transferFrom",
      "outputs": [],
      "stateMutability": "nonpayable",
      "type": "function"
    },
    {
      "inputs": [],
      "name": "withdrawYoda",
      "outputs": [],
      "stateMutability": "nonpayable",
      "type": "function"
    },
    {
      "inputs": [],
      "name": "yodaToken",
      "outputs": [
        {
          "internalType": "contract IERC20",
          "name": "",
          "type": "address"
        }
      ],
      "stateMutability": "view",
      "type": "function"
    }
  ],
  "bytecode": "0x60806040523480156200001157600080fd5b5060405162002dab38038062002dab8339810160408190526200003491620003d3565b600080546001600160a01b0386166001600160a01b03199182161790915560048054909116331790556040805160a08101909152607b80825262002a3b602083013960408051692537b9b41020b63632b760b11b81526008600a820152905190819003602a01902090620000a99082620004f4565b506040518060a001604052806080815260200162002baf60809139604080516e5061747269636b204d61686f6d657360881b81526008600f820152905190819003602f01902090620000fc9082620004f4565b506040518060c001604052806081815260200162002cac60819139604080516f253ab9ba34b7102532b33332b939b7b760811b815260086010820152905190819003603001902090620001509082620004f4565b506040518060a00160405280607d815260200162002b32607d9139604080516b4d616c696b204e616265727360a01b81526008600c820152905190819003602c01902090620001a09082620004f4565b506040518060a00160405280607f8152602001620029bc607f9139604080516d53617175616e204261726b6c657960901b81526008600e820152905190819003602e01902090620001f29082620004f4565b506040518060a00160405280607e815260200162002d2d607e9139604080516c4465727269636b2048656e727960981b81526008600d820152905190819003602d01902090620002439082620004f4565b506040518060a00160405280607d815260200162002c2f607d9139604080516b42726f636b20426f7765727360a01b81526008600c820152905190819003602c01902090620002939082620004f4565b506040518060a00160405280607c815260200162002ab6607c9139604080516a53616d204c61506f72746160a81b81526008600b820152905190819003602b01902090620002e29082620004f4565b506001620002f18482620004f4565b506002620003008382620004f4565b5060035550620005c0915050565b634e487b7160e01b600052604160045260246000fd5b600082601f8301126200033657600080fd5b81516001600160401b03808211156200035357620003536200030e565b604051601f8301601f19908116603f011681019082821181831017156200037e576200037e6200030e565b816040528381526020925086838588010111156200039b57600080fd5b600091505b83821015620003bf5785820183015181830184015290820190620003a0565b600093810190920192909252949350505050565b60008060008060808587031215620003ea57600080fd5b84516001600160a01b03811681146200040257600080fd5b60208601519094506001600160401b03808211156200042057600080fd5b6200042e8883890162000324565b945060408701519150808211156200044557600080fd5b50620004548782880162000324565b606096909601519497939650505050565b600181811c908216806200047a57607f821691505b6020821081036200049b57634e487b7160e01b600052602260045260246000fd5b50919050565b601f821115620004ef57600081815260208120601f850160051c81016020861015620004ca5750805b601f850160051c820191505b81811015620004eb57828155600101620004d6565b5050505b505050565b81516001600160401b038111156200051057620005106200030e565b620005288162000521845462000465565b84620004a1565b602080601f831160018114620005605760008415620005475750858301515b600019600386901b1c1916600185901b178555620004eb565b600085815260208120601f198616915b82811015620005915788860151825594840194600190910190840162000570565b5085821015620005b05787850151600019600388901b60f8161c191681555b5050505050600190811b01905550565b6123ec80620005d06000396000f3fe60806040526004361061012a5760003560e01c806374c3718d116100ab578063ce606ee01161006f578063ce606ee014610335578063cf5c1b5214610355578063d96a094a14610375578063e985e9c514610395578063ea7c03c4146103d0578063f71d96cb146103f057600080fd5b806374c3718d146102ad57806395d89b41146102c0578063a22cb465146102d5578063c87b56dd146102f5578063cdc645381461031557600080fd5b806323b872dd116100f257806323b872dd146101f35780635854616a146102135780636352211e146102285780636970bb0a1461026057806370a082311461028d57600080fd5b806301ffc9a71461012f57806306fdde0314610175578063095ea7b31461019757806318160ddd146101b95780631a4231a4146101dd575b600080fd5b34801561013b57600080fd5b5061016061014a366004611b66565b6001600160e01b0319166380ac58cd60e01b1490565b60405190151581526020015b60405180910390f35b34801561018157600080fd5b5061018a610424565b60405161016c9190611be7565b3480156101a357600080fd5b506101b76101b2366004611c11565b6104b2565b005b3480156101c557600080fd5b506101cf60065481565b60405190815260200161016c565b3480156101e957600080fd5b506101cf60035481565b3480156101ff57600080fd5b506101b761020e366004611c3b565b610599565b34801561021f57600080fd5b506101b761074c565b34801561023457600080fd5b50610248610243366004611c77565b6108cc565b6040516001600160a01b03909116815260200161016c565b34801561026c57600080fd5b5061028061027b366004611c90565b61092c565b60405161016c9190611cab565b34801561029957600080fd5b506101cf6102a8366004611c90565b610998565b6101b76102bb366004611d92565b610a03565b3480156102cc57600080fd5b5061018a610c10565b3480156102e157600080fd5b506101b76102f0366004611e8f565b610c1d565b34801561030157600080fd5b5061018a610310366004611c77565b610c89565b34801561032157600080fd5b50600054610248906001600160a01b031681565b34801561034157600080fd5b50600454610248906001600160a01b031681565b34801561036157600080fd5b506101b7610370366004611ec6565b611205565b34801561038157600080fd5b506101b7610390366004611c77565b61128a565b3480156103a157600080fd5b506101606103b0366004611efe565b600d60209081526000928352604080842090915290825290205460ff1681565b3480156103dc57600080fd5b5061018a6103eb366004611f31565b6114aa565b3480156103fc57600080fd5b5061041061040b366004611c77565b6114ce565b60405161016c989796959493929190611f66565b6001805461043190611fed565b80601f016020809104026020016040519081016040528092919081815260200182805461045d90611fed565b80156104aa5780601f1061047f576101008083540402835291602001916104aa565b820191906000526020600020905b81548152906001019060200180831161048d57829003601f168201915b505050505081565b6000818152600960205260409020546001600160a01b0316338114806104fb57506001600160a01b0381166000908152600d6020908152604080832033845290915290205460ff165b61053d5760405162461bcd60e51b815260206004820152600e60248201526d1b9bdd08185d5d1a1bdc9a5e995960921b60448201526064015b60405180910390fd5b6000828152600c602052604080822080546001600160a01b0319166001600160a01b0387811691821790925591518593918516917f8c5be1e5ebec7d5bd14f71427d1e84f3dd0314c0f7b2291e5b200ac8c7c3b92591a4505050565b6000818152600960205260409020546001600160a01b038481169116146105f25760405162461bcd60e51b815260206004820152600d60248201526c333937b690109e9037bbb732b960991b6044820152606401610534565b6001600160a01b0382166106435760405162461bcd60e51b81526020600482015260186024820152777472616e7366657220746f207a65726f206164647265737360401b6044820152606401610534565b61064e8333836117bf565b61068b5760405162461bcd60e51b815260206004820152600e60248201526d1b9bdd08185d5d1a1bdc9a5e995960921b6044820152606401610534565b6001600160a01b0383166000908152600b602052604081208054916106af8361203d565b90915550506001600160a01b0382166000908152600b602052604081208054916106d883612054565b9091555050600081815260096020908152604080832080546001600160a01b038088166001600160a01b03199283168117909355600c909452828520805490911690559051849391928716917fddf252ad1be2c89b69c2b068fc378daa952ba7f163c4a11628f55a4df523b3ef91a4505050565b6004546001600160a01b031633146107965760405162461bcd60e51b815260206004820152600d60248201526c2737ba103a34329037bbb732b960991b6044820152606401610534565b600080546040516370a0823160e01b81523060048201526001600160a01b03909116906370a0823190602401602060405180830381865afa1580156107df573d6000803e3d6000fd5b505050506040513d601f19601f82011682018060405250810190610803919061206d565b90506000811161084b5760405162461bcd60e51b81526020600482015260136024820152724e6f20596f646120746f20776974686472617760681b6044820152606401610534565b6000546004805460405163a9059cbb60e01b81526001600160a01b0391821692810192909252602482018490529091169063a9059cbb906044016020604051808303816000875af11580156108a4573d6000803e3d6000fd5b505050506040513d601f19601f820116820180604052508101906108c89190612086565b5050565b6000818152600960205260409020546001600160a01b0316806109275760405162461bcd60e51b81526020600482015260136024820152721d1bdad95b88191bd95cdb89dd08195e1a5cdd606a1b6044820152606401610534565b919050565b6001600160a01b0381166000908152600a602090815260409182902080548351818402810184019094528084526060939283018282801561098c57602002820191906000526020600020905b815481526020019060010190808311610978575b50505050509050919050565b60006001600160a01b0382166109e75760405162461bcd60e51b81526020600482015260146024820152736f776e6572203d207a65726f206164647265737360601b6044820152606401610534565b506001600160a01b03166000908152600b602052604090205490565b6000546003546040516323b872dd60e01b815233600482015230602482015260448101919091526001600160a01b03909116906323b872dd906064016020604051808303816000875af1158015610a5e573d6000803e3d6000fd5b505050506040513d601f19601f82011682018060405250810190610a829190612086565b610ac45760405162461bcd60e51b81526020600482015260136024820152721653d110481c185e5b595b9d0819985a5b1959606a1b6044820152606401610534565b6005805460009182610ad583612054565b919050559050610ae58882611832565b600160066000828254610af891906120a3565b9091555050604080516101008101825288815260208082018990528183018890526060820187905260006080830181905260a0830181905260c0830187905260e0830186905284815260079091529190912081518190610b58908261210b565b5060208201516001820190610b6d908261210b565b5060408201516002820190610b82908261210b565b5060608201516003820155608082015160048201805460ff191691151591909117905560a0820151600582015560c08201516006820190610bc3908261210b565b5060e08201516007820190610bd8908261210b565b5050506001600160a01b039097166000908152600a602090815260408220805460018101825590835291200196909655505050505050565b6002805461043190611fed565b336000818152600d602090815260408083206001600160a01b03871680855290835292819020805460ff191686151590811790915590519081529192917f17307eab39ab6107e8899845ad3d59bd9653f200f220920489ca2b5937696c31910160405180910390a35050565b6000818152600960205260409020546060906001600160a01b0316610ce75760405162461bcd60e51b8152602060048201526014602482015273151bdad95b88191bd95cc81b9bdd08195e1a5cdd60621b6044820152606401610534565b60008281526007602052604080822081516101008101909252805482908290610d0f90611fed565b80601f0160208091040260200160405190810160405280929190818152602001828054610d3b90611fed565b8015610d885780601f10610d5d57610100808354040283529160200191610d88565b820191906000526020600020905b815481529060010190602001808311610d6b57829003601f168201915b50505050508152602001600182018054610da190611fed565b80601f0160208091040260200160405190810160405280929190818152602001828054610dcd90611fed565b8015610e1a5780601f10610def57610100808354040283529160200191610e1a565b820191906000526020600020905b815481529060010190602001808311610dfd57829003601f168201915b50505050508152602001600282018054610e3390611fed565b80601f0160208091040260200160405190810160405280929190818152602001828054610e5f90611fed565b8015610eac5780601f10610e8157610100808354040283529160200191610eac565b820191906000526020600020905b815481529060010190602001808311610e8f57829003601f168201915b505050918352505060038201546020820152600482015460ff161515604082015260058201546060820152600682018054608090920191610eec90611fed565b80601f0160208091040260200160405190810160405280929190818152602001828054610f1890611fed565b8015610f655780601f10610f3a57610100808354040283529160200191610f65565b820191906000526020600020905b815481529060010190602001808311610f4857829003601f168201915b50505050508152602001600782018054610f7e90611fed565b80601f0160208091040260200160405190810160405280929190818152602001828054610faa90611fed565b8015610ff75780601f10610fcc57610100808354040283529160200191610ff7565b820191906000526020600020905b815481529060010190602001808311610fda57829003601f168201915b505050505081525050905060006008826000015160405161101891906121cb565b9081526020016040518091039020805461103190611fed565b80601f016020809104026020016040519081016040528092919081815260200182805461105d90611fed565b80156110aa5780601f1061107f576101008083540402835291602001916110aa565b820191906000526020600020905b81548152906001019060200180831161108d57829003601f168201915b5050505050905060008260e0015190506000816000815181106110cf576110cf6121e7565b602001015160f81c60f81b826001815181106110ed576110ed6121e7565b602001015160f81c60f81b8360028151811061110b5761110b6121e7565b602001015160f81c60f81b84600381518110611129576111296121e7565b016020908101516040516001600160f81b031995861692810192909252928416602182015290831660228201529116602382015260240160408051601f198184030181529082905285519092506000916111879184916020016121fd565b604051602081830303815290604052905060008560c00151905060008282876040516020016111b893929190612239565b604051602081830303815290604052905060006111d482611957565b9050806040516020016111e791906122f8565b60405160208183030381529060405298505050505050505050919050565b6000838152600960205260409020546001600160a01b031633146112615760405162461bcd60e51b81526020600482015260136024820152722737ba103a3432903a37b5b2b71037bbb732b960691b6044820152606401610534565b60009283526007602052604090922060048101805460ff19169215159290921790915560050155565b6000818152600960205260409020546001600160a01b03166112e55760405162461bcd60e51b8152602060048201526014602482015273151bdad95b88191bd95cc81b9bdd08195e1a5cdd60621b6044820152606401610534565b600081815260096020526040902054336001600160a01b039091160361134d5760405162461bcd60e51b815260206004820152601860248201527f596f7520616c7265616479206f776e2074686973204e465400000000000000006044820152606401610534565b6000818152600760205260409020600481015460ff166113a25760405162461bcd60e51b815260206004820152601060248201526f4e4654206e6f7420666f722073616c6560801b6044820152606401610534565b60008054838252600960205260409182902054600584015492516323b872dd60e01b81523360048201526001600160a01b039182166024820152604481019390935216906323b872dd906064016020604051808303816000875af115801561140e573d6000803e3d6000fd5b505050506040513d601f19601f820116820180604052508101906114329190612086565b6114745760405162461bcd60e51b81526020600482015260136024820152721653d110481c185e5b595b9d0819985a5b1959606a1b6044820152606401610534565b60048101805460ff19169055600060058201819055828152600960205260409020546108c8906001600160a01b03163384611abc565b80516020818301810180516008825292820191909301209152805461043190611fed565b6007602052600090815260409020805481906114e990611fed565b80601f016020809104026020016040519081016040528092919081815260200182805461151590611fed565b80156115625780601f1061153757610100808354040283529160200191611562565b820191906000526020600020905b81548152906001019060200180831161154557829003601f168201915b50505050509080600101805461157790611fed565b80601f01602080910402602001604051908101604052809291908181526020018280546115a390611fed565b80156115f05780601f106115c5576101008083540402835291602001916115f0565b820191906000526020600020905b8154815290600101906020018083116115d357829003601f168201915b50505050509080600201805461160590611fed565b80601f016020809104026020016040519081016040528092919081815260200182805461163190611fed565b801561167e5780601f106116535761010080835404028352916020019161167e565b820191906000526020600020905b81548152906001019060200180831161166157829003601f168201915b5050506003840154600485015460058601546006870180549697939660ff9093169550909350906116ae90611fed565b80601f01602080910402602001604051908101604052809291908181526020018280546116da90611fed565b80156117275780601f106116fc57610100808354040283529160200191611727565b820191906000526020600020905b81548152906001019060200180831161170a57829003601f168201915b50505050509080600701805461173c90611fed565b80601f016020809104026020016040519081016040528092919081815260200182805461176890611fed565b80156117b55780601f1061178a576101008083540402835291602001916117b5565b820191906000526020600020905b81548152906001019060200180831161179857829003601f168201915b5050505050905088565b6000836001600160a01b0316836001600160a01b0316148061180657506001600160a01b038085166000908152600d602090815260408083209387168352929052205460ff165b8061182a57506000828152600c60205260409020546001600160a01b038481169116145b949350505050565b6001600160a01b03821661187f5760405162461bcd60e51b81526020600482015260146024820152736d696e7420746f207a65726f206164647265737360601b6044820152606401610534565b6000818152600960205260409020546001600160a01b0316156118d55760405162461bcd60e51b815260206004820152600e60248201526d185b1c9958591e481b5a5b9d195960921b6044820152606401610534565b6001600160a01b0382166000908152600b602052604081208054916118f983612054565b909155505060008181526009602052604080822080546001600160a01b0319166001600160a01b03861690811790915590518392907fddf252ad1be2c89b69c2b068fc378daa952ba7f163c4a11628f55a4df523b3ef908290a45050565b6060815160000361197657505060408051602081019091526000815290565b600060405180606001604052806040815260200161237760409139905060006003845160026119a591906120a3565b6119af919061233d565b6119ba90600461235f565b905060006119c98260206120a3565b67ffffffffffffffff8111156119e1576119e1611cef565b6040519080825280601f01601f191660200182016040528015611a0b576020820181803683370190505b509050818152600183018586518101602084015b81831015611a77576003830192508251603f8160121c168501518253600182019150603f81600c1c168501518253600182019150603f8160061c168501518253600182019150603f8116850151825350600101611a1f565b600389510660018114611a915760028114611aa257611aae565b613d3d60f01b600119830152611aae565b603d60f81b6000198301525b509398975050505050505050565b6000818152600960205260409020546001600160a01b03848116911614611b155760405162461bcd60e51b815260206004820152600d60248201526c333937b690109e9037bbb732b960991b6044820152606401610534565b6001600160a01b03821661068b5760405162461bcd60e51b81526020600482015260186024820152777472616e7366657220746f207a65726f206164647265737360401b6044820152606401610534565b600060208284031215611b7857600080fd5b81356001600160e01b031981168114611b9057600080fd5b9392505050565b60005b83811015611bb2578181015183820152602001611b9a565b50506000910152565b60008151808452611bd3816020860160208601611b97565b601f01601f19169290920160200192915050565b602081526000611b906020830184611bbb565b80356001600160a01b038116811461092757600080fd5b60008060408385031215611c2457600080fd5b611c2d83611bfa565b946020939093013593505050565b600080600060608486031215611c5057600080fd5b611c5984611bfa565b9250611c6760208501611bfa565b9150604084013590509250925092565b600060208284031215611c8957600080fd5b5035919050565b600060208284031215611ca257600080fd5b611b9082611bfa565b6020808252825182820181905260009190848201906040850190845b81811015611ce357835183529284019291840191600101611cc7565b50909695505050505050565b634e487b7160e01b600052604160045260246000fd5b600082601f830112611d1657600080fd5b813567ffffffffffffffff80821115611d3157611d31611cef565b604051601f8301601f19908116603f01168101908282118183101715611d5957611d59611cef565b81604052838152866020858801011115611d7257600080fd5b836020870160208301376000602085830101528094505050505092915050565b600080600080600080600060e0888a031215611dad57600080fd5b611db688611bfa565b9650602088013567ffffffffffffffff80821115611dd357600080fd5b611ddf8b838c01611d05565b975060408a0135915080821115611df557600080fd5b611e018b838c01611d05565b965060608a0135915080821115611e1757600080fd5b611e238b838c01611d05565b955060808a0135945060a08a0135915080821115611e4057600080fd5b611e4c8b838c01611d05565b935060c08a0135915080821115611e6257600080fd5b50611e6f8a828b01611d05565b91505092959891949750929550565b8015158114611e8c57600080fd5b50565b60008060408385031215611ea257600080fd5b611eab83611bfa565b91506020830135611ebb81611e7e565b809150509250929050565b600080600060608486031215611edb57600080fd5b833592506020840135611eed81611e7e565b929592945050506040919091013590565b60008060408385031215611f1157600080fd5b611f1a83611bfa565b9150611f2860208401611bfa565b90509250929050565b600060208284031215611f4357600080fd5b813567ffffffffffffffff811115611f5a57600080fd5b61182a84828501611d05565b6000610100808352611f7a8184018c611bbb565b90508281036020840152611f8e818b611bbb565b90508281036040840152611fa2818a611bbb565b905087606084015286151560808401528560a084015282810360c0840152611fca8186611bbb565b905082810360e0840152611fde8185611bbb565b9b9a5050505050505050505050565b600181811c9082168061200157607f821691505b60208210810361202157634e487b7160e01b600052602260045260246000fd5b50919050565b634e487b7160e01b600052601160045260246000fd5b60008161204c5761204c612027565b506000190190565b60006001820161206657612066612027565b5060010190565b60006020828403121561207f57600080fd5b5051919050565b60006020828403121561209857600080fd5b8151611b9081611e7e565b808201808211156120b6576120b6612027565b92915050565b601f82111561210657600081815260208120601f850160051c810160208610156120e35750805b601f850160051c820191505b81811015612102578281556001016120ef565b5050505b505050565b815167ffffffffffffffff81111561212557612125611cef565b612139816121338454611fed565b846120bc565b602080601f83116001811461216e57600084156121565750858301515b600019600386901b1c1916600185901b178555612102565b600085815260208120601f198616915b8281101561219d5788860151825594840194600190910190840161217e565b50858210156121bb5787850151600019600388901b60f8161c191681555b5050505050600190811b01905550565b600082516121dd818460208701611b97565b9190910192915050565b634e487b7160e01b600052603260045260246000fd5b6000835161220f818460208801611b97565b600160fd1b908301908152835161222d816001840160208801611b97565b01600101949350505050565b607b60f81b815268113730b6b2911d101160b91b6001820152835160009061226881600a850160208901611b97565b61088b60f21b600a9184019182018190526f113232b9b1b934b83a34b7b7111d101160811b600c83015285516122a581601c850160208a01611b97565b601c920191820152691134b6b0b3b2911d101160b11b601e82015283516122d3816028840160208801611b97565b601160f91b60289290910191820152607d60f81b6029820152602a0195945050505050565b7f646174613a6170706c69636174696f6e2f6a736f6e3b6261736536342c00000081526000825161233081601d850160208701611b97565b91909101601d0192915050565b60008261235a57634e487b7160e01b600052601260045260246000fd5b500490565b80820281158282048414176120b6576120b661202756fe4142434445464748494a4b4c4d4e4f505152535455565758595a6162636465666768696a6b6c6d6e6f707172737475767778797a303132333435363738392b2fa264697066735822122024071b2575d765e77d013b10629411a1dabe5b7849683680e4006a2d33b670a364736f6c6343000814003368747470733a2f2f77686974652d717569636b2d6775616e2d3331342e6d7970696e6174612e636c6f75642f697066732f6261667962656964326964747a6d6874356e65777072633777683368693537633466756c68376c75637837657070367a70726e61376e70636766652f73617175616e2d6261726b6c65792e6a706768747470733a2f2f77686974652d717569636b2d6775616e2d3331342e6d7970696e6174612e636c6f75642f697066732f6261667962656964326964747a6d6874356e65777072633777683368693537633466756c68376c75637837657070367a70726e61376e70636766652f6a6f73682d616c6c656e2e6a706768747470733a2f2f77686974652d717569636b2d6775616e2d3331342e6d7970696e6174612e636c6f75642f697066732f6261667962656964326964747a6d6874356e65777072633777683368693537633466756c68376c75637837657070367a70726e61376e70636766652f73616d2d6c61706f7274612e6a706768747470733a2f2f77686974652d717569636b2d6775616e2d3331342e6d7970696e6174612e636c6f75642f697066732f6261667962656964326964747a6d6874356e65777072633777683368693537633466756c68376c75637837657070367a70726e61376e70636766652f6d616c696b2d6e61626572732e6a706768747470733a2f2f77686974652d717569636b2d6775616e2d3331342e6d7970696e6174612e636c6f75642f697066732f6261667962656964326964747a6d6874356e65777072633777683368693537633466756c68376c75637837657070367a70726e61376e70636766652f7061747269636b2d6d61686f6d65732e6a706768747470733a2f2f77686974652d717569636b2d6775616e2d3331342e6d7970696e6174612e636c6f75642f697066732f6261667962656964326964747a6d6874356e65777072633777683368693537633466756c68376c75637837657070367a70726e61376e70636766652f62726f636b2d626f776572732e6a706768747470733a2f2f77686974652d717569636b2d6775616e2d3331342e6d7970696e6174612e636c6f75642f697066732f6261667962656964326964747a6d6874356e65777072633777683368693537633466756c68376c75637837657070367a70726e61376e70636766652f6a757374696e2d6a6566666572736f6e2e6a706768747470733a2f2f77686974652d717569636b2d6775616e2d3331342e6d7970696e6174612e636c6f75642f697066732f6261667962656964326964747a6d6874356e65777072633777683368693537633466756c68376c75637837657070367a70726e61376e70636766652f6465727269636b2d68656e72792e6a7067",
  "linkReferences": {},
  "deployedLinkReferences": {}
}