{
  "_format": "hh-sol-artifact-1",
  "contractName": "FantasyFootball",
  "sourceName": "contracts/fantasyFootball.sol",
  "abi": [
    {
      "inputs": [
        {
          "internalType": "address",
          "name": "_yodaTokenAddress",
          "type": "address"
        },
        {
          "internalType": "string",
          "name": "_name",
          "type": "string"
        },
        {
          "internalType": "string",
          "name": "_symbol",
          "type": "string"
        },
        {
          "internalType": "uint256",
          "name": "MINT_PRICE",
          "type": "uint256"
        }
      ],
      "stateMutability": "nonpayable",
      "type": "constructor"
    },
    {
      "anonymous": false,
      "inputs": [
        {
          "indexed": true,
          "internalType": "address",
          "name": "owner",
          "type": "address"
        },
        {
          "indexed": true,
          "internalType": "address",
          "name": "spender",
          "type": "address"
        },
        {
          "indexed": true,
          "internalType": "uint256",
          "name": "id",
          "type": "uint256"
        }
      ],
      "name": "Approval",
      "type": "event"
    },
    {
      "anonymous": false,
      "inputs": [
        {
          "indexed": true,
          "internalType": "address",
          "name": "owner",
          "type": "address"
        },
        {
          "indexed": true,
          "internalType": "address",
          "name": "operator",
          "type": "address"
        },
        {
          "indexed": false,
          "internalType": "bool",
          "name": "approved",
          "type": "bool"
        }
      ],
      "name": "ApprovalForAll",
      "type": "event"
    },
    {
      "anonymous": false,
      "inputs": [
        {
          "indexed": true,
          "internalType": "address",
          "name": "from",
          "type": "address"
        },
        {
          "indexed": true,
          "internalType": "address",
          "name": "to",
          "type": "address"
        },
        {
          "indexed": true,
          "internalType": "uint256",
          "name": "id",
          "type": "uint256"
        }
      ],
      "name": "Transfer",
      "type": "event"
    },
    {
      "inputs": [
        {
          "internalType": "address",
          "name": "spender",
          "type": "address"
        },
        {
          "internalType": "uint256",
          "name": "id",
          "type": "uint256"
        }
      ],
      "name": "approve",
      "outputs": [],
      "stateMutability": "nonpayable",
      "type": "function"
    },
    {
      "inputs": [
        {
          "internalType": "address",
          "name": "owner",
          "type": "address"
        }
      ],
      "name": "balanceOf",
      "outputs": [
        {
          "internalType": "uint256",
          "name": "",
          "type": "uint256"
        }
      ],
      "stateMutability": "view",
      "type": "function"
    },
    {
      "inputs": [
        {
          "internalType": "uint256",
          "name": "tokenId",
          "type": "uint256"
        }
      ],
      "name": "buy",
      "outputs": [],
      "stateMutability": "nonpayable",
      "type": "function"
    },
    {
      "inputs": [
        {
          "internalType": "address",
          "name": "",
          "type": "address"
        },
        {
          "internalType": "address",
          "name": "",
          "type": "address"
        }
      ],
      "name": "isApprovedForAll",
      "outputs": [
        {
          "internalType": "bool",
          "name": "",
          "type": "bool"
        }
      ],
      "stateMutability": "view",
      "type": "function"
    },
    {
      "inputs": [
        {
          "internalType": "address",
          "name": "to",
          "type": "address"
        },
        {
          "internalType": "string",
          "name": "_name",
          "type": "string"
        },
        {
          "internalType": "string",
          "name": "_position",
          "type": "string"
        },
        {
          "internalType": "string",
          "name": "_team",
          "type": "string"
        },
        {
          "internalType": "uint256",
          "name": "_fantasyPoints",
          "type": "uint256"
        },
        {
          "internalType": "uint256",
          "name": "_mintPrice",
          "type": "uint256"
        },
        {
          "internalType": "bool",
          "name": "_forSale",
          "type": "bool"
        },
        {
          "internalType": "uint256",
          "name": "_salePrice",
          "type": "uint256"
        },
        {
          "internalType": "string",
          "name": "_description",
          "type": "string"
        },
        {
          "internalType": "string",
          "name": "_rank",
          "type": "string"
        }
      ],
      "name": "mint",
      "outputs": [],
      "stateMutability": "payable",
      "type": "function"
    },
    {
      "inputs": [],
      "name": "mint_price",
      "outputs": [
        {
          "internalType": "uint256",
          "name": "",
          "type": "uint256"
        }
      ],
      "stateMutability": "view",
      "type": "function"
    },
    {
      "inputs": [],
      "name": "name",
      "outputs": [
        {
          "internalType": "string",
          "name": "",
          "type": "string"
        }
      ],
      "stateMutability": "view",
      "type": "function"
    },
    {
      "inputs": [
        {
          "internalType": "uint256",
          "name": "id",
          "type": "uint256"
        }
      ],
      "name": "ownerOf",
      "outputs": [
        {
          "internalType": "address",
          "name": "owner",
          "type": "address"
        }
      ],
      "stateMutability": "view",
      "type": "function"
    },
    {
      "inputs": [
        {
          "internalType": "string",
          "name": "",
          "type": "string"
        }
      ],
      "name": "playerImageMap",
      "outputs": [
        {
          "internalType": "string",
          "name": "",
          "type": "string"
        }
      ],
      "stateMutability": "view",
      "type": "function"
    },
    {
      "inputs": [
        {
          "internalType": "uint256",
          "name": "",
          "type": "uint256"
        }
      ],
      "name": "players",
      "outputs": [
        {
          "internalType": "string",
          "name": "name",
          "type": "string"
        },
        {
          "internalType": "string",
          "name": "position",
          "type": "string"
        },
        {
          "internalType": "string",
          "name": "team",
          "type": "string"
        },
        {
          "internalType": "uint256",
          "name": "fantasyPoints",
          "type": "uint256"
        },
        {
          "internalType": "uint256",
          "name": "mintPrice",
          "type": "uint256"
        },
        {
          "internalType": "bool",
          "name": "forSale",
          "type": "bool"
        },
        {
          "internalType": "uint256",
          "name": "salePrice",
          "type": "uint256"
        },
        {
          "internalType": "string",
          "name": "description",
          "type": "string"
        },
        {
          "internalType": "string",
          "name": "rank",
          "type": "string"
        }
      ],
      "stateMutability": "view",
      "type": "function"
    },
    {
      "inputs": [
        {
          "internalType": "address",
          "name": "operator",
          "type": "address"
        },
        {
          "internalType": "bool",
          "name": "approved",
          "type": "bool"
        }
      ],
      "name": "setApprovalForAll",
      "outputs": [],
      "stateMutability": "nonpayable",
      "type": "function"
    },
    {
      "inputs": [
        {
          "internalType": "uint256",
          "name": "tokenId",
          "type": "uint256"
        },
        {
          "internalType": "bool",
          "name": "status",
          "type": "bool"
        },
        {
          "internalType": "uint256",
          "name": "price",
          "type": "uint256"
        }
      ],
      "name": "setForSale",
      "outputs": [],
      "stateMutability": "nonpayable",
      "type": "function"
    },
    {
      "inputs": [
        {
          "internalType": "bytes4",
          "name": "interfaceId",
          "type": "bytes4"
        }
      ],
      "name": "supportsInterface",
      "outputs": [
        {
          "internalType": "bool",
          "name": "",
          "type": "bool"
        }
      ],
      "stateMutability": "pure",
      "type": "function"
    },
    {
      "inputs": [],
      "name": "symbol",
      "outputs": [
        {
          "internalType": "string",
          "name": "",
          "type": "string"
        }
      ],
      "stateMutability": "view",
      "type": "function"
    },
    {
      "inputs": [
        {
          "internalType": "uint256",
          "name": "tokenId",
          "type": "uint256"
        }
      ],
      "name": "tokenURI",
      "outputs": [
        {
          "internalType": "string",
          "name": "",
          "type": "string"
        }
      ],
      "stateMutability": "view",
      "type": "function"
    },
    {
      "inputs": [],
      "name": "totalSupply",
      "outputs": [
        {
          "internalType": "uint256",
          "name": "",
          "type": "uint256"
        }
      ],
      "stateMutability": "view",
      "type": "function"
    },
    {
      "inputs": [
        {
          "internalType": "address",
          "name": "from",
          "type": "address"
        },
        {
          "internalType": "address",
          "name": "to",
          "type": "address"
        },
        {
          "internalType": "uint256",
          "name": "id",
          "type": "uint256"
        }
      ],
      "name": "transferFrom",
      "outputs": [],
      "stateMutability": "nonpayable",
      "type": "function"
    },
    {
      "inputs": [],
      "name": "yodaToken",
      "outputs": [
        {
          "internalType": "contract IERC20",
          "name": "",
          "type": "address"
        }
      ],
      "stateMutability": "view",
      "type": "function"
    }
  ],
  "bytecode": "0x60806040523480156200001157600080fd5b506040516200288b3803806200288b8339810160408190526200003491620003c5565b600080546001600160a01b0319166001600160a01b0386161790556040805160a08101909152607b8082526200251b602083013960408051692537b9b41020b63632b760b11b81526007600a820152905190819003602a019020906200009b9082620004e6565b506040518060a00160405280608081526020016200268f60809139604080516e5061747269636b204d61686f6d657360881b81526007600f820152905190819003602f01902090620000ee9082620004e6565b506040518060c00160405280608181526020016200278c60819139604080516f253ab9ba34b7102532b33332b939b7b760811b815260076010820152905190819003603001902090620001429082620004e6565b506040518060a00160405280607d815260200162002612607d9139604080516b4d616c696b204e616265727360a01b81526007600c820152905190819003602c01902090620001929082620004e6565b506040518060a00160405280607f81526020016200249c607f9139604080516d53617175616e204261726b6c657960901b81526007600e820152905190819003602e01902090620001e49082620004e6565b506040518060a00160405280607e81526020016200280d607e9139604080516c4465727269636b2048656e727960981b81526007600d820152905190819003602d01902090620002359082620004e6565b506040518060a00160405280607d81526020016200270f607d9139604080516b42726f636b20426f7765727360a01b81526007600c820152905190819003602c01902090620002859082620004e6565b506040518060a00160405280607c815260200162002596607c9139604080516a53616d204c61506f72746160a81b81526007600b820152905190819003602b01902090620002d49082620004e6565b506001620002e38482620004e6565b506002620002f28382620004e6565b5060035550620005b2915050565b634e487b7160e01b600052604160045260246000fd5b600082601f8301126200032857600080fd5b81516001600160401b038082111562000345576200034562000300565b604051601f8301601f19908116603f0116810190828211818310171562000370576200037062000300565b816040528381526020925086838588010111156200038d57600080fd5b600091505b83821015620003b1578582018301518183018401529082019062000392565b600093810190920192909252949350505050565b60008060008060808587031215620003dc57600080fd5b84516001600160a01b0381168114620003f457600080fd5b60208601519094506001600160401b03808211156200041257600080fd5b620004208883890162000316565b945060408701519150808211156200043757600080fd5b50620004468782880162000316565b606096909601519497939650505050565b600181811c908216806200046c57607f821691505b6020821081036200048d57634e487b7160e01b600052602260045260246000fd5b50919050565b601f821115620004e157600081815260208120601f850160051c81016020861015620004bc5750805b601f850160051c820191505b81811015620004dd57828155600101620004c8565b5050505b505050565b81516001600160401b0381111562000502576200050262000300565b6200051a8162000513845462000457565b8462000493565b602080601f831160018114620005525760008415620005395750858301515b600019600386901b1c1916600185901b178555620004dd565b600085815260208120601f198616915b82811015620005835788860151825594840194600190910190840162000562565b5085821015620005a25787850151600019600388901b60f8161c191681555b5050505050600190811b01905550565b611eda80620005c26000396000f3fe6080604052600436106101095760003560e01c8063a22cb46511610095578063d3a0019511610064578063d3a00195146102df578063d96a094a146102f2578063e985e9c514610312578063ea7c03c41461034d578063f71d96cb1461036d57600080fd5b8063a22cb4651461025f578063c87b56dd1461027f578063cdc645381461029f578063cf5c1b52146102bf57600080fd5b80631a4231a4116100dc5780631a4231a4146101bc57806323b872dd146101d25780636352211e146101f257806370a082311461022a57806395d89b411461024a57600080fd5b806301ffc9a71461010e57806306fdde0314610154578063095ea7b31461017657806318160ddd14610198575b600080fd5b34801561011a57600080fd5b5061013f6101293660046116d7565b6001600160e01b0319166380ac58cd60e01b1490565b60405190151581526020015b60405180910390f35b34801561016057600080fd5b506101696103a2565b60405161014b9190611758565b34801561018257600080fd5b50610196610191366004611782565b610430565b005b3480156101a457600080fd5b506101ae60055481565b60405190815260200161014b565b3480156101c857600080fd5b506101ae60035481565b3480156101de57600080fd5b506101966101ed3660046117ac565b610517565b3480156101fe57600080fd5b5061021261020d3660046117e8565b6106ca565b6040516001600160a01b03909116815260200161014b565b34801561023657600080fd5b506101ae610245366004611801565b61072a565b34801561025657600080fd5b50610169610795565b34801561026b57600080fd5b5061019661027a36600461182c565b6107a2565b34801561028b57600080fd5b5061016961029a3660046117e8565b61080e565b3480156102ab57600080fd5b50600054610212906001600160a01b031681565b3480156102cb57600080fd5b506101966102da36600461185f565b610cda565b6101966102ed366004611927565b610d60565b3480156102fe57600080fd5b5061019661030d3660046117e8565b610ec3565b34801561031e57600080fd5b5061013f61032d366004611a39565b600c60209081526000928352604080842090915290825290205460ff1681565b34801561035957600080fd5b50610169610368366004611a63565b611015565b34801561037957600080fd5b5061038d6103883660046117e8565b611039565b60405161014b99989796959493929190611a98565b600180546103af90611b27565b80601f01602080910402602001604051908101604052809291908181526020018280546103db90611b27565b80156104285780601f106103fd57610100808354040283529160200191610428565b820191906000526020600020905b81548152906001019060200180831161040b57829003601f168201915b505050505081565b6000818152600860205260409020546001600160a01b03163381148061047957506001600160a01b0381166000908152600c6020908152604080832033845290915290205460ff165b6104bb5760405162461bcd60e51b815260206004820152600e60248201526d1b9bdd08185d5d1a1bdc9a5e995960921b60448201526064015b60405180910390fd5b6000828152600b602052604080822080546001600160a01b0319166001600160a01b0387811691821790925591518593918516917f8c5be1e5ebec7d5bd14f71427d1e84f3dd0314c0f7b2291e5b200ac8c7c3b92591a4505050565b6000818152600860205260409020546001600160a01b038481169116146105705760405162461bcd60e51b815260206004820152600d60248201526c333937b690109e9037bbb732b960991b60448201526064016104b2565b6001600160a01b0382166105c15760405162461bcd60e51b81526020600482015260186024820152777472616e7366657220746f207a65726f206164647265737360401b60448201526064016104b2565b6105cc833383611330565b6106095760405162461bcd60e51b815260206004820152600e60248201526d1b9bdd08185d5d1a1bdc9a5e995960921b60448201526064016104b2565b6001600160a01b0383166000908152600a6020526040812080549161062d83611b77565b90915550506001600160a01b0382166000908152600a6020526040812080549161065683611b8e565b9091555050600081815260086020908152604080832080546001600160a01b038088166001600160a01b03199283168117909355600b909452828520805490911690559051849391928716917fddf252ad1be2c89b69c2b068fc378daa952ba7f163c4a11628f55a4df523b3ef91a4505050565b6000818152600860205260409020546001600160a01b0316806107255760405162461bcd60e51b81526020600482015260136024820152721d1bdad95b88191bd95cdb89dd08195e1a5cdd606a1b60448201526064016104b2565b919050565b60006001600160a01b0382166107795760405162461bcd60e51b81526020600482015260146024820152736f776e6572203d207a65726f206164647265737360601b60448201526064016104b2565b506001600160a01b03166000908152600a602052604090205490565b600280546103af90611b27565b336000818152600c602090815260408083206001600160a01b03871680855290835292819020805460ff191686151590811790915590519081529192917f17307eab39ab6107e8899845ad3d59bd9653f200f220920489ca2b5937696c31910160405180910390a35050565b6000818152600860205260409020546060906001600160a01b031661086c5760405162461bcd60e51b8152602060048201526014602482015273151bdad95b88191bd95cc81b9bdd08195e1a5cdd60621b60448201526064016104b2565b6000828152600660205260408082208151610120810190925280548290829061089490611b27565b80601f01602080910402602001604051908101604052809291908181526020018280546108c090611b27565b801561090d5780601f106108e25761010080835404028352916020019161090d565b820191906000526020600020905b8154815290600101906020018083116108f057829003601f168201915b5050505050815260200160018201805461092690611b27565b80601f016020809104026020016040519081016040528092919081815260200182805461095290611b27565b801561099f5780601f106109745761010080835404028352916020019161099f565b820191906000526020600020905b81548152906001019060200180831161098257829003601f168201915b505050505081526020016002820180546109b890611b27565b80601f01602080910402602001604051908101604052809291908181526020018280546109e490611b27565b8015610a315780601f10610a0657610100808354040283529160200191610a31565b820191906000526020600020905b815481529060010190602001808311610a1457829003601f168201915b50505091835250506003820154602082015260048201546040820152600582015460ff16151560608201526006820154608082015260078201805460a090920191610a7b90611b27565b80601f0160208091040260200160405190810160405280929190818152602001828054610aa790611b27565b8015610af45780601f10610ac957610100808354040283529160200191610af4565b820191906000526020600020905b815481529060010190602001808311610ad757829003601f168201915b50505050508152602001600882018054610b0d90611b27565b80601f0160208091040260200160405190810160405280929190818152602001828054610b3990611b27565b8015610b865780601f10610b5b57610100808354040283529160200191610b86565b820191906000526020600020905b815481529060010190602001808311610b6957829003601f168201915b5050505050815250509050600060078260000151604051610ba79190611ba7565b90815260200160405180910390208054610bc090611b27565b80601f0160208091040260200160405190810160405280929190818152602001828054610bec90611b27565b8015610c395780601f10610c0e57610100808354040283529160200191610c39565b820191906000526020600020905b815481529060010190602001808311610c1c57829003601f168201915b5050505050905060008261010001518360000151604051602001610c5e929190611bc3565b604051602081830303815290604052905060008360e0015190506000828285604051602001610c8f93929190611bff565b60405160208183030381529060405290506000610cab826113a3565b905080604051602001610cbe9190611cbe565b6040516020818303038152906040529650505050505050919050565b6000838152600860205260409020546001600160a01b03163314610d365760405162461bcd60e51b81526020600482015260136024820152722737ba103a3432903a37b5b2b71037bbb732b960691b60448201526064016104b2565b600092835260066020819052604090932060058101805460ff191693151593909317909255910155565b6004805460009182610d7183611b8e565b919050559050610d818b82611508565b600160056000828254610d949190611d03565b909155505060408051610120810182528b815260208082018c90528183018b9052606082018a90526080820189905287151560a083015260c0820187905260e082018690526101008201859052600084815260069091529190912081518190610dfd9082611d6b565b5060208201516001820190610e129082611d6b565b5060408201516002820190610e279082611d6b565b50606082015160038201556080820151600482015560a082015160058201805460ff191691151591909117905560c0820151600682015560e08201516007820190610e729082611d6b565b506101008201516008820190610e889082611d6b565b5050506001600160a01b03909a1660009081526009602090815260408220805460018101825590835291200199909955505050505050505050565b6000818152600860205260409020546001600160a01b0316610f1e5760405162461bcd60e51b8152602060048201526014602482015273151bdad95b88191bd95cc81b9bdd08195e1a5cdd60621b60448201526064016104b2565b600081815260086020526040902054336001600160a01b0390911603610f865760405162461bcd60e51b815260206004820152601860248201527f596f7520616c7265616479206f776e2074686973204e4654000000000000000060448201526064016104b2565b6000818152600660205260409020600581015460ff16610fdb5760405162461bcd60e51b815260206004820152601060248201526f4e4654206e6f7420666f722073616c6560801b60448201526064016104b2565b60058101805460ff1916905560006006820181905582815260086020526040902054611011906001600160a01b0316338461162d565b5050565b8051602081830181018051600782529282019190930120915280546103af90611b27565b60066020526000908152604090208054819061105490611b27565b80601f016020809104026020016040519081016040528092919081815260200182805461108090611b27565b80156110cd5780601f106110a2576101008083540402835291602001916110cd565b820191906000526020600020905b8154815290600101906020018083116110b057829003601f168201915b5050505050908060010180546110e290611b27565b80601f016020809104026020016040519081016040528092919081815260200182805461110e90611b27565b801561115b5780601f106111305761010080835404028352916020019161115b565b820191906000526020600020905b81548152906001019060200180831161113e57829003601f168201915b50505050509080600201805461117090611b27565b80601f016020809104026020016040519081016040528092919081815260200182805461119c90611b27565b80156111e95780601f106111be576101008083540402835291602001916111e9565b820191906000526020600020905b8154815290600101906020018083116111cc57829003601f168201915b50505060038401546004850154600586015460068701546007880180549798949793965060ff9092169450929161121f90611b27565b80601f016020809104026020016040519081016040528092919081815260200182805461124b90611b27565b80156112985780601f1061126d57610100808354040283529160200191611298565b820191906000526020600020905b81548152906001019060200180831161127b57829003601f168201915b5050505050908060080180546112ad90611b27565b80601f01602080910402602001604051908101604052809291908181526020018280546112d990611b27565b80156113265780601f106112fb57610100808354040283529160200191611326565b820191906000526020600020905b81548152906001019060200180831161130957829003601f168201915b5050505050905089565b6000836001600160a01b0316836001600160a01b0316148061137757506001600160a01b038085166000908152600c602090815260408083209387168352929052205460ff165b8061139b57506000828152600b60205260409020546001600160a01b038481169116145b949350505050565b606081516000036113c257505060408051602081019091526000815290565b6000604051806060016040528060408152602001611e6560409139905060006003845160026113f19190611d03565b6113fb9190611e2b565b611406906004611e4d565b90506000611415826020611d03565b67ffffffffffffffff81111561142d5761142d611884565b6040519080825280601f01601f191660200182016040528015611457576020820181803683370190505b509050818152600183018586518101602084015b818310156114c3576003830192508251603f8160121c168501518253600182019150603f81600c1c168501518253600182019150603f8160061c168501518253600182019150603f811685015182535060010161146b565b6003895106600181146114dd57600281146114ee576114fa565b613d3d60f01b6001198301526114fa565b603d60f81b6000198301525b509398975050505050505050565b6001600160a01b0382166115555760405162461bcd60e51b81526020600482015260146024820152736d696e7420746f207a65726f206164647265737360601b60448201526064016104b2565b6000818152600860205260409020546001600160a01b0316156115ab5760405162461bcd60e51b815260206004820152600e60248201526d185b1c9958591e481b5a5b9d195960921b60448201526064016104b2565b6001600160a01b0382166000908152600a602052604081208054916115cf83611b8e565b909155505060008181526008602052604080822080546001600160a01b0319166001600160a01b03861690811790915590518392907fddf252ad1be2c89b69c2b068fc378daa952ba7f163c4a11628f55a4df523b3ef908290a45050565b6000818152600860205260409020546001600160a01b038481169116146116865760405162461bcd60e51b815260206004820152600d60248201526c333937b690109e9037bbb732b960991b60448201526064016104b2565b6001600160a01b0382166106095760405162461bcd60e51b81526020600482015260186024820152777472616e7366657220746f207a65726f206164647265737360401b60448201526064016104b2565b6000602082840312156116e957600080fd5b81356001600160e01b03198116811461170157600080fd5b9392505050565b60005b8381101561172357818101518382015260200161170b565b50506000910152565b60008151808452611744816020860160208601611708565b601f01601f19169290920160200192915050565b602081526000611701602083018461172c565b80356001600160a01b038116811461072557600080fd5b6000806040838503121561179557600080fd5b61179e8361176b565b946020939093013593505050565b6000806000606084860312156117c157600080fd5b6117ca8461176b565b92506117d86020850161176b565b9150604084013590509250925092565b6000602082840312156117fa57600080fd5b5035919050565b60006020828403121561181357600080fd5b6117018261176b565b8035801515811461072557600080fd5b6000806040838503121561183f57600080fd5b6118488361176b565b91506118566020840161181c565b90509250929050565b60008060006060848603121561187457600080fd5b833592506117d86020850161181c565b634e487b7160e01b600052604160045260246000fd5b600082601f8301126118ab57600080fd5b813567ffffffffffffffff808211156118c6576118c6611884565b604051601f8301601f19908116603f011681019082821181831017156118ee576118ee611884565b8160405283815286602085880101111561190757600080fd5b836020870160208301376000602085830101528094505050505092915050565b6000806000806000806000806000806101408b8d03121561194757600080fd5b6119508b61176b565b995060208b013567ffffffffffffffff8082111561196d57600080fd5b6119798e838f0161189a565b9a5060408d013591508082111561198f57600080fd5b61199b8e838f0161189a565b995060608d01359150808211156119b157600080fd5b6119bd8e838f0161189a565b985060808d0135975060a08d013596506119d960c08e0161181c565b955060e08d013594506101008d01359150808211156119f757600080fd5b611a038e838f0161189a565b93506101208d0135915080821115611a1a57600080fd5b50611a278d828e0161189a565b9150509295989b9194979a5092959850565b60008060408385031215611a4c57600080fd5b611a558361176b565b91506118566020840161176b565b600060208284031215611a7557600080fd5b813567ffffffffffffffff811115611a8c57600080fd5b61139b8482850161189a565b6000610120808352611aac8184018d61172c565b90508281036020840152611ac0818c61172c565b90508281036040840152611ad4818b61172c565b905088606084015287608084015286151560a08401528560c084015282810360e0840152611b02818661172c565b9050828103610100840152611b17818561172c565b9c9b505050505050505050505050565b600181811c90821680611b3b57607f821691505b602082108103611b5b57634e487b7160e01b600052602260045260246000fd5b50919050565b634e487b7160e01b600052601160045260246000fd5b600081611b8657611b86611b61565b506000190190565b600060018201611ba057611ba0611b61565b5060010190565b60008251611bb9818460208701611708565b9190910192915050565b60008351611bd5818460208801611708565b600160fd1b9083019081528351611bf3816001840160208801611708565b01600101949350505050565b607b60f81b815268113730b6b2911d101160b91b60018201528351600090611c2e81600a850160208901611708565b61088b60f21b600a9184019182018190526f113232b9b1b934b83a34b7b7111d101160811b600c8301528551611c6b81601c850160208a01611708565b601c920191820152691134b6b0b3b2911d101160b11b601e8201528351611c99816028840160208801611708565b601160f91b60289290910191820152607d60f81b6029820152602a0195945050505050565b7f646174613a6170706c69636174696f6e2f6a736f6e3b6261736536342c000000815260008251611cf681601d850160208701611708565b91909101601d0192915050565b80820180821115611d1657611d16611b61565b92915050565b601f821115611d6657600081815260208120601f850160051c81016020861015611d435750805b601f850160051c820191505b81811015611d6257828155600101611d4f565b5050505b505050565b815167ffffffffffffffff811115611d8557611d85611884565b611d9981611d938454611b27565b84611d1c565b602080601f831160018114611dce5760008415611db65750858301515b600019600386901b1c1916600185901b178555611d62565b600085815260208120601f198616915b82811015611dfd57888601518255948401946001909101908401611dde565b5085821015611e1b5787850151600019600388901b60f8161c191681555b5050505050600190811b01905550565b600082611e4857634e487b7160e01b600052601260045260246000fd5b500490565b8082028115828204841417611d1657611d16611b6156fe4142434445464748494a4b4c4d4e4f505152535455565758595a6162636465666768696a6b6c6d6e6f707172737475767778797a303132333435363738392b2fa2646970667358221220ac8de88a83301f50cce92aa2b5881bddc64ebe3190d46a4aaf6846b83456756364736f6c6343000814003368747470733a2f2f77686974652d717569636b2d6775616e2d3331342e6d7970696e6174612e636c6f75642f697066732f6261667962656964326964747a6d6874356e65777072633777683368693537633466756c68376c75637837657070367a70726e61376e70636766652f73617175616e2d6261726b6c65792e6a706768747470733a2f2f77686974652d717569636b2d6775616e2d3331342e6d7970696e6174612e636c6f75642f697066732f6261667962656964326964747a6d6874356e65777072633777683368693537633466756c68376c75637837657070367a70726e61376e70636766652f6a6f73682d616c6c656e2e6a706768747470733a2f2f77686974652d717569636b2d6775616e2d3331342e6d7970696e6174612e636c6f75642f697066732f6261667962656964326964747a6d6874356e65777072633777683368693537633466756c68376c75637837657070367a70726e61376e70636766652f73616d2d6c61706f7274612e6a706768747470733a2f2f77686974652d717569636b2d6775616e2d3331342e6d7970696e6174612e636c6f75642f697066732f6261667962656964326964747a6d6874356e65777072633777683368693537633466756c68376c75637837657070367a70726e61376e70636766652f6d616c696b2d6e61626572732e6a706768747470733a2f2f77686974652d717569636b2d6775616e2d3331342e6d7970696e6174612e636c6f75642f697066732f6261667962656964326964747a6d6874356e65777072633777683368693537633466756c68376c75637837657070367a70726e61376e70636766652f7061747269636b2d6d61686f6d65732e6a706768747470733a2f2f77686974652d717569636b2d6775616e2d3331342e6d7970696e6174612e636c6f75642f697066732f6261667962656964326964747a6d6874356e65777072633777683368693537633466756c68376c75637837657070367a70726e61376e70636766652f62726f636b2d626f776572732e6a706768747470733a2f2f77686974652d717569636b2d6775616e2d3331342e6d7970696e6174612e636c6f75642f697066732f6261667962656964326964747a6d6874356e65777072633777683368693537633466756c68376c75637837657070367a70726e61376e70636766652f6a757374696e2d6a6566666572736f6e2e6a706768747470733a2f2f77686974652d717569636b2d6775616e2d3331342e6d7970696e6174612e636c6f75642f697066732f6261667962656964326964747a6d6874356e65777072633777683368693537633466756c68376c75637837657070367a70726e61376e70636766652f6465727269636b2d68656e72792e6a7067",
  "linkReferences": {},
  "deployedLinkReferences": {}
}