{
  "_format": "hh-sol-artifact-1",
  "contractName": "FantasyFootball",
  "sourceName": "contracts/fantasyFootball.sol",
  "abi": [
    {
      "inputs": [
        {
          "internalType": "address",
          "name": "_yodaTokenAddress",
          "type": "address"
        },
        {
          "internalType": "string",
          "name": "_name",
          "type": "string"
        },
        {
          "internalType": "string",
          "name": "_symbol",
          "type": "string"
        },
        {
          "internalType": "uint256",
          "name": "MINT_PRICE",
          "type": "uint256"
        },
        {
          "internalType": "uint256",
          "name": "MAX_SUPPLY",
          "type": "uint256"
        }
      ],
      "stateMutability": "nonpayable",
      "type": "constructor"
    },
    {
      "anonymous": false,
      "inputs": [
        {
          "indexed": true,
          "internalType": "address",
          "name": "owner",
          "type": "address"
        },
        {
          "indexed": true,
          "internalType": "address",
          "name": "spender",
          "type": "address"
        },
        {
          "indexed": true,
          "internalType": "uint256",
          "name": "id",
          "type": "uint256"
        }
      ],
      "name": "Approval",
      "type": "event"
    },
    {
      "anonymous": false,
      "inputs": [
        {
          "indexed": true,
          "internalType": "address",
          "name": "owner",
          "type": "address"
        },
        {
          "indexed": true,
          "internalType": "address",
          "name": "operator",
          "type": "address"
        },
        {
          "indexed": false,
          "internalType": "bool",
          "name": "approved",
          "type": "bool"
        }
      ],
      "name": "ApprovalForAll",
      "type": "event"
    },
    {
      "anonymous": false,
      "inputs": [
        {
          "indexed": true,
          "internalType": "address",
          "name": "from",
          "type": "address"
        },
        {
          "indexed": true,
          "internalType": "address",
          "name": "to",
          "type": "address"
        },
        {
          "indexed": true,
          "internalType": "uint256",
          "name": "id",
          "type": "uint256"
        }
      ],
      "name": "Transfer",
      "type": "event"
    },
    {
      "inputs": [
        {
          "internalType": "address",
          "name": "spender",
          "type": "address"
        },
        {
          "internalType": "uint256",
          "name": "id",
          "type": "uint256"
        }
      ],
      "name": "approve",
      "outputs": [],
      "stateMutability": "nonpayable",
      "type": "function"
    },
    {
      "inputs": [
        {
          "internalType": "address",
          "name": "owner",
          "type": "address"
        }
      ],
      "name": "balanceOf",
      "outputs": [
        {
          "internalType": "uint256",
          "name": "",
          "type": "uint256"
        }
      ],
      "stateMutability": "view",
      "type": "function"
    },
    {
      "inputs": [
        {
          "internalType": "uint256",
          "name": "tokenId",
          "type": "uint256"
        }
      ],
      "name": "buy",
      "outputs": [],
      "stateMutability": "nonpayable",
      "type": "function"
    },
    {
      "inputs": [
        {
          "internalType": "address",
          "name": "",
          "type": "address"
        },
        {
          "internalType": "address",
          "name": "",
          "type": "address"
        }
      ],
      "name": "isApprovedForAll",
      "outputs": [
        {
          "internalType": "bool",
          "name": "",
          "type": "bool"
        }
      ],
      "stateMutability": "view",
      "type": "function"
    },
    {
      "inputs": [],
      "name": "max_supply",
      "outputs": [
        {
          "internalType": "uint256",
          "name": "",
          "type": "uint256"
        }
      ],
      "stateMutability": "view",
      "type": "function"
    },
    {
      "inputs": [
        {
          "internalType": "address",
          "name": "to",
          "type": "address"
        },
        {
          "internalType": "string",
          "name": "_name",
          "type": "string"
        },
        {
          "internalType": "string",
          "name": "_position",
          "type": "string"
        },
        {
          "internalType": "string",
          "name": "_team",
          "type": "string"
        },
        {
          "internalType": "uint256",
          "name": "_fantasyPoints",
          "type": "uint256"
        },
        {
          "internalType": "uint256",
          "name": "_mintPrice",
          "type": "uint256"
        }
      ],
      "name": "mint",
      "outputs": [],
      "stateMutability": "payable",
      "type": "function"
    },
    {
      "inputs": [],
      "name": "mint_price",
      "outputs": [
        {
          "internalType": "uint256",
          "name": "",
          "type": "uint256"
        }
      ],
      "stateMutability": "view",
      "type": "function"
    },
    {
      "inputs": [],
      "name": "name",
      "outputs": [
        {
          "internalType": "string",
          "name": "",
          "type": "string"
        }
      ],
      "stateMutability": "view",
      "type": "function"
    },
    {
      "inputs": [
        {
          "internalType": "uint256",
          "name": "id",
          "type": "uint256"
        }
      ],
      "name": "ownerOf",
      "outputs": [
        {
          "internalType": "address",
          "name": "owner",
          "type": "address"
        }
      ],
      "stateMutability": "view",
      "type": "function"
    },
    {
      "inputs": [
        {
          "internalType": "string",
          "name": "",
          "type": "string"
        }
      ],
      "name": "playerImageMap",
      "outputs": [
        {
          "internalType": "string",
          "name": "",
          "type": "string"
        }
      ],
      "stateMutability": "view",
      "type": "function"
    },
    {
      "inputs": [
        {
          "internalType": "uint256",
          "name": "",
          "type": "uint256"
        }
      ],
      "name": "players",
      "outputs": [
        {
          "internalType": "string",
          "name": "name",
          "type": "string"
        },
        {
          "internalType": "string",
          "name": "position",
          "type": "string"
        },
        {
          "internalType": "string",
          "name": "team",
          "type": "string"
        },
        {
          "internalType": "uint256",
          "name": "fantasyPoints",
          "type": "uint256"
        },
        {
          "internalType": "uint256",
          "name": "mintPrice",
          "type": "uint256"
        }
      ],
      "stateMutability": "view",
      "type": "function"
    },
    {
      "inputs": [
        {
          "internalType": "address",
          "name": "operator",
          "type": "address"
        },
        {
          "internalType": "bool",
          "name": "approved",
          "type": "bool"
        }
      ],
      "name": "setApprovalForAll",
      "outputs": [],
      "stateMutability": "nonpayable",
      "type": "function"
    },
    {
      "inputs": [],
      "name": "symbol",
      "outputs": [
        {
          "internalType": "string",
          "name": "",
          "type": "string"
        }
      ],
      "stateMutability": "view",
      "type": "function"
    },
    {
      "inputs": [
        {
          "internalType": "uint256",
          "name": "tokenId",
          "type": "uint256"
        }
      ],
      "name": "tokenURI",
      "outputs": [
        {
          "internalType": "string",
          "name": "",
          "type": "string"
        }
      ],
      "stateMutability": "view",
      "type": "function"
    },
    {
      "inputs": [
        {
          "internalType": "address",
          "name": "from",
          "type": "address"
        },
        {
          "internalType": "address",
          "name": "to",
          "type": "address"
        },
        {
          "internalType": "uint256",
          "name": "id",
          "type": "uint256"
        }
      ],
      "name": "transferFrom",
      "outputs": [],
      "stateMutability": "nonpayable",
      "type": "function"
    },
    {
      "inputs": [
        {
          "internalType": "uint256",
          "name": "tokenId",
          "type": "uint256"
        },
        {
          "internalType": "uint256",
          "name": "newPoints",
          "type": "uint256"
        }
      ],
      "name": "updateFantasyPoints",
      "outputs": [],
      "stateMutability": "nonpayable",
      "type": "function"
    },
    {
      "inputs": [
        {
          "internalType": "uint256",
          "name": "tokenId",
          "type": "uint256"
        },
        {
          "internalType": "string",
          "name": "newTeam",
          "type": "string"
        }
      ],
      "name": "updateTeam",
      "outputs": [],
      "stateMutability": "nonpayable",
      "type": "function"
    },
    {
      "inputs": [],
      "name": "yodaToken",
      "outputs": [
        {
          "internalType": "contract IERC20",
          "name": "",
          "type": "address"
        }
      ],
      "stateMutability": "view",
      "type": "function"
    }
  ],
  "bytecode": "0x60806040523480156200001157600080fd5b506040516200472c3803806200472c83398181016040528101906200003791906200051f565b846000806101000a81548173ffffffffffffffffffffffffffffffffffffffff021916908373ffffffffffffffffffffffffffffffffffffffff1602179055506040518060a00160405280607b8152602001620043bc607b91396007604051620000a19062000640565b90815260200160405180910390209081620000bd919062000898565b506040518060a001604052806080815260200162004530608091396007604051620000e890620009cf565b9081526020016040518091039020908162000104919062000898565b506040518060c00160405280608181526020016200462d6081913960076040516200012f9062000a36565b908152602001604051809103902090816200014b919062000898565b506040518060a00160405280607d8152602001620044b3607d91396007604051620001769062000a9d565b9081526020016040518091039020908162000192919062000898565b506040518060a00160405280607f81526020016200433d607f91396007604051620001bd9062000b04565b90815260200160405180910390209081620001d9919062000898565b506040518060a00160405280607e8152602001620046ae607e91396007604051620002049062000b6b565b9081526020016040518091039020908162000220919062000898565b506040518060a00160405280607d8152602001620045b0607d913960076040516200024b9062000bd2565b9081526020016040518091039020908162000267919062000898565b506040518060a00160405280607c815260200162004437607c91396007604051620002929062000c39565b90815260200160405180910390209081620002ae919062000898565b508360019081620002c0919062000898565b508260029081620002d2919062000898565b508160038190555080600481905550505050505062000c50565b6000604051905090565b600080fd5b600080fd5b600073ffffffffffffffffffffffffffffffffffffffff82169050919050565b60006200032d8262000300565b9050919050565b6200033f8162000320565b81146200034b57600080fd5b50565b6000815190506200035f8162000334565b92915050565b600080fd5b600080fd5b6000601f19601f8301169050919050565b7f4e487b7100000000000000000000000000000000000000000000000000000000600052604160045260246000fd5b620003ba826200036f565b810181811067ffffffffffffffff82111715620003dc57620003db62000380565b5b80604052505050565b6000620003f1620002ec565b9050620003ff8282620003af565b919050565b600067ffffffffffffffff82111562000422576200042162000380565b5b6200042d826200036f565b9050602081019050919050565b60005b838110156200045a5780820151818401526020810190506200043d565b60008484015250505050565b60006200047d620004778462000404565b620003e5565b9050828152602081018484840111156200049c576200049b6200036a565b5b620004a98482856200043a565b509392505050565b600082601f830112620004c957620004c862000365565b5b8151620004db84826020860162000466565b91505092915050565b6000819050919050565b620004f981620004e4565b81146200050557600080fd5b50565b6000815190506200051981620004ee565b92915050565b600080600080600060a086880312156200053e576200053d620002f6565b5b60006200054e888289016200034e565b955050602086015167ffffffffffffffff811115620005725762000571620002fb565b5b6200058088828901620004b1565b945050604086015167ffffffffffffffff811115620005a457620005a3620002fb565b5b620005b288828901620004b1565b9350506060620005c58882890162000508565b9250506080620005d88882890162000508565b9150509295509295909350565b600081905092915050565b7f4a6f736820416c6c656e00000000000000000000000000000000000000000000600082015250565b600062000628600a83620005e5565b91506200063582620005f0565b600a82019050919050565b60006200064d8262000619565b9150819050919050565b600081519050919050565b7f4e487b7100000000000000000000000000000000000000000000000000000000600052602260045260246000fd5b60006002820490506001821680620006aa57607f821691505b602082108103620006c057620006bf62000662565b5b50919050565b60008190508160005260206000209050919050565b60006020601f8301049050919050565b600082821b905092915050565b6000600883026200072a7fffffffffffffffffffffffffffffffffffffffffffffffffffffffffffffffff82620006eb565b620007368683620006eb565b95508019841693508086168417925050509392505050565b6000819050919050565b600062000779620007736200076d84620004e4565b6200074e565b620004e4565b9050919050565b6000819050919050565b620007958362000758565b620007ad620007a48262000780565b848454620006f8565b825550505050565b600090565b620007c4620007b5565b620007d18184846200078a565b505050565b5b81811015620007f957620007ed600082620007ba565b600181019050620007d7565b5050565b601f82111562000848576200081281620006c6565b6200081d84620006db565b810160208510156200082d578190505b620008456200083c85620006db565b830182620007d6565b50505b505050565b600082821c905092915050565b60006200086d600019846008026200084d565b1980831691505092915050565b60006200088883836200085a565b9150826002028217905092915050565b620008a38262000657565b67ffffffffffffffff811115620008bf57620008be62000380565b5b620008cb825462000691565b620008d8828285620007fd565b600060209050601f831160018114620009105760008415620008fb578287015190505b6200090785826200087a565b86555062000977565b601f1984166200092086620006c6565b60005b828110156200094a5784890151825560018201915060208501945060208101905062000923565b868310156200096a578489015162000966601f8916826200085a565b8355505b6001600288020188555050505b505050505050565b7f5061747269636b204d61686f6d65730000000000000000000000000000000000600082015250565b6000620009b7600f83620005e5565b9150620009c4826200097f565b600f82019050919050565b6000620009dc82620009a8565b9150819050919050565b7f4a757374696e204a6566666572736f6e00000000000000000000000000000000600082015250565b600062000a1e601083620005e5565b915062000a2b82620009e6565b601082019050919050565b600062000a438262000a0f565b9150819050919050565b7f4d616c696b204e61626572730000000000000000000000000000000000000000600082015250565b600062000a85600c83620005e5565b915062000a928262000a4d565b600c82019050919050565b600062000aaa8262000a76565b9150819050919050565b7f53617175616e204261726b6c6579000000000000000000000000000000000000600082015250565b600062000aec600e83620005e5565b915062000af98262000ab4565b600e82019050919050565b600062000b118262000add565b9150819050919050565b7f4465727269636b2048656e727900000000000000000000000000000000000000600082015250565b600062000b53600d83620005e5565b915062000b608262000b1b565b600d82019050919050565b600062000b788262000b44565b9150819050919050565b7f42726f636b20426f776572730000000000000000000000000000000000000000600082015250565b600062000bba600c83620005e5565b915062000bc78262000b82565b600c82019050919050565b600062000bdf8262000bab565b9150819050919050565b7f53616d204c61506f727461000000000000000000000000000000000000000000600082015250565b600062000c21600b83620005e5565b915062000c2e8262000be9565b600b82019050919050565b600062000c468262000c12565b9150819050919050565b6136dd8062000c606000396000f3fe6080604052600436106101095760003560e01c806395d89b4111610095578063cdc6453811610064578063cdc645381461035a578063d96a094a14610385578063e985e9c5146103ae578063ea7c03c4146103eb578063f71d96cb1461042857610109565b806395d89b41146102ad578063a22cb465146102d8578063c74e07ac14610301578063c87b56dd1461031d57610109565b806323b872dd116100dc57806323b872dd146101b65780636352211e146101df57806370a082311461021c5780638a333b5014610259578063920d9f2f1461028457610109565b806306fdde031461010e578063095ea7b3146101395780631a4231a41461016257806320cb51091461018d575b600080fd5b34801561011a57600080fd5b50610123610469565b60405161013091906120b9565b60405180910390f35b34801561014557600080fd5b50610160600480360381019061015b9190612183565b6104f7565b005b34801561016e57600080fd5b506101776106e0565b60405161018491906121d2565b60405180910390f35b34801561019957600080fd5b506101b460048036038101906101af9190612322565b6106e6565b005b3480156101c257600080fd5b506101dd60048036038101906101d8919061237e565b61070e565b005b3480156101eb57600080fd5b50610206600480360381019061020191906123d1565b6109fa565b604051610213919061240d565b60405180910390f35b34801561022857600080fd5b50610243600480360381019061023e9190612428565b610aa6565b60405161025091906121d2565b60405180910390f35b34801561026557600080fd5b5061026e610b5d565b60405161027b91906121d2565b60405180910390f35b34801561029057600080fd5b506102ab60048036038101906102a69190612455565b610b63565b005b3480156102b957600080fd5b506102c2610b82565b6040516102cf91906120b9565b60405180910390f35b3480156102e457600080fd5b506102ff60048036038101906102fa91906124cd565b610c10565b005b61031b6004803603810190610316919061250d565b610d0d565b005b34801561032957600080fd5b50610344600480360381019061033f91906123d1565b610e7a565b60405161035191906120b9565b60405180910390f35b34801561036657600080fd5b5061036f611247565b60405161037c919061264d565b60405180910390f35b34801561039157600080fd5b506103ac60048036038101906103a791906123d1565b61126b565b005b3480156103ba57600080fd5b506103d560048036038101906103d09190612668565b6113ef565b6040516103e291906126b7565b60405180910390f35b3480156103f757600080fd5b50610412600480360381019061040d91906126d2565b61141e565b60405161041f91906120b9565b60405180910390f35b34801561043457600080fd5b5061044f600480360381019061044a91906123d1565b6114d4565b60405161046095949392919061271b565b60405180910390f35b60018054610476906127b2565b80601f01602080910402602001604051908101604052809291908181526020018280546104a2906127b2565b80156104ef5780601f106104c4576101008083540402835291602001916104ef565b820191906000526020600020905b8154815290600101906020018083116104d257829003601f168201915b505050505081565b60006008600083815260200190815260200160002060009054906101000a900473ffffffffffffffffffffffffffffffffffffffff1690508073ffffffffffffffffffffffffffffffffffffffff163373ffffffffffffffffffffffffffffffffffffffff1614806105ef5750600c60008273ffffffffffffffffffffffffffffffffffffffff1673ffffffffffffffffffffffffffffffffffffffff16815260200190815260200160002060003373ffffffffffffffffffffffffffffffffffffffff1673ffffffffffffffffffffffffffffffffffffffff16815260200190815260200160002060009054906101000a900460ff165b61062e576040517f08c379a00000000000000000000000000000000000000000000000000000000081526004016106259061282f565b60405180910390fd5b82600b600084815260200190815260200160002060006101000a81548173ffffffffffffffffffffffffffffffffffffffff021916908373ffffffffffffffffffffffffffffffffffffffff160217905550818373ffffffffffffffffffffffffffffffffffffffff168273ffffffffffffffffffffffffffffffffffffffff167f8c5be1e5ebec7d5bd14f71427d1e84f3dd0314c0f7b2291e5b200ac8c7c3b92560405160405180910390a4505050565b60035481565b8060066000848152602001908152602001600020600201908161070991906129f1565b505050565b6008600082815260200190815260200160002060009054906101000a900473ffffffffffffffffffffffffffffffffffffffff1673ffffffffffffffffffffffffffffffffffffffff168373ffffffffffffffffffffffffffffffffffffffff16146107af576040517f08c379a00000000000000000000000000000000000000000000000000000000081526004016107a690612b0f565b60405180910390fd5b600073ffffffffffffffffffffffffffffffffffffffff168273ffffffffffffffffffffffffffffffffffffffff160361081e576040517f08c379a000000000000000000000000000000000000000000000000000000000815260040161081590612b7b565b60405180910390fd5b6108298333836116a2565b610868576040517f08c379a000000000000000000000000000000000000000000000000000000000815260040161085f9061282f565b60405180910390fd5b600a60008473ffffffffffffffffffffffffffffffffffffffff1673ffffffffffffffffffffffffffffffffffffffff16815260200190815260200160002060008154809291906108b890612bca565b9190505550600a60008373ffffffffffffffffffffffffffffffffffffffff1673ffffffffffffffffffffffffffffffffffffffff168152602001908152602001600020600081548092919061090d90612bf3565b9190505550816008600083815260200190815260200160002060006101000a81548173ffffffffffffffffffffffffffffffffffffffff021916908373ffffffffffffffffffffffffffffffffffffffff160217905550600b600082815260200190815260200160002060006101000a81549073ffffffffffffffffffffffffffffffffffffffff0219169055808273ffffffffffffffffffffffffffffffffffffffff168473ffffffffffffffffffffffffffffffffffffffff167fddf252ad1be2c89b69c2b068fc378daa952ba7f163c4a11628f55a4df523b3ef60405160405180910390a4505050565b60006008600083815260200190815260200160002060009054906101000a900473ffffffffffffffffffffffffffffffffffffffff169050600073ffffffffffffffffffffffffffffffffffffffff168173ffffffffffffffffffffffffffffffffffffffff1603610aa1576040517f08c379a0000000000000000000000000000000000000000000000000000000008152600401610a9890612c87565b60405180910390fd5b919050565b60008073ffffffffffffffffffffffffffffffffffffffff168273ffffffffffffffffffffffffffffffffffffffff1603610b16576040517f08c379a0000000000000000000000000000000000000000000000000000000008152600401610b0d90612cf3565b60405180910390fd5b600a60008373ffffffffffffffffffffffffffffffffffffffff1673ffffffffffffffffffffffffffffffffffffffff168152602001908152602001600020549050919050565b60045481565b8060066000848152602001908152602001600020600301819055505050565b60028054610b8f906127b2565b80601f0160208091040260200160405190810160405280929190818152602001828054610bbb906127b2565b8015610c085780601f10610bdd57610100808354040283529160200191610c08565b820191906000526020600020905b815481529060010190602001808311610beb57829003601f168201915b505050505081565b80600c60003373ffffffffffffffffffffffffffffffffffffffff1673ffffffffffffffffffffffffffffffffffffffff16815260200190815260200160002060008473ffffffffffffffffffffffffffffffffffffffff1673ffffffffffffffffffffffffffffffffffffffff16815260200190815260200160002060006101000a81548160ff0219169083151502179055508173ffffffffffffffffffffffffffffffffffffffff163373ffffffffffffffffffffffffffffffffffffffff167f17307eab39ab6107e8899845ad3d59bd9653f200f220920489ca2b5937696c3183604051610d0191906126b7565b60405180910390a35050565b60045460055410610d53576040517f08c379a0000000000000000000000000000000000000000000000000000000008152600401610d4a90612d5f565b60405180910390fd5b600060056000815480929190610d6890612bf3565b919050559050610d7887826117d6565b6040518060a0016040528087815260200186815260200185815260200184815260200183815250600660008381526020019081526020016000206000820151816000019081610dc791906129f1565b506020820151816001019081610ddd91906129f1565b506040820151816002019081610df391906129f1565b506060820151816003015560808201518160040155905050600960008873ffffffffffffffffffffffffffffffffffffffff1673ffffffffffffffffffffffffffffffffffffffff16815260200190815260200160002081908060018154018082558091505060019003906000526020600020016000909190919091505550505050505050565b6060600073ffffffffffffffffffffffffffffffffffffffff166008600084815260200190815260200160002060009054906101000a900473ffffffffffffffffffffffffffffffffffffffff1673ffffffffffffffffffffffffffffffffffffffff1603610f1e576040517f08c379a0000000000000000000000000000000000000000000000000000000008152600401610f1590612dcb565b60405180910390fd5b6000600660008481526020019081526020016000206040518060a0016040529081600082018054610f4e906127b2565b80601f0160208091040260200160405190810160405280929190818152602001828054610f7a906127b2565b8015610fc75780601f10610f9c57610100808354040283529160200191610fc7565b820191906000526020600020905b815481529060010190602001808311610faa57829003601f168201915b50505050508152602001600182018054610fe0906127b2565b80601f016020809104026020016040519081016040528092919081815260200182805461100c906127b2565b80156110595780601f1061102e57610100808354040283529160200191611059565b820191906000526020600020905b81548152906001019060200180831161103c57829003601f168201915b50505050508152602001600282018054611072906127b2565b80601f016020809104026020016040519081016040528092919081815260200182805461109e906127b2565b80156110eb5780601f106110c0576101008083540402835291602001916110eb565b820191906000526020600020905b8154815290600101906020018083116110ce57829003601f168201915b505050505081526020016003820154815260200160048201548152505090506000600782600001516040516111209190612e27565b90815260200160405180910390208054611139906127b2565b80601f0160208091040260200160405190810160405280929190818152602001828054611165906127b2565b80156111b25780601f10611187576101008083540402835291602001916111b2565b820191906000526020600020905b81548152906001019060200180831161119557829003601f168201915b50505050509050600082600001518360000151846020015185604001516111dc87606001516119ee565b87602001518860400151886040516020016111fe9897969594939291906132b2565b6040516020818303038152906040529050600061121a82611abc565b90508060405160200161122d919061342b565b604051602081830303815290604052945050505050919050565b60008054906101000a900473ffffffffffffffffffffffffffffffffffffffff1681565b600073ffffffffffffffffffffffffffffffffffffffff166008600083815260200190815260200160002060009054906101000a900473ffffffffffffffffffffffffffffffffffffffff1673ffffffffffffffffffffffffffffffffffffffff160361130d576040517f08c379a000000000000000000000000000000000000000000000000000000000815260040161130490612dcb565b60405180910390fd5b3373ffffffffffffffffffffffffffffffffffffffff166008600083815260200190815260200160002060009054906101000a900473ffffffffffffffffffffffffffffffffffffffff1673ffffffffffffffffffffffffffffffffffffffff16036113ae576040517f08c379a00000000000000000000000000000000000000000000000000000000081526004016113a590613499565b60405180910390fd5b6113ec6008600083815260200190815260200160002060009054906101000a900473ffffffffffffffffffffffffffffffffffffffff163383611c34565b50565b600c6020528160005260406000206020528060005260406000206000915091509054906101000a900460ff1681565b6007818051602081018201805184825260208301602085012081835280955050505050506000915090508054611453906127b2565b80601f016020809104026020016040519081016040528092919081815260200182805461147f906127b2565b80156114cc5780601f106114a1576101008083540402835291602001916114cc565b820191906000526020600020905b8154815290600101906020018083116114af57829003601f168201915b505050505081565b60066020528060005260406000206000915090508060000180546114f7906127b2565b80601f0160208091040260200160405190810160405280929190818152602001828054611523906127b2565b80156115705780601f1061154557610100808354040283529160200191611570565b820191906000526020600020905b81548152906001019060200180831161155357829003601f168201915b505050505090806001018054611585906127b2565b80601f01602080910402602001604051908101604052809291908181526020018280546115b1906127b2565b80156115fe5780601f106115d3576101008083540402835291602001916115fe565b820191906000526020600020905b8154815290600101906020018083116115e157829003601f168201915b505050505090806002018054611613906127b2565b80601f016020809104026020016040519081016040528092919081815260200182805461163f906127b2565b801561168c5780601f106116615761010080835404028352916020019161168c565b820191906000526020600020905b81548152906001019060200180831161166f57829003601f168201915b5050505050908060030154908060040154905085565b60008373ffffffffffffffffffffffffffffffffffffffff168373ffffffffffffffffffffffffffffffffffffffff1614806117645750600c60008573ffffffffffffffffffffffffffffffffffffffff1673ffffffffffffffffffffffffffffffffffffffff16815260200190815260200160002060008473ffffffffffffffffffffffffffffffffffffffff1673ffffffffffffffffffffffffffffffffffffffff16815260200190815260200160002060009054906101000a900460ff165b806117cd5750600b600083815260200190815260200160002060009054906101000a900473ffffffffffffffffffffffffffffffffffffffff1673ffffffffffffffffffffffffffffffffffffffff168373ffffffffffffffffffffffffffffffffffffffff16145b90509392505050565b600073ffffffffffffffffffffffffffffffffffffffff168273ffffffffffffffffffffffffffffffffffffffff1603611845576040517f08c379a000000000000000000000000000000000000000000000000000000000815260040161183c90613505565b60405180910390fd5b600073ffffffffffffffffffffffffffffffffffffffff166008600083815260200190815260200160002060009054906101000a900473ffffffffffffffffffffffffffffffffffffffff1673ffffffffffffffffffffffffffffffffffffffff16146118e7576040517f08c379a00000000000000000000000000000000000000000000000000000000081526004016118de90613571565b60405180910390fd5b600a60008373ffffffffffffffffffffffffffffffffffffffff1673ffffffffffffffffffffffffffffffffffffffff168152602001908152602001600020600081548092919061193790612bf3565b9190505550816008600083815260200190815260200160002060006101000a81548173ffffffffffffffffffffffffffffffffffffffff021916908373ffffffffffffffffffffffffffffffffffffffff160217905550808273ffffffffffffffffffffffffffffffffffffffff16600073ffffffffffffffffffffffffffffffffffffffff167fddf252ad1be2c89b69c2b068fc378daa952ba7f163c4a11628f55a4df523b3ef60405160405180910390a45050565b6060600060016119fd84611ed6565b01905060008167ffffffffffffffff811115611a1c57611a1b6121f7565b5b6040519080825280601f01601f191660200182016040528015611a4e5781602001600182028036833780820191505090505b509050600082602001820190505b600115611ab1578080600190039150507f3031323334353637383961626364656600000000000000000000000000000000600a86061a8153600a8581611aa557611aa4613591565b5b04945060008503611a5c575b819350505050919050565b60606000825103611ade57604051806020016040528060008152509050611c2f565b60006040518060600160405280604081526020016136686040913990506000600360028551611b0d91906135c0565b611b1791906135f4565b6004611b239190613625565b90506000602082611b3491906135c0565b67ffffffffffffffff811115611b4d57611b4c6121f7565b5b6040519080825280601f01601f191660200182016040528015611b7f5781602001600182028036833780820191505090505b509050818152600183018586518101602084015b81831015611bee576003830192508251603f8160121c168501518253600182019150603f81600c1c168501518253600182019150603f8160061c168501518253600182019150603f8116850151825360018201915050611b93565b600389510660018114611c085760028114611c1857611c23565b613d3d60f01b6002830352611c23565b603d60f81b60018303525b50505050508093505050505b919050565b6008600082815260200190815260200160002060009054906101000a900473ffffffffffffffffffffffffffffffffffffffff1673ffffffffffffffffffffffffffffffffffffffff168373ffffffffffffffffffffffffffffffffffffffff1614611cd5576040517f08c379a0000000000000000000000000000000000000000000000000000000008152600401611ccc90612b0f565b60405180910390fd5b600073ffffffffffffffffffffffffffffffffffffffff168273ffffffffffffffffffffffffffffffffffffffff1603611d44576040517f08c379a0000000000000000000000000000000000000000000000000000000008152600401611d3b90612b7b565b60405180910390fd5b600a60008473ffffffffffffffffffffffffffffffffffffffff1673ffffffffffffffffffffffffffffffffffffffff1681526020019081526020016000206000815480929190611d9490612bca565b9190505550600a60008373ffffffffffffffffffffffffffffffffffffffff1673ffffffffffffffffffffffffffffffffffffffff1681526020019081526020016000206000815480929190611de990612bf3565b9190505550816008600083815260200190815260200160002060006101000a81548173ffffffffffffffffffffffffffffffffffffffff021916908373ffffffffffffffffffffffffffffffffffffffff160217905550600b600082815260200190815260200160002060006101000a81549073ffffffffffffffffffffffffffffffffffffffff0219169055808273ffffffffffffffffffffffffffffffffffffffff168473ffffffffffffffffffffffffffffffffffffffff167fddf252ad1be2c89b69c2b068fc378daa952ba7f163c4a11628f55a4df523b3ef60405160405180910390a4505050565b600080600090507a184f03e93ff9f4daa797ed6e38ed64bf6a1f0100000000000000008310611f34577a184f03e93ff9f4daa797ed6e38ed64bf6a1f0100000000000000008381611f2a57611f29613591565b5b0492506040810190505b6d04ee2d6d415b85acef81000000008310611f71576d04ee2d6d415b85acef81000000008381611f6757611f66613591565b5b0492506020810190505b662386f26fc100008310611fa057662386f26fc100008381611f9657611f95613591565b5b0492506010810190505b6305f5e1008310611fc9576305f5e1008381611fbf57611fbe613591565b5b0492506008810190505b6127108310611fee576127108381611fe457611fe3613591565b5b0492506004810190505b60648310612011576064838161200757612006613591565b5b0492506002810190505b600a8310612020576001810190505b80915050919050565b600081519050919050565b600082825260208201905092915050565b60005b83811015612063578082015181840152602081019050612048565b60008484015250505050565b6000601f19601f8301169050919050565b600061208b82612029565b6120958185612034565b93506120a5818560208601612045565b6120ae8161206f565b840191505092915050565b600060208201905081810360008301526120d38184612080565b905092915050565b6000604051905090565b600080fd5b600080fd5b600073ffffffffffffffffffffffffffffffffffffffff82169050919050565b600061211a826120ef565b9050919050565b61212a8161210f565b811461213557600080fd5b50565b60008135905061214781612121565b92915050565b6000819050919050565b6121608161214d565b811461216b57600080fd5b50565b60008135905061217d81612157565b92915050565b6000806040838503121561219a576121996120e5565b5b60006121a885828601612138565b92505060206121b98582860161216e565b9150509250929050565b6121cc8161214d565b82525050565b60006020820190506121e760008301846121c3565b92915050565b600080fd5b600080fd5b7f4e487b7100000000000000000000000000000000000000000000000000000000600052604160045260246000fd5b61222f8261206f565b810181811067ffffffffffffffff8211171561224e5761224d6121f7565b5b80604052505050565b60006122616120db565b905061226d8282612226565b919050565b600067ffffffffffffffff82111561228d5761228c6121f7565b5b6122968261206f565b9050602081019050919050565b82818337600083830152505050565b60006122c56122c084612272565b612257565b9050828152602081018484840111156122e1576122e06121f2565b5b6122ec8482856122a3565b509392505050565b600082601f830112612309576123086121ed565b5b81356123198482602086016122b2565b91505092915050565b60008060408385031215612339576123386120e5565b5b60006123478582860161216e565b925050602083013567ffffffffffffffff811115612368576123676120ea565b5b612374858286016122f4565b9150509250929050565b600080600060608486031215612397576123966120e5565b5b60006123a586828701612138565b93505060206123b686828701612138565b92505060406123c78682870161216e565b9150509250925092565b6000602082840312156123e7576123e66120e5565b5b60006123f58482850161216e565b91505092915050565b6124078161210f565b82525050565b600060208201905061242260008301846123fe565b92915050565b60006020828403121561243e5761243d6120e5565b5b600061244c84828501612138565b91505092915050565b6000806040838503121561246c5761246b6120e5565b5b600061247a8582860161216e565b925050602061248b8582860161216e565b9150509250929050565b60008115159050919050565b6124aa81612495565b81146124b557600080fd5b50565b6000813590506124c7816124a1565b92915050565b600080604083850312156124e4576124e36120e5565b5b60006124f285828601612138565b9250506020612503858286016124b8565b9150509250929050565b60008060008060008060c0878903121561252a576125296120e5565b5b600061253889828a01612138565b965050602087013567ffffffffffffffff811115612559576125586120ea565b5b61256589828a016122f4565b955050604087013567ffffffffffffffff811115612586576125856120ea565b5b61259289828a016122f4565b945050606087013567ffffffffffffffff8111156125b3576125b26120ea565b5b6125bf89828a016122f4565b93505060806125d089828a0161216e565b92505060a06125e189828a0161216e565b9150509295509295509295565b6000819050919050565b600061261361260e612609846120ef565b6125ee565b6120ef565b9050919050565b6000612625826125f8565b9050919050565b60006126378261261a565b9050919050565b6126478161262c565b82525050565b6000602082019050612662600083018461263e565b92915050565b6000806040838503121561267f5761267e6120e5565b5b600061268d85828601612138565b925050602061269e85828601612138565b9150509250929050565b6126b181612495565b82525050565b60006020820190506126cc60008301846126a8565b92915050565b6000602082840312156126e8576126e76120e5565b5b600082013567ffffffffffffffff811115612706576127056120ea565b5b612712848285016122f4565b91505092915050565b600060a08201905081810360008301526127358188612080565b905081810360208301526127498187612080565b9050818103604083015261275d8186612080565b905061276c60608301856121c3565b61277960808301846121c3565b9695505050505050565b7f4e487b7100000000000000000000000000000000000000000000000000000000600052602260045260246000fd5b600060028204905060018216806127ca57607f821691505b6020821081036127dd576127dc612783565b5b50919050565b7f6e6f7420617574686f72697a6564000000000000000000000000000000000000600082015250565b6000612819600e83612034565b9150612824826127e3565b602082019050919050565b600060208201905081810360008301526128488161280c565b9050919050565b60008190508160005260206000209050919050565b60006020601f8301049050919050565b600082821b905092915050565b6000600883026128b17fffffffffffffffffffffffffffffffffffffffffffffffffffffffffffffffff82612874565b6128bb8683612874565b95508019841693508086168417925050509392505050565b60006128ee6128e96128e48461214d565b6125ee565b61214d565b9050919050565b6000819050919050565b612908836128d3565b61291c612914826128f5565b848454612881565b825550505050565b600090565b612931612924565b61293c8184846128ff565b505050565b5b8181101561296057612955600082612929565b600181019050612942565b5050565b601f8211156129a5576129768161284f565b61297f84612864565b8101602085101561298e578190505b6129a261299a85612864565b830182612941565b50505b505050565b600082821c905092915050565b60006129c8600019846008026129aa565b1980831691505092915050565b60006129e183836129b7565b9150826002028217905092915050565b6129fa82612029565b67ffffffffffffffff811115612a1357612a126121f7565b5b612a1d82546127b2565b612a28828285612964565b600060209050601f831160018114612a5b5760008415612a49578287015190505b612a5385826129d5565b865550612abb565b601f198416612a698661284f565b60005b82811015612a9157848901518255600182019150602085019450602081019050612a6c565b86831015612aae5784890151612aaa601f8916826129b7565b8355505b6001600288020188555050505b505050505050565b7f66726f6d20213d206f776e657200000000000000000000000000000000000000600082015250565b6000612af9600d83612034565b9150612b0482612ac3565b602082019050919050565b60006020820190508181036000830152612b2881612aec565b9050919050565b7f7472616e7366657220746f207a65726f20616464726573730000000000000000600082015250565b6000612b65601883612034565b9150612b7082612b2f565b602082019050919050565b60006020820190508181036000830152612b9481612b58565b9050919050565b7f4e487b7100000000000000000000000000000000000000000000000000000000600052601160045260246000fd5b6000612bd58261214d565b915060008203612be857612be7612b9b565b5b600182039050919050565b6000612bfe8261214d565b91507fffffffffffffffffffffffffffffffffffffffffffffffffffffffffffffffff8203612c3057612c2f612b9b565b5b600182019050919050565b7f746f6b656e20646f65736e277420657869737400000000000000000000000000600082015250565b6000612c71601383612034565b9150612c7c82612c3b565b602082019050919050565b60006020820190508181036000830152612ca081612c64565b9050919050565b7f6f776e6572203d207a65726f2061646472657373000000000000000000000000600082015250565b6000612cdd601483612034565b9150612ce882612ca7565b602082019050919050565b60006020820190508181036000830152612d0c81612cd0565b9050919050565b7f4d617820737570706c7920726561636865640000000000000000000000000000600082015250565b6000612d49601283612034565b9150612d5482612d13565b602082019050919050565b60006020820190508181036000830152612d7881612d3c565b9050919050565b7f546f6b656e20646f6573206e6f74206578697374000000000000000000000000600082015250565b6000612db5601483612034565b9150612dc082612d7f565b602082019050919050565b60006020820190508181036000830152612de481612da8565b9050919050565b600081905092915050565b6000612e0182612029565b612e0b8185612deb565b9350612e1b818560208601612045565b80840191505092915050565b6000612e338284612df6565b915081905092915050565b7f7b00000000000000000000000000000000000000000000000000000000000000600082015250565b6000612e74600183612deb565b9150612e7f82612e3e565b600182019050919050565b7f226e616d65223a20220000000000000000000000000000000000000000000000600082015250565b6000612ec0600983612deb565b9150612ecb82612e8a565b600982019050919050565b7f222c000000000000000000000000000000000000000000000000000000000000600082015250565b6000612f0c600283612deb565b9150612f1782612ed6565b600282019050919050565b7f226465736372697074696f6e223a202200000000000000000000000000000000600082015250565b6000612f58601083612deb565b9150612f6382612f22565b601082019050919050565b7f20706c6179732000000000000000000000000000000000000000000000000000600082015250565b6000612fa4600783612deb565b9150612faf82612f6e565b600782019050919050565b7f20666f7220746865200000000000000000000000000000000000000000000000600082015250565b6000612ff0600983612deb565b9150612ffb82612fba565b600982019050919050565b7f2e20000000000000000000000000000000000000000000000000000000000000600082015250565b600061303c600283612deb565b915061304782613006565b600282019050919050565b7f46616e7461737920506f696e74733a2000000000000000000000000000000000600082015250565b6000613088601083612deb565b915061309382613052565b601082019050919050565b7f506f736974696f6e3a2000000000000000000000000000000000000000000000600082015250565b60006130d4600a83612deb565b91506130df8261309e565b600a82019050919050565b7f5465616d3a200000000000000000000000000000000000000000000000000000600082015250565b6000613120600683612deb565b915061312b826130ea565b600682019050919050565b7f2e22000000000000000000000000000000000000000000000000000000000000600082015250565b600061316c600283612deb565b915061317782613136565b600282019050919050565b7f2c00000000000000000000000000000000000000000000000000000000000000600082015250565b60006131b8600183612deb565b91506131c382613182565b600182019050919050565b7f22696d616765223a202200000000000000000000000000000000000000000000600082015250565b6000613204600a83612deb565b915061320f826131ce565b600a82019050919050565b7f2200000000000000000000000000000000000000000000000000000000000000600082015250565b6000613250600183612deb565b915061325b8261321a565b600182019050919050565b7f7d00000000000000000000000000000000000000000000000000000000000000600082015250565b600061329c600183612deb565b91506132a782613266565b600182019050919050565b60006132bd82612e67565b91506132c882612eb3565b91506132d4828b612df6565b91506132df82612eff565b91506132ea82612f4b565b91506132f6828a612df6565b915061330182612f97565b915061330d8289612df6565b915061331882612fe3565b91506133248288612df6565b915061332f8261302f565b915061333a8261307b565b91506133468287612df6565b91506133518261302f565b915061335c826130c7565b91506133688286612df6565b91506133738261302f565b915061337e82613113565b915061338a8285612df6565b91506133958261315f565b91506133a0826131ab565b91506133ab826131f7565b91506133b78284612df6565b91506133c282613243565b91506133cd8261328f565b91508190509998505050505050505050565b7f646174613a6170706c69636174696f6e2f6a736f6e3b6261736536342c000000600082015250565b6000613415601d83612deb565b9150613420826133df565b601d82019050919050565b600061343682613408565b91506134428284612df6565b915081905092915050565b7f596f7520616c7265616479206f776e2074686973204e46540000000000000000600082015250565b6000613483601883612034565b915061348e8261344d565b602082019050919050565b600060208201905081810360008301526134b281613476565b9050919050565b7f6d696e7420746f207a65726f2061646472657373000000000000000000000000600082015250565b60006134ef601483612034565b91506134fa826134b9565b602082019050919050565b6000602082019050818103600083015261351e816134e2565b9050919050565b7f616c7265616479206d696e746564000000000000000000000000000000000000600082015250565b600061355b600e83612034565b915061356682613525565b602082019050919050565b6000602082019050818103600083015261358a8161354e565b9050919050565b7f4e487b7100000000000000000000000000000000000000000000000000000000600052601260045260246000fd5b60006135cb8261214d565b91506135d68361214d565b92508282019050808211156135ee576135ed612b9b565b5b92915050565b60006135ff8261214d565b915061360a8361214d565b92508261361a57613619613591565b5b828204905092915050565b60006136308261214d565b915061363b8361214d565b92508282026136498161214d565b915082820484148315176136605761365f612b9b565b5b509291505056fe4142434445464748494a4b4c4d4e4f505152535455565758595a6162636465666768696a6b6c6d6e6f707172737475767778797a303132333435363738392b2fa2646970667358221220a966c37328e6379dcbb37c0fd476dff36a58e41ef639d77f0c674b505427f57a64736f6c6343000814003368747470733a2f2f77686974652d717569636b2d6775616e2d3331342e6d7970696e6174612e636c6f75642f697066732f6261667962656964326964747a6d6874356e65777072633777683368693537633466756c68376c75637837657070367a70726e61376e70636766652f73617175616e2d6261726b6c65792e6a706768747470733a2f2f77686974652d717569636b2d6775616e2d3331342e6d7970696e6174612e636c6f75642f697066732f6261667962656964326964747a6d6874356e65777072633777683368693537633466756c68376c75637837657070367a70726e61376e70636766652f6a6f73682d616c6c656e2e6a706768747470733a2f2f77686974652d717569636b2d6775616e2d3331342e6d7970696e6174612e636c6f75642f697066732f6261667962656964326964747a6d6874356e65777072633777683368693537633466756c68376c75637837657070367a70726e61376e70636766652f73616d2d6c61706f7274612e6a706768747470733a2f2f77686974652d717569636b2d6775616e2d3331342e6d7970696e6174612e636c6f75642f697066732f6261667962656964326964747a6d6874356e65777072633777683368693537633466756c68376c75637837657070367a70726e61376e70636766652f6d616c696b2d6e61626572732e6a706768747470733a2f2f77686974652d717569636b2d6775616e2d3331342e6d7970696e6174612e636c6f75642f697066732f6261667962656964326964747a6d6874356e65777072633777683368693537633466756c68376c75637837657070367a70726e61376e70636766652f7061747269636b2d6d61686f6d65732e6a706768747470733a2f2f77686974652d717569636b2d6775616e2d3331342e6d7970696e6174612e636c6f75642f697066732f6261667962656964326964747a6d6874356e65777072633777683368693537633466756c68376c75637837657070367a70726e61376e70636766652f62726f636b2d626f776572732e6a706768747470733a2f2f77686974652d717569636b2d6775616e2d3331342e6d7970696e6174612e636c6f75642f697066732f6261667962656964326964747a6d6874356e65777072633777683368693537633466756c68376c75637837657070367a70726e61376e70636766652f6a757374696e2d6a6566666572736f6e2e6a706768747470733a2f2f77686974652d717569636b2d6775616e2d3331342e6d7970696e6174612e636c6f75642f697066732f6261667962656964326964747a6d6874356e65777072633777683368693537633466756c68376c75637837657070367a70726e61376e70636766652f6465727269636b2d68656e72792e6a7067",
  "linkReferences": {},
  "deployedLinkReferences": {}
}