{
  "_format": "hh-sol-artifact-1",
  "contractName": "YODA",
  "sourceName": "contracts/Yoda.sol",
  "abi": [
    {
      "inputs": [
        {
          "internalType": "string",
          "name": "_name",
          "type": "string"
        },
        {
          "internalType": "string",
          "name": "_symbol",
          "type": "string"
        },
        {
          "internalType": "uint256",
          "name": "_initialSupply",
          "type": "uint256"
        }
      ],
      "stateMutability": "nonpayable",
      "type": "constructor"
    },
    {
      "anonymous": false,
      "inputs": [
        {
          "indexed": true,
          "internalType": "address",
          "name": "owner",
          "type": "address"
        },
        {
          "indexed": true,
          "internalType": "address",
          "name": "spender",
          "type": "address"
        },
        {
          "indexed": false,
          "internalType": "uint256",
          "name": "value",
          "type": "uint256"
        }
      ],
      "name": "Approval",
      "type": "event"
    },
    {
      "anonymous": false,
      "inputs": [
        {
          "indexed": true,
          "internalType": "address",
          "name": "from",
          "type": "address"
        },
        {
          "indexed": true,
          "internalType": "address",
          "name": "to",
          "type": "address"
        },
        {
          "indexed": false,
          "internalType": "uint256",
          "name": "value",
          "type": "uint256"
        }
      ],
      "name": "Transfer",
      "type": "event"
    },
    {
      "inputs": [
        {
          "internalType": "address",
          "name": "",
          "type": "address"
        },
        {
          "internalType": "address",
          "name": "",
          "type": "address"
        }
      ],
      "name": "allowance",
      "outputs": [
        {
          "internalType": "uint256",
          "name": "",
          "type": "uint256"
        }
      ],
      "stateMutability": "view",
      "type": "function"
    },
    {
      "inputs": [
        {
          "internalType": "address",
          "name": "_spender",
          "type": "address"
        },
        {
          "internalType": "uint256",
          "name": "_value",
          "type": "uint256"
        }
      ],
      "name": "approve",
      "outputs": [
        {
          "internalType": "bool",
          "name": "success",
          "type": "bool"
        }
      ],
      "stateMutability": "nonpayable",
      "type": "function"
    },
    {
      "inputs": [
        {
          "internalType": "address",
          "name": "_address",
          "type": "address"
        }
      ],
      "name": "authorizeFirstTransfer",
      "outputs": [],
      "stateMutability": "nonpayable",
      "type": "function"
    },
    {
      "inputs": [
        {
          "internalType": "address",
          "name": "",
          "type": "address"
        }
      ],
      "name": "authorizedFirstTransfer",
      "outputs": [
        {
          "internalType": "bool",
          "name": "",
          "type": "bool"
        }
      ],
      "stateMutability": "view",
      "type": "function"
    },
    {
      "inputs": [
        {
          "internalType": "address",
          "name": "",
          "type": "address"
        }
      ],
      "name": "balanceOf",
      "outputs": [
        {
          "internalType": "uint256",
          "name": "",
          "type": "uint256"
        }
      ],
      "stateMutability": "view",
      "type": "function"
    },
    {
      "inputs": [],
      "name": "decimals",
      "outputs": [
        {
          "internalType": "uint8",
          "name": "",
          "type": "uint8"
        }
      ],
      "stateMutability": "view",
      "type": "function"
    },
    {
      "inputs": [],
      "name": "name",
      "outputs": [
        {
          "internalType": "string",
          "name": "",
          "type": "string"
        }
      ],
      "stateMutability": "view",
      "type": "function"
    },
    {
      "inputs": [],
      "name": "owner",
      "outputs": [
        {
          "internalType": "address",
          "name": "",
          "type": "address"
        }
      ],
      "stateMutability": "view",
      "type": "function"
    },
    {
      "inputs": [],
      "name": "sendMeFunds",
      "outputs": [
        {
          "internalType": "bool",
          "name": "success",
          "type": "bool"
        }
      ],
      "stateMutability": "nonpayable",
      "type": "function"
    },
    {
      "inputs": [],
      "name": "symbol",
      "outputs": [
        {
          "internalType": "string",
          "name": "",
          "type": "string"
        }
      ],
      "stateMutability": "view",
      "type": "function"
    },
    {
      "inputs": [],
      "name": "totalSupply",
      "outputs": [
        {
          "internalType": "uint256",
          "name": "",
          "type": "uint256"
        }
      ],
      "stateMutability": "view",
      "type": "function"
    },
    {
      "inputs": [
        {
          "internalType": "address",
          "name": "_to",
          "type": "address"
        },
        {
          "internalType": "uint256",
          "name": "_value",
          "type": "uint256"
        }
      ],
      "name": "transfer",
      "outputs": [
        {
          "internalType": "bool",
          "name": "success",
          "type": "bool"
        }
      ],
      "stateMutability": "nonpayable",
      "type": "function"
    },
    {
      "inputs": [
        {
          "internalType": "address",
          "name": "_from",
          "type": "address"
        },
        {
          "internalType": "address",
          "name": "_to",
          "type": "address"
        },
        {
          "internalType": "uint256",
          "name": "_value",
          "type": "uint256"
        }
      ],
      "name": "transferFrom",
      "outputs": [
        {
          "internalType": "bool",
          "name": "success",
          "type": "bool"
        }
      ],
      "stateMutability": "nonpayable",
      "type": "function"
    }
  ],
  "bytecode": "0x60806040523480156200001157600080fd5b5060405162000dd538038062000dd5833981016040819052620000349162000163565b600062000042848262000265565b50600162000051838262000265565b506002805460ff1916811790556200006b81606462000331565b6003819055600480546001600160a01b03191633908117909155600090815260056020526040902055506200035d915050565b634e487b7160e01b600052604160045260246000fd5b600082601f830112620000c657600080fd5b81516001600160401b0380821115620000e357620000e36200009e565b604051601f8301601f19908116603f011681019082821181831017156200010e576200010e6200009e565b816040528381526020925086838588010111156200012b57600080fd5b600091505b838210156200014f578582018301518183018401529082019062000130565b600093810190920192909252949350505050565b6000806000606084860312156200017957600080fd5b83516001600160401b03808211156200019157600080fd5b6200019f87838801620000b4565b94506020860151915080821115620001b657600080fd5b50620001c586828701620000b4565b925050604084015190509250925092565b600181811c90821680620001eb57607f821691505b6020821081036200020c57634e487b7160e01b600052602260045260246000fd5b50919050565b601f8211156200026057600081815260208120601f850160051c810160208610156200023b5750805b601f850160051c820191505b818110156200025c5782815560010162000247565b5050505b505050565b81516001600160401b038111156200028157620002816200009e565b6200029981620002928454620001d6565b8462000212565b602080601f831160018114620002d15760008415620002b85750858301515b600019600386901b1c1916600185901b1785556200025c565b600085815260208120601f198616915b828110156200030257888601518255948401946001909101908401620002e1565b5085821015620003215787850151600019600388901b60f8161c191681555b5050505050600190811b01905550565b80820281158282048414176200035757634e487b7160e01b600052601160045260246000fd5b92915050565b610a68806200036d6000396000f3fe608060405234801561001057600080fd5b50600436106100cf5760003560e01c806370a082311161008c578063a9059cbb11610066578063a9059cbb146101d4578063b7b91cae146101e7578063dd62ed3e146101ef578063f8518f8f1461021a57600080fd5b806370a08231146101815780638da5cb5b146101a157806395d89b41146101cc57600080fd5b806306fdde03146100d4578063095ea7b3146100f257806318160ddd1461011557806323b872dd1461012c578063313ce5671461013f5780635e8e72f31461015e575b600080fd5b6100dc61022f565b6040516100e9919061086e565b60405180910390f35b6101056101003660046108d8565b6102bd565b60405190151581526020016100e9565b61011e60035481565b6040519081526020016100e9565b61010561013a366004610902565b610354565b60025461014c9060ff1681565b60405160ff90911681526020016100e9565b61010561016c36600461093e565b60076020526000908152604090205460ff1681565b61011e61018f36600461093e565b60056020526000908152604090205481565b6004546101b4906001600160a01b031681565b6040516001600160a01b0390911681526020016100e9565b6100dc61052c565b6101056101e23660046108d8565b610539565b610105610643565b61011e6101fd366004610960565b600660209081526000928352604080842090915290825290205481565b61022d61022836600461093e565b6107e0565b005b6000805461023c90610993565b80601f016020809104026020016040519081016040528092919081815260200182805461026890610993565b80156102b55780601f1061028a576101008083540402835291602001916102b5565b820191906000526020600020905b81548152906001019060200180831161029857829003601f168201915b505050505081565b60006001600160a01b0383166102ee5760405162461bcd60e51b81526004016102e5906109cd565b60405180910390fd5b3360008181526006602090815260408083206001600160a01b03881680855290835292819020869055518581529192917f8c5be1e5ebec7d5bd14f71427d1e84f3dd0314c0f7b2291e5b200ac8c7c3b92591015b60405180910390a35060015b92915050565b6001600160a01b0383166000908152600560205260408120548211156103b35760405162461bcd60e51b8152602060048201526014602482015273496e73756666696369656e742062616c616e636560601b60448201526064016102e5565b6001600160a01b0383166103d95760405162461bcd60e51b81526004016102e5906109cd565b6001600160a01b03841660009081526006602090815260408083203384529091529020548211156104415760405162461bcd60e51b8152602060048201526012602482015271105b1b1bddd85b98d948195e18d95959195960721b60448201526064016102e5565b6001600160a01b03841660009081526005602052604081208054849290610469908490610a0c565b90915550506001600160a01b03831660009081526005602052604081208054849290610496908490610a1f565b90915550506001600160a01b0384166000908152600660209081526040808320338452909152812080548492906104ce908490610a0c565b92505081905550826001600160a01b0316846001600160a01b03167fddf252ad1be2c89b69c2b068fc378daa952ba7f163c4a11628f55a4df523b3ef8460405161051a91815260200190565b60405180910390a35060019392505050565b6001805461023c90610993565b3360009081526005602052604081205482111561058f5760405162461bcd60e51b8152602060048201526014602482015273496e73756666696369656e742062616c616e636560601b60448201526064016102e5565b6001600160a01b0383166105b55760405162461bcd60e51b81526004016102e5906109cd565b33600090815260056020526040812080548492906105d4908490610a0c565b90915550506001600160a01b03831660009081526005602052604081208054849290610601908490610a1f565b90915550506040518281526001600160a01b0384169033907fddf252ad1be2c89b69c2b068fc378daa952ba7f163c4a11628f55a4df523b3ef90602001610342565b3360009081526007602052604081205460ff1615156001146106b75760405162461bcd60e51b815260206004820152602760248201527f546f6b656e7320616c7265616479207265636965766564206f7220556e6175746044820152661a1bdc9a5e995960ca1b60648201526084016102e5565b6004546001600160a01b0316600090815260056020526040902054620f424011156107245760405162461bcd60e51b815260206004820152601a60248201527f496e73756666696369656e74206f776e65722062616c616e636500000000000060448201526064016102e5565b6004546001600160a01b031660009081526005602052604081208054620f42409290610751908490610a0c565b90915550503360009081526005602052604081208054620f42409290610778908490610a1f565b909155505033600081815260076020908152604091829020805460ff191690556004549151620f424081526001600160a01b03909216917fddf252ad1be2c89b69c2b068fc378daa952ba7f163c4a11628f55a4df523b3ef910160405180910390a350600190565b6004546001600160a01b0316331461084a5760405162461bcd60e51b815260206004820152602760248201527f4f6e6c79206f776e65722063616e20617574686f72697a6520666972737420746044820152663930b739b332b960c91b60648201526084016102e5565b6001600160a01b03166000908152600760205260409020805460ff19166001179055565b600060208083528351808285015260005b8181101561089b5785810183015185820160400152820161087f565b506000604082860101526040601f19601f8301168501019250505092915050565b80356001600160a01b03811681146108d357600080fd5b919050565b600080604083850312156108eb57600080fd5b6108f4836108bc565b946020939093013593505050565b60008060006060848603121561091757600080fd5b610920846108bc565b925061092e602085016108bc565b9150604084013590509250925092565b60006020828403121561095057600080fd5b610959826108bc565b9392505050565b6000806040838503121561097357600080fd5b61097c836108bc565b915061098a602084016108bc565b90509250929050565b600181811c908216806109a757607f821691505b6020821081036109c757634e487b7160e01b600052602260045260246000fd5b50919050565b6020808252600f908201526e496e76616c6964206164647265737360881b604082015260600190565b634e487b7160e01b600052601160045260246000fd5b8181038181111561034e5761034e6109f6565b8082018082111561034e5761034e6109f656fea2646970667358221220d234f06c9b25bdfc32efaac9eebb87af56da41c9f4ef2ab8774638c92f3f48c364736f6c63430008140033",
  "linkReferences": {},
  "deployedLinkReferences": {}
}